{
  "_format": "hh-sol-artifact-1",
  "contractName": "UniswapV2Adapter",
  "sourceName": "src/adapters/UniswapV2Adapter.sol",
  "abi": [
    {
      "inputs": [
        {
          "internalType": "address",
          "name": "_router",
          "type": "address"
        },
        {
          "internalType": "address",
          "name": "_factory",
          "type": "address"
        },
        {
          "internalType": "address",
          "name": "_weth",
          "type": "address"
        }
      ],
      "stateMutability": "nonpayable",
      "type": "constructor"
    },
    {
      "inputs": [],
      "name": "ReentrancyGuardReentrantCall",
      "type": "error"
    },
    {
      "inputs": [
        {
          "internalType": "address",
          "name": "token",
          "type": "address"
        }
      ],
      "name": "SafeERC20FailedOperation",
      "type": "error"
    },
    {
      "anonymous": false,
      "inputs": [
        {
          "indexed": true,
          "internalType": "address",
          "name": "pool",
          "type": "address"
        },
        {
          "indexed": true,
          "internalType": "address",
          "name": "tokenA",
          "type": "address"
        },
        {
          "indexed": true,
          "internalType": "address",
          "name": "tokenB",
          "type": "address"
        },
        {
          "indexed": false,
          "internalType": "string",
          "name": "dexName",
          "type": "string"
        }
      ],
      "name": "LiquidityPoolRegistered",
      "type": "event"
    },
    {
      "anonymous": false,
      "inputs": [
        {
          "indexed": true,
          "internalType": "address",
          "name": "tokenIn",
          "type": "address"
        },
        {
          "indexed": true,
          "internalType": "address",
          "name": "tokenOut",
          "type": "address"
        },
        {
          "indexed": false,
          "internalType": "uint256",
          "name": "amountIn",
          "type": "uint256"
        },
        {
          "indexed": false,
          "internalType": "uint256",
          "name": "amountOut",
          "type": "uint256"
        },
        {
          "indexed": true,
          "internalType": "address",
          "name": "executor",
          "type": "address"
        }
      ],
      "name": "SwapExecuted",
      "type": "event"
    },
    {
      "inputs": [],
      "name": "BASIS_POINTS",
      "outputs": [
        {
          "internalType": "uint256",
          "name": "",
          "type": "uint256"
        }
      ],
      "stateMutability": "view",
      "type": "function"
    },
    {
      "inputs": [],
      "name": "DEX_NAME",
      "outputs": [
        {
          "internalType": "string",
          "name": "",
          "type": "string"
        }
      ],
      "stateMutability": "view",
      "type": "function"
    },
    {
      "inputs": [],
      "name": "SWAP_FEE",
      "outputs": [
        {
          "internalType": "uint256",
          "name": "",
          "type": "uint256"
        }
      ],
      "stateMutability": "view",
      "type": "function"
    },
    {
      "inputs": [],
      "name": "VERSION",
      "outputs": [
        {
          "internalType": "string",
          "name": "",
          "type": "string"
        }
      ],
      "stateMutability": "view",
      "type": "function"
    },
    {
      "inputs": [],
      "name": "WETH",
      "outputs": [
        {
          "internalType": "address",
          "name": "",
          "type": "address"
        }
      ],
      "stateMutability": "view",
      "type": "function"
    },
    {
      "inputs": [
        {
          "components": [
            {
              "internalType": "address",
              "name": "tokenIn",
              "type": "address"
            },
            {
              "internalType": "address",
              "name": "tokenOut",
              "type": "address"
            },
            {
              "internalType": "uint256",
              "name": "amountIn",
              "type": "uint256"
            },
            {
              "internalType": "uint256",
              "name": "amountOutMinimum",
              "type": "uint256"
            },
            {
              "internalType": "uint256",
              "name": "deadline",
              "type": "uint256"
            },
            {
              "internalType": "bytes",
              "name": "routeData",
              "type": "bytes"
            }
          ],
          "internalType": "struct SwapParams",
          "name": "params",
          "type": "tuple"
        }
      ],
      "name": "estimateGas",
      "outputs": [
        {
          "internalType": "uint256",
          "name": "gasEstimate",
          "type": "uint256"
        }
      ],
      "stateMutability": "view",
      "type": "function"
    },
    {
      "inputs": [],
      "name": "factory",
      "outputs": [
        {
          "internalType": "contract IUniswapV2Factory",
          "name": "",
          "type": "address"
        }
      ],
      "stateMutability": "view",
      "type": "function"
    },
    {
      "inputs": [
        {
          "internalType": "address",
          "name": "tokenA",
          "type": "address"
        },
        {
          "internalType": "address",
          "name": "tokenB",
          "type": "address"
        }
      ],
      "name": "getAvailablePools",
      "outputs": [
        {
          "internalType": "address[]",
          "name": "pools",
          "type": "address[]"
        },
        {
          "internalType": "uint256[][]",
          "name": "reserves",
          "type": "uint256[][]"
        }
      ],
      "stateMutability": "view",
      "type": "function"
    },
    {
      "inputs": [
        {
          "internalType": "address",
          "name": "tokenIn",
          "type": "address"
        },
        {
          "internalType": "address",
          "name": "tokenOut",
          "type": "address"
        },
        {
          "internalType": "uint256",
          "name": "amountIn",
          "type": "uint256"
        }
      ],
      "name": "getBestRoute",
      "outputs": [
        {
          "internalType": "bytes",
          "name": "route",
          "type": "bytes"
        },
        {
          "internalType": "uint256",
          "name": "expectedOutput",
          "type": "uint256"
        }
      ],
      "stateMutability": "view",
      "type": "function"
    },
    {
      "inputs": [],
      "name": "getDEXName",
      "outputs": [
        {
          "internalType": "string",
          "name": "name",
          "type": "string"
        }
      ],
      "stateMutability": "pure",
      "type": "function"
    },
    {
      "inputs": [
        {
          "components": [
            {
              "internalType": "address",
              "name": "tokenIn",
              "type": "address"
            },
            {
              "internalType": "address",
              "name": "tokenOut",
              "type": "address"
            },
            {
              "internalType": "uint256",
              "name": "amountIn",
              "type": "uint256"
            },
            {
              "internalType": "bytes",
              "name": "routeData",
              "type": "bytes"
            }
          ],
          "internalType": "struct QuoteParams",
          "name": "params",
          "type": "tuple"
        }
      ],
      "name": "getQuote",
      "outputs": [
        {
          "internalType": "uint256",
          "name": "amountOut",
          "type": "uint256"
        },
        {
          "internalType": "uint256",
          "name": "priceImpact",
          "type": "uint256"
        }
      ],
      "stateMutability": "view",
      "type": "function"
    },
    {
      "inputs": [
        {
          "internalType": "address",
          "name": "",
          "type": "address"
        },
        {
          "internalType": "address",
          "name": "",
          "type": "address"
        },
        {
          "internalType": "address",
          "name": "",
          "type": "address"
        }
      ],
      "name": "getSwapFee",
      "outputs": [
        {
          "internalType": "uint256",
          "name": "fee",
          "type": "uint256"
        }
      ],
      "stateMutability": "pure",
      "type": "function"
    },
    {
      "inputs": [],
      "name": "getVersion",
      "outputs": [
        {
          "internalType": "string",
          "name": "version",
          "type": "string"
        }
      ],
      "stateMutability": "pure",
      "type": "function"
    },
    {
      "inputs": [
        {
          "internalType": "address",
          "name": "tokenA",
          "type": "address"
        },
        {
          "internalType": "address",
          "name": "tokenB",
          "type": "address"
        }
      ],
      "name": "isTokenPairSupported",
      "outputs": [
        {
          "internalType": "bool",
          "name": "supported",
          "type": "bool"
        }
      ],
      "stateMutability": "view",
      "type": "function"
    },
    {
      "inputs": [],
      "name": "router",
      "outputs": [
        {
          "internalType": "contract IUniswapV2Router02",
          "name": "",
          "type": "address"
        }
      ],
      "stateMutability": "view",
      "type": "function"
    },
    {
      "inputs": [
        {
          "components": [
            {
              "internalType": "address",
              "name": "tokenIn",
              "type": "address"
            },
            {
              "internalType": "address",
              "name": "tokenOut",
              "type": "address"
            },
            {
              "internalType": "uint256",
              "name": "amountIn",
              "type": "uint256"
            },
            {
              "internalType": "uint256",
              "name": "amountOutMinimum",
              "type": "uint256"
            },
            {
              "internalType": "uint256",
              "name": "deadline",
              "type": "uint256"
            },
            {
              "internalType": "bytes",
              "name": "routeData",
              "type": "bytes"
            }
          ],
          "internalType": "struct SwapParams",
          "name": "params",
          "type": "tuple"
        }
      ],
      "name": "swap",
      "outputs": [
        {
          "internalType": "uint256",
          "name": "amountOut",
          "type": "uint256"
        }
      ],
      "stateMutability": "nonpayable",
      "type": "function"
    }
  ],
  "bytecode": "0x60e034620001d657601f620015c038819003918201601f191683019291906001600160401b03841183851017620001db578160609284926040968752833981010312620001d6576200005181620001f1565b6200006c836200006460208501620001f1565b9301620001f1565b6001600055916001600160a01b03918216908115620001935782169182156200014557831615620001015760805260a05260c052516113b990816200020782396080518181816101a0015281816102620152818161037b0152610952015260a0518181816106250152818161087c01528181610f420152818161110c01526111a2015260c051818181610a4901526110a90152f35b835162461bcd60e51b815260206004820152601e60248201527f556e69737761705632416461707465723a20496e76616c6964205745544800006044820152606490fd5b845162461bcd60e51b815260206004820152602160248201527f556e69737761705632416461707465723a20496e76616c696420666163746f726044820152607960f81b6064820152608490fd5b6064855162461bcd60e51b815260206004820152602060248201527f556e69737761705632416461707465723a20496e76616c696420726f757465726044820152fd5b600080fd5b634e487b7160e01b600052604160045260246000fd5b51906001600160a01b0382168203620001d65756fe60806040818152600436101561001457600080fd5b600091823560e01c9081630d601f2114610b5c575080630d8e6e2c14610b3c5780632be55ff814610b1b57806371204cff14610adb578063768aebde14610ac05780637839abec14610a78578063ad5c464814610a35578063bc94392214610a05578063bd8b8182146108ab578063c45a015514610868578063c522894c146105bd578063d0394e5c146102ad578063e1f1c4a714610291578063f887ea401461024e578063faa55b6d1461011d5763ffa1ad74146100d257600080fd5b346101195781600319360112610119578051610115916100f182610b79565b60058252640312e302e360dc1b602083015251918291602083526020830190610c21565b0390f35b5080fd5b50346101195760603660031901126101195761014861013a610c98565b610142610cae565b9061101d565b9161019c818351946020808701526101748661016687820184610cc4565b03601f198101885287610bff565b84518093819263d06ca61f60e01b835260443560048401528760248401526044830190610cc4565b03817f00000000000000000000000000000000000000000000000000000000000000006001600160a01b03165afa82918161022a575b506101f657505b6101ec8251938385948552840190610c21565b9060208301520390f35b805160001981019290831161021657509061021091610e66565b516101d9565b634e487b7160e01b81526011600452602490fd5b6102479192503d8085833e61023f8183610bff565b810190610db7565b90386101d2565b5034610119578160031936011261011957517f00000000000000000000000000000000000000000000000000000000000000006001600160a01b03168152602090f35b5034610119578160031936011261011957602090516127108152f35b5034610119576102bc36610c61565b9060028354146105ad576002835580820135916102da831515610d01565b426080820135106105695761030b6103066102f483610d4c565b61030060208501610d4c565b90610f01565b610d60565b6001600160a01b03908161031e82610d4c565b84516323b872dd60e01b602082015233602482015230604482015260648082018890528152911660a0820167ffffffffffffffff8111838210176105555785526103689190610e7a565b84806104318461037785610d4c565b16857f000000000000000000000000000000000000000000000000000000000000000016908751602081019160208663095ea7b360e01b948581528660248601528d6044860152604485526103cb85610be3565b84519082855af186513d82610539575b5050156104fe575b5050506103fe6103f286610d4c565b61014260208801610d4c565b87519485809481936338ed173960e01b83528c600484015260608a0135602484015260a0604484015260a4830190610cc4565b3360648301526080890135608483015203925af19081156104f45786916104da575b5080516000198101919082116104c657916104746001949260209894610e66565b51957fee4825a7988c5519a874be79f2a84d13d02cfe5f74cad97cda2d5b55d2b13bfa866104ac8a6104a586610d4c565b9501610d4c565b948151938452898b85015280339616941692a45551908152f35b634e487b7160e01b87526011600452602487fd5b6104ee91503d8088833e61023f8183610bff565b38610453565b84513d88823e3d90fd5b61052c610531938b519060208201528560248201528760448201526044815261052681610be3565b82610e7a565b610e7a565b3880806103e3565b90915061054d5750803b15155b38806103db565b600114610546565b634e487b7160e01b88526041600452602488fd5b815162461bcd60e51b815260206004820152601960248201527f556e69737761705632416461707465723a2045787069726564000000000000006044820152606490fd5b51633ee5aeb560e01b8152600490fd5b50346101195780600319360112610119576105d6610c98565b916106126105e2610cae565b835163e6a4390560e01b81526001600160a01b039586166004820152941660248501526020939081906044820190565b6001600160a01b039291869183919003817f000000000000000000000000000000000000000000000000000000000000000086165afa90811561085e578391610831575b50169081156108095782519161066b83610b79565b600183528436818501378351839161068282610b79565b6001825286845b8181106107f95750506060816004926106a28598610e33565b528751630240bc6b60e21b815292839182905afa80156107ef5761072161073794939261072792879188916107be575b5089516106de81610bc7565b600281528a368d8301376106f186610e33565b526106fb85610e33565b506001600160701b0380921661071961071387610e33565b51610e33565b521692610e33565b51610e56565b525b845194808652850190610cc4565b93838503818501528251908186528086019281808460051b890101950193815b8483106107645787870388f35b90919280949596601f198a820301845287519082808351928381520192019084905b8082106107a55750505090806001929801930193019194939290610757565b9193806001929486518152019401920187939291610786565b90506107e1915060603d81116107e8575b6107d98183610bff565b810190610fb5565b50386106d2565b503d6107cf565b86513d86823e3d90fd5b6060828286010152018790610689565b9050815161081681610bab565b81815290610737835161082881610bab565b82815292610729565b6108519150853d8711610857575b6108498183610bff565b810190610ee2565b38610656565b503d61083f565b84513d85823e3d90fd5b5034610119578160031936011261011957517f00000000000000000000000000000000000000000000000000000000000000006001600160a01b03168152602090f35b509034610a02576003196020368201126101195760043567ffffffffffffffff81116109fe576080816004019282360301126109fe576044810135906108f2821515610d01565b61090f610306602461090386610d4c565b93019261030084610d4c565b61094e8461092861091f86610d4c565b61014285610d4c565b87518093819263d06ca61f60e01b83528760048401528a60248401526044830190610cc4565b03817f00000000000000000000000000000000000000000000000000000000000000006001600160a01b03165afa8591816109e2575b5061099d57505050506127105b82519182526020820152f35b805193949293919260001983019283116102165750916109d76109c86109dd95936109d19795610e66565b51958694610d4c565b91610d4c565b90611164565b610991565b6109f79192503d8088833e61023f8183610bff565b9038610984565b8280fd5b80fd5b5034610119578060031936011261011957602090610a2c610a24610c98565b610300610cae565b90519015158152f35b5034610119578160031936011261011957517f00000000000000000000000000000000000000000000000000000000000000006001600160a01b03168152602090f35b5034610119578160031936011261011957805161011591610a9882610b79565b60098252682ab734b9bbb0b82b1960b91b602083015251918291602083526020830190610c21565b503461011957816003193601126101195760209051601e8152f35b503461011957606036600319011261011957610af5610c98565b50610afe610cae565b506044356001600160a01b038116036101195760209051601e8152f35b503461011957602090610b35610b3036610c61565b610feb565b9051908152f35b50346101195781600319360112610119578051610115916100f182610b79565b919050346109fe57826003193601126109fe576101159250610a98825b6040810190811067ffffffffffffffff821117610b9557604052565b634e487b7160e01b600052604160045260246000fd5b6020810190811067ffffffffffffffff821117610b9557604052565b6060810190811067ffffffffffffffff821117610b9557604052565b6080810190811067ffffffffffffffff821117610b9557604052565b90601f8019910116810190811067ffffffffffffffff821117610b9557604052565b919082519283825260005b848110610c4d575050826000602080949584010152601f8019910116010190565b602081830181015184830182015201610c2c565b60031990602081830112610c93576004359167ffffffffffffffff8311610c93578260c092030112610c935760040190565b600080fd5b600435906001600160a01b0382168203610c9357565b602435906001600160a01b0382168203610c9357565b90815180825260208080930193019160005b828110610ce4575050505090565b83516001600160a01b031685529381019392810192600101610cd6565b15610d0857565b606460405162461bcd60e51b815260206004820152602060248201527f556e69737761705632416461707465723a20496e76616c696420616d6f756e746044820152fd5b356001600160a01b0381168103610c935790565b15610d6757565b60405162461bcd60e51b815260206004820152602260248201527f556e69737761705632416461707465723a20556e737570706f7274656420706160448201526134b960f11b6064820152608490fd5b906020908183820312610c9357825167ffffffffffffffff93848211610c93570181601f82011215610c93578051938411610b95578360051b9060405194610e0185840187610bff565b85528380860192820101928311610c93578301905b828210610e24575050505090565b81518152908301908301610e16565b805115610e405760200190565b634e487b7160e01b600052603260045260246000fd5b805160011015610e405760400190565b8051821015610e405760209160051b010190565b906000602091828151910182855af115610ed6576000513d610ecd57506001600160a01b0381163b155b610eab5750565b604051635274afe760e01b81526001600160a01b039091166004820152602490fd5b60011415610ea4565b6040513d6000823e3d90fd5b90816020910312610c9357516001600160a01b0381168103610c935790565b6001600160a01b03919082811683831614610f995760405163e6a4390560e01b81526001600160a01b039182166004820152911660248201526020816044817f000000000000000000000000000000000000000000000000000000000000000086165afa908115610ed657600091610f7b575b5016151590565b610f93915060203d8111610857576108498183610bff565b38610f74565b505050600090565b51906001600160701b0382168203610c9357565b90816060910312610c9357610fc981610fa1565b916040610fd860208401610fa1565b92015163ffffffff81168103610c935790565b61100a906110046020610ffd83610d4c565b9201610d4c565b906110de565b1561101657620249f090565b6203d09090565b919061102981846110de565b1561106c576040519261103b84610bc7565b6002845260403660208601376110668461105481610e33565b6001600160a01b039384169052610e56565b91169052565b6040519061107982610be3565b600382526060366020840137819361109083610e33565b6001600160a01b0391821690526110a683610e56565b817f0000000000000000000000000000000000000000000000000000000000000000169052825160021015610e405760609116910152565b60405163e6a4390560e01b81526001600160a01b0391821660048201529181166024830152906020816044817f000000000000000000000000000000000000000000000000000000000000000086165afa908115610ed657600091610f7b575016151590565b811561114e570490565b634e487b7160e01b600052601260045260246000fd5b6040805163e6a4390560e01b81526001600160a01b0383811660048084019190915294811660248301529396959491939192602092909183816044817f000000000000000000000000000000000000000000000000000000000000000086165afa9081156113785790829160009161135b575b501694851561134d578051630240bc6b60e21b8152936060858b818a5afa96871561134257908a91600096879961131d575b508190845193848092630dfe168160e01b82525afa9283156113135750908392916000926112f6575b5050169116146000146112e3576001600160701b038091169216905b8181029181830414901517156112c2579061126891611144565b90808211156112d757808203908282116112c2576127108083029283041490831417156112ad5761129a929350611144565b905b6127108083116112a95750565b9150565b601184634e487b7160e01b6000525260246000fd5b601185634e487b7160e01b6000525260246000fd5b5050905060009061129c565b6001600160701b0392831692169061124e565b61130c9250803d10610857576108498183610bff565b3880611232565b513d6000823e3d90fd5b61133991995082975060603d81116107e8576107d98183610bff565b50989096611209565b82513d6000823e3d90fd5b506127109750505050505050565b6113729150853d8711610857576108498183610bff565b386111d7565b86513d6000823e3d90fdfea2646970667358221220ed3e8b3887dc7156ac8c8921cdacff629a319bb9d72995673b9613d2ad7e6c9164736f6c63430008140033",
  "linkReferences": {},
  "deployedLinkReferences": {}
}