{
  "_format": "hh-sol-artifact-1",
  "contractName": "PriceOracle",
  "sourceName": "contracts-new/PriceOracle.sol",
  "abi": [
    {
      "inputs": [
        {
          "internalType": "address",
          "name": "_weth",
          "type": "address"
        }
      ],
      "stateMutability": "nonpayable",
      "type": "constructor"
    },
    {
      "inputs": [],
      "name": "EnforcedPause",
      "type": "error"
    },
    {
      "inputs": [],
      "name": "ExpectedPause",
      "type": "error"
    },
    {
      "inputs": [
        {
          "internalType": "address",
          "name": "owner",
          "type": "address"
        }
      ],
      "name": "OwnableInvalidOwner",
      "type": "error"
    },
    {
      "inputs": [
        {
          "internalType": "address",
          "name": "account",
          "type": "address"
        }
      ],
      "name": "OwnableUnauthorizedAccount",
      "type": "error"
    },
    {
      "anonymous": false,
      "inputs": [
        {
          "indexed": true,
          "internalType": "address",
          "name": "tokenA",
          "type": "address"
        },
        {
          "indexed": true,
          "internalType": "address",
          "name": "tokenB",
          "type": "address"
        },
        {
          "indexed": false,
          "internalType": "address",
          "name": "oracle",
          "type": "address"
        },
        {
          "indexed": false,
          "internalType": "string",
          "name": "source",
          "type": "string"
        },
        {
          "indexed": false,
          "internalType": "uint256",
          "name": "weight",
          "type": "uint256"
        }
      ],
      "name": "OracleConfigured",
      "type": "event"
    },
    {
      "anonymous": false,
      "inputs": [
        {
          "indexed": true,
          "internalType": "address",
          "name": "previousOwner",
          "type": "address"
        },
        {
          "indexed": true,
          "internalType": "address",
          "name": "newOwner",
          "type": "address"
        }
      ],
      "name": "OwnershipTransferred",
      "type": "event"
    },
    {
      "anonymous": false,
      "inputs": [
        {
          "indexed": false,
          "internalType": "address",
          "name": "account",
          "type": "address"
        }
      ],
      "name": "Paused",
      "type": "event"
    },
    {
      "anonymous": false,
      "inputs": [
        {
          "indexed": true,
          "internalType": "address",
          "name": "tokenA",
          "type": "address"
        },
        {
          "indexed": true,
          "internalType": "address",
          "name": "tokenB",
          "type": "address"
        },
        {
          "indexed": false,
          "internalType": "uint256",
          "name": "finalPrice",
          "type": "uint256"
        },
        {
          "indexed": false,
          "internalType": "uint256",
          "name": "confidence",
          "type": "uint256"
        },
        {
          "indexed": false,
          "internalType": "uint256",
          "name": "sourcesUsed",
          "type": "uint256"
        },
        {
          "indexed": false,
          "internalType": "uint256",
          "name": "timestamp",
          "type": "uint256"
        }
      ],
      "name": "PriceAggregated",
      "type": "event"
    },
    {
      "anonymous": false,
      "inputs": [
        {
          "indexed": true,
          "internalType": "address",
          "name": "tokenA",
          "type": "address"
        },
        {
          "indexed": true,
          "internalType": "address",
          "name": "tokenB",
          "type": "address"
        },
        {
          "indexed": false,
          "internalType": "uint256",
          "name": "price",
          "type": "uint256"
        },
        {
          "indexed": false,
          "internalType": "uint256",
          "name": "confidence",
          "type": "uint256"
        },
        {
          "indexed": false,
          "internalType": "string",
          "name": "source",
          "type": "string"
        },
        {
          "indexed": false,
          "internalType": "uint256",
          "name": "timestamp",
          "type": "uint256"
        }
      ],
      "name": "PriceUpdated",
      "type": "event"
    },
    {
      "anonymous": false,
      "inputs": [
        {
          "indexed": false,
          "internalType": "address",
          "name": "account",
          "type": "address"
        }
      ],
      "name": "Unpaused",
      "type": "event"
    },
    {
      "inputs": [],
      "name": "MAX_PRICE_DEVIATION",
      "outputs": [
        {
          "internalType": "uint256",
          "name": "",
          "type": "uint256"
        }
      ],
      "stateMutability": "view",
      "type": "function"
    },
    {
      "inputs": [],
      "name": "MIN_CONFIDENCE_LEVEL",
      "outputs": [
        {
          "internalType": "uint256",
          "name": "",
          "type": "uint256"
        }
      ],
      "stateMutability": "view",
      "type": "function"
    },
    {
      "inputs": [],
      "name": "PRICE_PRECISION",
      "outputs": [
        {
          "internalType": "uint256",
          "name": "",
          "type": "uint256"
        }
      ],
      "stateMutability": "view",
      "type": "function"
    },
    {
      "inputs": [],
      "name": "STALENESS_THRESHOLD",
      "outputs": [
        {
          "internalType": "uint256",
          "name": "",
          "type": "uint256"
        }
      ],
      "stateMutability": "view",
      "type": "function"
    },
    {
      "inputs": [],
      "name": "WETH",
      "outputs": [
        {
          "internalType": "address",
          "name": "",
          "type": "address"
        }
      ],
      "stateMutability": "view",
      "type": "function"
    },
    {
      "inputs": [
        {
          "components": [
            {
              "internalType": "address",
              "name": "feedAddress",
              "type": "address"
            },
            {
              "internalType": "uint256",
              "name": "heartbeat",
              "type": "uint256"
            },
            {
              "internalType": "uint256",
              "name": "deviation",
              "type": "uint256"
            },
            {
              "internalType": "uint256",
              "name": "weight",
              "type": "uint256"
            },
            {
              "internalType": "bool",
              "name": "isActive",
              "type": "bool"
            },
            {
              "internalType": "string",
              "name": "source",
              "type": "string"
            }
          ],
          "internalType": "struct PriceOracle.OracleConfig",
          "name": "config",
          "type": "tuple"
        }
      ],
      "name": "_getExternalOraclePrice",
      "outputs": [
        {
          "internalType": "uint256",
          "name": "",
          "type": "uint256"
        },
        {
          "internalType": "uint256",
          "name": "",
          "type": "uint256"
        }
      ],
      "stateMutability": "view",
      "type": "function"
    },
    {
      "inputs": [
        {
          "internalType": "address",
          "name": "source",
          "type": "address"
        }
      ],
      "name": "addAuthorizedSource",
      "outputs": [],
      "stateMutability": "nonpayable",
      "type": "function"
    },
    {
      "inputs": [],
      "name": "aggregationMethod",
      "outputs": [
        {
          "internalType": "uint256",
          "name": "",
          "type": "uint256"
        }
      ],
      "stateMutability": "view",
      "type": "function"
    },
    {
      "inputs": [
        {
          "internalType": "address",
          "name": "",
          "type": "address"
        }
      ],
      "name": "authorizedSources",
      "outputs": [
        {
          "internalType": "bool",
          "name": "",
          "type": "bool"
        }
      ],
      "stateMutability": "view",
      "type": "function"
    },
    {
      "inputs": [
        {
          "internalType": "uint256",
          "name": "",
          "type": "uint256"
        },
        {
          "internalType": "string",
          "name": "",
          "type": "string"
        }
      ],
      "name": "chainlinkFeeds",
      "outputs": [
        {
          "internalType": "address",
          "name": "",
          "type": "address"
        }
      ],
      "stateMutability": "view",
      "type": "function"
    },
    {
      "inputs": [
        {
          "internalType": "address",
          "name": "tokenA",
          "type": "address"
        },
        {
          "internalType": "address",
          "name": "tokenB",
          "type": "address"
        },
        {
          "internalType": "address",
          "name": "feedAddress",
          "type": "address"
        },
        {
          "internalType": "string",
          "name": "source",
          "type": "string"
        },
        {
          "internalType": "uint256",
          "name": "weight",
          "type": "uint256"
        },
        {
          "internalType": "uint256",
          "name": "heartbeat",
          "type": "uint256"
        }
      ],
      "name": "configureOracle",
      "outputs": [],
      "stateMutability": "nonpayable",
      "type": "function"
    },
    {
      "inputs": [
        {
          "internalType": "address",
          "name": "tokenA",
          "type": "address"
        },
        {
          "internalType": "address",
          "name": "tokenB",
          "type": "address"
        },
        {
          "internalType": "address",
          "name": "poolAddress",
          "type": "address"
        },
        {
          "internalType": "uint32",
          "name": "period",
          "type": "uint32"
        }
      ],
      "name": "configureTWAP",
      "outputs": [],
      "stateMutability": "nonpayable",
      "type": "function"
    },
    {
      "inputs": [],
      "name": "emergencyPause",
      "outputs": [],
      "stateMutability": "nonpayable",
      "type": "function"
    },
    {
      "inputs": [],
      "name": "emergencyUnpause",
      "outputs": [],
      "stateMutability": "nonpayable",
      "type": "function"
    },
    {
      "inputs": [
        {
          "internalType": "address",
          "name": "tokenA",
          "type": "address"
        },
        {
          "internalType": "address",
          "name": "tokenB",
          "type": "address"
        }
      ],
      "name": "getAggregatedPrice",
      "outputs": [
        {
          "internalType": "uint256",
          "name": "price",
          "type": "uint256"
        },
        {
          "internalType": "uint256",
          "name": "confidence",
          "type": "uint256"
        }
      ],
      "stateMutability": "view",
      "type": "function"
    },
    {
      "inputs": [
        {
          "internalType": "address",
          "name": "tokenA",
          "type": "address"
        },
        {
          "internalType": "address",
          "name": "tokenB",
          "type": "address"
        }
      ],
      "name": "getChainlinkPrice",
      "outputs": [
        {
          "internalType": "uint256",
          "name": "price",
          "type": "uint256"
        },
        {
          "internalType": "uint256",
          "name": "confidence",
          "type": "uint256"
        }
      ],
      "stateMutability": "view",
      "type": "function"
    },
    {
      "inputs": [
        {
          "internalType": "address",
          "name": "tokenA",
          "type": "address"
        },
        {
          "internalType": "address",
          "name": "tokenB",
          "type": "address"
        }
      ],
      "name": "getMultiSourcePrices",
      "outputs": [
        {
          "internalType": "uint256[]",
          "name": "priceList",
          "type": "uint256[]"
        },
        {
          "internalType": "uint256[]",
          "name": "confidences",
          "type": "uint256[]"
        },
        {
          "internalType": "string[]",
          "name": "sources",
          "type": "string[]"
        },
        {
          "internalType": "uint256[]",
          "name": "timestamps",
          "type": "uint256[]"
        }
      ],
      "stateMutability": "view",
      "type": "function"
    },
    {
      "inputs": [
        {
          "internalType": "address",
          "name": "tokenA",
          "type": "address"
        },
        {
          "internalType": "address",
          "name": "tokenB",
          "type": "address"
        }
      ],
      "name": "getUniswapTWAP",
      "outputs": [
        {
          "internalType": "uint256",
          "name": "price",
          "type": "uint256"
        },
        {
          "internalType": "uint256",
          "name": "confidence",
          "type": "uint256"
        }
      ],
      "stateMutability": "view",
      "type": "function"
    },
    {
      "inputs": [],
      "name": "minSources",
      "outputs": [
        {
          "internalType": "uint256",
          "name": "",
          "type": "uint256"
        }
      ],
      "stateMutability": "view",
      "type": "function"
    },
    {
      "inputs": [
        {
          "internalType": "address",
          "name": "",
          "type": "address"
        },
        {
          "internalType": "address",
          "name": "",
          "type": "address"
        },
        {
          "internalType": "uint256",
          "name": "",
          "type": "uint256"
        }
      ],
      "name": "oracles",
      "outputs": [
        {
          "internalType": "address",
          "name": "feedAddress",
          "type": "address"
        },
        {
          "internalType": "uint256",
          "name": "heartbeat",
          "type": "uint256"
        },
        {
          "internalType": "uint256",
          "name": "deviation",
          "type": "uint256"
        },
        {
          "internalType": "uint256",
          "name": "weight",
          "type": "uint256"
        },
        {
          "internalType": "bool",
          "name": "isActive",
          "type": "bool"
        },
        {
          "internalType": "string",
          "name": "source",
          "type": "string"
        }
      ],
      "stateMutability": "view",
      "type": "function"
    },
    {
      "inputs": [],
      "name": "owner",
      "outputs": [
        {
          "internalType": "address",
          "name": "",
          "type": "address"
        }
      ],
      "stateMutability": "view",
      "type": "function"
    },
    {
      "inputs": [],
      "name": "paused",
      "outputs": [
        {
          "internalType": "bool",
          "name": "",
          "type": "bool"
        }
      ],
      "stateMutability": "view",
      "type": "function"
    },
    {
      "inputs": [
        {
          "internalType": "address",
          "name": "",
          "type": "address"
        },
        {
          "internalType": "address",
          "name": "",
          "type": "address"
        }
      ],
      "name": "prices",
      "outputs": [
        {
          "internalType": "uint256",
          "name": "price",
          "type": "uint256"
        },
        {
          "internalType": "uint256",
          "name": "timestamp",
          "type": "uint256"
        },
        {
          "internalType": "uint256",
          "name": "confidence",
          "type": "uint256"
        },
        {
          "internalType": "uint8",
          "name": "decimals",
          "type": "uint8"
        },
        {
          "internalType": "bool",
          "name": "isValid",
          "type": "bool"
        }
      ],
      "stateMutability": "view",
      "type": "function"
    },
    {
      "inputs": [
        {
          "internalType": "address",
          "name": "source",
          "type": "address"
        }
      ],
      "name": "removeAuthorizedSource",
      "outputs": [],
      "stateMutability": "nonpayable",
      "type": "function"
    },
    {
      "inputs": [],
      "name": "renounceOwnership",
      "outputs": [],
      "stateMutability": "nonpayable",
      "type": "function"
    },
    {
      "inputs": [
        {
          "internalType": "uint256",
          "name": "method",
          "type": "uint256"
        }
      ],
      "name": "setAggregationMethod",
      "outputs": [],
      "stateMutability": "nonpayable",
      "type": "function"
    },
    {
      "inputs": [
        {
          "internalType": "uint256",
          "name": "_minSources",
          "type": "uint256"
        }
      ],
      "name": "setMinSources",
      "outputs": [],
      "stateMutability": "nonpayable",
      "type": "function"
    },
    {
      "inputs": [
        {
          "internalType": "address",
          "name": "",
          "type": "address"
        }
      ],
      "name": "tokenWeights",
      "outputs": [
        {
          "internalType": "uint256",
          "name": "",
          "type": "uint256"
        }
      ],
      "stateMutability": "view",
      "type": "function"
    },
    {
      "inputs": [
        {
          "internalType": "address",
          "name": "newOwner",
          "type": "address"
        }
      ],
      "name": "transferOwnership",
      "outputs": [],
      "stateMutability": "nonpayable",
      "type": "function"
    },
    {
      "inputs": [
        {
          "internalType": "address",
          "name": "",
          "type": "address"
        },
        {
          "internalType": "address",
          "name": "",
          "type": "address"
        }
      ],
      "name": "twapConfigs",
      "outputs": [
        {
          "internalType": "address",
          "name": "poolAddress",
          "type": "address"
        },
        {
          "internalType": "uint32",
          "name": "period",
          "type": "uint32"
        },
        {
          "internalType": "address",
          "name": "token0",
          "type": "address"
        },
        {
          "internalType": "address",
          "name": "token1",
          "type": "address"
        },
        {
          "internalType": "bool",
          "name": "isActive",
          "type": "bool"
        }
      ],
      "stateMutability": "view",
      "type": "function"
    },
    {
      "inputs": [
        {
          "internalType": "address",
          "name": "tokenA",
          "type": "address"
        },
        {
          "internalType": "address",
          "name": "tokenB",
          "type": "address"
        },
        {
          "internalType": "uint256",
          "name": "price",
          "type": "uint256"
        },
        {
          "internalType": "uint256",
          "name": "confidence",
          "type": "uint256"
        },
        {
          "internalType": "string",
          "name": "source",
          "type": "string"
        }
      ],
      "name": "updatePrice",
      "outputs": [],
      "stateMutability": "nonpayable",
      "type": "function"
    }
  ],
  "bytecode": "0x60a0346200034957601f62002eae38819003918201601f19168301916001600160401b038311848410176200034e57808492604094855283396020938491810103126200034957516001600160a01b0380821680830362000349573315620003315760009283549260018060a01b031993338582161786558651913391167f8be0079c531659141344cd1fd0a4f28419497f9722a3daafe3b4186f6b6457e08780a360079260018455600260085515620002ef575091736ce185860a4963106506c203335a2910413708e98596926006946080526001865260059081855287872090885192661155120bd554d160ca1b92838552828501526027809420735f4ec3df9cbd43714fe2740f5e3616155c5b8419878254161790556001895280875289892092848b5166109510cbd554d160ca1b95868252858201522073f4030086522a5beea4988f8ca5b36dbc97bee88c8882541617905560018a5281885260288b8b208c5190671554d110cbd554d160c21b8252600882015220738fffffd4afb6115b954bd326cbe7b4ba576818f68882541617905560898a5281885260298b8b208c5190681350551250cbd554d160ba1b825260098201522073ab594600376ec9fd91f8e885dadf0ce036862de08882541617905560898a52818852848b8b208c5190838252858201522073f9680d99d6c9589e2a93a78a04a279e5092059458882541617905560388a52818852848b8b208c5190661093908bd554d160ca1b82528582015220730567f2323251f0aab15c8dfb1967e4e8a7d42aee8882541617905560388a52818852848b8b208c51908382528582015220739ef1b8c0e4f7dc8bf5719ea496883dc6401d5b2e888254161790558461a4b191828c52838a528c8c208d51918252858201522073639fe6ab55c921f74e7fac1ee960c0b6293ba612888254161790558952865288882090895192835282015220918254161790553383525220600160ff1982541617905551612b49908162000365823960805181818161085c0152612a9a0152f35b62461bcd60e51b815260048101879052601460248201527f496e76616c6964205745544820616464726573730000000000000000000000006044820152606490fd5b8351631e4fbdf760e01b815260006004820152602490fd5b600080fd5b634e487b7160e01b600052604160045260246000fdfe6040608081526004908136101561001557600080fd5b600091823560e01c806312923fc814611a555780631f312404146119da578063306d3227146118575780633144b8a41461162857806347fa0536146116095780634a4e3bd51461159c57806351858e271461152a57806351a3451a1461150b5780635c975abb146114e65780635ea79300146111795780636e3ae2f41461115d578063715018a6146111035780637215b0bf146110e657806379b0656714610c3c57806387a286a414610bdb5780638da5cb5b14610bb357806395082d2514610b90578063964ebf4214610b5257806396f277b714610b355780639acfb47414610a76578063a517744e146108c0578063ab2f3ad41461088b578063ad5c464814610847578063b497560e14610807578063becd7b3f146107c4578063c1be958914610742578063ddc8aec2146106c9578063e4b6051d1461060c578063e63519a714610598578063ebfcae78146101ff5763f2fde38b1461017657600080fd5b346101fb5760203660031901126101fb5761018f611ce4565b90610198611f9c565b6001600160a01b039182169283156101e557505082546001600160a01b0319811683178455167f8be0079c531659141344cd1fd0a4f28419497f9722a3daafe3b4186f6b6457e08380a380f35b51631e4fbdf760e01b8152908101849052602490fd5b8280fd5b5091903461059457806003193601126105945761024361021d611ce4565b610225611cff565b9061023e6001600160a01b038083169084161415611fc8565b6121e9565b908293835b835181101561028c5761026461025e82866120fd565b51612907565b610277575b61027290612111565b610248565b9461028461027291612111565b959050610269565b5082846102988761215f565b9181805b82518110156102fb576102b261025e82856120fd565b6102c5575b6102c090612111565b61029c565b926102f36102c0916102d786866120fd565b516102e282896120fd565b526102ed81886120fd565b50612111565b9390506102b7565b86828787805160085411610551576103129061274e565b9182511561051c57600754806103e05750909181805b825184101561036f5761036261034d6103689261034587876120fd565b515190612152565b928761035987876120fd565b51015190612152565b93612111565b9290610328565b61038a929493506103829085519061272e565b93519061272e565b905b604682106103ac57506103a0821515612001565b82519182526020820152f35b606490602085519162461bcd60e51b8352820152600e60248201526d4c6f7720636f6e666964656e636560901b6044820152fd5b6001908103610493576103f38451612120565b908280825b61044d575b50825160001981019190821161043a5791610421849261042b946104349796612987565b8151901c906120fd565b5193519061272e565b9061038c565b634e487b7160e01b815260118652602490fd5b93865185101561048d576104876104818492610469888b6120fd565b515161047589896120fd565b528a610359898c6120fd565b95612111565b906103f8565b936103fd565b9291908081948083915b6104b3575b50506104349293946103829161272e565b909291878651851015610514576104fe856104f861050a946104f28b6104eb610362976104e087846120fd565b5101519586926120fd565b51516120b5565b90612152565b99612152565b9389610359878a6120fd565b908096929661049d565b5091926104a2565b835162461bcd60e51b8152602081840152600f60248201526e4e6f20636c65616e2070726963657360881b6044820152606490fd5b835162461bcd60e51b8152602081840152601a60248201527f496e73756666696369656e7420707269636520736f75726365730000000000006044820152606490fd5b5080fd5b50346101fb57816003193601126101fb5760243567ffffffffffffffff8111610608576020936105cc849236908501611e33565b92358152600585522090836105e984519283815193849201611d5f565b810191825290819003830190205490516001600160a01b039091168152f35b8380fd5b5082903461059457600319906020368301126101fb5780359067ffffffffffffffff928383116106c15760c09083360301126106085784519261064e84611dd9565b818301356001600160a01b03811681036106c55784526024830135602085015260448301358685015260648301356060850152608483013580151581036106c557608085015260a48301359081116106c157916106b19160a09336920101611e33565b9101528151908082526020820152f35b8480fd5b8580fd5b50346101fb5760203660031901126101fb578035916106e6611f9c565b600183101580610737575b156106fe57505060085580f35b906020606492519162461bcd60e51b83528201526013602482015272496e76616c6964206d696e20736f757263657360681b6044820152fd5b50600a8311156106f1565b5050346105945780600319360112610594579060ff8260a093610763611ce4565b9361076c611cff565b600180881b0380961682526003602052858383209116825260205220928354936002826001830154169101549263ffffffff8151968481168852881c16602087015285015281166060840152831c1615156080820152f35b505034610594576020366003190112610594576107df611ce4565b6107e7611f9c565b6001600160a01b0316825260066020528120805460ff1916600117905580f35b50503461059457602036600319011261059457610822611ce4565b61082a611f9c565b6001600160a01b0316825260066020528120805460ff1916905580f35b505034610594578160031936011261059457517f00000000000000000000000000000000000000000000000000000000000000006001600160a01b03168152602090f35b50346101fb5760203660031901126101fb5760209282916001600160a01b036108b2611ce4565b168252845220549051908152f35b508290346105945760a0366003190112610594576108dc611ce4565b6108e4611cff565b604435916064359060843567ffffffffffffffff8111610a725761090b9036908701611e33565b923387526020956006875260ff898920541615610a3e5761092d861515612001565b60648411610a0657509187918787969594819a519061094b82611da7565b8782528882014281528683019186835260608401956012875288608086019660018852600160a01b600190038093169e8f825260019052209116809d528a52868d2092518355516001830155516002820155600301915160ff1682549151151560081b61ff00169161ffff19161717905581519485948552840152820160809052608082016109d991611d82565b426060830152037f6cf9129842c5bd9eb484df767ea8fcc28c7957361cc87e37851344c97c16a83491a380f35b885162461bcd60e51b81529081018790526012602482015271496e76616c696420636f6e666964656e636560701b6044820152606490fd5b885162461bcd60e51b8152908101879052600e60248201526d139bdd08185d5d1a1bdc9a5e995960921b6044820152606490fd5b8680fd5b5091903461059457606036600319011261059457610a92611ce4565b91610a9b611cff565b6001600160a01b0393841682526002602090815283832091851683525281812080546044359290831015610b325750610b2e9291610ad891611e8a565b5092835416926001810154946002820154610b01600560ff600386015494860154169401611ef6565b9380519788978852602088015286015260608501521515608084015260c060a084015260c0830190611d82565b0390f35b80fd5b505034610594578160031936011261059457602090516103e88152f35b5050346105945760203660031901126105945760209160ff9082906001600160a01b03610b7d611ce4565b1681526006855220541690519015158152f35b50503461059457816003193601126105945760209051670de0b6b3a76400008152f35b505034610594578160031936011261059457905490516001600160a01b039091168152602090f35b50346101fb5760203660031901126101fb57803591610bf8611f9c565b60028311610c0857505060075580f35b906020606492519162461bcd60e51b8352820152600e60248201526d125b9d985b1a59081b595d1a1bd960921b6044820152fd5b508234610b325782600319360112610b3257610c56611ce4565b90610c5f611cff565b60018060a01b0380931690818352602093600385528087852092169182855285528684208751610c8e81611da7565b81549183831682528782019163ffffffff809460a01c16835260ff60026001938d888683015416908501520154868116606084015260a01c1615801560808301526110ad57518a519167ffffffffffffffff91861690606084018381118582101761109a57918d8c8e96938d9583526002855281850192803685378a8a5116610d16876120e0565b5286610d21876120ed565b525197889563883bdbfd60e01b87528360248801928801525180915260448601939287905b82821061107657505050505082809103915afa9182918993610f62575b5050610dac57895162461bcd60e51b8152808a01899052601760248201527f545741502063616c63756c6174696f6e206661696c65640000000000000000006044820152606490fd5b610dc4610dbd829a9798999a6120ed565b51916120e0565b5160060b9060060b0391667fffffffffffff1991667fffffffffffff841383851217610f4f57511660030b9160060b908215610f3c578114600019831416610f295790610e1a92910560601b600e0b16806120b5565b60c01c928651928684828163313ce56760e01b958682525afa938415610f1f57908792918795610f00575b5088518094819382525afa938415610ef55793610ec6575b5060ff831660ff8216818103610e81575b5050509050906055908351928352820152f35b1115610eab57610e97610ea293610e9c92612090565b6120a4565b9061272e565b80848080610e6e565b610e97610ebb91610ec194612090565b906120b5565b610ea2565b610ee7919350843d8611610eee575b610edf8183611e11565b810190612077565b9185610e5d565b503d610ed5565b8651903d90823e3d90fd5b610f18919550833d8511610eee57610edf8183611e11565b9389610e45565b88513d88823e3d90fd5b634e487b7160e01b875260118552602487fd5b634e487b7160e01b885260128652602488fd5b634e487b7160e01b895260118752602489fd5b909192503d808a843e610f758184611e11565b8201918c8184031261105157805182811161104d57810183601f8201121561104d5790818e94939251610fb3610faa826120c8565b96519687611e11565b8086528d8087019160051b83010191858311611072578e01905b828210611055575050508b81015191821161104d570181601f82011215611051578051908b808f611009611000866120c8565b91519182611e11565b848152019260051b82010192831161104d578b01905b82821061103157505050908b80610d63565b81518881168103611049578152908b01908b0161101f565b8b80fd5b8a80fd5b8980fd5b81518060060b810361106e578152908e01908e01610fcd565b8e80fd5b8d80fd5b9194839698508497508c839295511681520195019101928794928f948f9795610d46565b634e487b7160e01b8b5260418d5260248bfd5b8a5162461bcd60e51b8152808b018a905260136024820152721515d054081b9bdd0818dbdb999a59dd5c9959606a1b6044820152606490fd5b50503461059457816003193601126105945760209051610e108152f35b8334610b325780600319360112610b325761111c611f9c565b80546001600160a01b03198116825581906001600160a01b03167f8be0079c531659141344cd1fd0a4f28419497f9722a3daafe3b4186f6b6457e08280a380f35b5050346105945781600319360112610594576020905160468152f35b508290346105945760c036600319011261059457611195611ce4565b9061119e611cff565b906111a7611d15565b916064359567ffffffffffffffff96878111610a72576111ca9036908501611e33565b96608435906111d7611f9c565b6001600160a01b039384169684169584906111f4888a1415611fc8565b169384156114ac57612710831161147857908991878a5260209660028852858b208a8c528852858b209186519061122a82611dd9565b88825289820160a43581528883016103e881526060840191898352608085019360019788865260a087019a8b5280549068010000000000000000821015611461579061127a918a82018155611e8a565b96909661144c5790600596959493929151166bffffffffffffffffffffffff60a01b86541617855551878501555160028401555160038301558382019051151560ff8019835416911617905501935190815193841161143957506112de8454611ebc565b601f81116113f3575b508790601f8411600114611368579280611353959381938e9f967f64fae02d1c15ffb35b22f499fe64329ec396a11087032c73fedb6474456a65049d9e9f9461135d575b50501b916000199060031b1c19161790555b6060845196879687528601526060850190611d82565b918301520390a380f35b015192508f8061132b565b848c52888c209293929190601f1984168d5b8181106113de5750917f64fae02d1c15ffb35b22f499fe64329ec396a11087032c73fedb6474456a65049b9c9d9e95939185611353989694106113c5575b505050811b01905561133d565b015160001960f88460031b161c191690558d80806113b8565b82840151855593860193928b01928b0161137a565b848c52888c20601f850160051c8101918a861061142f575b601f0160051c019083905b8281106114245750506112e7565b8d8155018390611416565b909150819061140b565b634e487b7160e01b8c526041905260248bfd5b50505060248f8087634e487b7160e01b825252fd5b5050505060248f604187634e487b7160e01b835252fd5b835162461bcd60e51b8152602081880152600e60248201526d125b9d985b1a59081dd95a59da1d60921b6044820152606490fd5b835162461bcd60e51b81526020818801526014602482015273496e76616c69642066656564206164647265737360601b6044820152606490fd5b50503461059457816003193601126105945760ff6020925460a01c1690519015158152f35b5050346105945781600319360112610594576020906008549051908152f35b50346101fb57826003193601126101fb57611543611f9c565b82549060ff8260a01c1661158e575060ff60a01b1916600160a01b178255513381527f62e78cea01bee320cd4e420270b5ea74000d11b0c9f74754ebdbfc544b05a25890602090a180f35b825163d93c066560e01b8152fd5b50346101fb57826003193601126101fb576115b5611f9c565b82549060ff8260a01c16156115fb575060ff60a01b19168255513381527f5db9ee0a495bf2e6ff9c91a7834c1ba4fdd244a5e8aa4e537bd38aeae4b073aa90602090a180f35b8251638dfc202b60e01b8152fd5b5050346105945781600319360112610594576020906007549051908152f35b828434610b325781600319360112610b3257611653611645611ce4565b61164d611cff565b906121e9565b81805b825181101561169657608061166b82856120fd565b510151611681575b61167c90612111565b611656565b9261168e61167c91612111565b939050611673565b50926116a183612120565b6116aa84612120565b6116b3856120c8565b916116c084519384611e11565b858352601f1995866116d1826120c8565b01885b8181106118465750506116e690612120565b928794885b87518110156117a9576080611700828a6120fd565b510151611716575b61171190612111565b6116eb565b956117a161171191611728898b6120fd565b515161173482886120fd565b52836117408a8c6120fd565b51015161174d82896120fd565b52835161175981611df5565b6006815260209065736f7572636560d01b8282015261177883886120fd565b5261178382876120fd565b5061178e8a8c6120fd565b51015161179b828a6120fd565b52612111565b969050611708565b509188918589866117ca966117d98151988997608089526080890190611d2b565b602093888203858a0152611d2b565b90868203908701528451928382528282019083808660051b850101970198925b858410611814578880610b2e8a8a8382036060850152611d2b565b91938080979950611832898486600196989a9c030188528c51611d82565b9a01940194019189979593989694916117f9565b8060606020809389010152016116d4565b5090346101fb5760803660031901126101fb57611872611ce4565b61187a611cff565b92611883611d15565b9160643563ffffffff8116809103610a725761189d611f9c565b6001600160a01b039384169283156119a857603c8210611972575090600292918551926118c984611da7565b835260208301908152848087850193169687845281606086019916808a52608086019860018a528b526003602052818b20908b52602052892093511683549163ffffffff60a01b905160a01b169167ffffffffffffffff60c01b161717825583600183019151166bffffffffffffffffffffffff60a01b8254161790550192511682549160ff60a01b9051151560a01b16916affffffffffffffffffffff60a81b161717905580f35b606490602087519162461bcd60e51b8352820152601060248201526f14195c9a5bd9081d1bdbc81cda1bdc9d60821b6044820152fd5b606490602087519162461bcd60e51b8352820152600c60248201526b125b9d985b1a59081c1bdbdb60a21b6044820152fd5b50503461059457806003193601126105945760ff8160a0936119fa611ce4565b611a02611cff565b90600180881b0380911683526001602052838320911682526020522091825492600181015491600360028301549201549281519586526020860152840152818116606084015260081c1615156080820152f35b508234610b325782600319360112610b3257611a80611a72611ce4565b611a7a611cff565b50612a98565b90468152602091600583528482209083611aa287519283815193849201611d5f565b81019182529081900383019020546001600160a01b0316908115611ca2578451633fabe5a360e21b81529160a0838681845afa8083948492611c4e575b50611b2757865162461bcd60e51b8152808701869052601c60248201527f436861696e6c696e6b207072696365206665746368206661696c6564000000006044820152606490fd5b82849596941315611c0b57611b3f610e109142612054565b11611bd05784839187519283809263313ce56760e01b82525afa908115611bc6579060ff918391611ba9575b50166012039160ff8311611b9657505090610ebb611b88926120a4565b90605f908351928352820152f35b634e487b7160e01b825260119052602490fd5b611bc09150863d8811610eee57610edf8183611e11565b87611b6b565b86513d84823e3d90fd5b855162461bcd60e51b815280840186905260156024820152745374616c6520436861696e6c696e6b20707269636560581b6044820152606490fd5b865162461bcd60e51b8152808501879052601760248201527f496e76616c696420436861696e6c696e6b2070726963650000000000000000006044820152606490fd5b9450905060a0843d8211611c9a575b81611c6a60a09383611e11565b810103126101fb57611c7b8461203d565b5084840151611c9160806060870151960161203d565b50939088611adf565b3d9150611c5d565b5050606492519162461bcd60e51b8352820152601860248201527f436861696e6c696e6b2066656564206e6f7420666f756e6400000000000000006044820152fd5b600435906001600160a01b0382168203611cfa57565b600080fd5b602435906001600160a01b0382168203611cfa57565b604435906001600160a01b0382168203611cfa57565b90815180825260208080930193019160005b828110611d4b575050505090565b835185529381019392810192600101611d3d565b60005b838110611d725750506000910152565b8181015183820152602001611d62565b90602091611d9b81518092818552858086019101611d5f565b601f01601f1916010190565b60a0810190811067ffffffffffffffff821117611dc357604052565b634e487b7160e01b600052604160045260246000fd5b60c0810190811067ffffffffffffffff821117611dc357604052565b6040810190811067ffffffffffffffff821117611dc357604052565b90601f8019910116810190811067ffffffffffffffff821117611dc357604052565b81601f82011215611cfa5780359067ffffffffffffffff8211611dc35760405192611e68601f8401601f191660200185611e11565b82845260208383010111611cfa57816000926020809301838601378301015290565b8054821015611ea6576000526006602060002091020190600090565b634e487b7160e01b600052603260045260246000fd5b90600182811c92168015611eec575b6020831014611ed657565b634e487b7160e01b600052602260045260246000fd5b91607f1691611ecb565b9060405191826000825492611f0a84611ebc565b908184526001948581169081600014611f795750600114611f36575b5050611f3492500383611e11565b565b9093915060005260209081600020936000915b818310611f61575050611f3493508201013880611f26565b85548884018501529485019487945091830191611f49565b915050611f3494506020925060ff191682840152151560051b8201013880611f26565b6000546001600160a01b03163303611fb057565b60405163118cdaa760e01b8152336004820152602490fd5b15611fcf57565b60405162461bcd60e51b815260206004820152600a60248201526929b0b6b2903a37b5b2b760b11b6044820152606490fd5b1561200857565b60405162461bcd60e51b815260206004820152600d60248201526c496e76616c696420707269636560981b6044820152606490fd5b519069ffffffffffffffffffff82168203611cfa57565b9190820391821161206157565b634e487b7160e01b600052601160045260246000fd5b90816020910312611cfa575160ff81168103611cfa5790565b9060ff8091169116039060ff821161206157565b60ff16604d811161206157600a0a90565b8181029291811591840414171561206157565b67ffffffffffffffff8111611dc35760051b60200190565b805115611ea65760200190565b805160011015611ea65760400190565b8051821015611ea65760209160051b010190565b60001981146120615760010190565b9061212a826120c8565b6121376040519182611e11565b8281528092612148601f19916120c8565b0190602036910137565b9190820180921161206157565b90612169826120c8565b60409061217882519182611e11565b8381528093612189601f19916120c8565b019160005b83811061219b5750505050565b60209082516121a981611da7565b6000815282600081830152600085830152600060608301526000608083015282860101520161218e565b9190826040910312611cfa576020825192015190565b6001600160a01b0381811660009081526002602090815260408083209386168352929052205491600383018311612061576122266003840161215f565b60009160018060a01b0384166000526001602052604060002060018060a01b03821660005260205260ff60036040600020015460081c16806126ec575b612666575b6040805163025247f960e31b81526001600160a01b038681166004830152831660248201529081604481305afa80600092600092612642575b506125f6575b50506001600160a01b0384811660009081526003602090815260408083209385168352929052206002015460a09490851c60ff16612540575b60018060a01b0316600052600260205260406000209060018060a01b031660005260205260406000208054612314816120c8565b916123226040519384611e11565b818352602083019060005260206000206000915b8383106124d9575050505060005b81518110806124cd575b1561248f5760808061236083856120fd565b510151612377575b5061237290612111565b612344565b61238182846120fd565b51906040519163e4b6051d60e01b83526020600484015260018060a01b0381511660248401526020810151604484015260408101516064840152604083806123ed8b60609586810151608485015287810151151560a4850152015160c060c484015260e4830190611d82565b0381305afa8060009460009261245b575b5061240c575b505050612368565b612372949792601261245195936001936040519561242987611da7565b8652426020870152604086015284015282015261244682876120fd565b526102ed81866120fd565b9390388080612404565b909450612480915060403d604011612488575b6124788183611e11565b8101906121d3565b9093386123fe565b503d61246e565b50509250905061249e8161215f565b9160005b8281106124af5750505090565b806124bd6124c892846120fd565b5161244682876120fd565b6124a2565b5060038601841061234e565b600660206001926040516124ec81611dd9565b848060a01b0386541681528486015483820152600286015460408201526003860154606082015260ff6004870154161515608082015261252e60058701611ef6565b8c820152815201920192019190612336565b604080516379b0656760e01b81526001600160a01b038381166004830152841660248201529081604481305afa806000926000926125d2575b50612586575b50506122e0565b906125ca9295916040519161259a83611da7565b8252426020830152604082015260126060820152600160808201526125bf82866120fd565b526102ed81856120fd565b92388061257f565b9092506125ee915060403d604011612488576124788183611e11565b909138612579565b9061263a9294916040519161260a83611da7565b82524260208301526040820152601260608201526001608082015261262f82856120fd565b526102ed81846120fd565b9138806122a7565b90925061265e915060403d604011612488576124788183611e11565b9091386122a1565b915060018060a01b0383166000526001602052604060002060018060a01b038316600052602052604060002060ff6003604051926126a384611da7565b8054845260018101546020850152600281015460408501520154818116606084015260081c16151560808201526126d9826120e0565b526126e3816120e0565b50600191612268565b5060018060a01b0384166000526001602052604060002060018060a01b038216600052602052610e1061272760016040600020015442612054565b1115612263565b8115612738570490565b634e487b7160e01b600052601260045260246000fd5b90815160028111156129045761276390612120565b60005b835181101561278e578061277d61278992866120fd565b515161179b82856120fd565b612766565b5080519192916000198101908111612061576127ac90600083612987565b6127bd815191600192831c906120fd565b51906103e88083029083820414831517156120615761271090049160008281815b612891575b50506127ee9061215f565b9360009182845b612803575b50505050505090565b825181101561288c5761281681846120fd565b51516128228784612054565b11158061286e575b61283e575b61283890612111565b846127f5565b926128666128389161285086866120fd565b5161285b828b6120fd565b526102ed818a6120fd565b93905061282f565b5061287981846120fd565b51516128858784612152565b101561282a565b6127fa565b86518110156128ff576128a481886120fd565b51516128b08786612054565b1115806128e1575b6128cc575b6128c690612111565b816127de565b916128d96128c691612111565b9290506128bd565b506128ec81886120fd565b51516128f88786612152565b10156128b8565b6127e3565b50565b60808101511515908161294d575b8161293c575b81612924575090565b610e109150602061293791015142612054565b111590565b90506046604082015110159061291b565b805115159150612915565b90600019820191821360011661206157565b906001820191600060018412911290801582169115161761206157565b91909181831261299657505050565b6129a082826120fd565b516129aa84612958565b90845b848112612a225750506129ff612a10916129c785856120fd565b516129f96129dd6129d78461296a565b876120fd565b516129e78461296a565b906129f289896120fd565b52866120fd565b5261296a565b93612a0985612958565b9083612987565b612a1c611f349361296a565b90612987565b81612a2d82866120fd565b511115612a43575b612a3e90612a84565b6129ad565b91612a50612a3e91612a84565b92612a5b81866120fd565b51612a6685876120fd565b51612a7183886120fd565b52612a7c85876120fd565b529050612a35565b6001600160ff1b0381146120615760010190565b7f00000000000000000000000000000000000000000000000000000000000000006001600160a01b03908116911614612af057604051612ad781611df5565b60098152681513d2d1538bd554d160ba1b602082015290565b604051612afc81611df5565b60078152661155120bd554d160ca1b60208201529056fea2646970667358221220adf54a604ad199f48d0c10e5eb9e71f1ad1834652c4078f5b052d2cbfb6ee1e864736f6c63430008140033",
  "linkReferences": {},
  "deployedLinkReferences": {}
}