{"contracts-new/PriceOracle.sol":{"PriceOracle":{"abi":[{"inputs":[{"internalType":"address","name":"_weth","type":"address"}],"stateMutability":"nonpayable","type":"constructor"},{"inputs":[],"name":"EnforcedPause","type":"error"},{"inputs":[],"name":"ExpectedPause","type":"error"},{"inputs":[{"internalType":"address","name":"owner","type":"address"}],"name":"OwnableInvalidOwner","type":"error"},{"inputs":[{"internalType":"address","name":"account","type":"address"}],"name":"OwnableUnauthorizedAccount","type":"error"},{"anonymous":false,"inputs":[{"indexed":true,"internalType":"address","name":"tokenA","type":"address"},{"indexed":true,"internalType":"address","name":"tokenB","type":"address"},{"indexed":false,"internalType":"address","name":"oracle","type":"address"},{"indexed":false,"internalType":"string","name":"source","type":"string"},{"indexed":false,"internalType":"uint256","name":"weight","type":"uint256"}],"name":"OracleConfigured","type":"event"},{"anonymous":false,"inputs":[{"indexed":true,"internalType":"address","name":"previousOwner","type":"address"},{"indexed":true,"internalType":"address","name":"newOwner","type":"address"}],"name":"OwnershipTransferred","type":"event"},{"anonymous":false,"inputs":[{"indexed":false,"internalType":"address","name":"account","type":"address"}],"name":"Paused","type":"event"},{"anonymous":false,"inputs":[{"indexed":true,"internalType":"address","name":"tokenA","type":"address"},{"indexed":true,"internalType":"address","name":"tokenB","type":"address"},{"indexed":false,"internalType":"uint256","name":"finalPrice","type":"uint256"},{"indexed":false,"internalType":"uint256","name":"confidence","type":"uint256"},{"indexed":false,"internalType":"uint256","name":"sourcesUsed","type":"uint256"},{"indexed":false,"internalType":"uint256","name":"timestamp","type":"uint256"}],"name":"PriceAggregated","type":"event"},{"anonymous":false,"inputs":[{"indexed":true,"internalType":"address","name":"tokenA","type":"address"},{"indexed":true,"internalType":"address","name":"tokenB","type":"address"},{"indexed":false,"internalType":"uint256","name":"price","type":"uint256"},{"indexed":false,"internalType":"uint256","name":"confidence","type":"uint256"},{"indexed":false,"internalType":"string","name":"source","type":"string"},{"indexed":false,"internalType":"uint256","name":"timestamp","type":"uint256"}],"name":"PriceUpdated","type":"event"},{"anonymous":false,"inputs":[{"indexed":false,"internalType":"address","name":"account","type":"address"}],"name":"Unpaused","type":"event"},{"inputs":[],"name":"MAX_PRICE_DEVIATION","outputs":[{"internalType":"uint256","name":"","type":"uint256"}],"stateMutability":"view","type":"function"},{"inputs":[],"name":"MIN_CONFIDENCE_LEVEL","outputs":[{"internalType":"uint256","name":"","type":"uint256"}],"stateMutability":"view","type":"function"},{"inputs":[],"name":"PRICE_PRECISION","outputs":[{"internalType":"uint256","name":"","type":"uint256"}],"stateMutability":"view","type":"function"},{"inputs":[],"name":"STALENESS_THRESHOLD","outputs":[{"internalType":"uint256","name":"","type":"uint256"}],"stateMutability":"view","type":"function"},{"inputs":[],"name":"WETH","outputs":[{"internalType":"address","name":"","type":"address"}],"stateMutability":"view","type":"function"},{"inputs":[{"components":[{"internalType":"address","name":"feedAddress","type":"address"},{"internalType":"uint256","name":"heartbeat","type":"uint256"},{"internalType":"uint256","name":"deviation","type":"uint256"},{"internalType":"uint256","name":"weight","type":"uint256"},{"internalType":"bool","name":"isActive","type":"bool"},{"internalType":"string","name":"source","type":"string"}],"internalType":"struct PriceOracle.OracleConfig","name":"config","type":"tuple"}],"name":"_getExternalOraclePrice","outputs":[{"internalType":"uint256","name":"","type":"uint256"},{"internalType":"uint256","name":"","type":"uint256"}],"stateMutability":"view","type":"function"},{"inputs":[{"internalType":"address","name":"source","type":"address"}],"name":"addAuthorizedSource","outputs":[],"stateMutability":"nonpayable","type":"function"},{"inputs":[],"name":"aggregationMethod","outputs":[{"internalType":"uint256","name":"","type":"uint256"}],"stateMutability":"view","type":"function"},{"inputs":[{"internalType":"address","name":"","type":"address"}],"name":"authorizedSources","outputs":[{"internalType":"bool","name":"","type":"bool"}],"stateMutability":"view","type":"function"},{"inputs":[{"internalType":"uint256","name":"","type":"uint256"},{"internalType":"string","name":"","type":"string"}],"name":"chainlinkFeeds","outputs":[{"internalType":"address","name":"","type":"address"}],"stateMutability":"view","type":"function"},{"inputs":[{"internalType":"address","name":"tokenA","type":"address"},{"internalType":"address","name":"tokenB","type":"address"},{"internalType":"address","name":"feedAddress","type":"address"},{"internalType":"string","name":"source","type":"string"},{"internalType":"uint256","name":"weight","type":"uint256"},{"internalType":"uint256","name":"heartbeat","type":"uint256"}],"name":"configureOracle","outputs":[],"stateMutability":"nonpayable","type":"function"},{"inputs":[{"internalType":"address","name":"tokenA","type":"address"},{"internalType":"address","name":"tokenB","type":"address"},{"internalType":"address","name":"poolAddress","type":"address"},{"internalType":"uint32","name":"period","type":"uint32"}],"name":"configureTWAP","outputs":[],"stateMutability":"nonpayable","type":"function"},{"inputs":[],"name":"emergencyPause","outputs":[],"stateMutability":"nonpayable","type":"function"},{"inputs":[],"name":"emergencyUnpause","outputs":[],"stateMutability":"nonpayable","type":"function"},{"inputs":[{"internalType":"address","name":"tokenA","type":"address"},{"internalType":"address","name":"tokenB","type":"address"}],"name":"getAggregatedPrice","outputs":[{"internalType":"uint256","name":"price","type":"uint256"},{"internalType":"uint256","name":"confidence","type":"uint256"}],"stateMutability":"view","type":"function"},{"inputs":[{"internalType":"address","name":"tokenA","type":"address"},{"internalType":"address","name":"tokenB","type":"address"}],"name":"getChainlinkPrice","outputs":[{"internalType":"uint256","name":"price","type":"uint256"},{"internalType":"uint256","name":"confidence","type":"uint256"}],"stateMutability":"view","type":"function"},{"inputs":[{"internalType":"address","name":"tokenA","type":"address"},{"internalType":"address","name":"tokenB","type":"address"}],"name":"getMultiSourcePrices","outputs":[{"internalType":"uint256[]","name":"priceList","type":"uint256[]"},{"internalType":"uint256[]","name":"confidences","type":"uint256[]"},{"internalType":"string[]","name":"sources","type":"string[]"},{"internalType":"uint256[]","name":"timestamps","type":"uint256[]"}],"stateMutability":"view","type":"function"},{"inputs":[{"internalType":"address","name":"tokenA","type":"address"},{"internalType":"address","name":"tokenB","type":"address"}],"name":"getUniswapTWAP","outputs":[{"internalType":"uint256","name":"price","type":"uint256"},{"internalType":"uint256","name":"confidence","type":"uint256"}],"stateMutability":"view","type":"function"},{"inputs":[],"name":"minSources","outputs":[{"internalType":"uint256","name":"","type":"uint256"}],"stateMutability":"view","type":"function"},{"inputs":[{"internalType":"address","name":"","type":"address"},{"internalType":"address","name":"","type":"address"},{"internalType":"uint256","name":"","type":"uint256"}],"name":"oracles","outputs":[{"internalType":"address","name":"feedAddress","type":"address"},{"internalType":"uint256","name":"heartbeat","type":"uint256"},{"internalType":"uint256","name":"deviation","type":"uint256"},{"internalType":"uint256","name":"weight","type":"uint256"},{"internalType":"bool","name":"isActive","type":"bool"},{"internalType":"string","name":"source","type":"string"}],"stateMutability":"view","type":"function"},{"inputs":[],"name":"owner","outputs":[{"internalType":"address","name":"","type":"address"}],"stateMutability":"view","type":"function"},{"inputs":[],"name":"paused","outputs":[{"internalType":"bool","name":"","type":"bool"}],"stateMutability":"view","type":"function"},{"inputs":[{"internalType":"address","name":"","type":"address"},{"internalType":"address","name":"","type":"address"}],"name":"prices","outputs":[{"internalType":"uint256","name":"price","type":"uint256"},{"internalType":"uint256","name":"timestamp","type":"uint256"},{"internalType":"uint256","name":"confidence","type":"uint256"},{"internalType":"uint8","name":"decimals","type":"uint8"},{"internalType":"bool","name":"isValid","type":"bool"}],"stateMutability":"view","type":"function"},{"inputs":[{"internalType":"address","name":"source","type":"address"}],"name":"removeAuthorizedSource","outputs":[],"stateMutability":"nonpayable","type":"function"},{"inputs":[],"name":"renounceOwnership","outputs":[],"stateMutability":"nonpayable","type":"function"},{"inputs":[{"internalType":"uint256","name":"method","type":"uint256"}],"name":"setAggregationMethod","outputs":[],"stateMutability":"nonpayable","type":"function"},{"inputs":[{"internalType":"uint256","name":"_minSources","type":"uint256"}],"name":"setMinSources","outputs":[],"stateMutability":"nonpayable","type":"function"},{"inputs":[{"internalType":"address","name":"","type":"address"}],"name":"tokenWeights","outputs":[{"internalType":"uint256","name":"","type":"uint256"}],"stateMutability":"view","type":"function"},{"inputs":[{"internalType":"address","name":"newOwner","type":"address"}],"name":"transferOwnership","outputs":[],"stateMutability":"nonpayable","type":"function"},{"inputs":[{"internalType":"address","name":"","type":"address"},{"internalType":"address","name":"","type":"address"}],"name":"twapConfigs","outputs":[{"internalType":"address","name":"poolAddress","type":"address"},{"internalType":"uint32","name":"period","type":"uint32"},{"internalType":"address","name":"token0","type":"address"},{"internalType":"address","name":"token1","type":"address"},{"internalType":"bool","name":"isActive","type":"bool"}],"stateMutability":"view","type":"function"},{"inputs":[{"internalType":"address","name":"tokenA","type":"address"},{"internalType":"address","name":"tokenB","type":"address"},{"internalType":"uint256","name":"price","type":"uint256"},{"internalType":"uint256","name":"confidence","type":"uint256"},{"internalType":"string","name":"source","type":"string"}],"name":"updatePrice","outputs":[],"stateMutability":"nonpayable","type":"function"}],"evm":{"bytecode":{"linkReferences":{},"object":"60a0346200034957601f62002eae38819003918201601f19168301916001600160401b038311848410176200034e57808492604094855283396020938491810103126200034957516001600160a01b0380821680830362000349573315620003315760009283549260018060a01b031993338582161786558651913391167f8be0079c531659141344cd1fd0a4f28419497f9722a3daafe3b4186f6b6457e08780a360079260018455600260085515620002ef575091736ce185860a4963106506c203335a2910413708e98596926006946080526001865260059081855287872090885192661155120bd554d160ca1b92838552828501526027809420735f4ec3df9cbd43714fe2740f5e3616155c5b8419878254161790556001895280875289892092848b5166109510cbd554d160ca1b95868252858201522073f4030086522a5beea4988f8ca5b36dbc97bee88c8882541617905560018a5281885260288b8b208c5190671554d110cbd554d160c21b8252600882015220738fffffd4afb6115b954bd326cbe7b4ba576818f68882541617905560898a5281885260298b8b208c5190681350551250cbd554d160ba1b825260098201522073ab594600376ec9fd91f8e885dadf0ce036862de08882541617905560898a52818852848b8b208c5190838252858201522073f9680d99d6c9589e2a93a78a04a279e5092059458882541617905560388a52818852848b8b208c5190661093908bd554d160ca1b82528582015220730567f2323251f0aab15c8dfb1967e4e8a7d42aee8882541617905560388a52818852848b8b208c51908382528582015220739ef1b8c0e4f7dc8bf5719ea496883dc6401d5b2e888254161790558461a4b191828c52838a528c8c208d51918252858201522073639fe6ab55c921f74e7fac1ee960c0b6293ba612888254161790558952865288882090895192835282015220918254161790553383525220600160ff1982541617905551612b49908162000365823960805181818161085c0152612a9a0152f35b62461bcd60e51b815260048101879052601460248201527f496e76616c6964205745544820616464726573730000000000000000000000006044820152606490fd5b8351631e4fbdf760e01b815260006004820152602490fd5b600080fd5b634e487b7160e01b600052604160045260246000fdfe6040608081526004908136101561001557600080fd5b600091823560e01c806312923fc814611a555780631f312404146119da578063306d3227146118575780633144b8a41461162857806347fa0536146116095780634a4e3bd51461159c57806351858e271461152a57806351a3451a1461150b5780635c975abb146114e65780635ea79300146111795780636e3ae2f41461115d578063715018a6146111035780637215b0bf146110e657806379b0656714610c3c57806387a286a414610bdb5780638da5cb5b14610bb357806395082d2514610b90578063964ebf4214610b5257806396f277b714610b355780639acfb47414610a76578063a517744e146108c0578063ab2f3ad41461088b578063ad5c464814610847578063b497560e14610807578063becd7b3f146107c4578063c1be958914610742578063ddc8aec2146106c9578063e4b6051d1461060c578063e63519a714610598578063ebfcae78146101ff5763f2fde38b1461017657600080fd5b346101fb5760203660031901126101fb5761018f611ce4565b90610198611f9c565b6001600160a01b039182169283156101e557505082546001600160a01b0319811683178455167f8be0079c531659141344cd1fd0a4f28419497f9722a3daafe3b4186f6b6457e08380a380f35b51631e4fbdf760e01b8152908101849052602490fd5b8280fd5b5091903461059457806003193601126105945761024361021d611ce4565b610225611cff565b9061023e6001600160a01b038083169084161415611fc8565b6121e9565b908293835b835181101561028c5761026461025e82866120fd565b51612907565b610277575b61027290612111565b610248565b9461028461027291612111565b959050610269565b5082846102988761215f565b9181805b82518110156102fb576102b261025e82856120fd565b6102c5575b6102c090612111565b61029c565b926102f36102c0916102d786866120fd565b516102e282896120fd565b526102ed81886120fd565b50612111565b9390506102b7565b86828787805160085411610551576103129061274e565b9182511561051c57600754806103e05750909181805b825184101561036f5761036261034d6103689261034587876120fd565b515190612152565b928761035987876120fd565b51015190612152565b93612111565b9290610328565b61038a929493506103829085519061272e565b93519061272e565b905b604682106103ac57506103a0821515612001565b82519182526020820152f35b606490602085519162461bcd60e51b8352820152600e60248201526d4c6f7720636f6e666964656e636560901b6044820152fd5b6001908103610493576103f38451612120565b908280825b61044d575b50825160001981019190821161043a5791610421849261042b946104349796612987565b8151901c906120fd565b5193519061272e565b9061038c565b634e487b7160e01b815260118652602490fd5b93865185101561048d576104876104818492610469888b6120fd565b515161047589896120fd565b528a610359898c6120fd565b95612111565b906103f8565b936103fd565b9291908081948083915b6104b3575b50506104349293946103829161272e565b909291878651851015610514576104fe856104f861050a946104f28b6104eb610362976104e087846120fd565b5101519586926120fd565b51516120b5565b90612152565b99612152565b9389610359878a6120fd565b908096929661049d565b5091926104a2565b835162461bcd60e51b8152602081840152600f60248201526e4e6f20636c65616e2070726963657360881b6044820152606490fd5b835162461bcd60e51b8152602081840152601a60248201527f496e73756666696369656e7420707269636520736f75726365730000000000006044820152606490fd5b5080fd5b50346101fb57816003193601126101fb5760243567ffffffffffffffff8111610608576020936105cc849236908501611e33565b92358152600585522090836105e984519283815193849201611d5f565b810191825290819003830190205490516001600160a01b039091168152f35b8380fd5b5082903461059457600319906020368301126101fb5780359067ffffffffffffffff928383116106c15760c09083360301126106085784519261064e84611dd9565b818301356001600160a01b03811681036106c55784526024830135602085015260448301358685015260648301356060850152608483013580151581036106c557608085015260a48301359081116106c157916106b19160a09336920101611e33565b9101528151908082526020820152f35b8480fd5b8580fd5b50346101fb5760203660031901126101fb578035916106e6611f9c565b600183101580610737575b156106fe57505060085580f35b906020606492519162461bcd60e51b83528201526013602482015272496e76616c6964206d696e20736f757263657360681b6044820152fd5b50600a8311156106f1565b5050346105945780600319360112610594579060ff8260a093610763611ce4565b9361076c611cff565b600180881b0380961682526003602052858383209116825260205220928354936002826001830154169101549263ffffffff8151968481168852881c16602087015285015281166060840152831c1615156080820152f35b505034610594576020366003190112610594576107df611ce4565b6107e7611f9c565b6001600160a01b0316825260066020528120805460ff1916600117905580f35b50503461059457602036600319011261059457610822611ce4565b61082a611f9c565b6001600160a01b0316825260066020528120805460ff1916905580f35b505034610594578160031936011261059457517f00000000000000000000000000000000000000000000000000000000000000006001600160a01b03168152602090f35b50346101fb5760203660031901126101fb5760209282916001600160a01b036108b2611ce4565b168252845220549051908152f35b508290346105945760a0366003190112610594576108dc611ce4565b6108e4611cff565b604435916064359060843567ffffffffffffffff8111610a725761090b9036908701611e33565b923387526020956006875260ff898920541615610a3e5761092d861515612001565b60648411610a0657509187918787969594819a519061094b82611da7565b8782528882014281528683019186835260608401956012875288608086019660018852600160a01b600190038093169e8f825260019052209116809d528a52868d2092518355516001830155516002820155600301915160ff1682549151151560081b61ff00169161ffff19161717905581519485948552840152820160809052608082016109d991611d82565b426060830152037f6cf9129842c5bd9eb484df767ea8fcc28c7957361cc87e37851344c97c16a83491a380f35b885162461bcd60e51b81529081018790526012602482015271496e76616c696420636f6e666964656e636560701b6044820152606490fd5b885162461bcd60e51b8152908101879052600e60248201526d139bdd08185d5d1a1bdc9a5e995960921b6044820152606490fd5b8680fd5b5091903461059457606036600319011261059457610a92611ce4565b91610a9b611cff565b6001600160a01b0393841682526002602090815283832091851683525281812080546044359290831015610b325750610b2e9291610ad891611e8a565b5092835416926001810154946002820154610b01600560ff600386015494860154169401611ef6565b9380519788978852602088015286015260608501521515608084015260c060a084015260c0830190611d82565b0390f35b80fd5b505034610594578160031936011261059457602090516103e88152f35b5050346105945760203660031901126105945760209160ff9082906001600160a01b03610b7d611ce4565b1681526006855220541690519015158152f35b50503461059457816003193601126105945760209051670de0b6b3a76400008152f35b505034610594578160031936011261059457905490516001600160a01b039091168152602090f35b50346101fb5760203660031901126101fb57803591610bf8611f9c565b60028311610c0857505060075580f35b906020606492519162461bcd60e51b8352820152600e60248201526d125b9d985b1a59081b595d1a1bd960921b6044820152fd5b508234610b325782600319360112610b3257610c56611ce4565b90610c5f611cff565b60018060a01b0380931690818352602093600385528087852092169182855285528684208751610c8e81611da7565b81549183831682528782019163ffffffff809460a01c16835260ff60026001938d888683015416908501520154868116606084015260a01c1615801560808301526110ad57518a519167ffffffffffffffff91861690606084018381118582101761109a57918d8c8e96938d9583526002855281850192803685378a8a5116610d16876120e0565b5286610d21876120ed565b525197889563883bdbfd60e01b87528360248801928801525180915260448601939287905b82821061107657505050505082809103915afa9182918993610f62575b5050610dac57895162461bcd60e51b8152808a01899052601760248201527f545741502063616c63756c6174696f6e206661696c65640000000000000000006044820152606490fd5b610dc4610dbd829a9798999a6120ed565b51916120e0565b5160060b9060060b0391667fffffffffffff1991667fffffffffffff841383851217610f4f57511660030b9160060b908215610f3c578114600019831416610f295790610e1a92910560601b600e0b16806120b5565b60c01c928651928684828163313ce56760e01b958682525afa938415610f1f57908792918795610f00575b5088518094819382525afa938415610ef55793610ec6575b5060ff831660ff8216818103610e81575b5050509050906055908351928352820152f35b1115610eab57610e97610ea293610e9c92612090565b6120a4565b9061272e565b80848080610e6e565b610e97610ebb91610ec194612090565b906120b5565b610ea2565b610ee7919350843d8611610eee575b610edf8183611e11565b810190612077565b9185610e5d565b503d610ed5565b8651903d90823e3d90fd5b610f18919550833d8511610eee57610edf8183611e11565b9389610e45565b88513d88823e3d90fd5b634e487b7160e01b875260118552602487fd5b634e487b7160e01b885260128652602488fd5b634e487b7160e01b895260118752602489fd5b909192503d808a843e610f758184611e11565b8201918c8184031261105157805182811161104d57810183601f8201121561104d5790818e94939251610fb3610faa826120c8565b96519687611e11565b8086528d8087019160051b83010191858311611072578e01905b828210611055575050508b81015191821161104d570181601f82011215611051578051908b808f611009611000866120c8565b91519182611e11565b848152019260051b82010192831161104d578b01905b82821061103157505050908b80610d63565b81518881168103611049578152908b01908b0161101f565b8b80fd5b8a80fd5b8980fd5b81518060060b810361106e578152908e01908e01610fcd565b8e80fd5b8d80fd5b9194839698508497508c839295511681520195019101928794928f948f9795610d46565b634e487b7160e01b8b5260418d5260248bfd5b8a5162461bcd60e51b8152808b018a905260136024820152721515d054081b9bdd0818dbdb999a59dd5c9959606a1b6044820152606490fd5b50503461059457816003193601126105945760209051610e108152f35b8334610b325780600319360112610b325761111c611f9c565b80546001600160a01b03198116825581906001600160a01b03167f8be0079c531659141344cd1fd0a4f28419497f9722a3daafe3b4186f6b6457e08280a380f35b5050346105945781600319360112610594576020905160468152f35b508290346105945760c036600319011261059457611195611ce4565b9061119e611cff565b906111a7611d15565b916064359567ffffffffffffffff96878111610a72576111ca9036908501611e33565b96608435906111d7611f9c565b6001600160a01b039384169684169584906111f4888a1415611fc8565b169384156114ac57612710831161147857908991878a5260209660028852858b208a8c528852858b209186519061122a82611dd9565b88825289820160a43581528883016103e881526060840191898352608085019360019788865260a087019a8b5280549068010000000000000000821015611461579061127a918a82018155611e8a565b96909661144c5790600596959493929151166bffffffffffffffffffffffff60a01b86541617855551878501555160028401555160038301558382019051151560ff8019835416911617905501935190815193841161143957506112de8454611ebc565b601f81116113f3575b508790601f8411600114611368579280611353959381938e9f967f64fae02d1c15ffb35b22f499fe64329ec396a11087032c73fedb6474456a65049d9e9f9461135d575b50501b916000199060031b1c19161790555b6060845196879687528601526060850190611d82565b918301520390a380f35b015192508f8061132b565b848c52888c209293929190601f1984168d5b8181106113de5750917f64fae02d1c15ffb35b22f499fe64329ec396a11087032c73fedb6474456a65049b9c9d9e95939185611353989694106113c5575b505050811b01905561133d565b015160001960f88460031b161c191690558d80806113b8565b82840151855593860193928b01928b0161137a565b848c52888c20601f850160051c8101918a861061142f575b601f0160051c019083905b8281106114245750506112e7565b8d8155018390611416565b909150819061140b565b634e487b7160e01b8c526041905260248bfd5b50505060248f8087634e487b7160e01b825252fd5b5050505060248f604187634e487b7160e01b835252fd5b835162461bcd60e51b8152602081880152600e60248201526d125b9d985b1a59081dd95a59da1d60921b6044820152606490fd5b835162461bcd60e51b81526020818801526014602482015273496e76616c69642066656564206164647265737360601b6044820152606490fd5b50503461059457816003193601126105945760ff6020925460a01c1690519015158152f35b5050346105945781600319360112610594576020906008549051908152f35b50346101fb57826003193601126101fb57611543611f9c565b82549060ff8260a01c1661158e575060ff60a01b1916600160a01b178255513381527f62e78cea01bee320cd4e420270b5ea74000d11b0c9f74754ebdbfc544b05a25890602090a180f35b825163d93c066560e01b8152fd5b50346101fb57826003193601126101fb576115b5611f9c565b82549060ff8260a01c16156115fb575060ff60a01b19168255513381527f5db9ee0a495bf2e6ff9c91a7834c1ba4fdd244a5e8aa4e537bd38aeae4b073aa90602090a180f35b8251638dfc202b60e01b8152fd5b5050346105945781600319360112610594576020906007549051908152f35b828434610b325781600319360112610b3257611653611645611ce4565b61164d611cff565b906121e9565b81805b825181101561169657608061166b82856120fd565b510151611681575b61167c90612111565b611656565b9261168e61167c91612111565b939050611673565b50926116a183612120565b6116aa84612120565b6116b3856120c8565b916116c084519384611e11565b858352601f1995866116d1826120c8565b01885b8181106118465750506116e690612120565b928794885b87518110156117a9576080611700828a6120fd565b510151611716575b61171190612111565b6116eb565b956117a161171191611728898b6120fd565b515161173482886120fd565b52836117408a8c6120fd565b51015161174d82896120fd565b52835161175981611df5565b6006815260209065736f7572636560d01b8282015261177883886120fd565b5261178382876120fd565b5061178e8a8c6120fd565b51015161179b828a6120fd565b52612111565b969050611708565b509188918589866117ca966117d98151988997608089526080890190611d2b565b602093888203858a0152611d2b565b90868203908701528451928382528282019083808660051b850101970198925b858410611814578880610b2e8a8a8382036060850152611d2b565b91938080979950611832898486600196989a9c030188528c51611d82565b9a01940194019189979593989694916117f9565b8060606020809389010152016116d4565b5090346101fb5760803660031901126101fb57611872611ce4565b61187a611cff565b92611883611d15565b9160643563ffffffff8116809103610a725761189d611f9c565b6001600160a01b039384169283156119a857603c8210611972575090600292918551926118c984611da7565b835260208301908152848087850193169687845281606086019916808a52608086019860018a528b526003602052818b20908b52602052892093511683549163ffffffff60a01b905160a01b169167ffffffffffffffff60c01b161717825583600183019151166bffffffffffffffffffffffff60a01b8254161790550192511682549160ff60a01b9051151560a01b16916affffffffffffffffffffff60a81b161717905580f35b606490602087519162461bcd60e51b8352820152601060248201526f14195c9a5bd9081d1bdbc81cda1bdc9d60821b6044820152fd5b606490602087519162461bcd60e51b8352820152600c60248201526b125b9d985b1a59081c1bdbdb60a21b6044820152fd5b50503461059457806003193601126105945760ff8160a0936119fa611ce4565b611a02611cff565b90600180881b0380911683526001602052838320911682526020522091825492600181015491600360028301549201549281519586526020860152840152818116606084015260081c1615156080820152f35b508234610b325782600319360112610b3257611a80611a72611ce4565b611a7a611cff565b50612a98565b90468152602091600583528482209083611aa287519283815193849201611d5f565b81019182529081900383019020546001600160a01b0316908115611ca2578451633fabe5a360e21b81529160a0838681845afa8083948492611c4e575b50611b2757865162461bcd60e51b8152808701869052601c60248201527f436861696e6c696e6b207072696365206665746368206661696c6564000000006044820152606490fd5b82849596941315611c0b57611b3f610e109142612054565b11611bd05784839187519283809263313ce56760e01b82525afa908115611bc6579060ff918391611ba9575b50166012039160ff8311611b9657505090610ebb611b88926120a4565b90605f908351928352820152f35b634e487b7160e01b825260119052602490fd5b611bc09150863d8811610eee57610edf8183611e11565b87611b6b565b86513d84823e3d90fd5b855162461bcd60e51b815280840186905260156024820152745374616c6520436861696e6c696e6b20707269636560581b6044820152606490fd5b865162461bcd60e51b8152808501879052601760248201527f496e76616c696420436861696e6c696e6b2070726963650000000000000000006044820152606490fd5b9450905060a0843d8211611c9a575b81611c6a60a09383611e11565b810103126101fb57611c7b8461203d565b5084840151611c9160806060870151960161203d565b50939088611adf565b3d9150611c5d565b5050606492519162461bcd60e51b8352820152601860248201527f436861696e6c696e6b2066656564206e6f7420666f756e6400000000000000006044820152fd5b600435906001600160a01b0382168203611cfa57565b600080fd5b602435906001600160a01b0382168203611cfa57565b604435906001600160a01b0382168203611cfa57565b90815180825260208080930193019160005b828110611d4b575050505090565b835185529381019392810192600101611d3d565b60005b838110611d725750506000910152565b8181015183820152602001611d62565b90602091611d9b81518092818552858086019101611d5f565b601f01601f1916010190565b60a0810190811067ffffffffffffffff821117611dc357604052565b634e487b7160e01b600052604160045260246000fd5b60c0810190811067ffffffffffffffff821117611dc357604052565b6040810190811067ffffffffffffffff821117611dc357604052565b90601f8019910116810190811067ffffffffffffffff821117611dc357604052565b81601f82011215611cfa5780359067ffffffffffffffff8211611dc35760405192611e68601f8401601f191660200185611e11565b82845260208383010111611cfa57816000926020809301838601378301015290565b8054821015611ea6576000526006602060002091020190600090565b634e487b7160e01b600052603260045260246000fd5b90600182811c92168015611eec575b6020831014611ed657565b634e487b7160e01b600052602260045260246000fd5b91607f1691611ecb565b9060405191826000825492611f0a84611ebc565b908184526001948581169081600014611f795750600114611f36575b5050611f3492500383611e11565b565b9093915060005260209081600020936000915b818310611f61575050611f3493508201013880611f26565b85548884018501529485019487945091830191611f49565b915050611f3494506020925060ff191682840152151560051b8201013880611f26565b6000546001600160a01b03163303611fb057565b60405163118cdaa760e01b8152336004820152602490fd5b15611fcf57565b60405162461bcd60e51b815260206004820152600a60248201526929b0b6b2903a37b5b2b760b11b6044820152606490fd5b1561200857565b60405162461bcd60e51b815260206004820152600d60248201526c496e76616c696420707269636560981b6044820152606490fd5b519069ffffffffffffffffffff82168203611cfa57565b9190820391821161206157565b634e487b7160e01b600052601160045260246000fd5b90816020910312611cfa575160ff81168103611cfa5790565b9060ff8091169116039060ff821161206157565b60ff16604d811161206157600a0a90565b8181029291811591840414171561206157565b67ffffffffffffffff8111611dc35760051b60200190565b805115611ea65760200190565b805160011015611ea65760400190565b8051821015611ea65760209160051b010190565b60001981146120615760010190565b9061212a826120c8565b6121376040519182611e11565b8281528092612148601f19916120c8565b0190602036910137565b9190820180921161206157565b90612169826120c8565b60409061217882519182611e11565b8381528093612189601f19916120c8565b019160005b83811061219b5750505050565b60209082516121a981611da7565b6000815282600081830152600085830152600060608301526000608083015282860101520161218e565b9190826040910312611cfa576020825192015190565b6001600160a01b0381811660009081526002602090815260408083209386168352929052205491600383018311612061576122266003840161215f565b60009160018060a01b0384166000526001602052604060002060018060a01b03821660005260205260ff60036040600020015460081c16806126ec575b612666575b6040805163025247f960e31b81526001600160a01b038681166004830152831660248201529081604481305afa80600092600092612642575b506125f6575b50506001600160a01b0384811660009081526003602090815260408083209385168352929052206002015460a09490851c60ff16612540575b60018060a01b0316600052600260205260406000209060018060a01b031660005260205260406000208054612314816120c8565b916123226040519384611e11565b818352602083019060005260206000206000915b8383106124d9575050505060005b81518110806124cd575b1561248f5760808061236083856120fd565b510151612377575b5061237290612111565b612344565b61238182846120fd565b51906040519163e4b6051d60e01b83526020600484015260018060a01b0381511660248401526020810151604484015260408101516064840152604083806123ed8b60609586810151608485015287810151151560a4850152015160c060c484015260e4830190611d82565b0381305afa8060009460009261245b575b5061240c575b505050612368565b612372949792601261245195936001936040519561242987611da7565b8652426020870152604086015284015282015261244682876120fd565b526102ed81866120fd565b9390388080612404565b909450612480915060403d604011612488575b6124788183611e11565b8101906121d3565b9093386123fe565b503d61246e565b50509250905061249e8161215f565b9160005b8281106124af5750505090565b806124bd6124c892846120fd565b5161244682876120fd565b6124a2565b5060038601841061234e565b600660206001926040516124ec81611dd9565b848060a01b0386541681528486015483820152600286015460408201526003860154606082015260ff6004870154161515608082015261252e60058701611ef6565b8c820152815201920192019190612336565b604080516379b0656760e01b81526001600160a01b038381166004830152841660248201529081604481305afa806000926000926125d2575b50612586575b50506122e0565b906125ca9295916040519161259a83611da7565b8252426020830152604082015260126060820152600160808201526125bf82866120fd565b526102ed81856120fd565b92388061257f565b9092506125ee915060403d604011612488576124788183611e11565b909138612579565b9061263a9294916040519161260a83611da7565b82524260208301526040820152601260608201526001608082015261262f82856120fd565b526102ed81846120fd565b9138806122a7565b90925061265e915060403d604011612488576124788183611e11565b9091386122a1565b915060018060a01b0383166000526001602052604060002060018060a01b038316600052602052604060002060ff6003604051926126a384611da7565b8054845260018101546020850152600281015460408501520154818116606084015260081c16151560808201526126d9826120e0565b526126e3816120e0565b50600191612268565b5060018060a01b0384166000526001602052604060002060018060a01b038216600052602052610e1061272760016040600020015442612054565b1115612263565b8115612738570490565b634e487b7160e01b600052601260045260246000fd5b90815160028111156129045761276390612120565b60005b835181101561278e578061277d61278992866120fd565b515161179b82856120fd565b612766565b5080519192916000198101908111612061576127ac90600083612987565b6127bd815191600192831c906120fd565b51906103e88083029083820414831517156120615761271090049160008281815b612891575b50506127ee9061215f565b9360009182845b612803575b50505050505090565b825181101561288c5761281681846120fd565b51516128228784612054565b11158061286e575b61283e575b61283890612111565b846127f5565b926128666128389161285086866120fd565b5161285b828b6120fd565b526102ed818a6120fd565b93905061282f565b5061287981846120fd565b51516128858784612152565b101561282a565b6127fa565b86518110156128ff576128a481886120fd565b51516128b08786612054565b1115806128e1575b6128cc575b6128c690612111565b816127de565b916128d96128c691612111565b9290506128bd565b506128ec81886120fd565b51516128f88786612152565b10156128b8565b6127e3565b50565b60808101511515908161294d575b8161293c575b81612924575090565b610e109150602061293791015142612054565b111590565b90506046604082015110159061291b565b805115159150612915565b90600019820191821360011661206157565b906001820191600060018412911290801582169115161761206157565b91909181831261299657505050565b6129a082826120fd565b516129aa84612958565b90845b848112612a225750506129ff612a10916129c785856120fd565b516129f96129dd6129d78461296a565b876120fd565b516129e78461296a565b906129f289896120fd565b52866120fd565b5261296a565b93612a0985612958565b9083612987565b612a1c611f349361296a565b90612987565b81612a2d82866120fd565b511115612a43575b612a3e90612a84565b6129ad565b91612a50612a3e91612a84565b92612a5b81866120fd565b51612a6685876120fd565b51612a7183886120fd565b52612a7c85876120fd565b529050612a35565b6001600160ff1b0381146120615760010190565b7f00000000000000000000000000000000000000000000000000000000000000006001600160a01b03908116911614612af057604051612ad781611df5565b60098152681513d2d1538bd554d160ba1b602082015290565b604051612afc81611df5565b60078152661155120bd554d160ca1b60208201529056fea2646970667358221220adf54a604ad199f48d0c10e5eb9e71f1ad1834652c4078f5b052d2cbfb6ee1e864736f6c63430008140033","opcodes":"PUSH1 0xA0 CALLVALUE PUSH3 0x349 JUMPI PUSH1 0x1F PUSH3 0x2EAE CODESIZE DUP2 SWAP1 SUB SWAP2 DUP3 ADD PUSH1 0x1F NOT AND DUP4 ADD SWAP2 PUSH1 0x1 PUSH1 0x1 PUSH1 0x40 SHL SUB DUP4 GT DUP5 DUP5 LT OR PUSH3 0x34E JUMPI DUP1 DUP5 SWAP3 PUSH1 0x40 SWAP5 DUP6 MSTORE DUP4 CODECOPY PUSH1 0x20 SWAP4 DUP5 SWAP2 DUP2 ADD SUB SLT PUSH3 0x349 JUMPI MLOAD PUSH1 0x1 PUSH1 0x1 PUSH1 0xA0 SHL SUB DUP1 DUP3 AND DUP1 DUP4 SUB PUSH3 0x349 JUMPI CALLER ISZERO PUSH3 0x331 JUMPI PUSH1 0x0 SWAP3 DUP4 SLOAD SWAP3 PUSH1 0x1 DUP1 PUSH1 0xA0 SHL SUB NOT SWAP4 CALLER DUP6 DUP3 AND OR DUP7 SSTORE DUP7 MLOAD SWAP2 CALLER SWAP2 AND PUSH32 0x8BE0079C531659141344CD1FD0A4F28419497F9722A3DAAFE3B4186F6B6457E0 DUP8 DUP1 LOG3 PUSH1 0x7 SWAP3 PUSH1 0x1 DUP5 SSTORE PUSH1 0x2 PUSH1 0x8 SSTORE ISZERO PUSH3 0x2EF JUMPI POP SWAP2 PUSH20 0x6CE185860A4963106506C203335A2910413708E9 DUP6 SWAP7 SWAP3 PUSH1 0x6 SWAP5 PUSH1 0x80 MSTORE PUSH1 0x1 DUP7 MSTORE PUSH1 0x5 SWAP1 DUP2 DUP6 MSTORE DUP8 DUP8 KECCAK256 SWAP1 DUP9 MLOAD SWAP3 PUSH7 0x1155120BD554D1 PUSH1 0xCA SHL SWAP3 DUP4 DUP6 MSTORE DUP3 DUP6 ADD MSTORE PUSH1 0x27 DUP1 SWAP5 KECCAK256 PUSH20 0x5F4EC3DF9CBD43714FE2740F5E3616155C5B8419 DUP8 DUP3 SLOAD AND OR SWAP1 SSTORE PUSH1 0x1 DUP10 MSTORE DUP1 DUP8 MSTORE DUP10 DUP10 KECCAK256 SWAP3 DUP5 DUP12 MLOAD PUSH7 0x109510CBD554D1 PUSH1 0xCA SHL SWAP6 DUP7 DUP3 MSTORE DUP6 DUP3 ADD MSTORE KECCAK256 PUSH20 0xF4030086522A5BEEA4988F8CA5B36DBC97BEE88C DUP9 DUP3 SLOAD AND OR SWAP1 SSTORE PUSH1 0x1 DUP11 MSTORE DUP2 DUP9 MSTORE PUSH1 0x28 DUP12 DUP12 KECCAK256 DUP13 MLOAD SWAP1 PUSH8 0x1554D110CBD554D1 PUSH1 0xC2 SHL DUP3 MSTORE PUSH1 0x8 DUP3 ADD MSTORE KECCAK256 PUSH20 0x8FFFFFD4AFB6115B954BD326CBE7B4BA576818F6 DUP9 DUP3 SLOAD AND OR SWAP1 SSTORE PUSH1 0x89 DUP11 MSTORE DUP2 DUP9 MSTORE PUSH1 0x29 DUP12 DUP12 KECCAK256 DUP13 MLOAD SWAP1 PUSH9 0x1350551250CBD554D1 PUSH1 0xBA SHL DUP3 MSTORE PUSH1 0x9 DUP3 ADD MSTORE KECCAK256 PUSH20 0xAB594600376EC9FD91F8E885DADF0CE036862DE0 DUP9 DUP3 SLOAD AND OR SWAP1 SSTORE PUSH1 0x89 DUP11 MSTORE DUP2 DUP9 MSTORE DUP5 DUP12 DUP12 KECCAK256 DUP13 MLOAD SWAP1 DUP4 DUP3 MSTORE DUP6 DUP3 ADD MSTORE KECCAK256 PUSH20 0xF9680D99D6C9589E2A93A78A04A279E509205945 DUP9 DUP3 SLOAD AND OR SWAP1 SSTORE PUSH1 0x38 DUP11 MSTORE DUP2 DUP9 MSTORE DUP5 DUP12 DUP12 KECCAK256 DUP13 MLOAD SWAP1 PUSH7 0x1093908BD554D1 PUSH1 0xCA SHL DUP3 MSTORE DUP6 DUP3 ADD MSTORE KECCAK256 PUSH20 0x567F2323251F0AAB15C8DFB1967E4E8A7D42AEE DUP9 DUP3 SLOAD AND OR SWAP1 SSTORE PUSH1 0x38 DUP11 MSTORE DUP2 DUP9 MSTORE DUP5 DUP12 DUP12 KECCAK256 DUP13 MLOAD SWAP1 DUP4 DUP3 MSTORE DUP6 DUP3 ADD MSTORE KECCAK256 PUSH20 0x9EF1B8C0E4F7DC8BF5719EA496883DC6401D5B2E DUP9 DUP3 SLOAD AND OR SWAP1 SSTORE DUP5 PUSH2 0xA4B1 SWAP2 DUP3 DUP13 MSTORE DUP4 DUP11 MSTORE DUP13 DUP13 KECCAK256 DUP14 MLOAD SWAP2 DUP3 MSTORE DUP6 DUP3 ADD MSTORE KECCAK256 PUSH20 0x639FE6AB55C921F74E7FAC1EE960C0B6293BA612 DUP9 DUP3 SLOAD AND OR SWAP1 SSTORE DUP10 MSTORE DUP7 MSTORE DUP9 DUP9 KECCAK256 SWAP1 DUP10 MLOAD SWAP3 DUP4 MSTORE DUP3 ADD MSTORE KECCAK256 SWAP2 DUP3 SLOAD AND OR SWAP1 SSTORE CALLER DUP4 MSTORE MSTORE KECCAK256 PUSH1 0x1 PUSH1 0xFF NOT DUP3 SLOAD AND OR SWAP1 SSTORE MLOAD PUSH2 0x2B49 SWAP1 DUP2 PUSH3 0x365 DUP3 CODECOPY PUSH1 0x80 MLOAD DUP2 DUP2 DUP2 PUSH2 0x85C ADD MSTORE PUSH2 0x2A9A ADD MSTORE RETURN JUMPDEST PUSH3 0x461BCD PUSH1 0xE5 SHL DUP2 MSTORE PUSH1 0x4 DUP2 ADD DUP8 SWAP1 MSTORE PUSH1 0x14 PUSH1 0x24 DUP3 ADD MSTORE PUSH32 0x496E76616C696420574554482061646472657373000000000000000000000000 PUSH1 0x44 DUP3 ADD MSTORE PUSH1 0x64 SWAP1 REVERT JUMPDEST DUP4 MLOAD PUSH4 0x1E4FBDF7 PUSH1 0xE0 SHL DUP2 MSTORE PUSH1 0x0 PUSH1 0x4 DUP3 ADD MSTORE PUSH1 0x24 SWAP1 REVERT JUMPDEST PUSH1 0x0 DUP1 REVERT JUMPDEST PUSH4 0x4E487B71 PUSH1 0xE0 SHL PUSH1 0x0 MSTORE PUSH1 0x41 PUSH1 0x4 MSTORE PUSH1 0x24 PUSH1 0x0 REVERT INVALID PUSH1 0x40 PUSH1 0x80 DUP2 MSTORE PUSH1 0x4 SWAP1 DUP2 CALLDATASIZE LT ISZERO PUSH2 0x15 JUMPI PUSH1 0x0 DUP1 REVERT JUMPDEST PUSH1 0x0 SWAP2 DUP3 CALLDATALOAD PUSH1 0xE0 SHR DUP1 PUSH4 0x12923FC8 EQ PUSH2 0x1A55 JUMPI DUP1 PUSH4 0x1F312404 EQ PUSH2 0x19DA JUMPI DUP1 PUSH4 0x306D3227 EQ PUSH2 0x1857 JUMPI DUP1 PUSH4 0x3144B8A4 EQ PUSH2 0x1628 JUMPI DUP1 PUSH4 0x47FA0536 EQ PUSH2 0x1609 JUMPI DUP1 PUSH4 0x4A4E3BD5 EQ PUSH2 0x159C JUMPI DUP1 PUSH4 0x51858E27 EQ PUSH2 0x152A JUMPI DUP1 PUSH4 0x51A3451A EQ PUSH2 0x150B JUMPI DUP1 PUSH4 0x5C975ABB EQ PUSH2 0x14E6 JUMPI DUP1 PUSH4 0x5EA79300 EQ PUSH2 0x1179 JUMPI DUP1 PUSH4 0x6E3AE2F4 EQ PUSH2 0x115D JUMPI DUP1 PUSH4 0x715018A6 EQ PUSH2 0x1103 JUMPI DUP1 PUSH4 0x7215B0BF EQ PUSH2 0x10E6 JUMPI DUP1 PUSH4 0x79B06567 EQ PUSH2 0xC3C JUMPI DUP1 PUSH4 0x87A286A4 EQ PUSH2 0xBDB JUMPI DUP1 PUSH4 0x8DA5CB5B EQ PUSH2 0xBB3 JUMPI DUP1 PUSH4 0x95082D25 EQ PUSH2 0xB90 JUMPI DUP1 PUSH4 0x964EBF42 EQ PUSH2 0xB52 JUMPI DUP1 PUSH4 0x96F277B7 EQ PUSH2 0xB35 JUMPI DUP1 PUSH4 0x9ACFB474 EQ PUSH2 0xA76 JUMPI DUP1 PUSH4 0xA517744E EQ PUSH2 0x8C0 JUMPI DUP1 PUSH4 0xAB2F3AD4 EQ PUSH2 0x88B JUMPI DUP1 PUSH4 0xAD5C4648 EQ PUSH2 0x847 JUMPI DUP1 PUSH4 0xB497560E EQ PUSH2 0x807 JUMPI DUP1 PUSH4 0xBECD7B3F EQ PUSH2 0x7C4 JUMPI DUP1 PUSH4 0xC1BE9589 EQ PUSH2 0x742 JUMPI DUP1 PUSH4 0xDDC8AEC2 EQ PUSH2 0x6C9 JUMPI DUP1 PUSH4 0xE4B6051D EQ PUSH2 0x60C JUMPI DUP1 PUSH4 0xE63519A7 EQ PUSH2 0x598 JUMPI DUP1 PUSH4 0xEBFCAE78 EQ PUSH2 0x1FF JUMPI PUSH4 0xF2FDE38B EQ PUSH2 0x176 JUMPI PUSH1 0x0 DUP1 REVERT JUMPDEST CALLVALUE PUSH2 0x1FB JUMPI PUSH1 0x20 CALLDATASIZE PUSH1 0x3 NOT ADD SLT PUSH2 0x1FB JUMPI PUSH2 0x18F PUSH2 0x1CE4 JUMP JUMPDEST SWAP1 PUSH2 0x198 PUSH2 0x1F9C JUMP JUMPDEST PUSH1 0x1 PUSH1 0x1 PUSH1 0xA0 SHL SUB SWAP2 DUP3 AND SWAP3 DUP4 ISZERO PUSH2 0x1E5 JUMPI POP POP DUP3 SLOAD PUSH1 0x1 PUSH1 0x1 PUSH1 0xA0 SHL SUB NOT DUP2 AND DUP4 OR DUP5 SSTORE AND PUSH32 0x8BE0079C531659141344CD1FD0A4F28419497F9722A3DAAFE3B4186F6B6457E0 DUP4 DUP1 LOG3 DUP1 RETURN JUMPDEST MLOAD PUSH4 0x1E4FBDF7 PUSH1 0xE0 SHL DUP2 MSTORE SWAP1 DUP2 ADD DUP5 SWAP1 MSTORE PUSH1 0x24 SWAP1 REVERT JUMPDEST DUP3 DUP1 REVERT JUMPDEST POP SWAP2 SWAP1 CALLVALUE PUSH2 0x594 JUMPI DUP1 PUSH1 0x3 NOT CALLDATASIZE ADD SLT PUSH2 0x594 JUMPI PUSH2 0x243 PUSH2 0x21D PUSH2 0x1CE4 JUMP JUMPDEST PUSH2 0x225 PUSH2 0x1CFF JUMP JUMPDEST SWAP1 PUSH2 0x23E PUSH1 0x1 PUSH1 0x1 PUSH1 0xA0 SHL SUB DUP1 DUP4 AND SWAP1 DUP5 AND EQ ISZERO PUSH2 0x1FC8 JUMP JUMPDEST PUSH2 0x21E9 JUMP JUMPDEST SWAP1 DUP3 SWAP4 DUP4 JUMPDEST DUP4 MLOAD DUP2 LT ISZERO PUSH2 0x28C JUMPI PUSH2 0x264 PUSH2 0x25E DUP3 DUP7 PUSH2 0x20FD JUMP JUMPDEST MLOAD PUSH2 0x2907 JUMP JUMPDEST PUSH2 0x277 JUMPI JUMPDEST PUSH2 0x272 SWAP1 PUSH2 0x2111 JUMP JUMPDEST PUSH2 0x248 JUMP JUMPDEST SWAP5 PUSH2 0x284 PUSH2 0x272 SWAP2 PUSH2 0x2111 JUMP JUMPDEST SWAP6 SWAP1 POP PUSH2 0x269 JUMP JUMPDEST POP DUP3 DUP5 PUSH2 0x298 DUP8 PUSH2 0x215F JUMP JUMPDEST SWAP2 DUP2 DUP1 JUMPDEST DUP3 MLOAD DUP2 LT ISZERO PUSH2 0x2FB JUMPI PUSH2 0x2B2 PUSH2 0x25E DUP3 DUP6 PUSH2 0x20FD JUMP JUMPDEST PUSH2 0x2C5 JUMPI JUMPDEST PUSH2 0x2C0 SWAP1 PUSH2 0x2111 JUMP JUMPDEST PUSH2 0x29C JUMP JUMPDEST SWAP3 PUSH2 0x2F3 PUSH2 0x2C0 SWAP2 PUSH2 0x2D7 DUP7 DUP7 PUSH2 0x20FD JUMP JUMPDEST MLOAD PUSH2 0x2E2 DUP3 DUP10 PUSH2 0x20FD JUMP JUMPDEST MSTORE PUSH2 0x2ED DUP2 DUP9 PUSH2 0x20FD JUMP JUMPDEST POP PUSH2 0x2111 JUMP JUMPDEST SWAP4 SWAP1 POP PUSH2 0x2B7 JUMP JUMPDEST DUP7 DUP3 DUP8 DUP8 DUP1 MLOAD PUSH1 0x8 SLOAD GT PUSH2 0x551 JUMPI PUSH2 0x312 SWAP1 PUSH2 0x274E JUMP JUMPDEST SWAP2 DUP3 MLOAD ISZERO PUSH2 0x51C JUMPI PUSH1 0x7 SLOAD DUP1 PUSH2 0x3E0 JUMPI POP SWAP1 SWAP2 DUP2 DUP1 JUMPDEST DUP3 MLOAD DUP5 LT ISZERO PUSH2 0x36F JUMPI PUSH2 0x362 PUSH2 0x34D PUSH2 0x368 SWAP3 PUSH2 0x345 DUP8 DUP8 PUSH2 0x20FD JUMP JUMPDEST MLOAD MLOAD SWAP1 PUSH2 0x2152 JUMP JUMPDEST SWAP3 DUP8 PUSH2 0x359 DUP8 DUP8 PUSH2 0x20FD JUMP JUMPDEST MLOAD ADD MLOAD SWAP1 PUSH2 0x2152 JUMP JUMPDEST SWAP4 PUSH2 0x2111 JUMP JUMPDEST SWAP3 SWAP1 PUSH2 0x328 JUMP JUMPDEST PUSH2 0x38A SWAP3 SWAP5 SWAP4 POP PUSH2 0x382 SWAP1 DUP6 MLOAD SWAP1 PUSH2 0x272E JUMP JUMPDEST SWAP4 MLOAD SWAP1 PUSH2 0x272E JUMP JUMPDEST SWAP1 JUMPDEST PUSH1 0x46 DUP3 LT PUSH2 0x3AC JUMPI POP PUSH2 0x3A0 DUP3 ISZERO ISZERO PUSH2 0x2001 JUMP JUMPDEST DUP3 MLOAD SWAP2 DUP3 MSTORE PUSH1 0x20 DUP3 ADD MSTORE RETURN JUMPDEST PUSH1 0x64 SWAP1 PUSH1 0x20 DUP6 MLOAD SWAP2 PUSH3 0x461BCD PUSH1 0xE5 SHL DUP4 MSTORE DUP3 ADD MSTORE PUSH1 0xE PUSH1 0x24 DUP3 ADD MSTORE PUSH14 0x4C6F7720636F6E666964656E6365 PUSH1 0x90 SHL PUSH1 0x44 DUP3 ADD MSTORE REVERT JUMPDEST PUSH1 0x1 SWAP1 DUP2 SUB PUSH2 0x493 JUMPI PUSH2 0x3F3 DUP5 MLOAD PUSH2 0x2120 JUMP JUMPDEST SWAP1 DUP3 DUP1 DUP3 JUMPDEST PUSH2 0x44D JUMPI JUMPDEST POP DUP3 MLOAD PUSH1 0x0 NOT DUP2 ADD SWAP2 SWAP1 DUP3 GT PUSH2 0x43A JUMPI SWAP2 PUSH2 0x421 DUP5 SWAP3 PUSH2 0x42B SWAP5 PUSH2 0x434 SWAP8 SWAP7 PUSH2 0x2987 JUMP JUMPDEST DUP2 MLOAD SWAP1 SHR SWAP1 PUSH2 0x20FD JUMP JUMPDEST MLOAD SWAP4 MLOAD SWAP1 PUSH2 0x272E JUMP JUMPDEST SWAP1 PUSH2 0x38C JUMP JUMPDEST PUSH4 0x4E487B71 PUSH1 0xE0 SHL DUP2 MSTORE PUSH1 0x11 DUP7 MSTORE PUSH1 0x24 SWAP1 REVERT JUMPDEST SWAP4 DUP7 MLOAD DUP6 LT ISZERO PUSH2 0x48D JUMPI PUSH2 0x487 PUSH2 0x481 DUP5 SWAP3 PUSH2 0x469 DUP9 DUP12 PUSH2 0x20FD JUMP JUMPDEST MLOAD MLOAD PUSH2 0x475 DUP10 DUP10 PUSH2 0x20FD JUMP JUMPDEST MSTORE DUP11 PUSH2 0x359 DUP10 DUP13 PUSH2 0x20FD JUMP JUMPDEST SWAP6 PUSH2 0x2111 JUMP JUMPDEST SWAP1 PUSH2 0x3F8 JUMP JUMPDEST SWAP4 PUSH2 0x3FD JUMP JUMPDEST SWAP3 SWAP2 SWAP1 DUP1 DUP2 SWAP5 DUP1 DUP4 SWAP2 JUMPDEST PUSH2 0x4B3 JUMPI JUMPDEST POP POP PUSH2 0x434 SWAP3 SWAP4 SWAP5 PUSH2 0x382 SWAP2 PUSH2 0x272E JUMP JUMPDEST SWAP1 SWAP3 SWAP2 DUP8 DUP7 MLOAD DUP6 LT ISZERO PUSH2 0x514 JUMPI PUSH2 0x4FE DUP6 PUSH2 0x4F8 PUSH2 0x50A SWAP5 PUSH2 0x4F2 DUP12 PUSH2 0x4EB PUSH2 0x362 SWAP8 PUSH2 0x4E0 DUP8 DUP5 PUSH2 0x20FD JUMP JUMPDEST MLOAD ADD MLOAD SWAP6 DUP7 SWAP3 PUSH2 0x20FD JUMP JUMPDEST MLOAD MLOAD PUSH2 0x20B5 JUMP JUMPDEST SWAP1 PUSH2 0x2152 JUMP JUMPDEST SWAP10 PUSH2 0x2152 JUMP JUMPDEST SWAP4 DUP10 PUSH2 0x359 DUP8 DUP11 PUSH2 0x20FD JUMP JUMPDEST SWAP1 DUP1 SWAP7 SWAP3 SWAP7 PUSH2 0x49D JUMP JUMPDEST POP SWAP2 SWAP3 PUSH2 0x4A2 JUMP JUMPDEST DUP4 MLOAD PUSH3 0x461BCD PUSH1 0xE5 SHL DUP2 MSTORE PUSH1 0x20 DUP2 DUP5 ADD MSTORE PUSH1 0xF PUSH1 0x24 DUP3 ADD MSTORE PUSH15 0x4E6F20636C65616E20707269636573 PUSH1 0x88 SHL PUSH1 0x44 DUP3 ADD MSTORE PUSH1 0x64 SWAP1 REVERT JUMPDEST DUP4 MLOAD PUSH3 0x461BCD PUSH1 0xE5 SHL DUP2 MSTORE PUSH1 0x20 DUP2 DUP5 ADD MSTORE PUSH1 0x1A PUSH1 0x24 DUP3 ADD MSTORE PUSH32 0x496E73756666696369656E7420707269636520736F7572636573000000000000 PUSH1 0x44 DUP3 ADD MSTORE PUSH1 0x64 SWAP1 REVERT JUMPDEST POP DUP1 REVERT JUMPDEST POP CALLVALUE PUSH2 0x1FB JUMPI DUP2 PUSH1 0x3 NOT CALLDATASIZE ADD SLT PUSH2 0x1FB JUMPI PUSH1 0x24 CALLDATALOAD PUSH8 0xFFFFFFFFFFFFFFFF DUP2 GT PUSH2 0x608 JUMPI PUSH1 0x20 SWAP4 PUSH2 0x5CC DUP5 SWAP3 CALLDATASIZE SWAP1 DUP6 ADD PUSH2 0x1E33 JUMP JUMPDEST SWAP3 CALLDATALOAD DUP2 MSTORE PUSH1 0x5 DUP6 MSTORE KECCAK256 SWAP1 DUP4 PUSH2 0x5E9 DUP5 MLOAD SWAP3 DUP4 DUP2 MLOAD SWAP4 DUP5 SWAP3 ADD PUSH2 0x1D5F JUMP JUMPDEST DUP2 ADD SWAP2 DUP3 MSTORE SWAP1 DUP2 SWAP1 SUB DUP4 ADD SWAP1 KECCAK256 SLOAD SWAP1 MLOAD PUSH1 0x1 PUSH1 0x1 PUSH1 0xA0 SHL SUB SWAP1 SWAP2 AND DUP2 MSTORE RETURN JUMPDEST DUP4 DUP1 REVERT JUMPDEST POP DUP3 SWAP1 CALLVALUE PUSH2 0x594 JUMPI PUSH1 0x3 NOT SWAP1 PUSH1 0x20 CALLDATASIZE DUP4 ADD SLT PUSH2 0x1FB JUMPI DUP1 CALLDATALOAD SWAP1 PUSH8 0xFFFFFFFFFFFFFFFF SWAP3 DUP4 DUP4 GT PUSH2 0x6C1 JUMPI PUSH1 0xC0 SWAP1 DUP4 CALLDATASIZE SUB ADD SLT PUSH2 0x608 JUMPI DUP5 MLOAD SWAP3 PUSH2 0x64E DUP5 PUSH2 0x1DD9 JUMP JUMPDEST DUP2 DUP4 ADD CALLDATALOAD PUSH1 0x1 PUSH1 0x1 PUSH1 0xA0 SHL SUB DUP2 AND DUP2 SUB PUSH2 0x6C5 JUMPI DUP5 MSTORE PUSH1 0x24 DUP4 ADD CALLDATALOAD PUSH1 0x20 DUP6 ADD MSTORE PUSH1 0x44 DUP4 ADD CALLDATALOAD DUP7 DUP6 ADD MSTORE PUSH1 0x64 DUP4 ADD CALLDATALOAD PUSH1 0x60 DUP6 ADD MSTORE PUSH1 0x84 DUP4 ADD CALLDATALOAD DUP1 ISZERO ISZERO DUP2 SUB PUSH2 0x6C5 JUMPI PUSH1 0x80 DUP6 ADD MSTORE PUSH1 0xA4 DUP4 ADD CALLDATALOAD SWAP1 DUP2 GT PUSH2 0x6C1 JUMPI SWAP2 PUSH2 0x6B1 SWAP2 PUSH1 0xA0 SWAP4 CALLDATASIZE SWAP3 ADD ADD PUSH2 0x1E33 JUMP JUMPDEST SWAP2 ADD MSTORE DUP2 MLOAD SWAP1 DUP1 DUP3 MSTORE PUSH1 0x20 DUP3 ADD MSTORE RETURN JUMPDEST DUP5 DUP1 REVERT JUMPDEST DUP6 DUP1 REVERT JUMPDEST POP CALLVALUE PUSH2 0x1FB JUMPI PUSH1 0x20 CALLDATASIZE PUSH1 0x3 NOT ADD SLT PUSH2 0x1FB JUMPI DUP1 CALLDATALOAD SWAP2 PUSH2 0x6E6 PUSH2 0x1F9C JUMP JUMPDEST PUSH1 0x1 DUP4 LT ISZERO DUP1 PUSH2 0x737 JUMPI JUMPDEST ISZERO PUSH2 0x6FE JUMPI POP POP PUSH1 0x8 SSTORE DUP1 RETURN JUMPDEST SWAP1 PUSH1 0x20 PUSH1 0x64 SWAP3 MLOAD SWAP2 PUSH3 0x461BCD PUSH1 0xE5 SHL DUP4 MSTORE DUP3 ADD MSTORE PUSH1 0x13 PUSH1 0x24 DUP3 ADD MSTORE PUSH19 0x496E76616C6964206D696E20736F7572636573 PUSH1 0x68 SHL PUSH1 0x44 DUP3 ADD MSTORE REVERT JUMPDEST POP PUSH1 0xA DUP4 GT ISZERO PUSH2 0x6F1 JUMP JUMPDEST POP POP CALLVALUE PUSH2 0x594 JUMPI DUP1 PUSH1 0x3 NOT CALLDATASIZE ADD SLT PUSH2 0x594 JUMPI SWAP1 PUSH1 0xFF DUP3 PUSH1 0xA0 SWAP4 PUSH2 0x763 PUSH2 0x1CE4 JUMP JUMPDEST SWAP4 PUSH2 0x76C PUSH2 0x1CFF JUMP JUMPDEST PUSH1 0x1 DUP1 DUP9 SHL SUB DUP1 SWAP7 AND DUP3 MSTORE PUSH1 0x3 PUSH1 0x20 MSTORE DUP6 DUP4 DUP4 KECCAK256 SWAP2 AND DUP3 MSTORE PUSH1 0x20 MSTORE KECCAK256 SWAP3 DUP4 SLOAD SWAP4 PUSH1 0x2 DUP3 PUSH1 0x1 DUP4 ADD SLOAD AND SWAP2 ADD SLOAD SWAP3 PUSH4 0xFFFFFFFF DUP2 MLOAD SWAP7 DUP5 DUP2 AND DUP9 MSTORE DUP9 SHR AND PUSH1 0x20 DUP8 ADD MSTORE DUP6 ADD MSTORE DUP2 AND PUSH1 0x60 DUP5 ADD MSTORE DUP4 SHR AND ISZERO ISZERO PUSH1 0x80 DUP3 ADD MSTORE RETURN JUMPDEST POP POP CALLVALUE PUSH2 0x594 JUMPI PUSH1 0x20 CALLDATASIZE PUSH1 0x3 NOT ADD SLT PUSH2 0x594 JUMPI PUSH2 0x7DF PUSH2 0x1CE4 JUMP JUMPDEST PUSH2 0x7E7 PUSH2 0x1F9C JUMP JUMPDEST PUSH1 0x1 PUSH1 0x1 PUSH1 0xA0 SHL SUB AND DUP3 MSTORE PUSH1 0x6 PUSH1 0x20 MSTORE DUP2 KECCAK256 DUP1 SLOAD PUSH1 0xFF NOT AND PUSH1 0x1 OR SWAP1 SSTORE DUP1 RETURN JUMPDEST POP POP CALLVALUE PUSH2 0x594 JUMPI PUSH1 0x20 CALLDATASIZE PUSH1 0x3 NOT ADD SLT PUSH2 0x594 JUMPI PUSH2 0x822 PUSH2 0x1CE4 JUMP JUMPDEST PUSH2 0x82A PUSH2 0x1F9C JUMP JUMPDEST PUSH1 0x1 PUSH1 0x1 PUSH1 0xA0 SHL SUB AND DUP3 MSTORE PUSH1 0x6 PUSH1 0x20 MSTORE DUP2 KECCAK256 DUP1 SLOAD PUSH1 0xFF NOT AND SWAP1 SSTORE DUP1 RETURN JUMPDEST POP POP CALLVALUE PUSH2 0x594 JUMPI DUP2 PUSH1 0x3 NOT CALLDATASIZE ADD SLT PUSH2 0x594 JUMPI MLOAD PUSH32 0x0 PUSH1 0x1 PUSH1 0x1 PUSH1 0xA0 SHL SUB AND DUP2 MSTORE PUSH1 0x20 SWAP1 RETURN JUMPDEST POP CALLVALUE PUSH2 0x1FB JUMPI PUSH1 0x20 CALLDATASIZE PUSH1 0x3 NOT ADD SLT PUSH2 0x1FB JUMPI PUSH1 0x20 SWAP3 DUP3 SWAP2 PUSH1 0x1 PUSH1 0x1 PUSH1 0xA0 SHL SUB PUSH2 0x8B2 PUSH2 0x1CE4 JUMP JUMPDEST AND DUP3 MSTORE DUP5 MSTORE KECCAK256 SLOAD SWAP1 MLOAD SWAP1 DUP2 MSTORE RETURN JUMPDEST POP DUP3 SWAP1 CALLVALUE PUSH2 0x594 JUMPI PUSH1 0xA0 CALLDATASIZE PUSH1 0x3 NOT ADD SLT PUSH2 0x594 JUMPI PUSH2 0x8DC PUSH2 0x1CE4 JUMP JUMPDEST PUSH2 0x8E4 PUSH2 0x1CFF JUMP JUMPDEST PUSH1 0x44 CALLDATALOAD SWAP2 PUSH1 0x64 CALLDATALOAD SWAP1 PUSH1 0x84 CALLDATALOAD PUSH8 0xFFFFFFFFFFFFFFFF DUP2 GT PUSH2 0xA72 JUMPI PUSH2 0x90B SWAP1 CALLDATASIZE SWAP1 DUP8 ADD PUSH2 0x1E33 JUMP JUMPDEST SWAP3 CALLER DUP8 MSTORE PUSH1 0x20 SWAP6 PUSH1 0x6 DUP8 MSTORE PUSH1 0xFF DUP10 DUP10 KECCAK256 SLOAD AND ISZERO PUSH2 0xA3E JUMPI PUSH2 0x92D DUP7 ISZERO ISZERO PUSH2 0x2001 JUMP JUMPDEST PUSH1 0x64 DUP5 GT PUSH2 0xA06 JUMPI POP SWAP2 DUP8 SWAP2 DUP8 DUP8 SWAP7 SWAP6 SWAP5 DUP2 SWAP11 MLOAD SWAP1 PUSH2 0x94B DUP3 PUSH2 0x1DA7 JUMP JUMPDEST DUP8 DUP3 MSTORE DUP9 DUP3 ADD TIMESTAMP DUP2 MSTORE DUP7 DUP4 ADD SWAP2 DUP7 DUP4 MSTORE PUSH1 0x60 DUP5 ADD SWAP6 PUSH1 0x12 DUP8 MSTORE DUP9 PUSH1 0x80 DUP7 ADD SWAP7 PUSH1 0x1 DUP9 MSTORE PUSH1 0x1 PUSH1 0xA0 SHL PUSH1 0x1 SWAP1 SUB DUP1 SWAP4 AND SWAP15 DUP16 DUP3 MSTORE PUSH1 0x1 SWAP1 MSTORE KECCAK256 SWAP2 AND DUP1 SWAP14 MSTORE DUP11 MSTORE DUP7 DUP14 KECCAK256 SWAP3 MLOAD DUP4 SSTORE MLOAD PUSH1 0x1 DUP4 ADD SSTORE MLOAD PUSH1 0x2 DUP3 ADD SSTORE PUSH1 0x3 ADD SWAP2 MLOAD PUSH1 0xFF AND DUP3 SLOAD SWAP2 MLOAD ISZERO ISZERO PUSH1 0x8 SHL PUSH2 0xFF00 AND SWAP2 PUSH2 0xFFFF NOT AND OR OR SWAP1 SSTORE DUP2 MLOAD SWAP5 DUP6 SWAP5 DUP6 MSTORE DUP5 ADD MSTORE DUP3 ADD PUSH1 0x80 SWAP1 MSTORE PUSH1 0x80 DUP3 ADD PUSH2 0x9D9 SWAP2 PUSH2 0x1D82 JUMP JUMPDEST TIMESTAMP PUSH1 0x60 DUP4 ADD MSTORE SUB PUSH32 0x6CF9129842C5BD9EB484DF767EA8FCC28C7957361CC87E37851344C97C16A834 SWAP2 LOG3 DUP1 RETURN JUMPDEST DUP9 MLOAD PUSH3 0x461BCD PUSH1 0xE5 SHL DUP2 MSTORE SWAP1 DUP2 ADD DUP8 SWAP1 MSTORE PUSH1 0x12 PUSH1 0x24 DUP3 ADD MSTORE PUSH18 0x496E76616C696420636F6E666964656E6365 PUSH1 0x70 SHL PUSH1 0x44 DUP3 ADD MSTORE PUSH1 0x64 SWAP1 REVERT JUMPDEST DUP9 MLOAD PUSH3 0x461BCD PUSH1 0xE5 SHL DUP2 MSTORE SWAP1 DUP2 ADD DUP8 SWAP1 MSTORE PUSH1 0xE PUSH1 0x24 DUP3 ADD MSTORE PUSH14 0x139BDD08185D5D1A1BDC9A5E9959 PUSH1 0x92 SHL PUSH1 0x44 DUP3 ADD MSTORE PUSH1 0x64 SWAP1 REVERT JUMPDEST DUP7 DUP1 REVERT JUMPDEST POP SWAP2 SWAP1 CALLVALUE PUSH2 0x594 JUMPI PUSH1 0x60 CALLDATASIZE PUSH1 0x3 NOT ADD SLT PUSH2 0x594 JUMPI PUSH2 0xA92 PUSH2 0x1CE4 JUMP JUMPDEST SWAP2 PUSH2 0xA9B PUSH2 0x1CFF JUMP JUMPDEST PUSH1 0x1 PUSH1 0x1 PUSH1 0xA0 SHL SUB SWAP4 DUP5 AND DUP3 MSTORE PUSH1 0x2 PUSH1 0x20 SWAP1 DUP2 MSTORE DUP4 DUP4 KECCAK256 SWAP2 DUP6 AND DUP4 MSTORE MSTORE DUP2 DUP2 KECCAK256 DUP1 SLOAD PUSH1 0x44 CALLDATALOAD SWAP3 SWAP1 DUP4 LT ISZERO PUSH2 0xB32 JUMPI POP PUSH2 0xB2E SWAP3 SWAP2 PUSH2 0xAD8 SWAP2 PUSH2 0x1E8A JUMP JUMPDEST POP SWAP3 DUP4 SLOAD AND SWAP3 PUSH1 0x1 DUP2 ADD SLOAD SWAP5 PUSH1 0x2 DUP3 ADD SLOAD PUSH2 0xB01 PUSH1 0x5 PUSH1 0xFF PUSH1 0x3 DUP7 ADD SLOAD SWAP5 DUP7 ADD SLOAD AND SWAP5 ADD PUSH2 0x1EF6 JUMP JUMPDEST SWAP4 DUP1 MLOAD SWAP8 DUP9 SWAP8 DUP9 MSTORE PUSH1 0x20 DUP9 ADD MSTORE DUP7 ADD MSTORE PUSH1 0x60 DUP6 ADD MSTORE ISZERO ISZERO PUSH1 0x80 DUP5 ADD MSTORE PUSH1 0xC0 PUSH1 0xA0 DUP5 ADD MSTORE PUSH1 0xC0 DUP4 ADD SWAP1 PUSH2 0x1D82 JUMP JUMPDEST SUB SWAP1 RETURN JUMPDEST DUP1 REVERT JUMPDEST POP POP CALLVALUE PUSH2 0x594 JUMPI DUP2 PUSH1 0x3 NOT CALLDATASIZE ADD SLT PUSH2 0x594 JUMPI PUSH1 0x20 SWAP1 MLOAD PUSH2 0x3E8 DUP2 MSTORE RETURN JUMPDEST POP POP CALLVALUE PUSH2 0x594 JUMPI PUSH1 0x20 CALLDATASIZE PUSH1 0x3 NOT ADD SLT PUSH2 0x594 JUMPI PUSH1 0x20 SWAP2 PUSH1 0xFF SWAP1 DUP3 SWAP1 PUSH1 0x1 PUSH1 0x1 PUSH1 0xA0 SHL SUB PUSH2 0xB7D PUSH2 0x1CE4 JUMP JUMPDEST AND DUP2 MSTORE PUSH1 0x6 DUP6 MSTORE KECCAK256 SLOAD AND SWAP1 MLOAD SWAP1 ISZERO ISZERO DUP2 MSTORE RETURN JUMPDEST POP POP CALLVALUE PUSH2 0x594 JUMPI DUP2 PUSH1 0x3 NOT CALLDATASIZE ADD SLT PUSH2 0x594 JUMPI PUSH1 0x20 SWAP1 MLOAD PUSH8 0xDE0B6B3A7640000 DUP2 MSTORE RETURN JUMPDEST POP POP CALLVALUE PUSH2 0x594 JUMPI DUP2 PUSH1 0x3 NOT CALLDATASIZE ADD SLT PUSH2 0x594 JUMPI SWAP1 SLOAD SWAP1 MLOAD PUSH1 0x1 PUSH1 0x1 PUSH1 0xA0 SHL SUB SWAP1 SWAP2 AND DUP2 MSTORE PUSH1 0x20 SWAP1 RETURN JUMPDEST POP CALLVALUE PUSH2 0x1FB JUMPI PUSH1 0x20 CALLDATASIZE PUSH1 0x3 NOT ADD SLT PUSH2 0x1FB JUMPI DUP1 CALLDATALOAD SWAP2 PUSH2 0xBF8 PUSH2 0x1F9C JUMP JUMPDEST PUSH1 0x2 DUP4 GT PUSH2 0xC08 JUMPI POP POP PUSH1 0x7 SSTORE DUP1 RETURN JUMPDEST SWAP1 PUSH1 0x20 PUSH1 0x64 SWAP3 MLOAD SWAP2 PUSH3 0x461BCD PUSH1 0xE5 SHL DUP4 MSTORE DUP3 ADD MSTORE PUSH1 0xE PUSH1 0x24 DUP3 ADD MSTORE PUSH14 0x125B9D985B1A59081B595D1A1BD9 PUSH1 0x92 SHL PUSH1 0x44 DUP3 ADD MSTORE REVERT JUMPDEST POP DUP3 CALLVALUE PUSH2 0xB32 JUMPI DUP3 PUSH1 0x3 NOT CALLDATASIZE ADD SLT PUSH2 0xB32 JUMPI PUSH2 0xC56 PUSH2 0x1CE4 JUMP JUMPDEST SWAP1 PUSH2 0xC5F PUSH2 0x1CFF JUMP JUMPDEST PUSH1 0x1 DUP1 PUSH1 0xA0 SHL SUB DUP1 SWAP4 AND SWAP1 DUP2 DUP4 MSTORE PUSH1 0x20 SWAP4 PUSH1 0x3 DUP6 MSTORE DUP1 DUP8 DUP6 KECCAK256 SWAP3 AND SWAP2 DUP3 DUP6 MSTORE DUP6 MSTORE DUP7 DUP5 KECCAK256 DUP8 MLOAD PUSH2 0xC8E DUP2 PUSH2 0x1DA7 JUMP JUMPDEST DUP2 SLOAD SWAP2 DUP4 DUP4 AND DUP3 MSTORE DUP8 DUP3 ADD SWAP2 PUSH4 0xFFFFFFFF DUP1 SWAP5 PUSH1 0xA0 SHR AND DUP4 MSTORE PUSH1 0xFF PUSH1 0x2 PUSH1 0x1 SWAP4 DUP14 DUP9 DUP7 DUP4 ADD SLOAD AND SWAP1 DUP6 ADD MSTORE ADD SLOAD DUP7 DUP2 AND PUSH1 0x60 DUP5 ADD MSTORE PUSH1 0xA0 SHR AND ISZERO DUP1 ISZERO PUSH1 0x80 DUP4 ADD MSTORE PUSH2 0x10AD JUMPI MLOAD DUP11 MLOAD SWAP2 PUSH8 0xFFFFFFFFFFFFFFFF SWAP2 DUP7 AND SWAP1 PUSH1 0x60 DUP5 ADD DUP4 DUP2 GT DUP6 DUP3 LT OR PUSH2 0x109A JUMPI SWAP2 DUP14 DUP13 DUP15 SWAP7 SWAP4 DUP14 SWAP6 DUP4 MSTORE PUSH1 0x2 DUP6 MSTORE DUP2 DUP6 ADD SWAP3 DUP1 CALLDATASIZE DUP6 CALLDATACOPY DUP11 DUP11 MLOAD AND PUSH2 0xD16 DUP8 PUSH2 0x20E0 JUMP JUMPDEST MSTORE DUP7 PUSH2 0xD21 DUP8 PUSH2 0x20ED JUMP JUMPDEST MSTORE MLOAD SWAP8 DUP9 SWAP6 PUSH4 0x883BDBFD PUSH1 0xE0 SHL DUP8 MSTORE DUP4 PUSH1 0x24 DUP9 ADD SWAP3 DUP9 ADD MSTORE MLOAD DUP1 SWAP2 MSTORE PUSH1 0x44 DUP7 ADD SWAP4 SWAP3 DUP8 SWAP1 JUMPDEST DUP3 DUP3 LT PUSH2 0x1076 JUMPI POP POP POP POP POP DUP3 DUP1 SWAP2 SUB SWAP2 GAS STATICCALL SWAP2 DUP3 SWAP2 DUP10 SWAP4 PUSH2 0xF62 JUMPI JUMPDEST POP POP PUSH2 0xDAC JUMPI DUP10 MLOAD PUSH3 0x461BCD PUSH1 0xE5 SHL DUP2 MSTORE DUP1 DUP11 ADD DUP10 SWAP1 MSTORE PUSH1 0x17 PUSH1 0x24 DUP3 ADD MSTORE PUSH32 0x545741502063616C63756C6174696F6E206661696C6564000000000000000000 PUSH1 0x44 DUP3 ADD MSTORE PUSH1 0x64 SWAP1 REVERT JUMPDEST PUSH2 0xDC4 PUSH2 0xDBD DUP3 SWAP11 SWAP8 SWAP9 SWAP10 SWAP11 PUSH2 0x20ED JUMP JUMPDEST MLOAD SWAP2 PUSH2 0x20E0 JUMP JUMPDEST MLOAD PUSH1 0x6 SIGNEXTEND SWAP1 PUSH1 0x6 SIGNEXTEND SUB SWAP2 PUSH7 0x7FFFFFFFFFFFFF NOT SWAP2 PUSH7 0x7FFFFFFFFFFFFF DUP5 SGT DUP4 DUP6 SLT OR PUSH2 0xF4F JUMPI MLOAD AND PUSH1 0x3 SIGNEXTEND SWAP2 PUSH1 0x6 SIGNEXTEND SWAP1 DUP3 ISZERO PUSH2 0xF3C JUMPI DUP2 EQ PUSH1 0x0 NOT DUP4 EQ AND PUSH2 0xF29 JUMPI SWAP1 PUSH2 0xE1A SWAP3 SWAP2 SDIV PUSH1 0x60 SHL PUSH1 0xE SIGNEXTEND AND DUP1 PUSH2 0x20B5 JUMP JUMPDEST PUSH1 0xC0 SHR SWAP3 DUP7 MLOAD SWAP3 DUP7 DUP5 DUP3 DUP2 PUSH4 0x313CE567 PUSH1 0xE0 SHL SWAP6 DUP7 DUP3 MSTORE GAS STATICCALL SWAP4 DUP5 ISZERO PUSH2 0xF1F JUMPI SWAP1 DUP8 SWAP3 SWAP2 DUP8 SWAP6 PUSH2 0xF00 JUMPI JUMPDEST POP DUP9 MLOAD DUP1 SWAP5 DUP2 SWAP4 DUP3 MSTORE GAS STATICCALL SWAP4 DUP5 ISZERO PUSH2 0xEF5 JUMPI SWAP4 PUSH2 0xEC6 JUMPI JUMPDEST POP PUSH1 0xFF DUP4 AND PUSH1 0xFF DUP3 AND DUP2 DUP2 SUB PUSH2 0xE81 JUMPI JUMPDEST POP POP POP SWAP1 POP SWAP1 PUSH1 0x55 SWAP1 DUP4 MLOAD SWAP3 DUP4 MSTORE DUP3 ADD MSTORE RETURN JUMPDEST GT ISZERO PUSH2 0xEAB JUMPI PUSH2 0xE97 PUSH2 0xEA2 SWAP4 PUSH2 0xE9C SWAP3 PUSH2 0x2090 JUMP JUMPDEST PUSH2 0x20A4 JUMP JUMPDEST SWAP1 PUSH2 0x272E JUMP JUMPDEST DUP1 DUP5 DUP1 DUP1 PUSH2 0xE6E JUMP JUMPDEST PUSH2 0xE97 PUSH2 0xEBB SWAP2 PUSH2 0xEC1 SWAP5 PUSH2 0x2090 JUMP JUMPDEST SWAP1 PUSH2 0x20B5 JUMP JUMPDEST PUSH2 0xEA2 JUMP JUMPDEST PUSH2 0xEE7 SWAP2 SWAP4 POP DUP5 RETURNDATASIZE DUP7 GT PUSH2 0xEEE JUMPI JUMPDEST PUSH2 0xEDF DUP2 DUP4 PUSH2 0x1E11 JUMP JUMPDEST DUP2 ADD SWAP1 PUSH2 0x2077 JUMP JUMPDEST SWAP2 DUP6 PUSH2 0xE5D JUMP JUMPDEST POP RETURNDATASIZE PUSH2 0xED5 JUMP JUMPDEST DUP7 MLOAD SWAP1 RETURNDATASIZE SWAP1 DUP3 RETURNDATACOPY RETURNDATASIZE SWAP1 REVERT JUMPDEST PUSH2 0xF18 SWAP2 SWAP6 POP DUP4 RETURNDATASIZE DUP6 GT PUSH2 0xEEE JUMPI PUSH2 0xEDF DUP2 DUP4 PUSH2 0x1E11 JUMP JUMPDEST SWAP4 DUP10 PUSH2 0xE45 JUMP JUMPDEST DUP9 MLOAD RETURNDATASIZE DUP9 DUP3 RETURNDATACOPY RETURNDATASIZE SWAP1 REVERT JUMPDEST PUSH4 0x4E487B71 PUSH1 0xE0 SHL DUP8 MSTORE PUSH1 0x11 DUP6 MSTORE PUSH1 0x24 DUP8 REVERT JUMPDEST PUSH4 0x4E487B71 PUSH1 0xE0 SHL DUP9 MSTORE PUSH1 0x12 DUP7 MSTORE PUSH1 0x24 DUP9 REVERT JUMPDEST PUSH4 0x4E487B71 PUSH1 0xE0 SHL DUP10 MSTORE PUSH1 0x11 DUP8 MSTORE PUSH1 0x24 DUP10 REVERT JUMPDEST SWAP1 SWAP2 SWAP3 POP RETURNDATASIZE DUP1 DUP11 DUP5 RETURNDATACOPY PUSH2 0xF75 DUP2 DUP5 PUSH2 0x1E11 JUMP JUMPDEST DUP3 ADD SWAP2 DUP13 DUP2 DUP5 SUB SLT PUSH2 0x1051 JUMPI DUP1 MLOAD DUP3 DUP2 GT PUSH2 0x104D JUMPI DUP2 ADD DUP4 PUSH1 0x1F DUP3 ADD SLT ISZERO PUSH2 0x104D JUMPI SWAP1 DUP2 DUP15 SWAP5 SWAP4 SWAP3 MLOAD PUSH2 0xFB3 PUSH2 0xFAA DUP3 PUSH2 0x20C8 JUMP JUMPDEST SWAP7 MLOAD SWAP7 DUP8 PUSH2 0x1E11 JUMP JUMPDEST DUP1 DUP7 MSTORE DUP14 DUP1 DUP8 ADD SWAP2 PUSH1 0x5 SHL DUP4 ADD ADD SWAP2 DUP6 DUP4 GT PUSH2 0x1072 JUMPI DUP15 ADD SWAP1 JUMPDEST DUP3 DUP3 LT PUSH2 0x1055 JUMPI POP POP POP DUP12 DUP2 ADD MLOAD SWAP2 DUP3 GT PUSH2 0x104D JUMPI ADD DUP2 PUSH1 0x1F DUP3 ADD SLT ISZERO PUSH2 0x1051 JUMPI DUP1 MLOAD SWAP1 DUP12 DUP1 DUP16 PUSH2 0x1009 PUSH2 0x1000 DUP7 PUSH2 0x20C8 JUMP JUMPDEST SWAP2 MLOAD SWAP2 DUP3 PUSH2 0x1E11 JUMP JUMPDEST DUP5 DUP2 MSTORE ADD SWAP3 PUSH1 0x5 SHL DUP3 ADD ADD SWAP3 DUP4 GT PUSH2 0x104D JUMPI DUP12 ADD SWAP1 JUMPDEST DUP3 DUP3 LT PUSH2 0x1031 JUMPI POP POP POP SWAP1 DUP12 DUP1 PUSH2 0xD63 JUMP JUMPDEST DUP2 MLOAD DUP9 DUP2 AND DUP2 SUB PUSH2 0x1049 JUMPI DUP2 MSTORE SWAP1 DUP12 ADD SWAP1 DUP12 ADD PUSH2 0x101F JUMP JUMPDEST DUP12 DUP1 REVERT JUMPDEST DUP11 DUP1 REVERT JUMPDEST DUP10 DUP1 REVERT JUMPDEST DUP2 MLOAD DUP1 PUSH1 0x6 SIGNEXTEND DUP2 SUB PUSH2 0x106E JUMPI DUP2 MSTORE SWAP1 DUP15 ADD SWAP1 DUP15 ADD PUSH2 0xFCD JUMP JUMPDEST DUP15 DUP1 REVERT JUMPDEST DUP14 DUP1 REVERT JUMPDEST SWAP2 SWAP5 DUP4 SWAP7 SWAP9 POP DUP5 SWAP8 POP DUP13 DUP4 SWAP3 SWAP6 MLOAD AND DUP2 MSTORE ADD SWAP6 ADD SWAP2 ADD SWAP3 DUP8 SWAP5 SWAP3 DUP16 SWAP5 DUP16 SWAP8 SWAP6 PUSH2 0xD46 JUMP JUMPDEST PUSH4 0x4E487B71 PUSH1 0xE0 SHL DUP12 MSTORE PUSH1 0x41 DUP14 MSTORE PUSH1 0x24 DUP12 REVERT JUMPDEST DUP11 MLOAD PUSH3 0x461BCD PUSH1 0xE5 SHL DUP2 MSTORE DUP1 DUP12 ADD DUP11 SWAP1 MSTORE PUSH1 0x13 PUSH1 0x24 DUP3 ADD MSTORE PUSH19 0x1515D054081B9BDD0818DBDB999A59DD5C9959 PUSH1 0x6A SHL PUSH1 0x44 DUP3 ADD MSTORE PUSH1 0x64 SWAP1 REVERT JUMPDEST POP POP CALLVALUE PUSH2 0x594 JUMPI DUP2 PUSH1 0x3 NOT CALLDATASIZE ADD SLT PUSH2 0x594 JUMPI PUSH1 0x20 SWAP1 MLOAD PUSH2 0xE10 DUP2 MSTORE RETURN JUMPDEST DUP4 CALLVALUE PUSH2 0xB32 JUMPI DUP1 PUSH1 0x3 NOT CALLDATASIZE ADD SLT PUSH2 0xB32 JUMPI PUSH2 0x111C PUSH2 0x1F9C JUMP JUMPDEST DUP1 SLOAD PUSH1 0x1 PUSH1 0x1 PUSH1 0xA0 SHL SUB NOT DUP2 AND DUP3 SSTORE DUP2 SWAP1 PUSH1 0x1 PUSH1 0x1 PUSH1 0xA0 SHL SUB AND PUSH32 0x8BE0079C531659141344CD1FD0A4F28419497F9722A3DAAFE3B4186F6B6457E0 DUP3 DUP1 LOG3 DUP1 RETURN JUMPDEST POP POP CALLVALUE PUSH2 0x594 JUMPI DUP2 PUSH1 0x3 NOT CALLDATASIZE ADD SLT PUSH2 0x594 JUMPI PUSH1 0x20 SWAP1 MLOAD PUSH1 0x46 DUP2 MSTORE RETURN JUMPDEST POP DUP3 SWAP1 CALLVALUE PUSH2 0x594 JUMPI PUSH1 0xC0 CALLDATASIZE PUSH1 0x3 NOT ADD SLT PUSH2 0x594 JUMPI PUSH2 0x1195 PUSH2 0x1CE4 JUMP JUMPDEST SWAP1 PUSH2 0x119E PUSH2 0x1CFF JUMP JUMPDEST SWAP1 PUSH2 0x11A7 PUSH2 0x1D15 JUMP JUMPDEST SWAP2 PUSH1 0x64 CALLDATALOAD SWAP6 PUSH8 0xFFFFFFFFFFFFFFFF SWAP7 DUP8 DUP2 GT PUSH2 0xA72 JUMPI PUSH2 0x11CA SWAP1 CALLDATASIZE SWAP1 DUP6 ADD PUSH2 0x1E33 JUMP JUMPDEST SWAP7 PUSH1 0x84 CALLDATALOAD SWAP1 PUSH2 0x11D7 PUSH2 0x1F9C JUMP JUMPDEST PUSH1 0x1 PUSH1 0x1 PUSH1 0xA0 SHL SUB SWAP4 DUP5 AND SWAP7 DUP5 AND SWAP6 DUP5 SWAP1 PUSH2 0x11F4 DUP9 DUP11 EQ ISZERO PUSH2 0x1FC8 JUMP JUMPDEST AND SWAP4 DUP5 ISZERO PUSH2 0x14AC JUMPI PUSH2 0x2710 DUP4 GT PUSH2 0x1478 JUMPI SWAP1 DUP10 SWAP2 DUP8 DUP11 MSTORE PUSH1 0x20 SWAP7 PUSH1 0x2 DUP9 MSTORE DUP6 DUP12 KECCAK256 DUP11 DUP13 MSTORE DUP9 MSTORE DUP6 DUP12 KECCAK256 SWAP2 DUP7 MLOAD SWAP1 PUSH2 0x122A DUP3 PUSH2 0x1DD9 JUMP JUMPDEST DUP9 DUP3 MSTORE DUP10 DUP3 ADD PUSH1 0xA4 CALLDATALOAD DUP2 MSTORE DUP9 DUP4 ADD PUSH2 0x3E8 DUP2 MSTORE PUSH1 0x60 DUP5 ADD SWAP2 DUP10 DUP4 MSTORE PUSH1 0x80 DUP6 ADD SWAP4 PUSH1 0x1 SWAP8 DUP9 DUP7 MSTORE PUSH1 0xA0 DUP8 ADD SWAP11 DUP12 MSTORE DUP1 SLOAD SWAP1 PUSH9 0x10000000000000000 DUP3 LT ISZERO PUSH2 0x1461 JUMPI SWAP1 PUSH2 0x127A SWAP2 DUP11 DUP3 ADD DUP2 SSTORE PUSH2 0x1E8A JUMP JUMPDEST SWAP7 SWAP1 SWAP7 PUSH2 0x144C JUMPI SWAP1 PUSH1 0x5 SWAP7 SWAP6 SWAP5 SWAP4 SWAP3 SWAP2 MLOAD AND PUSH12 0xFFFFFFFFFFFFFFFFFFFFFFFF PUSH1 0xA0 SHL DUP7 SLOAD AND OR DUP6 SSTORE MLOAD DUP8 DUP6 ADD SSTORE MLOAD PUSH1 0x2 DUP5 ADD SSTORE MLOAD PUSH1 0x3 DUP4 ADD SSTORE DUP4 DUP3 ADD SWAP1 MLOAD ISZERO ISZERO PUSH1 0xFF DUP1 NOT DUP4 SLOAD AND SWAP2 AND OR SWAP1 SSTORE ADD SWAP4 MLOAD SWAP1 DUP2 MLOAD SWAP4 DUP5 GT PUSH2 0x1439 JUMPI POP PUSH2 0x12DE DUP5 SLOAD PUSH2 0x1EBC JUMP JUMPDEST PUSH1 0x1F DUP2 GT PUSH2 0x13F3 JUMPI JUMPDEST POP DUP8 SWAP1 PUSH1 0x1F DUP5 GT PUSH1 0x1 EQ PUSH2 0x1368 JUMPI SWAP3 DUP1 PUSH2 0x1353 SWAP6 SWAP4 DUP2 SWAP4 DUP15 SWAP16 SWAP7 PUSH32 0x64FAE02D1C15FFB35B22F499FE64329EC396A11087032C73FEDB6474456A6504 SWAP14 SWAP15 SWAP16 SWAP5 PUSH2 0x135D JUMPI JUMPDEST POP POP SHL SWAP2 PUSH1 0x0 NOT SWAP1 PUSH1 0x3 SHL SHR NOT AND OR SWAP1 SSTORE JUMPDEST PUSH1 0x60 DUP5 MLOAD SWAP7 DUP8 SWAP7 DUP8 MSTORE DUP7 ADD MSTORE PUSH1 0x60 DUP6 ADD SWAP1 PUSH2 0x1D82 JUMP JUMPDEST SWAP2 DUP4 ADD MSTORE SUB SWAP1 LOG3 DUP1 RETURN JUMPDEST ADD MLOAD SWAP3 POP DUP16 DUP1 PUSH2 0x132B JUMP JUMPDEST DUP5 DUP13 MSTORE DUP9 DUP13 KECCAK256 SWAP3 SWAP4 SWAP3 SWAP2 SWAP1 PUSH1 0x1F NOT DUP5 AND DUP14 JUMPDEST DUP2 DUP2 LT PUSH2 0x13DE JUMPI POP SWAP2 PUSH32 0x64FAE02D1C15FFB35B22F499FE64329EC396A11087032C73FEDB6474456A6504 SWAP12 SWAP13 SWAP14 SWAP15 SWAP6 SWAP4 SWAP2 DUP6 PUSH2 0x1353 SWAP9 SWAP7 SWAP5 LT PUSH2 0x13C5 JUMPI JUMPDEST POP POP POP DUP2 SHL ADD SWAP1 SSTORE PUSH2 0x133D JUMP JUMPDEST ADD MLOAD PUSH1 0x0 NOT PUSH1 0xF8 DUP5 PUSH1 0x3 SHL AND SHR NOT AND SWAP1 SSTORE DUP14 DUP1 DUP1 PUSH2 0x13B8 JUMP JUMPDEST DUP3 DUP5 ADD MLOAD DUP6 SSTORE SWAP4 DUP7 ADD SWAP4 SWAP3 DUP12 ADD SWAP3 DUP12 ADD PUSH2 0x137A JUMP JUMPDEST DUP5 DUP13 MSTORE DUP9 DUP13 KECCAK256 PUSH1 0x1F DUP6 ADD PUSH1 0x5 SHR DUP2 ADD SWAP2 DUP11 DUP7 LT PUSH2 0x142F JUMPI JUMPDEST PUSH1 0x1F ADD PUSH1 0x5 SHR ADD SWAP1 DUP4 SWAP1 JUMPDEST DUP3 DUP2 LT PUSH2 0x1424 JUMPI POP POP PUSH2 0x12E7 JUMP JUMPDEST DUP14 DUP2 SSTORE ADD DUP4 SWAP1 PUSH2 0x1416 JUMP JUMPDEST SWAP1 SWAP2 POP DUP2 SWAP1 PUSH2 0x140B JUMP JUMPDEST PUSH4 0x4E487B71 PUSH1 0xE0 SHL DUP13 MSTORE PUSH1 0x41 SWAP1 MSTORE PUSH1 0x24 DUP12 REVERT JUMPDEST POP POP POP PUSH1 0x24 DUP16 DUP1 DUP8 PUSH4 0x4E487B71 PUSH1 0xE0 SHL DUP3 MSTORE MSTORE REVERT JUMPDEST POP POP POP POP PUSH1 0x24 DUP16 PUSH1 0x41 DUP8 PUSH4 0x4E487B71 PUSH1 0xE0 SHL DUP4 MSTORE MSTORE REVERT JUMPDEST DUP4 MLOAD PUSH3 0x461BCD PUSH1 0xE5 SHL DUP2 MSTORE PUSH1 0x20 DUP2 DUP9 ADD MSTORE PUSH1 0xE PUSH1 0x24 DUP3 ADD MSTORE PUSH14 0x125B9D985B1A59081DD95A59DA1D PUSH1 0x92 SHL PUSH1 0x44 DUP3 ADD MSTORE PUSH1 0x64 SWAP1 REVERT JUMPDEST DUP4 MLOAD PUSH3 0x461BCD PUSH1 0xE5 SHL DUP2 MSTORE PUSH1 0x20 DUP2 DUP9 ADD MSTORE PUSH1 0x14 PUSH1 0x24 DUP3 ADD MSTORE PUSH20 0x496E76616C696420666565642061646472657373 PUSH1 0x60 SHL PUSH1 0x44 DUP3 ADD MSTORE PUSH1 0x64 SWAP1 REVERT JUMPDEST POP POP CALLVALUE PUSH2 0x594 JUMPI DUP2 PUSH1 0x3 NOT CALLDATASIZE ADD SLT PUSH2 0x594 JUMPI PUSH1 0xFF PUSH1 0x20 SWAP3 SLOAD PUSH1 0xA0 SHR AND SWAP1 MLOAD SWAP1 ISZERO ISZERO DUP2 MSTORE RETURN JUMPDEST POP POP CALLVALUE PUSH2 0x594 JUMPI DUP2 PUSH1 0x3 NOT CALLDATASIZE ADD SLT PUSH2 0x594 JUMPI PUSH1 0x20 SWAP1 PUSH1 0x8 SLOAD SWAP1 MLOAD SWAP1 DUP2 MSTORE RETURN JUMPDEST POP CALLVALUE PUSH2 0x1FB JUMPI DUP3 PUSH1 0x3 NOT CALLDATASIZE ADD SLT PUSH2 0x1FB JUMPI PUSH2 0x1543 PUSH2 0x1F9C JUMP JUMPDEST DUP3 SLOAD SWAP1 PUSH1 0xFF DUP3 PUSH1 0xA0 SHR AND PUSH2 0x158E JUMPI POP PUSH1 0xFF PUSH1 0xA0 SHL NOT AND PUSH1 0x1 PUSH1 0xA0 SHL OR DUP3 SSTORE MLOAD CALLER DUP2 MSTORE PUSH32 0x62E78CEA01BEE320CD4E420270B5EA74000D11B0C9F74754EBDBFC544B05A258 SWAP1 PUSH1 0x20 SWAP1 LOG1 DUP1 RETURN JUMPDEST DUP3 MLOAD PUSH4 0xD93C0665 PUSH1 0xE0 SHL DUP2 MSTORE REVERT JUMPDEST POP CALLVALUE PUSH2 0x1FB JUMPI DUP3 PUSH1 0x3 NOT CALLDATASIZE ADD SLT PUSH2 0x1FB JUMPI PUSH2 0x15B5 PUSH2 0x1F9C JUMP JUMPDEST DUP3 SLOAD SWAP1 PUSH1 0xFF DUP3 PUSH1 0xA0 SHR AND ISZERO PUSH2 0x15FB JUMPI POP PUSH1 0xFF PUSH1 0xA0 SHL NOT AND DUP3 SSTORE MLOAD CALLER DUP2 MSTORE PUSH32 0x5DB9EE0A495BF2E6FF9C91A7834C1BA4FDD244A5E8AA4E537BD38AEAE4B073AA SWAP1 PUSH1 0x20 SWAP1 LOG1 DUP1 RETURN JUMPDEST DUP3 MLOAD PUSH4 0x8DFC202B PUSH1 0xE0 SHL DUP2 MSTORE REVERT JUMPDEST POP POP CALLVALUE PUSH2 0x594 JUMPI DUP2 PUSH1 0x3 NOT CALLDATASIZE ADD SLT PUSH2 0x594 JUMPI PUSH1 0x20 SWAP1 PUSH1 0x7 SLOAD SWAP1 MLOAD SWAP1 DUP2 MSTORE RETURN JUMPDEST DUP3 DUP5 CALLVALUE PUSH2 0xB32 JUMPI DUP2 PUSH1 0x3 NOT CALLDATASIZE ADD SLT PUSH2 0xB32 JUMPI PUSH2 0x1653 PUSH2 0x1645 PUSH2 0x1CE4 JUMP JUMPDEST PUSH2 0x164D PUSH2 0x1CFF JUMP JUMPDEST SWAP1 PUSH2 0x21E9 JUMP JUMPDEST DUP2 DUP1 JUMPDEST DUP3 MLOAD DUP2 LT ISZERO PUSH2 0x1696 JUMPI PUSH1 0x80 PUSH2 0x166B DUP3 DUP6 PUSH2 0x20FD JUMP JUMPDEST MLOAD ADD MLOAD PUSH2 0x1681 JUMPI JUMPDEST PUSH2 0x167C SWAP1 PUSH2 0x2111 JUMP JUMPDEST PUSH2 0x1656 JUMP JUMPDEST SWAP3 PUSH2 0x168E PUSH2 0x167C SWAP2 PUSH2 0x2111 JUMP JUMPDEST SWAP4 SWAP1 POP PUSH2 0x1673 JUMP JUMPDEST POP SWAP3 PUSH2 0x16A1 DUP4 PUSH2 0x2120 JUMP JUMPDEST PUSH2 0x16AA DUP5 PUSH2 0x2120 JUMP JUMPDEST PUSH2 0x16B3 DUP6 PUSH2 0x20C8 JUMP JUMPDEST SWAP2 PUSH2 0x16C0 DUP5 MLOAD SWAP4 DUP5 PUSH2 0x1E11 JUMP JUMPDEST DUP6 DUP4 MSTORE PUSH1 0x1F NOT SWAP6 DUP7 PUSH2 0x16D1 DUP3 PUSH2 0x20C8 JUMP JUMPDEST ADD DUP9 JUMPDEST DUP2 DUP2 LT PUSH2 0x1846 JUMPI POP POP PUSH2 0x16E6 SWAP1 PUSH2 0x2120 JUMP JUMPDEST SWAP3 DUP8 SWAP5 DUP9 JUMPDEST DUP8 MLOAD DUP2 LT ISZERO PUSH2 0x17A9 JUMPI PUSH1 0x80 PUSH2 0x1700 DUP3 DUP11 PUSH2 0x20FD JUMP JUMPDEST MLOAD ADD MLOAD PUSH2 0x1716 JUMPI JUMPDEST PUSH2 0x1711 SWAP1 PUSH2 0x2111 JUMP JUMPDEST PUSH2 0x16EB JUMP JUMPDEST SWAP6 PUSH2 0x17A1 PUSH2 0x1711 SWAP2 PUSH2 0x1728 DUP10 DUP12 PUSH2 0x20FD JUMP JUMPDEST MLOAD MLOAD PUSH2 0x1734 DUP3 DUP9 PUSH2 0x20FD JUMP JUMPDEST MSTORE DUP4 PUSH2 0x1740 DUP11 DUP13 PUSH2 0x20FD JUMP JUMPDEST MLOAD ADD MLOAD PUSH2 0x174D DUP3 DUP10 PUSH2 0x20FD JUMP JUMPDEST MSTORE DUP4 MLOAD PUSH2 0x1759 DUP2 PUSH2 0x1DF5 JUMP JUMPDEST PUSH1 0x6 DUP2 MSTORE PUSH1 0x20 SWAP1 PUSH6 0x736F75726365 PUSH1 0xD0 SHL DUP3 DUP3 ADD MSTORE PUSH2 0x1778 DUP4 DUP9 PUSH2 0x20FD JUMP JUMPDEST MSTORE PUSH2 0x1783 DUP3 DUP8 PUSH2 0x20FD JUMP JUMPDEST POP PUSH2 0x178E DUP11 DUP13 PUSH2 0x20FD JUMP JUMPDEST MLOAD ADD MLOAD PUSH2 0x179B DUP3 DUP11 PUSH2 0x20FD JUMP JUMPDEST MSTORE PUSH2 0x2111 JUMP JUMPDEST SWAP7 SWAP1 POP PUSH2 0x1708 JUMP JUMPDEST POP SWAP2 DUP9 SWAP2 DUP6 DUP10 DUP7 PUSH2 0x17CA SWAP7 PUSH2 0x17D9 DUP2 MLOAD SWAP9 DUP10 SWAP8 PUSH1 0x80 DUP10 MSTORE PUSH1 0x80 DUP10 ADD SWAP1 PUSH2 0x1D2B JUMP JUMPDEST PUSH1 0x20 SWAP4 DUP9 DUP3 SUB DUP6 DUP11 ADD MSTORE PUSH2 0x1D2B JUMP JUMPDEST SWAP1 DUP7 DUP3 SUB SWAP1 DUP8 ADD MSTORE DUP5 MLOAD SWAP3 DUP4 DUP3 MSTORE DUP3 DUP3 ADD SWAP1 DUP4 DUP1 DUP7 PUSH1 0x5 SHL DUP6 ADD ADD SWAP8 ADD SWAP9 SWAP3 JUMPDEST DUP6 DUP5 LT PUSH2 0x1814 JUMPI DUP9 DUP1 PUSH2 0xB2E DUP11 DUP11 DUP4 DUP3 SUB PUSH1 0x60 DUP6 ADD MSTORE PUSH2 0x1D2B JUMP JUMPDEST SWAP2 SWAP4 DUP1 DUP1 SWAP8 SWAP10 POP PUSH2 0x1832 DUP10 DUP5 DUP7 PUSH1 0x1 SWAP7 SWAP9 SWAP11 SWAP13 SUB ADD DUP9 MSTORE DUP13 MLOAD PUSH2 0x1D82 JUMP JUMPDEST SWAP11 ADD SWAP5 ADD SWAP5 ADD SWAP2 DUP10 SWAP8 SWAP6 SWAP4 SWAP9 SWAP7 SWAP5 SWAP2 PUSH2 0x17F9 JUMP JUMPDEST DUP1 PUSH1 0x60 PUSH1 0x20 DUP1 SWAP4 DUP10 ADD ADD MSTORE ADD PUSH2 0x16D4 JUMP JUMPDEST POP SWAP1 CALLVALUE PUSH2 0x1FB JUMPI PUSH1 0x80 CALLDATASIZE PUSH1 0x3 NOT ADD SLT PUSH2 0x1FB JUMPI PUSH2 0x1872 PUSH2 0x1CE4 JUMP JUMPDEST PUSH2 0x187A PUSH2 0x1CFF JUMP JUMPDEST SWAP3 PUSH2 0x1883 PUSH2 0x1D15 JUMP JUMPDEST SWAP2 PUSH1 0x64 CALLDATALOAD PUSH4 0xFFFFFFFF DUP2 AND DUP1 SWAP2 SUB PUSH2 0xA72 JUMPI PUSH2 0x189D PUSH2 0x1F9C JUMP JUMPDEST PUSH1 0x1 PUSH1 0x1 PUSH1 0xA0 SHL SUB SWAP4 DUP5 AND SWAP3 DUP4 ISZERO PUSH2 0x19A8 JUMPI PUSH1 0x3C DUP3 LT PUSH2 0x1972 JUMPI POP SWAP1 PUSH1 0x2 SWAP3 SWAP2 DUP6 MLOAD SWAP3 PUSH2 0x18C9 DUP5 PUSH2 0x1DA7 JUMP JUMPDEST DUP4 MSTORE PUSH1 0x20 DUP4 ADD SWAP1 DUP2 MSTORE DUP5 DUP1 DUP8 DUP6 ADD SWAP4 AND SWAP7 DUP8 DUP5 MSTORE DUP2 PUSH1 0x60 DUP7 ADD SWAP10 AND DUP1 DUP11 MSTORE PUSH1 0x80 DUP7 ADD SWAP9 PUSH1 0x1 DUP11 MSTORE DUP12 MSTORE PUSH1 0x3 PUSH1 0x20 MSTORE DUP2 DUP12 KECCAK256 SWAP1 DUP12 MSTORE PUSH1 0x20 MSTORE DUP10 KECCAK256 SWAP4 MLOAD AND DUP4 SLOAD SWAP2 PUSH4 0xFFFFFFFF PUSH1 0xA0 SHL SWAP1 MLOAD PUSH1 0xA0 SHL AND SWAP2 PUSH8 0xFFFFFFFFFFFFFFFF PUSH1 0xC0 SHL AND OR OR DUP3 SSTORE DUP4 PUSH1 0x1 DUP4 ADD SWAP2 MLOAD AND PUSH12 0xFFFFFFFFFFFFFFFFFFFFFFFF PUSH1 0xA0 SHL DUP3 SLOAD AND OR SWAP1 SSTORE ADD SWAP3 MLOAD AND DUP3 SLOAD SWAP2 PUSH1 0xFF PUSH1 0xA0 SHL SWAP1 MLOAD ISZERO ISZERO PUSH1 0xA0 SHL AND SWAP2 PUSH11 0xFFFFFFFFFFFFFFFFFFFFFF PUSH1 0xA8 SHL AND OR OR SWAP1 SSTORE DUP1 RETURN JUMPDEST PUSH1 0x64 SWAP1 PUSH1 0x20 DUP8 MLOAD SWAP2 PUSH3 0x461BCD PUSH1 0xE5 SHL DUP4 MSTORE DUP3 ADD MSTORE PUSH1 0x10 PUSH1 0x24 DUP3 ADD MSTORE PUSH16 0x14195C9A5BD9081D1BDBC81CDA1BDC9D PUSH1 0x82 SHL PUSH1 0x44 DUP3 ADD MSTORE REVERT JUMPDEST PUSH1 0x64 SWAP1 PUSH1 0x20 DUP8 MLOAD SWAP2 PUSH3 0x461BCD PUSH1 0xE5 SHL DUP4 MSTORE DUP3 ADD MSTORE PUSH1 0xC PUSH1 0x24 DUP3 ADD MSTORE PUSH12 0x125B9D985B1A59081C1BDBDB PUSH1 0xA2 SHL PUSH1 0x44 DUP3 ADD MSTORE REVERT JUMPDEST POP POP CALLVALUE PUSH2 0x594 JUMPI DUP1 PUSH1 0x3 NOT CALLDATASIZE ADD SLT PUSH2 0x594 JUMPI PUSH1 0xFF DUP2 PUSH1 0xA0 SWAP4 PUSH2 0x19FA PUSH2 0x1CE4 JUMP JUMPDEST PUSH2 0x1A02 PUSH2 0x1CFF JUMP JUMPDEST SWAP1 PUSH1 0x1 DUP1 DUP9 SHL SUB DUP1 SWAP2 AND DUP4 MSTORE PUSH1 0x1 PUSH1 0x20 MSTORE DUP4 DUP4 KECCAK256 SWAP2 AND DUP3 MSTORE PUSH1 0x20 MSTORE KECCAK256 SWAP2 DUP3 SLOAD SWAP3 PUSH1 0x1 DUP2 ADD SLOAD SWAP2 PUSH1 0x3 PUSH1 0x2 DUP4 ADD SLOAD SWAP3 ADD SLOAD SWAP3 DUP2 MLOAD SWAP6 DUP7 MSTORE PUSH1 0x20 DUP7 ADD MSTORE DUP5 ADD MSTORE DUP2 DUP2 AND PUSH1 0x60 DUP5 ADD MSTORE PUSH1 0x8 SHR AND ISZERO ISZERO PUSH1 0x80 DUP3 ADD MSTORE RETURN JUMPDEST POP DUP3 CALLVALUE PUSH2 0xB32 JUMPI DUP3 PUSH1 0x3 NOT CALLDATASIZE ADD SLT PUSH2 0xB32 JUMPI PUSH2 0x1A80 PUSH2 0x1A72 PUSH2 0x1CE4 JUMP JUMPDEST PUSH2 0x1A7A PUSH2 0x1CFF JUMP JUMPDEST POP PUSH2 0x2A98 JUMP JUMPDEST SWAP1 CHAINID DUP2 MSTORE PUSH1 0x20 SWAP2 PUSH1 0x5 DUP4 MSTORE DUP5 DUP3 KECCAK256 SWAP1 DUP4 PUSH2 0x1AA2 DUP8 MLOAD SWAP3 DUP4 DUP2 MLOAD SWAP4 DUP5 SWAP3 ADD PUSH2 0x1D5F JUMP JUMPDEST DUP2 ADD SWAP2 DUP3 MSTORE SWAP1 DUP2 SWAP1 SUB DUP4 ADD SWAP1 KECCAK256 SLOAD PUSH1 0x1 PUSH1 0x1 PUSH1 0xA0 SHL SUB AND SWAP1 DUP2 ISZERO PUSH2 0x1CA2 JUMPI DUP5 MLOAD PUSH4 0x3FABE5A3 PUSH1 0xE2 SHL DUP2 MSTORE SWAP2 PUSH1 0xA0 DUP4 DUP7 DUP2 DUP5 GAS STATICCALL DUP1 DUP4 SWAP5 DUP5 SWAP3 PUSH2 0x1C4E JUMPI JUMPDEST POP PUSH2 0x1B27 JUMPI DUP7 MLOAD PUSH3 0x461BCD PUSH1 0xE5 SHL DUP2 MSTORE DUP1 DUP8 ADD DUP7 SWAP1 MSTORE PUSH1 0x1C PUSH1 0x24 DUP3 ADD MSTORE PUSH32 0x436861696E6C696E6B207072696365206665746368206661696C656400000000 PUSH1 0x44 DUP3 ADD MSTORE PUSH1 0x64 SWAP1 REVERT JUMPDEST DUP3 DUP5 SWAP6 SWAP7 SWAP5 SGT ISZERO PUSH2 0x1C0B JUMPI PUSH2 0x1B3F PUSH2 0xE10 SWAP2 TIMESTAMP PUSH2 0x2054 JUMP JUMPDEST GT PUSH2 0x1BD0 JUMPI DUP5 DUP4 SWAP2 DUP8 MLOAD SWAP3 DUP4 DUP1 SWAP3 PUSH4 0x313CE567 PUSH1 0xE0 SHL DUP3 MSTORE GAS STATICCALL SWAP1 DUP2 ISZERO PUSH2 0x1BC6 JUMPI SWAP1 PUSH1 0xFF SWAP2 DUP4 SWAP2 PUSH2 0x1BA9 JUMPI JUMPDEST POP AND PUSH1 0x12 SUB SWAP2 PUSH1 0xFF DUP4 GT PUSH2 0x1B96 JUMPI POP POP SWAP1 PUSH2 0xEBB PUSH2 0x1B88 SWAP3 PUSH2 0x20A4 JUMP JUMPDEST SWAP1 PUSH1 0x5F SWAP1 DUP4 MLOAD SWAP3 DUP4 MSTORE DUP3 ADD MSTORE RETURN JUMPDEST PUSH4 0x4E487B71 PUSH1 0xE0 SHL DUP3 MSTORE PUSH1 0x11 SWAP1 MSTORE PUSH1 0x24 SWAP1 REVERT JUMPDEST PUSH2 0x1BC0 SWAP2 POP DUP7 RETURNDATASIZE DUP9 GT PUSH2 0xEEE JUMPI PUSH2 0xEDF DUP2 DUP4 PUSH2 0x1E11 JUMP JUMPDEST DUP8 PUSH2 0x1B6B JUMP JUMPDEST DUP7 MLOAD RETURNDATASIZE DUP5 DUP3 RETURNDATACOPY RETURNDATASIZE SWAP1 REVERT JUMPDEST DUP6 MLOAD PUSH3 0x461BCD PUSH1 0xE5 SHL DUP2 MSTORE DUP1 DUP5 ADD DUP7 SWAP1 MSTORE PUSH1 0x15 PUSH1 0x24 DUP3 ADD MSTORE PUSH21 0x5374616C6520436861696E6C696E6B207072696365 PUSH1 0x58 SHL PUSH1 0x44 DUP3 ADD MSTORE PUSH1 0x64 SWAP1 REVERT JUMPDEST DUP7 MLOAD PUSH3 0x461BCD PUSH1 0xE5 SHL DUP2 MSTORE DUP1 DUP6 ADD DUP8 SWAP1 MSTORE PUSH1 0x17 PUSH1 0x24 DUP3 ADD MSTORE PUSH32 0x496E76616C696420436861696E6C696E6B207072696365000000000000000000 PUSH1 0x44 DUP3 ADD MSTORE PUSH1 0x64 SWAP1 REVERT JUMPDEST SWAP5 POP SWAP1 POP PUSH1 0xA0 DUP5 RETURNDATASIZE DUP3 GT PUSH2 0x1C9A JUMPI JUMPDEST DUP2 PUSH2 0x1C6A PUSH1 0xA0 SWAP4 DUP4 PUSH2 0x1E11 JUMP JUMPDEST DUP2 ADD SUB SLT PUSH2 0x1FB JUMPI PUSH2 0x1C7B DUP5 PUSH2 0x203D JUMP JUMPDEST POP DUP5 DUP5 ADD MLOAD PUSH2 0x1C91 PUSH1 0x80 PUSH1 0x60 DUP8 ADD MLOAD SWAP7 ADD PUSH2 0x203D JUMP JUMPDEST POP SWAP4 SWAP1 DUP9 PUSH2 0x1ADF JUMP JUMPDEST RETURNDATASIZE SWAP2 POP PUSH2 0x1C5D JUMP JUMPDEST POP POP PUSH1 0x64 SWAP3 MLOAD SWAP2 PUSH3 0x461BCD PUSH1 0xE5 SHL DUP4 MSTORE DUP3 ADD MSTORE PUSH1 0x18 PUSH1 0x24 DUP3 ADD MSTORE PUSH32 0x436861696E6C696E6B2066656564206E6F7420666F756E640000000000000000 PUSH1 0x44 DUP3 ADD MSTORE REVERT JUMPDEST PUSH1 0x4 CALLDATALOAD SWAP1 PUSH1 0x1 PUSH1 0x1 PUSH1 0xA0 SHL SUB DUP3 AND DUP3 SUB PUSH2 0x1CFA JUMPI JUMP JUMPDEST PUSH1 0x0 DUP1 REVERT JUMPDEST PUSH1 0x24 CALLDATALOAD SWAP1 PUSH1 0x1 PUSH1 0x1 PUSH1 0xA0 SHL SUB DUP3 AND DUP3 SUB PUSH2 0x1CFA JUMPI JUMP JUMPDEST PUSH1 0x44 CALLDATALOAD SWAP1 PUSH1 0x1 PUSH1 0x1 PUSH1 0xA0 SHL SUB DUP3 AND DUP3 SUB PUSH2 0x1CFA JUMPI JUMP JUMPDEST SWAP1 DUP2 MLOAD DUP1 DUP3 MSTORE PUSH1 0x20 DUP1 DUP1 SWAP4 ADD SWAP4 ADD SWAP2 PUSH1 0x0 JUMPDEST DUP3 DUP2 LT PUSH2 0x1D4B JUMPI POP POP POP POP SWAP1 JUMP JUMPDEST DUP4 MLOAD DUP6 MSTORE SWAP4 DUP2 ADD SWAP4 SWAP3 DUP2 ADD SWAP3 PUSH1 0x1 ADD PUSH2 0x1D3D JUMP JUMPDEST PUSH1 0x0 JUMPDEST DUP4 DUP2 LT PUSH2 0x1D72 JUMPI POP POP PUSH1 0x0 SWAP2 ADD MSTORE JUMP JUMPDEST DUP2 DUP2 ADD MLOAD DUP4 DUP3 ADD MSTORE PUSH1 0x20 ADD PUSH2 0x1D62 JUMP JUMPDEST SWAP1 PUSH1 0x20 SWAP2 PUSH2 0x1D9B DUP2 MLOAD DUP1 SWAP3 DUP2 DUP6 MSTORE DUP6 DUP1 DUP7 ADD SWAP2 ADD PUSH2 0x1D5F JUMP JUMPDEST PUSH1 0x1F ADD PUSH1 0x1F NOT AND ADD ADD SWAP1 JUMP JUMPDEST PUSH1 0xA0 DUP2 ADD SWAP1 DUP2 LT PUSH8 0xFFFFFFFFFFFFFFFF DUP3 GT OR PUSH2 0x1DC3 JUMPI PUSH1 0x40 MSTORE JUMP JUMPDEST PUSH4 0x4E487B71 PUSH1 0xE0 SHL PUSH1 0x0 MSTORE PUSH1 0x41 PUSH1 0x4 MSTORE PUSH1 0x24 PUSH1 0x0 REVERT JUMPDEST PUSH1 0xC0 DUP2 ADD SWAP1 DUP2 LT PUSH8 0xFFFFFFFFFFFFFFFF DUP3 GT OR PUSH2 0x1DC3 JUMPI PUSH1 0x40 MSTORE JUMP JUMPDEST PUSH1 0x40 DUP2 ADD SWAP1 DUP2 LT PUSH8 0xFFFFFFFFFFFFFFFF DUP3 GT OR PUSH2 0x1DC3 JUMPI PUSH1 0x40 MSTORE JUMP JUMPDEST SWAP1 PUSH1 0x1F DUP1 NOT SWAP2 ADD AND DUP2 ADD SWAP1 DUP2 LT PUSH8 0xFFFFFFFFFFFFFFFF DUP3 GT OR PUSH2 0x1DC3 JUMPI PUSH1 0x40 MSTORE JUMP JUMPDEST DUP2 PUSH1 0x1F DUP3 ADD SLT ISZERO PUSH2 0x1CFA JUMPI DUP1 CALLDATALOAD SWAP1 PUSH8 0xFFFFFFFFFFFFFFFF DUP3 GT PUSH2 0x1DC3 JUMPI PUSH1 0x40 MLOAD SWAP3 PUSH2 0x1E68 PUSH1 0x1F DUP5 ADD PUSH1 0x1F NOT AND PUSH1 0x20 ADD DUP6 PUSH2 0x1E11 JUMP JUMPDEST DUP3 DUP5 MSTORE PUSH1 0x20 DUP4 DUP4 ADD ADD GT PUSH2 0x1CFA JUMPI DUP2 PUSH1 0x0 SWAP3 PUSH1 0x20 DUP1 SWAP4 ADD DUP4 DUP7 ADD CALLDATACOPY DUP4 ADD ADD MSTORE SWAP1 JUMP JUMPDEST DUP1 SLOAD DUP3 LT ISZERO PUSH2 0x1EA6 JUMPI PUSH1 0x0 MSTORE PUSH1 0x6 PUSH1 0x20 PUSH1 0x0 KECCAK256 SWAP2 MUL ADD SWAP1 PUSH1 0x0 SWAP1 JUMP JUMPDEST PUSH4 0x4E487B71 PUSH1 0xE0 SHL PUSH1 0x0 MSTORE PUSH1 0x32 PUSH1 0x4 MSTORE PUSH1 0x24 PUSH1 0x0 REVERT JUMPDEST SWAP1 PUSH1 0x1 DUP3 DUP2 SHR SWAP3 AND DUP1 ISZERO PUSH2 0x1EEC JUMPI JUMPDEST PUSH1 0x20 DUP4 LT EQ PUSH2 0x1ED6 JUMPI JUMP JUMPDEST PUSH4 0x4E487B71 PUSH1 0xE0 SHL PUSH1 0x0 MSTORE PUSH1 0x22 PUSH1 0x4 MSTORE PUSH1 0x24 PUSH1 0x0 REVERT JUMPDEST SWAP2 PUSH1 0x7F AND SWAP2 PUSH2 0x1ECB JUMP JUMPDEST SWAP1 PUSH1 0x40 MLOAD SWAP2 DUP3 PUSH1 0x0 DUP3 SLOAD SWAP3 PUSH2 0x1F0A DUP5 PUSH2 0x1EBC JUMP JUMPDEST SWAP1 DUP2 DUP5 MSTORE PUSH1 0x1 SWAP5 DUP6 DUP2 AND SWAP1 DUP2 PUSH1 0x0 EQ PUSH2 0x1F79 JUMPI POP PUSH1 0x1 EQ PUSH2 0x1F36 JUMPI JUMPDEST POP POP PUSH2 0x1F34 SWAP3 POP SUB DUP4 PUSH2 0x1E11 JUMP JUMPDEST JUMP JUMPDEST SWAP1 SWAP4 SWAP2 POP PUSH1 0x0 MSTORE PUSH1 0x20 SWAP1 DUP2 PUSH1 0x0 KECCAK256 SWAP4 PUSH1 0x0 SWAP2 JUMPDEST DUP2 DUP4 LT PUSH2 0x1F61 JUMPI POP POP PUSH2 0x1F34 SWAP4 POP DUP3 ADD ADD CODESIZE DUP1 PUSH2 0x1F26 JUMP JUMPDEST DUP6 SLOAD DUP9 DUP5 ADD DUP6 ADD MSTORE SWAP5 DUP6 ADD SWAP5 DUP8 SWAP5 POP SWAP2 DUP4 ADD SWAP2 PUSH2 0x1F49 JUMP JUMPDEST SWAP2 POP POP PUSH2 0x1F34 SWAP5 POP PUSH1 0x20 SWAP3 POP PUSH1 0xFF NOT AND DUP3 DUP5 ADD MSTORE ISZERO ISZERO PUSH1 0x5 SHL DUP3 ADD ADD CODESIZE DUP1 PUSH2 0x1F26 JUMP JUMPDEST PUSH1 0x0 SLOAD PUSH1 0x1 PUSH1 0x1 PUSH1 0xA0 SHL SUB AND CALLER SUB PUSH2 0x1FB0 JUMPI JUMP JUMPDEST PUSH1 0x40 MLOAD PUSH4 0x118CDAA7 PUSH1 0xE0 SHL DUP2 MSTORE CALLER PUSH1 0x4 DUP3 ADD MSTORE PUSH1 0x24 SWAP1 REVERT JUMPDEST ISZERO PUSH2 0x1FCF JUMPI JUMP JUMPDEST PUSH1 0x40 MLOAD PUSH3 0x461BCD PUSH1 0xE5 SHL DUP2 MSTORE PUSH1 0x20 PUSH1 0x4 DUP3 ADD MSTORE PUSH1 0xA PUSH1 0x24 DUP3 ADD MSTORE PUSH10 0x29B0B6B2903A37B5B2B7 PUSH1 0xB1 SHL PUSH1 0x44 DUP3 ADD MSTORE PUSH1 0x64 SWAP1 REVERT JUMPDEST ISZERO PUSH2 0x2008 JUMPI JUMP JUMPDEST PUSH1 0x40 MLOAD PUSH3 0x461BCD PUSH1 0xE5 SHL DUP2 MSTORE PUSH1 0x20 PUSH1 0x4 DUP3 ADD MSTORE PUSH1 0xD PUSH1 0x24 DUP3 ADD MSTORE PUSH13 0x496E76616C6964207072696365 PUSH1 0x98 SHL PUSH1 0x44 DUP3 ADD MSTORE PUSH1 0x64 SWAP1 REVERT JUMPDEST MLOAD SWAP1 PUSH10 0xFFFFFFFFFFFFFFFFFFFF DUP3 AND DUP3 SUB PUSH2 0x1CFA JUMPI JUMP JUMPDEST SWAP2 SWAP1 DUP3 SUB SWAP2 DUP3 GT PUSH2 0x2061 JUMPI JUMP JUMPDEST PUSH4 0x4E487B71 PUSH1 0xE0 SHL PUSH1 0x0 MSTORE PUSH1 0x11 PUSH1 0x4 MSTORE PUSH1 0x24 PUSH1 0x0 REVERT JUMPDEST SWAP1 DUP2 PUSH1 0x20 SWAP2 SUB SLT PUSH2 0x1CFA JUMPI MLOAD PUSH1 0xFF DUP2 AND DUP2 SUB PUSH2 0x1CFA JUMPI SWAP1 JUMP JUMPDEST SWAP1 PUSH1 0xFF DUP1 SWAP2 AND SWAP2 AND SUB SWAP1 PUSH1 0xFF DUP3 GT PUSH2 0x2061 JUMPI JUMP JUMPDEST PUSH1 0xFF AND PUSH1 0x4D DUP2 GT PUSH2 0x2061 JUMPI PUSH1 0xA EXP SWAP1 JUMP JUMPDEST DUP2 DUP2 MUL SWAP3 SWAP2 DUP2 ISZERO SWAP2 DUP5 DIV EQ OR ISZERO PUSH2 0x2061 JUMPI JUMP JUMPDEST PUSH8 0xFFFFFFFFFFFFFFFF DUP2 GT PUSH2 0x1DC3 JUMPI PUSH1 0x5 SHL PUSH1 0x20 ADD SWAP1 JUMP JUMPDEST DUP1 MLOAD ISZERO PUSH2 0x1EA6 JUMPI PUSH1 0x20 ADD SWAP1 JUMP JUMPDEST DUP1 MLOAD PUSH1 0x1 LT ISZERO PUSH2 0x1EA6 JUMPI PUSH1 0x40 ADD SWAP1 JUMP JUMPDEST DUP1 MLOAD DUP3 LT ISZERO PUSH2 0x1EA6 JUMPI PUSH1 0x20 SWAP2 PUSH1 0x5 SHL ADD ADD SWAP1 JUMP JUMPDEST PUSH1 0x0 NOT DUP2 EQ PUSH2 0x2061 JUMPI PUSH1 0x1 ADD SWAP1 JUMP JUMPDEST SWAP1 PUSH2 0x212A DUP3 PUSH2 0x20C8 JUMP JUMPDEST PUSH2 0x2137 PUSH1 0x40 MLOAD SWAP2 DUP3 PUSH2 0x1E11 JUMP JUMPDEST DUP3 DUP2 MSTORE DUP1 SWAP3 PUSH2 0x2148 PUSH1 0x1F NOT SWAP2 PUSH2 0x20C8 JUMP JUMPDEST ADD SWAP1 PUSH1 0x20 CALLDATASIZE SWAP2 ADD CALLDATACOPY JUMP JUMPDEST SWAP2 SWAP1 DUP3 ADD DUP1 SWAP3 GT PUSH2 0x2061 JUMPI JUMP JUMPDEST SWAP1 PUSH2 0x2169 DUP3 PUSH2 0x20C8 JUMP JUMPDEST PUSH1 0x40 SWAP1 PUSH2 0x2178 DUP3 MLOAD SWAP2 DUP3 PUSH2 0x1E11 JUMP JUMPDEST DUP4 DUP2 MSTORE DUP1 SWAP4 PUSH2 0x2189 PUSH1 0x1F NOT SWAP2 PUSH2 0x20C8 JUMP JUMPDEST ADD SWAP2 PUSH1 0x0 JUMPDEST DUP4 DUP2 LT PUSH2 0x219B JUMPI POP POP POP POP JUMP JUMPDEST PUSH1 0x20 SWAP1 DUP3 MLOAD PUSH2 0x21A9 DUP2 PUSH2 0x1DA7 JUMP JUMPDEST PUSH1 0x0 DUP2 MSTORE DUP3 PUSH1 0x0 DUP2 DUP4 ADD MSTORE PUSH1 0x0 DUP6 DUP4 ADD MSTORE PUSH1 0x0 PUSH1 0x60 DUP4 ADD MSTORE PUSH1 0x0 PUSH1 0x80 DUP4 ADD MSTORE DUP3 DUP7 ADD ADD MSTORE ADD PUSH2 0x218E JUMP JUMPDEST SWAP2 SWAP1 DUP3 PUSH1 0x40 SWAP2 SUB SLT PUSH2 0x1CFA JUMPI PUSH1 0x20 DUP3 MLOAD SWAP3 ADD MLOAD SWAP1 JUMP JUMPDEST PUSH1 0x1 PUSH1 0x1 PUSH1 0xA0 SHL SUB DUP2 DUP2 AND PUSH1 0x0 SWAP1 DUP2 MSTORE PUSH1 0x2 PUSH1 0x20 SWAP1 DUP2 MSTORE PUSH1 0x40 DUP1 DUP4 KECCAK256 SWAP4 DUP7 AND DUP4 MSTORE SWAP3 SWAP1 MSTORE KECCAK256 SLOAD SWAP2 PUSH1 0x3 DUP4 ADD DUP4 GT PUSH2 0x2061 JUMPI PUSH2 0x2226 PUSH1 0x3 DUP5 ADD PUSH2 0x215F JUMP JUMPDEST PUSH1 0x0 SWAP2 PUSH1 0x1 DUP1 PUSH1 0xA0 SHL SUB DUP5 AND PUSH1 0x0 MSTORE PUSH1 0x1 PUSH1 0x20 MSTORE PUSH1 0x40 PUSH1 0x0 KECCAK256 PUSH1 0x1 DUP1 PUSH1 0xA0 SHL SUB DUP3 AND PUSH1 0x0 MSTORE PUSH1 0x20 MSTORE PUSH1 0xFF PUSH1 0x3 PUSH1 0x40 PUSH1 0x0 KECCAK256 ADD SLOAD PUSH1 0x8 SHR AND DUP1 PUSH2 0x26EC JUMPI JUMPDEST PUSH2 0x2666 JUMPI JUMPDEST PUSH1 0x40 DUP1 MLOAD PUSH4 0x25247F9 PUSH1 0xE3 SHL DUP2 MSTORE PUSH1 0x1 PUSH1 0x1 PUSH1 0xA0 SHL SUB DUP7 DUP2 AND PUSH1 0x4 DUP4 ADD MSTORE DUP4 AND PUSH1 0x24 DUP3 ADD MSTORE SWAP1 DUP2 PUSH1 0x44 DUP2 ADDRESS GAS STATICCALL DUP1 PUSH1 0x0 SWAP3 PUSH1 0x0 SWAP3 PUSH2 0x2642 JUMPI JUMPDEST POP PUSH2 0x25F6 JUMPI JUMPDEST POP POP PUSH1 0x1 PUSH1 0x1 PUSH1 0xA0 SHL SUB DUP5 DUP2 AND PUSH1 0x0 SWAP1 DUP2 MSTORE PUSH1 0x3 PUSH1 0x20 SWAP1 DUP2 MSTORE PUSH1 0x40 DUP1 DUP4 KECCAK256 SWAP4 DUP6 AND DUP4 MSTORE SWAP3 SWAP1 MSTORE KECCAK256 PUSH1 0x2 ADD SLOAD PUSH1 0xA0 SWAP5 SWAP1 DUP6 SHR PUSH1 0xFF AND PUSH2 0x2540 JUMPI JUMPDEST PUSH1 0x1 DUP1 PUSH1 0xA0 SHL SUB AND PUSH1 0x0 MSTORE PUSH1 0x2 PUSH1 0x20 MSTORE PUSH1 0x40 PUSH1 0x0 KECCAK256 SWAP1 PUSH1 0x1 DUP1 PUSH1 0xA0 SHL SUB AND PUSH1 0x0 MSTORE PUSH1 0x20 MSTORE PUSH1 0x40 PUSH1 0x0 KECCAK256 DUP1 SLOAD PUSH2 0x2314 DUP2 PUSH2 0x20C8 JUMP JUMPDEST SWAP2 PUSH2 0x2322 PUSH1 0x40 MLOAD SWAP4 DUP5 PUSH2 0x1E11 JUMP JUMPDEST DUP2 DUP4 MSTORE PUSH1 0x20 DUP4 ADD SWAP1 PUSH1 0x0 MSTORE PUSH1 0x20 PUSH1 0x0 KECCAK256 PUSH1 0x0 SWAP2 JUMPDEST DUP4 DUP4 LT PUSH2 0x24D9 JUMPI POP POP POP POP PUSH1 0x0 JUMPDEST DUP2 MLOAD DUP2 LT DUP1 PUSH2 0x24CD JUMPI JUMPDEST ISZERO PUSH2 0x248F JUMPI PUSH1 0x80 DUP1 PUSH2 0x2360 DUP4 DUP6 PUSH2 0x20FD JUMP JUMPDEST MLOAD ADD MLOAD PUSH2 0x2377 JUMPI JUMPDEST POP PUSH2 0x2372 SWAP1 PUSH2 0x2111 JUMP JUMPDEST PUSH2 0x2344 JUMP JUMPDEST PUSH2 0x2381 DUP3 DUP5 PUSH2 0x20FD JUMP JUMPDEST MLOAD SWAP1 PUSH1 0x40 MLOAD SWAP2 PUSH4 0xE4B6051D PUSH1 0xE0 SHL DUP4 MSTORE PUSH1 0x20 PUSH1 0x4 DUP5 ADD MSTORE PUSH1 0x1 DUP1 PUSH1 0xA0 SHL SUB DUP2 MLOAD AND PUSH1 0x24 DUP5 ADD MSTORE PUSH1 0x20 DUP2 ADD MLOAD PUSH1 0x44 DUP5 ADD MSTORE PUSH1 0x40 DUP2 ADD MLOAD PUSH1 0x64 DUP5 ADD MSTORE PUSH1 0x40 DUP4 DUP1 PUSH2 0x23ED DUP12 PUSH1 0x60 SWAP6 DUP7 DUP2 ADD MLOAD PUSH1 0x84 DUP6 ADD MSTORE DUP8 DUP2 ADD MLOAD ISZERO ISZERO PUSH1 0xA4 DUP6 ADD MSTORE ADD MLOAD PUSH1 0xC0 PUSH1 0xC4 DUP5 ADD MSTORE PUSH1 0xE4 DUP4 ADD SWAP1 PUSH2 0x1D82 JUMP JUMPDEST SUB DUP2 ADDRESS GAS STATICCALL DUP1 PUSH1 0x0 SWAP5 PUSH1 0x0 SWAP3 PUSH2 0x245B JUMPI JUMPDEST POP PUSH2 0x240C JUMPI JUMPDEST POP POP POP PUSH2 0x2368 JUMP JUMPDEST PUSH2 0x2372 SWAP5 SWAP8 SWAP3 PUSH1 0x12 PUSH2 0x2451 SWAP6 SWAP4 PUSH1 0x1 SWAP4 PUSH1 0x40 MLOAD SWAP6 PUSH2 0x2429 DUP8 PUSH2 0x1DA7 JUMP JUMPDEST DUP7 MSTORE TIMESTAMP PUSH1 0x20 DUP8 ADD MSTORE PUSH1 0x40 DUP7 ADD MSTORE DUP5 ADD MSTORE DUP3 ADD MSTORE PUSH2 0x2446 DUP3 DUP8 PUSH2 0x20FD JUMP JUMPDEST MSTORE PUSH2 0x2ED DUP2 DUP7 PUSH2 0x20FD JUMP JUMPDEST SWAP4 SWAP1 CODESIZE DUP1 DUP1 PUSH2 0x2404 JUMP JUMPDEST SWAP1 SWAP5 POP PUSH2 0x2480 SWAP2 POP PUSH1 0x40 RETURNDATASIZE PUSH1 0x40 GT PUSH2 0x2488 JUMPI JUMPDEST PUSH2 0x2478 DUP2 DUP4 PUSH2 0x1E11 JUMP JUMPDEST DUP2 ADD SWAP1 PUSH2 0x21D3 JUMP JUMPDEST SWAP1 SWAP4 CODESIZE PUSH2 0x23FE JUMP JUMPDEST POP RETURNDATASIZE PUSH2 0x246E JUMP JUMPDEST POP POP SWAP3 POP SWAP1 POP PUSH2 0x249E DUP2 PUSH2 0x215F JUMP JUMPDEST SWAP2 PUSH1 0x0 JUMPDEST DUP3 DUP2 LT PUSH2 0x24AF JUMPI POP POP POP SWAP1 JUMP JUMPDEST DUP1 PUSH2 0x24BD PUSH2 0x24C8 SWAP3 DUP5 PUSH2 0x20FD JUMP JUMPDEST MLOAD PUSH2 0x2446 DUP3 DUP8 PUSH2 0x20FD JUMP JUMPDEST PUSH2 0x24A2 JUMP JUMPDEST POP PUSH1 0x3 DUP7 ADD DUP5 LT PUSH2 0x234E JUMP JUMPDEST PUSH1 0x6 PUSH1 0x20 PUSH1 0x1 SWAP3 PUSH1 0x40 MLOAD PUSH2 0x24EC DUP2 PUSH2 0x1DD9 JUMP JUMPDEST DUP5 DUP1 PUSH1 0xA0 SHL SUB DUP7 SLOAD AND DUP2 MSTORE DUP5 DUP7 ADD SLOAD DUP4 DUP3 ADD MSTORE PUSH1 0x2 DUP7 ADD SLOAD PUSH1 0x40 DUP3 ADD MSTORE PUSH1 0x3 DUP7 ADD SLOAD PUSH1 0x60 DUP3 ADD MSTORE PUSH1 0xFF PUSH1 0x4 DUP8 ADD SLOAD AND ISZERO ISZERO PUSH1 0x80 DUP3 ADD MSTORE PUSH2 0x252E PUSH1 0x5 DUP8 ADD PUSH2 0x1EF6 JUMP JUMPDEST DUP13 DUP3 ADD MSTORE DUP2 MSTORE ADD SWAP3 ADD SWAP3 ADD SWAP2 SWAP1 PUSH2 0x2336 JUMP JUMPDEST PUSH1 0x40 DUP1 MLOAD PUSH4 0x79B06567 PUSH1 0xE0 SHL DUP2 MSTORE PUSH1 0x1 PUSH1 0x1 PUSH1 0xA0 SHL SUB DUP4 DUP2 AND PUSH1 0x4 DUP4 ADD MSTORE DUP5 AND PUSH1 0x24 DUP3 ADD MSTORE SWAP1 DUP2 PUSH1 0x44 DUP2 ADDRESS GAS STATICCALL DUP1 PUSH1 0x0 SWAP3 PUSH1 0x0 SWAP3 PUSH2 0x25D2 JUMPI JUMPDEST POP PUSH2 0x2586 JUMPI JUMPDEST POP POP PUSH2 0x22E0 JUMP JUMPDEST SWAP1 PUSH2 0x25CA SWAP3 SWAP6 SWAP2 PUSH1 0x40 MLOAD SWAP2 PUSH2 0x259A DUP4 PUSH2 0x1DA7 JUMP JUMPDEST DUP3 MSTORE TIMESTAMP PUSH1 0x20 DUP4 ADD MSTORE PUSH1 0x40 DUP3 ADD MSTORE PUSH1 0x12 PUSH1 0x60 DUP3 ADD MSTORE PUSH1 0x1 PUSH1 0x80 DUP3 ADD MSTORE PUSH2 0x25BF DUP3 DUP7 PUSH2 0x20FD JUMP JUMPDEST MSTORE PUSH2 0x2ED DUP2 DUP6 PUSH2 0x20FD JUMP JUMPDEST SWAP3 CODESIZE DUP1 PUSH2 0x257F JUMP JUMPDEST SWAP1 SWAP3 POP PUSH2 0x25EE SWAP2 POP PUSH1 0x40 RETURNDATASIZE PUSH1 0x40 GT PUSH2 0x2488 JUMPI PUSH2 0x2478 DUP2 DUP4 PUSH2 0x1E11 JUMP JUMPDEST SWAP1 SWAP2 CODESIZE PUSH2 0x2579 JUMP JUMPDEST SWAP1 PUSH2 0x263A SWAP3 SWAP5 SWAP2 PUSH1 0x40 MLOAD SWAP2 PUSH2 0x260A DUP4 PUSH2 0x1DA7 JUMP JUMPDEST DUP3 MSTORE TIMESTAMP PUSH1 0x20 DUP4 ADD MSTORE PUSH1 0x40 DUP3 ADD MSTORE PUSH1 0x12 PUSH1 0x60 DUP3 ADD MSTORE PUSH1 0x1 PUSH1 0x80 DUP3 ADD MSTORE PUSH2 0x262F DUP3 DUP6 PUSH2 0x20FD JUMP JUMPDEST MSTORE PUSH2 0x2ED DUP2 DUP5 PUSH2 0x20FD JUMP JUMPDEST SWAP2 CODESIZE DUP1 PUSH2 0x22A7 JUMP JUMPDEST SWAP1 SWAP3 POP PUSH2 0x265E SWAP2 POP PUSH1 0x40 RETURNDATASIZE PUSH1 0x40 GT PUSH2 0x2488 JUMPI PUSH2 0x2478 DUP2 DUP4 PUSH2 0x1E11 JUMP JUMPDEST SWAP1 SWAP2 CODESIZE PUSH2 0x22A1 JUMP JUMPDEST SWAP2 POP PUSH1 0x1 DUP1 PUSH1 0xA0 SHL SUB DUP4 AND PUSH1 0x0 MSTORE PUSH1 0x1 PUSH1 0x20 MSTORE PUSH1 0x40 PUSH1 0x0 KECCAK256 PUSH1 0x1 DUP1 PUSH1 0xA0 SHL SUB DUP4 AND PUSH1 0x0 MSTORE PUSH1 0x20 MSTORE PUSH1 0x40 PUSH1 0x0 KECCAK256 PUSH1 0xFF PUSH1 0x3 PUSH1 0x40 MLOAD SWAP3 PUSH2 0x26A3 DUP5 PUSH2 0x1DA7 JUMP JUMPDEST DUP1 SLOAD DUP5 MSTORE PUSH1 0x1 DUP2 ADD SLOAD PUSH1 0x20 DUP6 ADD MSTORE PUSH1 0x2 DUP2 ADD SLOAD PUSH1 0x40 DUP6 ADD MSTORE ADD SLOAD DUP2 DUP2 AND PUSH1 0x60 DUP5 ADD MSTORE PUSH1 0x8 SHR AND ISZERO ISZERO PUSH1 0x80 DUP3 ADD MSTORE PUSH2 0x26D9 DUP3 PUSH2 0x20E0 JUMP JUMPDEST MSTORE PUSH2 0x26E3 DUP2 PUSH2 0x20E0 JUMP JUMPDEST POP PUSH1 0x1 SWAP2 PUSH2 0x2268 JUMP JUMPDEST POP PUSH1 0x1 DUP1 PUSH1 0xA0 SHL SUB DUP5 AND PUSH1 0x0 MSTORE PUSH1 0x1 PUSH1 0x20 MSTORE PUSH1 0x40 PUSH1 0x0 KECCAK256 PUSH1 0x1 DUP1 PUSH1 0xA0 SHL SUB DUP3 AND PUSH1 0x0 MSTORE PUSH1 0x20 MSTORE PUSH2 0xE10 PUSH2 0x2727 PUSH1 0x1 PUSH1 0x40 PUSH1 0x0 KECCAK256 ADD SLOAD TIMESTAMP PUSH2 0x2054 JUMP JUMPDEST GT ISZERO PUSH2 0x2263 JUMP JUMPDEST DUP2 ISZERO PUSH2 0x2738 JUMPI DIV SWAP1 JUMP JUMPDEST PUSH4 0x4E487B71 PUSH1 0xE0 SHL PUSH1 0x0 MSTORE PUSH1 0x12 PUSH1 0x4 MSTORE PUSH1 0x24 PUSH1 0x0 REVERT JUMPDEST SWAP1 DUP2 MLOAD PUSH1 0x2 DUP2 GT ISZERO PUSH2 0x2904 JUMPI PUSH2 0x2763 SWAP1 PUSH2 0x2120 JUMP JUMPDEST PUSH1 0x0 JUMPDEST DUP4 MLOAD DUP2 LT ISZERO PUSH2 0x278E JUMPI DUP1 PUSH2 0x277D PUSH2 0x2789 SWAP3 DUP7 PUSH2 0x20FD JUMP JUMPDEST MLOAD MLOAD PUSH2 0x179B DUP3 DUP6 PUSH2 0x20FD JUMP JUMPDEST PUSH2 0x2766 JUMP JUMPDEST POP DUP1 MLOAD SWAP2 SWAP3 SWAP2 PUSH1 0x0 NOT DUP2 ADD SWAP1 DUP2 GT PUSH2 0x2061 JUMPI PUSH2 0x27AC SWAP1 PUSH1 0x0 DUP4 PUSH2 0x2987 JUMP JUMPDEST PUSH2 0x27BD DUP2 MLOAD SWAP2 PUSH1 0x1 SWAP3 DUP4 SHR SWAP1 PUSH2 0x20FD JUMP JUMPDEST MLOAD SWAP1 PUSH2 0x3E8 DUP1 DUP4 MUL SWAP1 DUP4 DUP3 DIV EQ DUP4 ISZERO OR ISZERO PUSH2 0x2061 JUMPI PUSH2 0x2710 SWAP1 DIV SWAP2 PUSH1 0x0 DUP3 DUP2 DUP2 JUMPDEST PUSH2 0x2891 JUMPI JUMPDEST POP POP PUSH2 0x27EE SWAP1 PUSH2 0x215F JUMP JUMPDEST SWAP4 PUSH1 0x0 SWAP2 DUP3 DUP5 JUMPDEST PUSH2 0x2803 JUMPI JUMPDEST POP POP POP POP POP POP SWAP1 JUMP JUMPDEST DUP3 MLOAD DUP2 LT ISZERO PUSH2 0x288C JUMPI PUSH2 0x2816 DUP2 DUP5 PUSH2 0x20FD JUMP JUMPDEST MLOAD MLOAD PUSH2 0x2822 DUP8 DUP5 PUSH2 0x2054 JUMP JUMPDEST GT ISZERO DUP1 PUSH2 0x286E JUMPI JUMPDEST PUSH2 0x283E JUMPI JUMPDEST PUSH2 0x2838 SWAP1 PUSH2 0x2111 JUMP JUMPDEST DUP5 PUSH2 0x27F5 JUMP JUMPDEST SWAP3 PUSH2 0x2866 PUSH2 0x2838 SWAP2 PUSH2 0x2850 DUP7 DUP7 PUSH2 0x20FD JUMP JUMPDEST MLOAD PUSH2 0x285B DUP3 DUP12 PUSH2 0x20FD JUMP JUMPDEST MSTORE PUSH2 0x2ED DUP2 DUP11 PUSH2 0x20FD JUMP JUMPDEST SWAP4 SWAP1 POP PUSH2 0x282F JUMP JUMPDEST POP PUSH2 0x2879 DUP2 DUP5 PUSH2 0x20FD JUMP JUMPDEST MLOAD MLOAD PUSH2 0x2885 DUP8 DUP5 PUSH2 0x2152 JUMP JUMPDEST LT ISZERO PUSH2 0x282A JUMP JUMPDEST PUSH2 0x27FA JUMP JUMPDEST DUP7 MLOAD DUP2 LT ISZERO PUSH2 0x28FF JUMPI PUSH2 0x28A4 DUP2 DUP9 PUSH2 0x20FD JUMP JUMPDEST MLOAD MLOAD PUSH2 0x28B0 DUP8 DUP7 PUSH2 0x2054 JUMP JUMPDEST GT ISZERO DUP1 PUSH2 0x28E1 JUMPI JUMPDEST PUSH2 0x28CC JUMPI JUMPDEST PUSH2 0x28C6 SWAP1 PUSH2 0x2111 JUMP JUMPDEST DUP2 PUSH2 0x27DE JUMP JUMPDEST SWAP2 PUSH2 0x28D9 PUSH2 0x28C6 SWAP2 PUSH2 0x2111 JUMP JUMPDEST SWAP3 SWAP1 POP PUSH2 0x28BD JUMP JUMPDEST POP PUSH2 0x28EC DUP2 DUP9 PUSH2 0x20FD JUMP JUMPDEST MLOAD MLOAD PUSH2 0x28F8 DUP8 DUP7 PUSH2 0x2152 JUMP JUMPDEST LT ISZERO PUSH2 0x28B8 JUMP JUMPDEST PUSH2 0x27E3 JUMP JUMPDEST POP JUMP JUMPDEST PUSH1 0x80 DUP2 ADD MLOAD ISZERO ISZERO SWAP1 DUP2 PUSH2 0x294D JUMPI JUMPDEST DUP2 PUSH2 0x293C JUMPI JUMPDEST DUP2 PUSH2 0x2924 JUMPI POP SWAP1 JUMP JUMPDEST PUSH2 0xE10 SWAP2 POP PUSH1 0x20 PUSH2 0x2937 SWAP2 ADD MLOAD TIMESTAMP PUSH2 0x2054 JUMP JUMPDEST GT ISZERO SWAP1 JUMP JUMPDEST SWAP1 POP PUSH1 0x46 PUSH1 0x40 DUP3 ADD MLOAD LT ISZERO SWAP1 PUSH2 0x291B JUMP JUMPDEST DUP1 MLOAD ISZERO ISZERO SWAP2 POP PUSH2 0x2915 JUMP JUMPDEST SWAP1 PUSH1 0x0 NOT DUP3 ADD SWAP2 DUP3 SGT PUSH1 0x1 AND PUSH2 0x2061 JUMPI JUMP JUMPDEST SWAP1 PUSH1 0x1 DUP3 ADD SWAP2 PUSH1 0x0 PUSH1 0x1 DUP5 SLT SWAP2 SLT SWAP1 DUP1 ISZERO DUP3 AND SWAP2 ISZERO AND OR PUSH2 0x2061 JUMPI JUMP JUMPDEST SWAP2 SWAP1 SWAP2 DUP2 DUP4 SLT PUSH2 0x2996 JUMPI POP POP POP JUMP JUMPDEST PUSH2 0x29A0 DUP3 DUP3 PUSH2 0x20FD JUMP JUMPDEST MLOAD PUSH2 0x29AA DUP5 PUSH2 0x2958 JUMP JUMPDEST SWAP1 DUP5 JUMPDEST DUP5 DUP2 SLT PUSH2 0x2A22 JUMPI POP POP PUSH2 0x29FF PUSH2 0x2A10 SWAP2 PUSH2 0x29C7 DUP6 DUP6 PUSH2 0x20FD JUMP JUMPDEST MLOAD PUSH2 0x29F9 PUSH2 0x29DD PUSH2 0x29D7 DUP5 PUSH2 0x296A JUMP JUMPDEST DUP8 PUSH2 0x20FD JUMP JUMPDEST MLOAD PUSH2 0x29E7 DUP5 PUSH2 0x296A JUMP JUMPDEST SWAP1 PUSH2 0x29F2 DUP10 DUP10 PUSH2 0x20FD JUMP JUMPDEST MSTORE DUP7 PUSH2 0x20FD JUMP JUMPDEST MSTORE PUSH2 0x296A JUMP JUMPDEST SWAP4 PUSH2 0x2A09 DUP6 PUSH2 0x2958 JUMP JUMPDEST SWAP1 DUP4 PUSH2 0x2987 JUMP JUMPDEST PUSH2 0x2A1C PUSH2 0x1F34 SWAP4 PUSH2 0x296A JUMP JUMPDEST SWAP1 PUSH2 0x2987 JUMP JUMPDEST DUP2 PUSH2 0x2A2D DUP3 DUP7 PUSH2 0x20FD JUMP JUMPDEST MLOAD GT ISZERO PUSH2 0x2A43 JUMPI JUMPDEST PUSH2 0x2A3E SWAP1 PUSH2 0x2A84 JUMP JUMPDEST PUSH2 0x29AD JUMP JUMPDEST SWAP2 PUSH2 0x2A50 PUSH2 0x2A3E SWAP2 PUSH2 0x2A84 JUMP JUMPDEST SWAP3 PUSH2 0x2A5B DUP2 DUP7 PUSH2 0x20FD JUMP JUMPDEST MLOAD PUSH2 0x2A66 DUP6 DUP8 PUSH2 0x20FD JUMP JUMPDEST MLOAD PUSH2 0x2A71 DUP4 DUP9 PUSH2 0x20FD JUMP JUMPDEST MSTORE PUSH2 0x2A7C DUP6 DUP8 PUSH2 0x20FD JUMP JUMPDEST MSTORE SWAP1 POP PUSH2 0x2A35 JUMP JUMPDEST PUSH1 0x1 PUSH1 0x1 PUSH1 0xFF SHL SUB DUP2 EQ PUSH2 0x2061 JUMPI PUSH1 0x1 ADD SWAP1 JUMP JUMPDEST PUSH32 0x0 PUSH1 0x1 PUSH1 0x1 PUSH1 0xA0 SHL SUB SWAP1 DUP2 AND SWAP2 AND EQ PUSH2 0x2AF0 JUMPI PUSH1 0x40 MLOAD PUSH2 0x2AD7 DUP2 PUSH2 0x1DF5 JUMP JUMPDEST PUSH1 0x9 DUP2 MSTORE PUSH9 0x1513D2D1538BD554D1 PUSH1 0xBA SHL PUSH1 0x20 DUP3 ADD MSTORE SWAP1 JUMP JUMPDEST PUSH1 0x40 MLOAD PUSH2 0x2AFC DUP2 PUSH2 0x1DF5 JUMP JUMPDEST PUSH1 0x7 DUP2 MSTORE PUSH7 0x1155120BD554D1 PUSH1 0xCA SHL PUSH1 0x20 DUP3 ADD MSTORE SWAP1 JUMP INVALID LOG2 PUSH5 0x6970667358 0x22 SLT KECCAK256 0xAD CREATE2 0x4A PUSH1 0x4A 0xD1 SWAP10 DELEGATECALL DUP14 0xC LT 0xE5 0xEB SWAP15 PUSH18 0xF1AD1834652C4078F5B052D2CBFB6EE1E864 PUSH20 0x6F6C634300081400330000000000000000000000 "},"methodIdentifiers":{"MAX_PRICE_DEVIATION()":"96f277b7","MIN_CONFIDENCE_LEVEL()":"6e3ae2f4","PRICE_PRECISION()":"95082d25","STALENESS_THRESHOLD()":"7215b0bf","WETH()":"ad5c4648","_getExternalOraclePrice((address,uint256,uint256,uint256,bool,string))":"e4b6051d","addAuthorizedSource(address)":"becd7b3f","aggregationMethod()":"47fa0536","authorizedSources(address)":"964ebf42","chainlinkFeeds(uint256,string)":"e63519a7","configureOracle(address,address,address,string,uint256,uint256)":"5ea79300","configureTWAP(address,address,address,uint32)":"306d3227","emergencyPause()":"51858e27","emergencyUnpause()":"4a4e3bd5","getAggregatedPrice(address,address)":"ebfcae78","getChainlinkPrice(address,address)":"12923fc8","getMultiSourcePrices(address,address)":"3144b8a4","getUniswapTWAP(address,address)":"79b06567","minSources()":"51a3451a","oracles(address,address,uint256)":"9acfb474","owner()":"8da5cb5b","paused()":"5c975abb","prices(address,address)":"1f312404","removeAuthorizedSource(address)":"b497560e","renounceOwnership()":"715018a6","setAggregationMethod(uint256)":"87a286a4","setMinSources(uint256)":"ddc8aec2","tokenWeights(address)":"ab2f3ad4","transferOwnership(address)":"f2fde38b","twapConfigs(address,address)":"c1be9589","updatePrice(address,address,uint256,uint256,string)":"a517744e"}}}}}