{"contracts-new/ArbitrageCore.sol":{"ArbitrageCore":{"abi":[{"inputs":[{"internalType":"address","name":"_priceOracle","type":"address"},{"internalType":"address","name":"_feeCollector","type":"address"}],"stateMutability":"nonpayable","type":"constructor"},{"inputs":[],"name":"EnforcedPause","type":"error"},{"inputs":[],"name":"ExpectedPause","type":"error"},{"inputs":[{"internalType":"address","name":"owner","type":"address"}],"name":"OwnableInvalidOwner","type":"error"},{"inputs":[{"internalType":"address","name":"account","type":"address"}],"name":"OwnableUnauthorizedAccount","type":"error"},{"inputs":[],"name":"ReentrancyGuardReentrantCall","type":"error"},{"inputs":[{"internalType":"address","name":"token","type":"address"}],"name":"SafeERC20FailedOperation","type":"error"},{"anonymous":false,"inputs":[{"indexed":true,"internalType":"bytes32","name":"tradeId","type":"bytes32"},{"indexed":true,"internalType":"address","name":"user","type":"address"},{"indexed":true,"internalType":"address","name":"tokenIn","type":"address"},{"indexed":false,"internalType":"address","name":"tokenOut","type":"address"},{"indexed":false,"internalType":"uint256","name":"amountIn","type":"uint256"},{"indexed":false,"internalType":"uint256","name":"profit","type":"uint256"},{"indexed":false,"internalType":"uint256","name":"gasUsed","type":"uint256"},{"indexed":false,"internalType":"uint256","name":"timestamp","type":"uint256"}],"name":"ArbitrageExecuted","type":"event"},{"anonymous":false,"inputs":[{"indexed":true,"internalType":"bytes32","name":"tradeId","type":"bytes32"},{"indexed":true,"internalType":"address","name":"token","type":"address"},{"indexed":false,"internalType":"uint256","name":"flashAmount","type":"uint256"},{"indexed":false,"internalType":"uint256","name":"profit","type":"uint256"},{"indexed":true,"internalType":"address","name":"user","type":"address"}],"name":"FlashArbitrageExecuted","type":"event"},{"anonymous":false,"inputs":[{"indexed":true,"internalType":"bytes32","name":"tradeId","type":"bytes32"},{"indexed":true,"internalType":"address","name":"user","type":"address"},{"indexed":false,"internalType":"uint256","name":"protectionLevel","type":"uint256"}],"name":"MEVProtectionActivated","type":"event"},{"anonymous":false,"inputs":[{"indexed":true,"internalType":"address","name":"previousOwner","type":"address"},{"indexed":true,"internalType":"address","name":"newOwner","type":"address"}],"name":"OwnershipTransferred","type":"event"},{"anonymous":false,"inputs":[{"indexed":false,"internalType":"address","name":"account","type":"address"}],"name":"Paused","type":"event"},{"anonymous":false,"inputs":[{"indexed":true,"internalType":"address","name":"user","type":"address"},{"indexed":false,"internalType":"uint256","name":"attemptedAmount","type":"uint256"},{"indexed":false,"internalType":"uint256","name":"dailyLimit","type":"uint256"},{"indexed":false,"internalType":"uint256","name":"timestamp","type":"uint256"}],"name":"RiskLimitExceeded","type":"event"},{"anonymous":false,"inputs":[{"indexed":false,"internalType":"address","name":"account","type":"address"}],"name":"Unpaused","type":"event"},{"stateMutability":"payable","type":"fallback"},{"inputs":[],"name":"FEE_DENOMINATOR","outputs":[{"internalType":"uint256","name":"","type":"uint256"}],"stateMutability":"view","type":"function"},{"inputs":[],"name":"MAX_DAILY_LOSS","outputs":[{"internalType":"uint256","name":"","type":"uint256"}],"stateMutability":"view","type":"function"},{"inputs":[],"name":"MAX_SINGLE_TRADE_LOSS","outputs":[{"internalType":"uint256","name":"","type":"uint256"}],"stateMutability":"view","type":"function"},{"inputs":[],"name":"SECONDS_PER_DAY","outputs":[{"internalType":"uint256","name":"","type":"uint256"}],"stateMutability":"view","type":"function"},{"inputs":[{"internalType":"address","name":"dex","type":"address"}],"name":"addAuthorizedDEX","outputs":[],"stateMutability":"nonpayable","type":"function"},{"inputs":[{"internalType":"address","name":"","type":"address"}],"name":"authorizedDEXs","outputs":[{"internalType":"bool","name":"","type":"bool"}],"stateMutability":"view","type":"function"},{"inputs":[{"components":[{"internalType":"address","name":"tokenIn","type":"address"},{"internalType":"address","name":"tokenOut","type":"address"},{"internalType":"uint256","name":"amountIn","type":"uint256"},{"internalType":"address[]","name":"dexRoutes","type":"address[]"},{"internalType":"bytes","name":"routingData","type":"bytes"},{"internalType":"uint256","name":"minProfit","type":"uint256"},{"internalType":"uint256","name":"deadline","type":"uint256"}],"internalType":"struct ArbitrageCore.ArbitrageParams[]","name":"trades","type":"tuple[]"}],"name":"batchArbitrage","outputs":[],"stateMutability":"nonpayable","type":"function"},{"inputs":[],"name":"emergencyPause","outputs":[],"stateMutability":"nonpayable","type":"function"},{"inputs":[],"name":"emergencyUnpause","outputs":[],"stateMutability":"nonpayable","type":"function"},{"inputs":[{"internalType":"address","name":"token","type":"address"},{"internalType":"uint256","name":"amount","type":"uint256"}],"name":"emergencyWithdraw","outputs":[],"stateMutability":"nonpayable","type":"function"},{"inputs":[],"name":"emergencyWithdrawETH","outputs":[],"stateMutability":"nonpayable","type":"function"},{"inputs":[{"components":[{"internalType":"address","name":"tokenIn","type":"address"},{"internalType":"address","name":"tokenOut","type":"address"},{"internalType":"uint256","name":"amountIn","type":"uint256"},{"internalType":"address[]","name":"dexRoutes","type":"address[]"},{"internalType":"bytes","name":"routingData","type":"bytes"},{"internalType":"uint256","name":"minProfit","type":"uint256"},{"internalType":"uint256","name":"deadline","type":"uint256"}],"internalType":"struct ArbitrageCore.ArbitrageParams","name":"params","type":"tuple"}],"name":"executeArbitrage","outputs":[],"stateMutability":"nonpayable","type":"function"},{"inputs":[{"internalType":"address","name":"flashToken","type":"address"},{"internalType":"uint256","name":"flashAmount","type":"uint256"},{"components":[{"internalType":"address","name":"tokenIn","type":"address"},{"internalType":"address","name":"tokenOut","type":"address"},{"internalType":"uint256","name":"amountIn","type":"uint256"},{"internalType":"address[]","name":"dexRoutes","type":"address[]"},{"internalType":"bytes","name":"routingData","type":"bytes"},{"internalType":"uint256","name":"minProfit","type":"uint256"},{"internalType":"uint256","name":"deadline","type":"uint256"}],"internalType":"struct ArbitrageCore.ArbitrageParams","name":"params","type":"tuple"},{"internalType":"bytes","name":"flashLoanData","type":"bytes"}],"name":"executeFlashArbitrage","outputs":[],"stateMutability":"nonpayable","type":"function"},{"inputs":[{"internalType":"bytes32","name":"","type":"bytes32"}],"name":"executedTrades","outputs":[{"internalType":"bool","name":"","type":"bool"}],"stateMutability":"view","type":"function"},{"inputs":[],"name":"feeCollector","outputs":[{"internalType":"address","name":"","type":"address"}],"stateMutability":"view","type":"function"},{"inputs":[],"name":"feePercentage","outputs":[{"internalType":"uint256","name":"","type":"uint256"}],"stateMutability":"view","type":"function"},{"inputs":[],"name":"flashLoanEnabled","outputs":[{"internalType":"bool","name":"","type":"bool"}],"stateMutability":"view","type":"function"},{"inputs":[],"name":"getContractStats","outputs":[{"internalType":"uint256","name":"totalTrades","type":"uint256"},{"internalType":"uint256","name":"totalVolume","type":"uint256"},{"internalType":"uint256","name":"totalFees","type":"uint256"},{"internalType":"uint256","name":"currentFee","type":"uint256"},{"internalType":"bool","name":"isPaused","type":"bool"}],"stateMutability":"view","type":"function"},{"inputs":[{"internalType":"uint256","name":"chainId","type":"uint256"}],"name":"getNetworkConfig","outputs":[{"components":[{"internalType":"uint256","name":"chainId","type":"uint256"},{"internalType":"address","name":"priceOracle","type":"address"},{"internalType":"address","name":"flashLoanProvider","type":"address"},{"internalType":"uint256","name":"maxGasPrice","type":"uint256"},{"internalType":"bool","name":"isActive","type":"bool"}],"internalType":"struct ArbitrageCore.NetworkConfig","name":"","type":"tuple"}],"stateMutability":"view","type":"function"},{"inputs":[{"internalType":"address","name":"user","type":"address"}],"name":"getUserStats","outputs":[{"internalType":"uint256","name":"totalProfits","type":"uint256"},{"internalType":"uint256","name":"dailyLoss","type":"uint256"},{"internalType":"uint256","name":"lastActivity","type":"uint256"},{"internalType":"bool","name":"canTrade","type":"bool"}],"stateMutability":"view","type":"function"},{"inputs":[{"internalType":"bytes32","name":"tradeId","type":"bytes32"}],"name":"isTradeExecuted","outputs":[{"internalType":"bool","name":"","type":"bool"}],"stateMutability":"view","type":"function"},{"inputs":[{"internalType":"address","name":"","type":"address"}],"name":"lastUserActivity","outputs":[{"internalType":"uint256","name":"","type":"uint256"}],"stateMutability":"view","type":"function"},{"inputs":[],"name":"mevProtectionEnabled","outputs":[{"internalType":"bool","name":"","type":"bool"}],"stateMutability":"view","type":"function"},{"inputs":[{"internalType":"uint256","name":"","type":"uint256"}],"name":"networkConfigs","outputs":[{"internalType":"uint256","name":"chainId","type":"uint256"},{"internalType":"address","name":"priceOracle","type":"address"},{"internalType":"address","name":"flashLoanProvider","type":"address"},{"internalType":"uint256","name":"maxGasPrice","type":"uint256"},{"internalType":"bool","name":"isActive","type":"bool"}],"stateMutability":"view","type":"function"},{"inputs":[],"name":"owner","outputs":[{"internalType":"address","name":"","type":"address"}],"stateMutability":"view","type":"function"},{"inputs":[],"name":"paused","outputs":[{"internalType":"bool","name":"","type":"bool"}],"stateMutability":"view","type":"function"},{"inputs":[],"name":"priceOracle","outputs":[{"internalType":"address","name":"","type":"address"}],"stateMutability":"view","type":"function"},{"inputs":[{"internalType":"address","name":"dex","type":"address"}],"name":"removeAuthorizedDEX","outputs":[],"stateMutability":"nonpayable","type":"function"},{"inputs":[],"name":"renounceOwnership","outputs":[],"stateMutability":"nonpayable","type":"function"},{"inputs":[{"internalType":"address","name":"_collector","type":"address"}],"name":"setFeeCollector","outputs":[],"stateMutability":"nonpayable","type":"function"},{"inputs":[{"internalType":"uint256","name":"_fee","type":"uint256"}],"name":"setFeePercentage","outputs":[],"stateMutability":"nonpayable","type":"function"},{"inputs":[{"internalType":"bool","name":"enabled","type":"bool"}],"name":"setFlashLoanEnabled","outputs":[],"stateMutability":"nonpayable","type":"function"},{"inputs":[{"internalType":"bool","name":"enabled","type":"bool"}],"name":"setMEVProtection","outputs":[],"stateMutability":"nonpayable","type":"function"},{"inputs":[{"internalType":"address","name":"_oracle","type":"address"}],"name":"setPriceOracle","outputs":[],"stateMutability":"nonpayable","type":"function"},{"inputs":[],"name":"totalFeesCollected","outputs":[{"internalType":"uint256","name":"","type":"uint256"}],"stateMutability":"view","type":"function"},{"inputs":[],"name":"totalTradesExecuted","outputs":[{"internalType":"uint256","name":"","type":"uint256"}],"stateMutability":"view","type":"function"},{"inputs":[],"name":"totalVolumeProcessed","outputs":[{"internalType":"uint256","name":"","type":"uint256"}],"stateMutability":"view","type":"function"},{"inputs":[{"internalType":"address","name":"newOwner","type":"address"}],"name":"transferOwnership","outputs":[],"stateMutability":"nonpayable","type":"function"},{"inputs":[{"internalType":"address","name":"","type":"address"}],"name":"userDailyLoss","outputs":[{"internalType":"uint256","name":"","type":"uint256"}],"stateMutability":"view","type":"function"},{"inputs":[{"internalType":"address","name":"","type":"address"}],"name":"userProfits","outputs":[{"internalType":"uint256","name":"","type":"uint256"}],"stateMutability":"view","type":"function"},{"stateMutability":"payable","type":"receive"}],"evm":{"bytecode":{"linkReferences":{},"object":"608034620003b2576200204290601f38839003908101601f19168201906001600160401b03821183831017620003b75780839160409586948552833981010312620003b2576200004f81620003ed565b6200005e6020809301620003ed565b9160019160009383855533156200039a578354336001600160a01b031980831682178755885190946001600160a01b0394919390929085167f8be0079c531659141344cd1fd0a4f28419497f9722a3daafe3b4186f6b6457e08a80a3603260085583600d549216928315620003675750831691821562000323576001600160b01b03199091161761010160a01b17600d55600c805484169091179055600692916200027b916004906200018462000114620003cd565b6089815283878b8d8c878487019184835283880193858552606089019564174876e8008752600760808b0198848a526089835252209751885587019151168a82541617905586600286019151168982541617905551600384015551151591019060ff801983541691151516179055565b6200020262000192620003cd565b6038815283878b8d8c87848701918483528388019385855260608901956402540be4008752600760808b0198848a526038835252209751885587019151168a82541617905586600286019151168982541617905551600384015551151591019060ff801983541691151516179055565b6200020c620003cd565b9261a4b191828552868501918a83528b8601918b83526060870193633b9aca00855260808801958c87528d5260078a528d8d2097518855818c890191511683825416179055600287019251169082541617905551600384015551151591019060ff801983541691151516179055565b73a5e0829caced8ffdd4de3c43696c57f7d7a678ff845252828083209260ff19938385825416179055731b02da8cb0d097eb8d57a175b88c7d8b4799750680825282822084868254161790557310ed43c718714eb63d5aa57b78b54704e256024e825282822084868254161790558152818120838582541617905573e592427a0aece92de3edee1f18e0157c058615648152209182541617905551611c3f9081620004038239f35b885162461bcd60e51b815260048101879052601560248201527f496e76616c69642066656520636f6c6c6563746f7200000000000000000000006044820152606490fd5b62461bcd60e51b815260048101879052600e60248201526d496e76616c6964206f7261636c6560901b6044820152606490fd5b8551631e4fbdf760e01b815260048101869052602490fd5b600080fd5b634e487b7160e01b600052604160045260246000fd5b6040519060a082016001600160401b03811183821017620003b757604052565b51906001600160a01b0382168203620003b25756fe6080604081815260048036101561001e575b505050361561001c57005b005b600092833560e01c9081630105746f1461149c5750806321442afd146114215780632630c12f146113f85780632718c14f146113d9578063355bc240146113b55780634a4e3bd5146113465780634e2dc9bb1461130e5780634e43603a146112a557806351858e2714611244578063530e784f146111c65780635c975abb1461119f5780635f457d7f1461115f57806360c6d8ae1461114057806363e5c3571461111c57806365d61c6c146110f55780636b5d11c714610e67578063715018a614610e0757806374f0314f14610de95780637b99b60314610d885780638453601714610d0957806388b70cb614610cc35780638bfbec68146109775780638da5cb5b1461094e57806395ccea671461088357806398ebdc1e14610616578063a001ecdd146105f7578063a42dce8014610576578063a55102f714610530578063ae06c1b7146104d3578063b236e18d146104a7578063be3548361461046f578063c415b95c14610446578063c61f01d214610408578063cce15db2146103e1578063d2a037ab146103c2578063d39957c61461030a578063d73792a9146102ed578063dfe6b5d6146102a1578063f2fde38b146102175763fbff39960361001157346102135760203660031901126102135760209282916001600160a01b036102056114c7565b168252845220549051908152f35b8280fd5b5034610213576020366003190112610213576102316114c7565b9061023a6114f6565b6001600160a01b0391821692831561028b575050600154826001600160601b0360a01b821617600155167f8be0079c531659141344cd1fd0a4f28419497f9722a3daafe3b4186f6b6457e08380a380f35b51631e4fbdf760e01b8152908101849052602490fd5b5050346102e957816003193601126102e95760a09060ff60095491600a5490600b546008549160015493815196875260208701528501526060840152831c1615156080820152f35b5080fd5b5050346102e957816003193601126102e957602090516127108152f35b50903461021357602036600319011261021357808360a0946080835161032f81611522565b828152826020820152828582015282606082015201528335815260076020522081519161035b83611522565b815493848452600180871b0390818060018601541660208701908152608060ff8360028901541694878a0195865260038901549860608b01998a52015416970196151587528451978852511660208701525116908401525160608301525115156080820152f35b5050346102e957816003193601126102e9576020906009549051908152f35b5050346102e957816003193601126102e95760209060ff600d5460a01c1690519015158152f35b5050346102e95760203660031901126102e95760209160ff9082906001600160a01b036104336114c7565b1681526006855220541690519015158152f35b5050346102e957816003193601126102e957600c5490516001600160a01b039091168152602090f35b5050346102e95760203660031901126102e95760209181906001600160a01b036104976114c7565b1681526003845220549051908152f35b5034610213576020366003190112610213578160209360ff923581526002855220541690519015158152f35b5034610213576020366003190112610213578035916104f06114f6565b60c8831161050057505060085580f35b906020606492519162461bcd60e51b8352820152600a6024820152694d61782066656520322560b01b6044820152fd5b8382346102e95760203660031901126102e957358015158091036102e9576105566114f6565b600d805460ff60a81b191660a89290921b60ff60a81b1691909117905580f35b5034610213576020366003190112610213576105906114c7565b6105986114f6565b6001600160a01b03169182156105c05750506001600160601b0360a01b600c541617600c5580f35b906020606492519162461bcd60e51b8352820152601160248201527024b73b30b634b21031b7b63632b1ba37b960791b6044820152fd5b5050346102e957816003193601126102e9576020906008549051908152f35b509190346102e957600319608036820112610213576106336114c7565b60243560443567ffffffffffffffff9384821161087b5760e090828901923603011261087f5760643584811161087b573660238201121561087b578088013594851161087b57366024868301011161087b579160609793918695936106966119c1565b61069e6119a0565b6106a836836115c9565b946106b860c087015142106116d6565b6106c760a0870151151561170c565b6106f6600260018060a01b039c886106ec8f809b511660209b8c840151161415611749565b0151511015611782565b610740683635c9adc5dea000006107398c601488049c8d9161071733611bb5565b61072c68056bc75e2d631000008411156117bd565b3381528c8c5220546117fb565b111561181e565b60ff600d5460a81c1615610841578315610807576107fe98999a6107e07f5a9c9c3fdd080eaa29d35c3dd6264ad4422b1ac6da922fa97292f16f3645d137938a936107d585518b810190640ccd8c2e6d60db1b82526001600160601b03198c60601b1660258201528a60398201524260598201523360601b6079820152606d81526107ca81611522565b5190209736906115c9565b506024369201611592565b5081519485528b8786015233951693a43386525283209182546117fb565b90556001815580f35b875162461bcd60e51b81528088018790526014602482015273125b9d985b1a5908199b185cda08185b5bdd5b9d60621b6044820152606490fd5b875162461bcd60e51b81528088018790526014602482015273119b185cda081b1bd85b9cc8191a5cd8589b195960621b6044820152606490fd5b8680fd5b8580fd5b50903461021357806003193601126102135761089d6114c7565b602435916108a96114f6565b82156108ce575b506001546108cb93506001600160a01b0390811691166118e6565b80f35b80516370a0823160e01b815230948101949094529091506020836024816001600160a01b0386165afa90811561094557508390610912575b6108cb925090386108b0565b506020823d821161093d575b8161092b60209383611554565b81010312610213576108cb9151610906565b3d915061091e565b513d85823e3d90fd5b5050346102e957816003193601126102e95760015490516001600160a01b039091168152602090f35b508290346102e957602092600319918483360112610cbf5780359467ffffffffffffffff8611610cbb5760e0868301948736030112610cbb576109b86119c1565b6109c06119a0565b6109ca36856115c9565b936109da60c086015142106116d6565b6109e960a0860151151561170c565b610a0c6002606060018060a01b03976106ec898251168a88840151161415611749565b6044870135600a810495610a1f33611bb5565b610a3468056bc75e2d631000008811156117bd565b338852848452610a54683635c9adc5dea0000061073989898c20546117fb565b610a5d83611861565b60248a0190610a6b82611861565b90885190878201926001600160601b0319809260601b16845260601b1660348201528460488201524260688201523360601b6088820152607c8152610aaf81611522565b51902093848a526002865260ff888b205416610c8957899a610bef610be9610be9866107fe9d9e610b6560a48f898f610b37908f93610b5a945a99610b04610afe610af988611861565b611b4c565b96611861565b169151926323b872dd60e01b90840152336024840152306044840152606483015260648252610b3282611522565b611938565b610b49610b44368d6115c9565b611a30565b610b55610af98c611861565b611875565b970135871015611882565b610b7f612710610b77600854896118c4565b048097611875565b9586610c6f575b80610c40575b508a815260028c528d8120600160ff1982541617905533815260038c528d8120610bb78782546117fb565b905533815260058c528d42912055610bd06009546118d7565b600955610bdf89600a546117fb565b600a555a90611875565b93611861565b94848a51961686528786015288850152606084015242608084015216917f931d979b8e8c271b286b1b7e3950d92607b3b3528c79f5ed2d03742bb5ae50ab60a03393a43386525283209182546117fb565b80610c5e610c66928c610c528c611861565b168d600c5416906118e6565b600b546117fb565b600b5538610b8c565b610c8487338c610c7e8c611861565b166118e6565b610b86565b875162461bcd60e51b8152808801879052600c60248201526b54726164652065786973747360a01b6044820152606490fd5b8480fd5b8380fd5b8382346102e95760203660031901126102e957358015158091036102e957610ce96114f6565b600d805460ff60a01b191660a09290921b60ff60a01b1691909117905580f35b5034610213578260031936011261021357610d226114f6565b47908115610d54575060015483918291829182916001600160a01b031682f115610d4a575080f35b51903d90823e3d90fd5b606490602084519162461bcd60e51b8352820152600e60248201526d4e6f204554482062616c616e636560901b6044820152fd5b509034610213576020366003190112610213578060a09383358152600760205220805492600180861b039260ff8460018501541694600285015416926003850154940154169381519586526020860152840152606083015215156080820152f35b5050346102e957816003193601126102e95760209051620151808152f35b8334610e645780600319360112610e6457610e206114f6565b600180546001600160a01b0319811690915581906001600160a01b03167f8be0079c531659141344cd1fd0a4f28419497f9722a3daafe3b4186f6b6457e08280a380f35b80fd5b508290346102e957602090816003193601126102135767ffffffffffffffff918135838111610cbb5736602382011215610cbb57808301359284841161087f57602490818301928236918760051b01011161087b57610ec46119c1565b610ecc6119a0565b600a85116110b5575a91879388905b878210610fe9575050610f09610f01612710610ef9600854886118c4565b048096611875565b935a90611875565b93620249f087818102041487151715610fd757610f3f90338a52600387528a8a20610f358682546117fb565b9055600b546117fb565b600b55885194850191640c4c2e8c6d60db1b83524260258701523360601b604587015260398652606086019786891090891117610fc6575050858798528351902093868652608084015260a083015260c082015260e0429101527f931d979b8e8c271b286b1b7e3950d92607b3b3528c79f5ed2d03742bb5ae50ab60a03393a46001815580f35b634e487b7160e01b89526041905287fd5b50634e487b7160e01b88526011825287fd5b90944260c0610ff9888b866119e4565b01351115611083576110778661107d926110248b61101b60a0948592896119e4565b0135151561170c565b61107261103b366110368c8f8a6119e4565b6115c9565b9261106760018060a01b03610b5561105582885116611b4c565b9161105f88611a30565b875116611b4c565b930151831015611882565b6117fb565b956118d7565b90610edb565b8a5162461bcd60e51b8152808501889052600d818501526c151c98591948195e1c1a5c9959609a1b6044820152606490fd5b6017606492858a519362461bcd60e51b85528401528201527f4d617820313020747261646573207065722062617463680000000000000000006044820152fd5b5050346102e957816003193601126102e95760209060ff600d5460a81c1690519015158152f35b5050346102e957816003193601126102e95760209051683635c9adc5dea000008152f35b5050346102e957816003193601126102e957602090600b549051908152f35b5050346102e95760203660031901126102e95761117a6114c7565b6111826114f6565b6001600160a01b0316825260066020528120805460ff1916905580f35b5050346102e957816003193601126102e95760209060ff60015460a01c1690519015158152f35b5034610213576020366003190112610213576111e06114c7565b6111e86114f6565b6001600160a01b03169182156112105750506001600160601b0360a01b600d541617600d5580f35b906020606492519162461bcd60e51b8352820152600e60248201526d496e76616c6964206f7261636c6560901b6044820152fd5b5050346102e957816003193601126102e95760207f62e78cea01bee320cd4e420270b5ea74000d11b0c9f74754ebdbfc544b05a258916112826114f6565b61128a6119a0565b6001805460ff60a01b1916600160a01b17905551338152a180f35b508290346102e95760209081600319360112610213576080936001600160a01b036112ce6114c7565b168452600383528084205493828452683635c9adc5dea0000082808320549260058752818120549587522054109382519586528501528301526060820152f35b5050346102e95760203660031901126102e95760209181906001600160a01b036113366114c7565b1681526005845220549051908152f35b503461021357826003193601126102135761135f6114f6565b6001549060ff8260a01c16156113a7575060ff60a01b1916600155513381527f5db9ee0a495bf2e6ff9c91a7834c1ba4fdd244a5e8aa4e537bd38aeae4b073aa90602090a180f35b8251638dfc202b60e01b8152fd5b5050346102e957816003193601126102e9576020905168056bc75e2d631000008152f35b5050346102e957816003193601126102e957602090600a549051908152f35b5050346102e957816003193601126102e957600d5490516001600160a01b039091168152602090f35b50346102135760203660031901126102135761143b6114c7565b6114436114f6565b6001600160a01b031690811561146b5750825260066020528120805460ff1916600117905580f35b606490602084519162461bcd60e51b8352820152600b60248201526a092dcecc2d8d2c840888ab60ab1b6044820152fd5b9291905034610cbf576020366003190112610cbf573583526002602090815292205460ff1615158152f35b600435906001600160a01b03821682036114dd57565b600080fd5b35906001600160a01b03821682036114dd57565b6001546001600160a01b0316330361150a57565b60405163118cdaa760e01b8152336004820152602490fd5b60a0810190811067ffffffffffffffff82111761153e57604052565b634e487b7160e01b600052604160045260246000fd5b90601f8019910116810190811067ffffffffffffffff82111761153e57604052565b67ffffffffffffffff811161153e57601f01601f191660200190565b92919261159e82611576565b916115ac6040519384611554565b8294818452818301116114dd578281602093846000960137010152565b919060e0838203126114dd576040519067ffffffffffffffff60e083018181118482101761153e5760405282946115ff816114e2565b845260209161160f8383016114e2565b838601526040820135604086015260608201358181116114dd57820184601f820112156114dd5780359082821161153e578160051b6040519261165487830185611554565b83528580840191830101918783116114dd5786809101915b8383106116be5750505050606086015260808201359081116114dd5781019183601f840112156114dd5760c093836116a8928695359101611592565b608085015260a081013560a08501520135910152565b81906116c9846114e2565b815201910190869061166c565b156116dd57565b60405162461bcd60e51b8152602060048201526007602482015266115e1c1a5c995960ca1b6044820152606490fd5b1561171357565b60405162461bcd60e51b815260206004820152600e60248201526d125b9d985b1a59081c1c9bd99a5d60921b6044820152606490fd5b1561175057565b60405162461bcd60e51b815260206004820152600a60248201526929b0b6b2903a37b5b2b760b11b6044820152606490fd5b1561178957565b60405162461bcd60e51b815260206004820152600c60248201526b4e65656420322b204445587360a01b6044820152606490fd5b156117c457565b60405162461bcd60e51b815260206004820152600f60248201526e547261646520746f6f207269736b7960881b6044820152606490fd5b9190820180921161180857565b634e487b7160e01b600052601160045260246000fd5b1561182557565b60405162461bcd60e51b815260206004820152601460248201527311185a5b1e481b1a5b5a5d08195e18d95959195960621b6044820152606490fd5b356001600160a01b03811681036114dd5790565b9190820391821161180857565b1561188957565b60405162461bcd60e51b8152602060048201526013602482015272125b9cdd59999a58da595b9d081c1c9bd99a5d606a1b6044820152606490fd5b8181029291811591840414171561180857565b60001981146118085760010190565b60405163a9059cbb60e01b60208201526001600160a01b039092166024830152604480830193909352918152608081019167ffffffffffffffff83118284101761153e5761193692604052611938565b565b906000602091828151910182855af115611994576000513d61198b57506001600160a01b0381163b155b6119695750565b604051635274afe760e01b81526001600160a01b039091166004820152602490fd5b60011415611962565b6040513d6000823e3d90fd5b60ff60015460a01c166119af57565b60405163d93c066560e01b8152600490fd5b6002600054146119d2576002600055565b604051633ee5aeb560e01b8152600490fd5b9190811015611a065760051b8101359060de19813603018212156114dd570190565b634e487b7160e01b600052603260045260246000fd5b8051821015611a065760209160051b010190565b60005b6060820180518051831015611b46576001600160a01b03908190611a58908590611a1c565b51166000526020916006835260409160ff83600020541615611b0d576000918291611a898760808a01519351611a1c565b511682868351930191620493e0f13d15611b08573d611aa781611576565b90611ab484519283611554565b81526000843d92013e5b15611ad3575050611ace906118d7565b611a33565b60649250519062461bcd60e51b82526004820152600f60248201526e111156081cddd85c0819985a5b1959608a1b6044820152fd5b611abe565b825162461bcd60e51b8152600481018590526012602482015271111156081b9bdd08185d5d1a1bdc9a5e995960721b6044820152606490fd5b50505050565b6040516370a0823160e01b815230600482015290602090829060249082906001600160a01b03165afa90811561199457600091611b87575090565b906020823d8211611bad575b81611ba060209383611554565b81010312610e6457505190565b3d9150611b93565b6001600160a01b0316600081815260056020526040812054909190620151808101908110611bf5574211611be7575050565b815260046020526040812055565b634e487b7160e01b83526011600452602483fdfea2646970667358221220fcaa4bcd4844557b4e3deeb344d819149bd262122b31215effdc3d996bd05cc364736f6c63430008140033","opcodes":"PUSH1 0x80 CALLVALUE PUSH3 0x3B2 JUMPI PUSH3 0x2042 SWAP1 PUSH1 0x1F CODESIZE DUP4 SWAP1 SUB SWAP1 DUP2 ADD PUSH1 0x1F NOT AND DUP3 ADD SWAP1 PUSH1 0x1 PUSH1 0x1 PUSH1 0x40 SHL SUB DUP3 GT DUP4 DUP4 LT OR PUSH3 0x3B7 JUMPI DUP1 DUP4 SWAP2 PUSH1 0x40 SWAP6 DUP7 SWAP5 DUP6 MSTORE DUP4 CODECOPY DUP2 ADD SUB SLT PUSH3 0x3B2 JUMPI PUSH3 0x4F DUP2 PUSH3 0x3ED JUMP JUMPDEST PUSH3 0x5E PUSH1 0x20 DUP1 SWAP4 ADD PUSH3 0x3ED JUMP JUMPDEST SWAP2 PUSH1 0x1 SWAP2 PUSH1 0x0 SWAP4 DUP4 DUP6 SSTORE CALLER ISZERO PUSH3 0x39A JUMPI DUP4 SLOAD CALLER PUSH1 0x1 PUSH1 0x1 PUSH1 0xA0 SHL SUB NOT DUP1 DUP4 AND DUP3 OR DUP8 SSTORE DUP9 MLOAD SWAP1 SWAP5 PUSH1 0x1 PUSH1 0x1 PUSH1 0xA0 SHL SUB SWAP5 SWAP2 SWAP4 SWAP1 SWAP3 SWAP1 DUP6 AND PUSH32 0x8BE0079C531659141344CD1FD0A4F28419497F9722A3DAAFE3B4186F6B6457E0 DUP11 DUP1 LOG3 PUSH1 0x32 PUSH1 0x8 SSTORE DUP4 PUSH1 0xD SLOAD SWAP3 AND SWAP3 DUP4 ISZERO PUSH3 0x367 JUMPI POP DUP4 AND SWAP2 DUP3 ISZERO PUSH3 0x323 JUMPI PUSH1 0x1 PUSH1 0x1 PUSH1 0xB0 SHL SUB NOT SWAP1 SWAP2 AND OR PUSH2 0x101 PUSH1 0xA0 SHL OR PUSH1 0xD SSTORE PUSH1 0xC DUP1 SLOAD DUP5 AND SWAP1 SWAP2 OR SWAP1 SSTORE PUSH1 0x6 SWAP3 SWAP2 PUSH3 0x27B SWAP2 PUSH1 0x4 SWAP1 PUSH3 0x184 PUSH3 0x114 PUSH3 0x3CD JUMP JUMPDEST PUSH1 0x89 DUP2 MSTORE DUP4 DUP8 DUP12 DUP14 DUP13 DUP8 DUP5 DUP8 ADD SWAP2 DUP5 DUP4 MSTORE DUP4 DUP9 ADD SWAP4 DUP6 DUP6 MSTORE PUSH1 0x60 DUP10 ADD SWAP6 PUSH5 0x174876E800 DUP8 MSTORE PUSH1 0x7 PUSH1 0x80 DUP12 ADD SWAP9 DUP5 DUP11 MSTORE PUSH1 0x89 DUP4 MSTORE MSTORE KECCAK256 SWAP8 MLOAD DUP9 SSTORE DUP8 ADD SWAP2 MLOAD AND DUP11 DUP3 SLOAD AND OR SWAP1 SSTORE DUP7 PUSH1 0x2 DUP7 ADD SWAP2 MLOAD AND DUP10 DUP3 SLOAD AND OR SWAP1 SSTORE MLOAD PUSH1 0x3 DUP5 ADD SSTORE MLOAD ISZERO ISZERO SWAP2 ADD SWAP1 PUSH1 0xFF DUP1 NOT DUP4 SLOAD AND SWAP2 ISZERO ISZERO AND OR SWAP1 SSTORE JUMP JUMPDEST PUSH3 0x202 PUSH3 0x192 PUSH3 0x3CD JUMP JUMPDEST PUSH1 0x38 DUP2 MSTORE DUP4 DUP8 DUP12 DUP14 DUP13 DUP8 DUP5 DUP8 ADD SWAP2 DUP5 DUP4 MSTORE DUP4 DUP9 ADD SWAP4 DUP6 DUP6 MSTORE PUSH1 0x60 DUP10 ADD SWAP6 PUSH5 0x2540BE400 DUP8 MSTORE PUSH1 0x7 PUSH1 0x80 DUP12 ADD SWAP9 DUP5 DUP11 MSTORE PUSH1 0x38 DUP4 MSTORE MSTORE KECCAK256 SWAP8 MLOAD DUP9 SSTORE DUP8 ADD SWAP2 MLOAD AND DUP11 DUP3 SLOAD AND OR SWAP1 SSTORE DUP7 PUSH1 0x2 DUP7 ADD SWAP2 MLOAD AND DUP10 DUP3 SLOAD AND OR SWAP1 SSTORE MLOAD PUSH1 0x3 DUP5 ADD SSTORE MLOAD ISZERO ISZERO SWAP2 ADD SWAP1 PUSH1 0xFF DUP1 NOT DUP4 SLOAD AND SWAP2 ISZERO ISZERO AND OR SWAP1 SSTORE JUMP JUMPDEST PUSH3 0x20C PUSH3 0x3CD JUMP JUMPDEST SWAP3 PUSH2 0xA4B1 SWAP2 DUP3 DUP6 MSTORE DUP7 DUP6 ADD SWAP2 DUP11 DUP4 MSTORE DUP12 DUP7 ADD SWAP2 DUP12 DUP4 MSTORE PUSH1 0x60 DUP8 ADD SWAP4 PUSH4 0x3B9ACA00 DUP6 MSTORE PUSH1 0x80 DUP9 ADD SWAP6 DUP13 DUP8 MSTORE DUP14 MSTORE PUSH1 0x7 DUP11 MSTORE DUP14 DUP14 KECCAK256 SWAP8 MLOAD DUP9 SSTORE DUP2 DUP13 DUP10 ADD SWAP2 MLOAD AND DUP4 DUP3 SLOAD AND OR SWAP1 SSTORE PUSH1 0x2 DUP8 ADD SWAP3 MLOAD AND SWAP1 DUP3 SLOAD AND OR SWAP1 SSTORE MLOAD PUSH1 0x3 DUP5 ADD SSTORE MLOAD ISZERO ISZERO SWAP2 ADD SWAP1 PUSH1 0xFF DUP1 NOT DUP4 SLOAD AND SWAP2 ISZERO ISZERO AND OR SWAP1 SSTORE JUMP JUMPDEST PUSH20 0xA5E0829CACED8FFDD4DE3C43696C57F7D7A678FF DUP5 MSTORE MSTORE DUP3 DUP1 DUP4 KECCAK256 SWAP3 PUSH1 0xFF NOT SWAP4 DUP4 DUP6 DUP3 SLOAD AND OR SWAP1 SSTORE PUSH20 0x1B02DA8CB0D097EB8D57A175B88C7D8B47997506 DUP1 DUP3 MSTORE DUP3 DUP3 KECCAK256 DUP5 DUP7 DUP3 SLOAD AND OR SWAP1 SSTORE PUSH20 0x10ED43C718714EB63D5AA57B78B54704E256024E DUP3 MSTORE DUP3 DUP3 KECCAK256 DUP5 DUP7 DUP3 SLOAD AND OR SWAP1 SSTORE DUP2 MSTORE DUP2 DUP2 KECCAK256 DUP4 DUP6 DUP3 SLOAD AND OR SWAP1 SSTORE PUSH20 0xE592427A0AECE92DE3EDEE1F18E0157C05861564 DUP2 MSTORE KECCAK256 SWAP2 DUP3 SLOAD AND OR SWAP1 SSTORE MLOAD PUSH2 0x1C3F SWAP1 DUP2 PUSH3 0x403 DUP3 CODECOPY RETURN JUMPDEST DUP9 MLOAD PUSH3 0x461BCD PUSH1 0xE5 SHL DUP2 MSTORE PUSH1 0x4 DUP2 ADD DUP8 SWAP1 MSTORE PUSH1 0x15 PUSH1 0x24 DUP3 ADD MSTORE PUSH32 0x496E76616C69642066656520636F6C6C6563746F720000000000000000000000 PUSH1 0x44 DUP3 ADD MSTORE PUSH1 0x64 SWAP1 REVERT JUMPDEST PUSH3 0x461BCD PUSH1 0xE5 SHL DUP2 MSTORE PUSH1 0x4 DUP2 ADD DUP8 SWAP1 MSTORE PUSH1 0xE PUSH1 0x24 DUP3 ADD MSTORE PUSH14 0x496E76616C6964206F7261636C65 PUSH1 0x90 SHL PUSH1 0x44 DUP3 ADD MSTORE PUSH1 0x64 SWAP1 REVERT JUMPDEST DUP6 MLOAD PUSH4 0x1E4FBDF7 PUSH1 0xE0 SHL DUP2 MSTORE PUSH1 0x4 DUP2 ADD DUP7 SWAP1 MSTORE PUSH1 0x24 SWAP1 REVERT JUMPDEST PUSH1 0x0 DUP1 REVERT JUMPDEST PUSH4 0x4E487B71 PUSH1 0xE0 SHL PUSH1 0x0 MSTORE PUSH1 0x41 PUSH1 0x4 MSTORE PUSH1 0x24 PUSH1 0x0 REVERT JUMPDEST PUSH1 0x40 MLOAD SWAP1 PUSH1 0xA0 DUP3 ADD PUSH1 0x1 PUSH1 0x1 PUSH1 0x40 SHL SUB DUP2 GT DUP4 DUP3 LT OR PUSH3 0x3B7 JUMPI PUSH1 0x40 MSTORE JUMP JUMPDEST MLOAD SWAP1 PUSH1 0x1 PUSH1 0x1 PUSH1 0xA0 SHL SUB DUP3 AND DUP3 SUB PUSH3 0x3B2 JUMPI JUMP INVALID PUSH1 0x80 PUSH1 0x40 DUP2 DUP2 MSTORE PUSH1 0x4 DUP1 CALLDATASIZE LT ISZERO PUSH2 0x1E JUMPI JUMPDEST POP POP POP CALLDATASIZE ISZERO PUSH2 0x1C JUMPI STOP JUMPDEST STOP JUMPDEST PUSH1 0x0 SWAP3 DUP4 CALLDATALOAD PUSH1 0xE0 SHR SWAP1 DUP2 PUSH4 0x105746F EQ PUSH2 0x149C JUMPI POP DUP1 PUSH4 0x21442AFD EQ PUSH2 0x1421 JUMPI DUP1 PUSH4 0x2630C12F EQ PUSH2 0x13F8 JUMPI DUP1 PUSH4 0x2718C14F EQ PUSH2 0x13D9 JUMPI DUP1 PUSH4 0x355BC240 EQ PUSH2 0x13B5 JUMPI DUP1 PUSH4 0x4A4E3BD5 EQ PUSH2 0x1346 JUMPI DUP1 PUSH4 0x4E2DC9BB EQ PUSH2 0x130E JUMPI DUP1 PUSH4 0x4E43603A EQ PUSH2 0x12A5 JUMPI DUP1 PUSH4 0x51858E27 EQ PUSH2 0x1244 JUMPI DUP1 PUSH4 0x530E784F EQ PUSH2 0x11C6 JUMPI DUP1 PUSH4 0x5C975ABB EQ PUSH2 0x119F JUMPI DUP1 PUSH4 0x5F457D7F EQ PUSH2 0x115F JUMPI DUP1 PUSH4 0x60C6D8AE EQ PUSH2 0x1140 JUMPI DUP1 PUSH4 0x63E5C357 EQ PUSH2 0x111C JUMPI DUP1 PUSH4 0x65D61C6C EQ PUSH2 0x10F5 JUMPI DUP1 PUSH4 0x6B5D11C7 EQ PUSH2 0xE67 JUMPI DUP1 PUSH4 0x715018A6 EQ PUSH2 0xE07 JUMPI DUP1 PUSH4 0x74F0314F EQ PUSH2 0xDE9 JUMPI DUP1 PUSH4 0x7B99B603 EQ PUSH2 0xD88 JUMPI DUP1 PUSH4 0x84536017 EQ PUSH2 0xD09 JUMPI DUP1 PUSH4 0x88B70CB6 EQ PUSH2 0xCC3 JUMPI DUP1 PUSH4 0x8BFBEC68 EQ PUSH2 0x977 JUMPI DUP1 PUSH4 0x8DA5CB5B EQ PUSH2 0x94E JUMPI DUP1 PUSH4 0x95CCEA67 EQ PUSH2 0x883 JUMPI DUP1 PUSH4 0x98EBDC1E EQ PUSH2 0x616 JUMPI DUP1 PUSH4 0xA001ECDD EQ PUSH2 0x5F7 JUMPI DUP1 PUSH4 0xA42DCE80 EQ PUSH2 0x576 JUMPI DUP1 PUSH4 0xA55102F7 EQ PUSH2 0x530 JUMPI DUP1 PUSH4 0xAE06C1B7 EQ PUSH2 0x4D3 JUMPI DUP1 PUSH4 0xB236E18D EQ PUSH2 0x4A7 JUMPI DUP1 PUSH4 0xBE354836 EQ PUSH2 0x46F JUMPI DUP1 PUSH4 0xC415B95C EQ PUSH2 0x446 JUMPI DUP1 PUSH4 0xC61F01D2 EQ PUSH2 0x408 JUMPI DUP1 PUSH4 0xCCE15DB2 EQ PUSH2 0x3E1 JUMPI DUP1 PUSH4 0xD2A037AB EQ PUSH2 0x3C2 JUMPI DUP1 PUSH4 0xD39957C6 EQ PUSH2 0x30A JUMPI DUP1 PUSH4 0xD73792A9 EQ PUSH2 0x2ED JUMPI DUP1 PUSH4 0xDFE6B5D6 EQ PUSH2 0x2A1 JUMPI DUP1 PUSH4 0xF2FDE38B EQ PUSH2 0x217 JUMPI PUSH4 0xFBFF3996 SUB PUSH2 0x11 JUMPI CALLVALUE PUSH2 0x213 JUMPI PUSH1 0x20 CALLDATASIZE PUSH1 0x3 NOT ADD SLT PUSH2 0x213 JUMPI PUSH1 0x20 SWAP3 DUP3 SWAP2 PUSH1 0x1 PUSH1 0x1 PUSH1 0xA0 SHL SUB PUSH2 0x205 PUSH2 0x14C7 JUMP JUMPDEST AND DUP3 MSTORE DUP5 MSTORE KECCAK256 SLOAD SWAP1 MLOAD SWAP1 DUP2 MSTORE RETURN JUMPDEST DUP3 DUP1 REVERT JUMPDEST POP CALLVALUE PUSH2 0x213 JUMPI PUSH1 0x20 CALLDATASIZE PUSH1 0x3 NOT ADD SLT PUSH2 0x213 JUMPI PUSH2 0x231 PUSH2 0x14C7 JUMP JUMPDEST SWAP1 PUSH2 0x23A PUSH2 0x14F6 JUMP JUMPDEST PUSH1 0x1 PUSH1 0x1 PUSH1 0xA0 SHL SUB SWAP2 DUP3 AND SWAP3 DUP4 ISZERO PUSH2 0x28B JUMPI POP POP PUSH1 0x1 SLOAD DUP3 PUSH1 0x1 PUSH1 0x1 PUSH1 0x60 SHL SUB PUSH1 0xA0 SHL DUP3 AND OR PUSH1 0x1 SSTORE AND PUSH32 0x8BE0079C531659141344CD1FD0A4F28419497F9722A3DAAFE3B4186F6B6457E0 DUP4 DUP1 LOG3 DUP1 RETURN JUMPDEST MLOAD PUSH4 0x1E4FBDF7 PUSH1 0xE0 SHL DUP2 MSTORE SWAP1 DUP2 ADD DUP5 SWAP1 MSTORE PUSH1 0x24 SWAP1 REVERT JUMPDEST POP POP CALLVALUE PUSH2 0x2E9 JUMPI DUP2 PUSH1 0x3 NOT CALLDATASIZE ADD SLT PUSH2 0x2E9 JUMPI PUSH1 0xA0 SWAP1 PUSH1 0xFF PUSH1 0x9 SLOAD SWAP2 PUSH1 0xA SLOAD SWAP1 PUSH1 0xB SLOAD PUSH1 0x8 SLOAD SWAP2 PUSH1 0x1 SLOAD SWAP4 DUP2 MLOAD SWAP7 DUP8 MSTORE PUSH1 0x20 DUP8 ADD MSTORE DUP6 ADD MSTORE PUSH1 0x60 DUP5 ADD MSTORE DUP4 SHR AND ISZERO ISZERO PUSH1 0x80 DUP3 ADD MSTORE RETURN JUMPDEST POP DUP1 REVERT JUMPDEST POP POP CALLVALUE PUSH2 0x2E9 JUMPI DUP2 PUSH1 0x3 NOT CALLDATASIZE ADD SLT PUSH2 0x2E9 JUMPI PUSH1 0x20 SWAP1 MLOAD PUSH2 0x2710 DUP2 MSTORE RETURN JUMPDEST POP SWAP1 CALLVALUE PUSH2 0x213 JUMPI PUSH1 0x20 CALLDATASIZE PUSH1 0x3 NOT ADD SLT PUSH2 0x213 JUMPI DUP1 DUP4 PUSH1 0xA0 SWAP5 PUSH1 0x80 DUP4 MLOAD PUSH2 0x32F DUP2 PUSH2 0x1522 JUMP JUMPDEST DUP3 DUP2 MSTORE DUP3 PUSH1 0x20 DUP3 ADD MSTORE DUP3 DUP6 DUP3 ADD MSTORE DUP3 PUSH1 0x60 DUP3 ADD MSTORE ADD MSTORE DUP4 CALLDATALOAD DUP2 MSTORE PUSH1 0x7 PUSH1 0x20 MSTORE KECCAK256 DUP2 MLOAD SWAP2 PUSH2 0x35B DUP4 PUSH2 0x1522 JUMP JUMPDEST DUP2 SLOAD SWAP4 DUP5 DUP5 MSTORE PUSH1 0x1 DUP1 DUP8 SHL SUB SWAP1 DUP2 DUP1 PUSH1 0x1 DUP7 ADD SLOAD AND PUSH1 0x20 DUP8 ADD SWAP1 DUP2 MSTORE PUSH1 0x80 PUSH1 0xFF DUP4 PUSH1 0x2 DUP10 ADD SLOAD AND SWAP5 DUP8 DUP11 ADD SWAP6 DUP7 MSTORE PUSH1 0x3 DUP10 ADD SLOAD SWAP9 PUSH1 0x60 DUP12 ADD SWAP10 DUP11 MSTORE ADD SLOAD AND SWAP8 ADD SWAP7 ISZERO ISZERO DUP8 MSTORE DUP5 MLOAD SWAP8 DUP9 MSTORE MLOAD AND PUSH1 0x20 DUP8 ADD MSTORE MLOAD AND SWAP1 DUP5 ADD MSTORE MLOAD PUSH1 0x60 DUP4 ADD MSTORE MLOAD ISZERO ISZERO PUSH1 0x80 DUP3 ADD MSTORE RETURN JUMPDEST POP POP CALLVALUE PUSH2 0x2E9 JUMPI DUP2 PUSH1 0x3 NOT CALLDATASIZE ADD SLT PUSH2 0x2E9 JUMPI PUSH1 0x20 SWAP1 PUSH1 0x9 SLOAD SWAP1 MLOAD SWAP1 DUP2 MSTORE RETURN JUMPDEST POP POP CALLVALUE PUSH2 0x2E9 JUMPI DUP2 PUSH1 0x3 NOT CALLDATASIZE ADD SLT PUSH2 0x2E9 JUMPI PUSH1 0x20 SWAP1 PUSH1 0xFF PUSH1 0xD SLOAD PUSH1 0xA0 SHR AND SWAP1 MLOAD SWAP1 ISZERO ISZERO DUP2 MSTORE RETURN JUMPDEST POP POP CALLVALUE PUSH2 0x2E9 JUMPI PUSH1 0x20 CALLDATASIZE PUSH1 0x3 NOT ADD SLT PUSH2 0x2E9 JUMPI PUSH1 0x20 SWAP2 PUSH1 0xFF SWAP1 DUP3 SWAP1 PUSH1 0x1 PUSH1 0x1 PUSH1 0xA0 SHL SUB PUSH2 0x433 PUSH2 0x14C7 JUMP JUMPDEST AND DUP2 MSTORE PUSH1 0x6 DUP6 MSTORE KECCAK256 SLOAD AND SWAP1 MLOAD SWAP1 ISZERO ISZERO DUP2 MSTORE RETURN JUMPDEST POP POP CALLVALUE PUSH2 0x2E9 JUMPI DUP2 PUSH1 0x3 NOT CALLDATASIZE ADD SLT PUSH2 0x2E9 JUMPI PUSH1 0xC SLOAD SWAP1 MLOAD PUSH1 0x1 PUSH1 0x1 PUSH1 0xA0 SHL SUB SWAP1 SWAP2 AND DUP2 MSTORE PUSH1 0x20 SWAP1 RETURN JUMPDEST POP POP CALLVALUE PUSH2 0x2E9 JUMPI PUSH1 0x20 CALLDATASIZE PUSH1 0x3 NOT ADD SLT PUSH2 0x2E9 JUMPI PUSH1 0x20 SWAP2 DUP2 SWAP1 PUSH1 0x1 PUSH1 0x1 PUSH1 0xA0 SHL SUB PUSH2 0x497 PUSH2 0x14C7 JUMP JUMPDEST AND DUP2 MSTORE PUSH1 0x3 DUP5 MSTORE KECCAK256 SLOAD SWAP1 MLOAD SWAP1 DUP2 MSTORE RETURN JUMPDEST POP CALLVALUE PUSH2 0x213 JUMPI PUSH1 0x20 CALLDATASIZE PUSH1 0x3 NOT ADD SLT PUSH2 0x213 JUMPI DUP2 PUSH1 0x20 SWAP4 PUSH1 0xFF SWAP3 CALLDATALOAD DUP2 MSTORE PUSH1 0x2 DUP6 MSTORE KECCAK256 SLOAD AND SWAP1 MLOAD SWAP1 ISZERO ISZERO DUP2 MSTORE RETURN JUMPDEST POP CALLVALUE PUSH2 0x213 JUMPI PUSH1 0x20 CALLDATASIZE PUSH1 0x3 NOT ADD SLT PUSH2 0x213 JUMPI DUP1 CALLDATALOAD SWAP2 PUSH2 0x4F0 PUSH2 0x14F6 JUMP JUMPDEST PUSH1 0xC8 DUP4 GT PUSH2 0x500 JUMPI POP POP PUSH1 0x8 SSTORE DUP1 RETURN JUMPDEST SWAP1 PUSH1 0x20 PUSH1 0x64 SWAP3 MLOAD SWAP2 PUSH3 0x461BCD PUSH1 0xE5 SHL DUP4 MSTORE DUP3 ADD MSTORE PUSH1 0xA PUSH1 0x24 DUP3 ADD MSTORE PUSH10 0x4D617820666565203225 PUSH1 0xB0 SHL PUSH1 0x44 DUP3 ADD MSTORE REVERT JUMPDEST DUP4 DUP3 CALLVALUE PUSH2 0x2E9 JUMPI PUSH1 0x20 CALLDATASIZE PUSH1 0x3 NOT ADD SLT PUSH2 0x2E9 JUMPI CALLDATALOAD DUP1 ISZERO ISZERO DUP1 SWAP2 SUB PUSH2 0x2E9 JUMPI PUSH2 0x556 PUSH2 0x14F6 JUMP JUMPDEST PUSH1 0xD DUP1 SLOAD PUSH1 0xFF PUSH1 0xA8 SHL NOT AND PUSH1 0xA8 SWAP3 SWAP1 SWAP3 SHL PUSH1 0xFF PUSH1 0xA8 SHL AND SWAP2 SWAP1 SWAP2 OR SWAP1 SSTORE DUP1 RETURN JUMPDEST POP CALLVALUE PUSH2 0x213 JUMPI PUSH1 0x20 CALLDATASIZE PUSH1 0x3 NOT ADD SLT PUSH2 0x213 JUMPI PUSH2 0x590 PUSH2 0x14C7 JUMP JUMPDEST PUSH2 0x598 PUSH2 0x14F6 JUMP JUMPDEST PUSH1 0x1 PUSH1 0x1 PUSH1 0xA0 SHL SUB AND SWAP2 DUP3 ISZERO PUSH2 0x5C0 JUMPI POP POP PUSH1 0x1 PUSH1 0x1 PUSH1 0x60 SHL SUB PUSH1 0xA0 SHL PUSH1 0xC SLOAD AND OR PUSH1 0xC SSTORE DUP1 RETURN JUMPDEST SWAP1 PUSH1 0x20 PUSH1 0x64 SWAP3 MLOAD SWAP2 PUSH3 0x461BCD PUSH1 0xE5 SHL DUP4 MSTORE DUP3 ADD MSTORE PUSH1 0x11 PUSH1 0x24 DUP3 ADD MSTORE PUSH17 0x24B73B30B634B21031B7B63632B1BA37B9 PUSH1 0x79 SHL PUSH1 0x44 DUP3 ADD MSTORE REVERT JUMPDEST POP POP CALLVALUE PUSH2 0x2E9 JUMPI DUP2 PUSH1 0x3 NOT CALLDATASIZE ADD SLT PUSH2 0x2E9 JUMPI PUSH1 0x20 SWAP1 PUSH1 0x8 SLOAD SWAP1 MLOAD SWAP1 DUP2 MSTORE RETURN JUMPDEST POP SWAP2 SWAP1 CALLVALUE PUSH2 0x2E9 JUMPI PUSH1 0x3 NOT PUSH1 0x80 CALLDATASIZE DUP3 ADD SLT PUSH2 0x213 JUMPI PUSH2 0x633 PUSH2 0x14C7 JUMP JUMPDEST PUSH1 0x24 CALLDATALOAD PUSH1 0x44 CALLDATALOAD PUSH8 0xFFFFFFFFFFFFFFFF SWAP4 DUP5 DUP3 GT PUSH2 0x87B JUMPI PUSH1 0xE0 SWAP1 DUP3 DUP10 ADD SWAP3 CALLDATASIZE SUB ADD SLT PUSH2 0x87F JUMPI PUSH1 0x64 CALLDATALOAD DUP5 DUP2 GT PUSH2 0x87B JUMPI CALLDATASIZE PUSH1 0x23 DUP3 ADD SLT ISZERO PUSH2 0x87B JUMPI DUP1 DUP9 ADD CALLDATALOAD SWAP5 DUP6 GT PUSH2 0x87B JUMPI CALLDATASIZE PUSH1 0x24 DUP7 DUP4 ADD ADD GT PUSH2 0x87B JUMPI SWAP2 PUSH1 0x60 SWAP8 SWAP4 SWAP2 DUP7 SWAP6 SWAP4 PUSH2 0x696 PUSH2 0x19C1 JUMP JUMPDEST PUSH2 0x69E PUSH2 0x19A0 JUMP JUMPDEST PUSH2 0x6A8 CALLDATASIZE DUP4 PUSH2 0x15C9 JUMP JUMPDEST SWAP5 PUSH2 0x6B8 PUSH1 0xC0 DUP8 ADD MLOAD TIMESTAMP LT PUSH2 0x16D6 JUMP JUMPDEST PUSH2 0x6C7 PUSH1 0xA0 DUP8 ADD MLOAD ISZERO ISZERO PUSH2 0x170C JUMP JUMPDEST PUSH2 0x6F6 PUSH1 0x2 PUSH1 0x1 DUP1 PUSH1 0xA0 SHL SUB SWAP13 DUP9 PUSH2 0x6EC DUP16 DUP1 SWAP12 MLOAD AND PUSH1 0x20 SWAP12 DUP13 DUP5 ADD MLOAD AND EQ ISZERO PUSH2 0x1749 JUMP JUMPDEST ADD MLOAD MLOAD LT ISZERO PUSH2 0x1782 JUMP JUMPDEST PUSH2 0x740 PUSH9 0x3635C9ADC5DEA00000 PUSH2 0x739 DUP13 PUSH1 0x14 DUP9 DIV SWAP13 DUP14 SWAP2 PUSH2 0x717 CALLER PUSH2 0x1BB5 JUMP JUMPDEST PUSH2 0x72C PUSH9 0x56BC75E2D63100000 DUP5 GT ISZERO PUSH2 0x17BD JUMP JUMPDEST CALLER DUP2 MSTORE DUP13 DUP13 MSTORE KECCAK256 SLOAD PUSH2 0x17FB JUMP JUMPDEST GT ISZERO PUSH2 0x181E JUMP JUMPDEST PUSH1 0xFF PUSH1 0xD SLOAD PUSH1 0xA8 SHR AND ISZERO PUSH2 0x841 JUMPI DUP4 ISZERO PUSH2 0x807 JUMPI PUSH2 0x7FE SWAP9 SWAP10 SWAP11 PUSH2 0x7E0 PUSH32 0x5A9C9C3FDD080EAA29D35C3DD6264AD4422B1AC6DA922FA97292F16F3645D137 SWAP4 DUP11 SWAP4 PUSH2 0x7D5 DUP6 MLOAD DUP12 DUP2 ADD SWAP1 PUSH5 0xCCD8C2E6D PUSH1 0xDB SHL DUP3 MSTORE PUSH1 0x1 PUSH1 0x1 PUSH1 0x60 SHL SUB NOT DUP13 PUSH1 0x60 SHL AND PUSH1 0x25 DUP3 ADD MSTORE DUP11 PUSH1 0x39 DUP3 ADD MSTORE TIMESTAMP PUSH1 0x59 DUP3 ADD MSTORE CALLER PUSH1 0x60 SHL PUSH1 0x79 DUP3 ADD MSTORE PUSH1 0x6D DUP2 MSTORE PUSH2 0x7CA DUP2 PUSH2 0x1522 JUMP JUMPDEST MLOAD SWAP1 KECCAK256 SWAP8 CALLDATASIZE SWAP1 PUSH2 0x15C9 JUMP JUMPDEST POP PUSH1 0x24 CALLDATASIZE SWAP3 ADD PUSH2 0x1592 JUMP JUMPDEST POP DUP2 MLOAD SWAP5 DUP6 MSTORE DUP12 DUP8 DUP7 ADD MSTORE CALLER SWAP6 AND SWAP4 LOG4 CALLER DUP7 MSTORE MSTORE DUP4 KECCAK256 SWAP2 DUP3 SLOAD PUSH2 0x17FB JUMP JUMPDEST SWAP1 SSTORE PUSH1 0x1 DUP2 SSTORE DUP1 RETURN JUMPDEST DUP8 MLOAD PUSH3 0x461BCD PUSH1 0xE5 SHL DUP2 MSTORE DUP1 DUP9 ADD DUP8 SWAP1 MSTORE PUSH1 0x14 PUSH1 0x24 DUP3 ADD MSTORE PUSH20 0x125B9D985B1A5908199B185CDA08185B5BDD5B9D PUSH1 0x62 SHL PUSH1 0x44 DUP3 ADD MSTORE PUSH1 0x64 SWAP1 REVERT JUMPDEST DUP8 MLOAD PUSH3 0x461BCD PUSH1 0xE5 SHL DUP2 MSTORE DUP1 DUP9 ADD DUP8 SWAP1 MSTORE PUSH1 0x14 PUSH1 0x24 DUP3 ADD MSTORE PUSH20 0x119B185CDA081B1BD85B9CC8191A5CD8589B1959 PUSH1 0x62 SHL PUSH1 0x44 DUP3 ADD MSTORE PUSH1 0x64 SWAP1 REVERT JUMPDEST DUP7 DUP1 REVERT JUMPDEST DUP6 DUP1 REVERT JUMPDEST POP SWAP1 CALLVALUE PUSH2 0x213 JUMPI DUP1 PUSH1 0x3 NOT CALLDATASIZE ADD SLT PUSH2 0x213 JUMPI PUSH2 0x89D PUSH2 0x14C7 JUMP JUMPDEST PUSH1 0x24 CALLDATALOAD SWAP2 PUSH2 0x8A9 PUSH2 0x14F6 JUMP JUMPDEST DUP3 ISZERO PUSH2 0x8CE JUMPI JUMPDEST POP PUSH1 0x1 SLOAD PUSH2 0x8CB SWAP4 POP PUSH1 0x1 PUSH1 0x1 PUSH1 0xA0 SHL SUB SWAP1 DUP2 AND SWAP2 AND PUSH2 0x18E6 JUMP JUMPDEST DUP1 RETURN JUMPDEST DUP1 MLOAD PUSH4 0x70A08231 PUSH1 0xE0 SHL DUP2 MSTORE ADDRESS SWAP5 DUP2 ADD SWAP5 SWAP1 SWAP5 MSTORE SWAP1 SWAP2 POP PUSH1 0x20 DUP4 PUSH1 0x24 DUP2 PUSH1 0x1 PUSH1 0x1 PUSH1 0xA0 SHL SUB DUP7 AND GAS STATICCALL SWAP1 DUP2 ISZERO PUSH2 0x945 JUMPI POP DUP4 SWAP1 PUSH2 0x912 JUMPI JUMPDEST PUSH2 0x8CB SWAP3 POP SWAP1 CODESIZE PUSH2 0x8B0 JUMP JUMPDEST POP PUSH1 0x20 DUP3 RETURNDATASIZE DUP3 GT PUSH2 0x93D JUMPI JUMPDEST DUP2 PUSH2 0x92B PUSH1 0x20 SWAP4 DUP4 PUSH2 0x1554 JUMP JUMPDEST DUP2 ADD SUB SLT PUSH2 0x213 JUMPI PUSH2 0x8CB SWAP2 MLOAD PUSH2 0x906 JUMP JUMPDEST RETURNDATASIZE SWAP2 POP PUSH2 0x91E JUMP JUMPDEST MLOAD RETURNDATASIZE DUP6 DUP3 RETURNDATACOPY RETURNDATASIZE SWAP1 REVERT JUMPDEST POP POP CALLVALUE PUSH2 0x2E9 JUMPI DUP2 PUSH1 0x3 NOT CALLDATASIZE ADD SLT PUSH2 0x2E9 JUMPI PUSH1 0x1 SLOAD SWAP1 MLOAD PUSH1 0x1 PUSH1 0x1 PUSH1 0xA0 SHL SUB SWAP1 SWAP2 AND DUP2 MSTORE PUSH1 0x20 SWAP1 RETURN JUMPDEST POP DUP3 SWAP1 CALLVALUE PUSH2 0x2E9 JUMPI PUSH1 0x20 SWAP3 PUSH1 0x3 NOT SWAP2 DUP5 DUP4 CALLDATASIZE ADD SLT PUSH2 0xCBF JUMPI DUP1 CALLDATALOAD SWAP5 PUSH8 0xFFFFFFFFFFFFFFFF DUP7 GT PUSH2 0xCBB JUMPI PUSH1 0xE0 DUP7 DUP4 ADD SWAP5 DUP8 CALLDATASIZE SUB ADD SLT PUSH2 0xCBB JUMPI PUSH2 0x9B8 PUSH2 0x19C1 JUMP JUMPDEST PUSH2 0x9C0 PUSH2 0x19A0 JUMP JUMPDEST PUSH2 0x9CA CALLDATASIZE DUP6 PUSH2 0x15C9 JUMP JUMPDEST SWAP4 PUSH2 0x9DA PUSH1 0xC0 DUP7 ADD MLOAD TIMESTAMP LT PUSH2 0x16D6 JUMP JUMPDEST PUSH2 0x9E9 PUSH1 0xA0 DUP7 ADD MLOAD ISZERO ISZERO PUSH2 0x170C JUMP JUMPDEST PUSH2 0xA0C PUSH1 0x2 PUSH1 0x60 PUSH1 0x1 DUP1 PUSH1 0xA0 SHL SUB SWAP8 PUSH2 0x6EC DUP10 DUP3 MLOAD AND DUP11 DUP9 DUP5 ADD MLOAD AND EQ ISZERO PUSH2 0x1749 JUMP JUMPDEST PUSH1 0x44 DUP8 ADD CALLDATALOAD PUSH1 0xA DUP2 DIV SWAP6 PUSH2 0xA1F CALLER PUSH2 0x1BB5 JUMP JUMPDEST PUSH2 0xA34 PUSH9 0x56BC75E2D63100000 DUP9 GT ISZERO PUSH2 0x17BD JUMP JUMPDEST CALLER DUP9 MSTORE DUP5 DUP5 MSTORE PUSH2 0xA54 PUSH9 0x3635C9ADC5DEA00000 PUSH2 0x739 DUP10 DUP10 DUP13 KECCAK256 SLOAD PUSH2 0x17FB JUMP JUMPDEST PUSH2 0xA5D DUP4 PUSH2 0x1861 JUMP JUMPDEST PUSH1 0x24 DUP11 ADD SWAP1 PUSH2 0xA6B DUP3 PUSH2 0x1861 JUMP JUMPDEST SWAP1 DUP9 MLOAD SWAP1 DUP8 DUP3 ADD SWAP3 PUSH1 0x1 PUSH1 0x1 PUSH1 0x60 SHL SUB NOT DUP1 SWAP3 PUSH1 0x60 SHL AND DUP5 MSTORE PUSH1 0x60 SHL AND PUSH1 0x34 DUP3 ADD MSTORE DUP5 PUSH1 0x48 DUP3 ADD MSTORE TIMESTAMP PUSH1 0x68 DUP3 ADD MSTORE CALLER PUSH1 0x60 SHL PUSH1 0x88 DUP3 ADD MSTORE PUSH1 0x7C DUP2 MSTORE PUSH2 0xAAF DUP2 PUSH2 0x1522 JUMP JUMPDEST MLOAD SWAP1 KECCAK256 SWAP4 DUP5 DUP11 MSTORE PUSH1 0x2 DUP7 MSTORE PUSH1 0xFF DUP9 DUP12 KECCAK256 SLOAD AND PUSH2 0xC89 JUMPI DUP10 SWAP11 PUSH2 0xBEF PUSH2 0xBE9 PUSH2 0xBE9 DUP7 PUSH2 0x7FE SWAP14 SWAP15 PUSH2 0xB65 PUSH1 0xA4 DUP16 DUP10 DUP16 PUSH2 0xB37 SWAP1 DUP16 SWAP4 PUSH2 0xB5A SWAP5 GAS SWAP10 PUSH2 0xB04 PUSH2 0xAFE PUSH2 0xAF9 DUP9 PUSH2 0x1861 JUMP JUMPDEST PUSH2 0x1B4C JUMP JUMPDEST SWAP7 PUSH2 0x1861 JUMP JUMPDEST AND SWAP2 MLOAD SWAP3 PUSH4 0x23B872DD PUSH1 0xE0 SHL SWAP1 DUP5 ADD MSTORE CALLER PUSH1 0x24 DUP5 ADD MSTORE ADDRESS PUSH1 0x44 DUP5 ADD MSTORE PUSH1 0x64 DUP4 ADD MSTORE PUSH1 0x64 DUP3 MSTORE PUSH2 0xB32 DUP3 PUSH2 0x1522 JUMP JUMPDEST PUSH2 0x1938 JUMP JUMPDEST PUSH2 0xB49 PUSH2 0xB44 CALLDATASIZE DUP14 PUSH2 0x15C9 JUMP JUMPDEST PUSH2 0x1A30 JUMP JUMPDEST PUSH2 0xB55 PUSH2 0xAF9 DUP13 PUSH2 0x1861 JUMP JUMPDEST PUSH2 0x1875 JUMP JUMPDEST SWAP8 ADD CALLDATALOAD DUP8 LT ISZERO PUSH2 0x1882 JUMP JUMPDEST PUSH2 0xB7F PUSH2 0x2710 PUSH2 0xB77 PUSH1 0x8 SLOAD DUP10 PUSH2 0x18C4 JUMP JUMPDEST DIV DUP1 SWAP8 PUSH2 0x1875 JUMP JUMPDEST SWAP6 DUP7 PUSH2 0xC6F JUMPI JUMPDEST DUP1 PUSH2 0xC40 JUMPI JUMPDEST POP DUP11 DUP2 MSTORE PUSH1 0x2 DUP13 MSTORE DUP14 DUP2 KECCAK256 PUSH1 0x1 PUSH1 0xFF NOT DUP3 SLOAD AND OR SWAP1 SSTORE CALLER DUP2 MSTORE PUSH1 0x3 DUP13 MSTORE DUP14 DUP2 KECCAK256 PUSH2 0xBB7 DUP8 DUP3 SLOAD PUSH2 0x17FB JUMP JUMPDEST SWAP1 SSTORE CALLER DUP2 MSTORE PUSH1 0x5 DUP13 MSTORE DUP14 TIMESTAMP SWAP2 KECCAK256 SSTORE PUSH2 0xBD0 PUSH1 0x9 SLOAD PUSH2 0x18D7 JUMP JUMPDEST PUSH1 0x9 SSTORE PUSH2 0xBDF DUP10 PUSH1 0xA SLOAD PUSH2 0x17FB JUMP JUMPDEST PUSH1 0xA SSTORE GAS SWAP1 PUSH2 0x1875 JUMP JUMPDEST SWAP4 PUSH2 0x1861 JUMP JUMPDEST SWAP5 DUP5 DUP11 MLOAD SWAP7 AND DUP7 MSTORE DUP8 DUP7 ADD MSTORE DUP9 DUP6 ADD MSTORE PUSH1 0x60 DUP5 ADD MSTORE TIMESTAMP PUSH1 0x80 DUP5 ADD MSTORE AND SWAP2 PUSH32 0x931D979B8E8C271B286B1B7E3950D92607B3B3528C79F5ED2D03742BB5AE50AB PUSH1 0xA0 CALLER SWAP4 LOG4 CALLER DUP7 MSTORE MSTORE DUP4 KECCAK256 SWAP2 DUP3 SLOAD PUSH2 0x17FB JUMP JUMPDEST DUP1 PUSH2 0xC5E PUSH2 0xC66 SWAP3 DUP13 PUSH2 0xC52 DUP13 PUSH2 0x1861 JUMP JUMPDEST AND DUP14 PUSH1 0xC SLOAD AND SWAP1 PUSH2 0x18E6 JUMP JUMPDEST PUSH1 0xB SLOAD PUSH2 0x17FB JUMP JUMPDEST PUSH1 0xB SSTORE CODESIZE PUSH2 0xB8C JUMP JUMPDEST PUSH2 0xC84 DUP8 CALLER DUP13 PUSH2 0xC7E DUP13 PUSH2 0x1861 JUMP JUMPDEST AND PUSH2 0x18E6 JUMP JUMPDEST PUSH2 0xB86 JUMP JUMPDEST DUP8 MLOAD PUSH3 0x461BCD PUSH1 0xE5 SHL DUP2 MSTORE DUP1 DUP9 ADD DUP8 SWAP1 MSTORE PUSH1 0xC PUSH1 0x24 DUP3 ADD MSTORE PUSH12 0x547261646520657869737473 PUSH1 0xA0 SHL PUSH1 0x44 DUP3 ADD MSTORE PUSH1 0x64 SWAP1 REVERT JUMPDEST DUP5 DUP1 REVERT JUMPDEST DUP4 DUP1 REVERT JUMPDEST DUP4 DUP3 CALLVALUE PUSH2 0x2E9 JUMPI PUSH1 0x20 CALLDATASIZE PUSH1 0x3 NOT ADD SLT PUSH2 0x2E9 JUMPI CALLDATALOAD DUP1 ISZERO ISZERO DUP1 SWAP2 SUB PUSH2 0x2E9 JUMPI PUSH2 0xCE9 PUSH2 0x14F6 JUMP JUMPDEST PUSH1 0xD DUP1 SLOAD PUSH1 0xFF PUSH1 0xA0 SHL NOT AND PUSH1 0xA0 SWAP3 SWAP1 SWAP3 SHL PUSH1 0xFF PUSH1 0xA0 SHL AND SWAP2 SWAP1 SWAP2 OR SWAP1 SSTORE DUP1 RETURN JUMPDEST POP CALLVALUE PUSH2 0x213 JUMPI DUP3 PUSH1 0x3 NOT CALLDATASIZE ADD SLT PUSH2 0x213 JUMPI PUSH2 0xD22 PUSH2 0x14F6 JUMP JUMPDEST SELFBALANCE SWAP1 DUP2 ISZERO PUSH2 0xD54 JUMPI POP PUSH1 0x1 SLOAD DUP4 SWAP2 DUP3 SWAP2 DUP3 SWAP2 DUP3 SWAP2 PUSH1 0x1 PUSH1 0x1 PUSH1 0xA0 SHL SUB AND DUP3 CALL ISZERO PUSH2 0xD4A JUMPI POP DUP1 RETURN JUMPDEST MLOAD SWAP1 RETURNDATASIZE SWAP1 DUP3 RETURNDATACOPY RETURNDATASIZE SWAP1 REVERT JUMPDEST PUSH1 0x64 SWAP1 PUSH1 0x20 DUP5 MLOAD SWAP2 PUSH3 0x461BCD PUSH1 0xE5 SHL DUP4 MSTORE DUP3 ADD MSTORE PUSH1 0xE PUSH1 0x24 DUP3 ADD MSTORE PUSH14 0x4E6F204554482062616C616E6365 PUSH1 0x90 SHL PUSH1 0x44 DUP3 ADD MSTORE REVERT JUMPDEST POP SWAP1 CALLVALUE PUSH2 0x213 JUMPI PUSH1 0x20 CALLDATASIZE PUSH1 0x3 NOT ADD SLT PUSH2 0x213 JUMPI DUP1 PUSH1 0xA0 SWAP4 DUP4 CALLDATALOAD DUP2 MSTORE PUSH1 0x7 PUSH1 0x20 MSTORE KECCAK256 DUP1 SLOAD SWAP3 PUSH1 0x1 DUP1 DUP7 SHL SUB SWAP3 PUSH1 0xFF DUP5 PUSH1 0x1 DUP6 ADD SLOAD AND SWAP5 PUSH1 0x2 DUP6 ADD SLOAD AND SWAP3 PUSH1 0x3 DUP6 ADD SLOAD SWAP5 ADD SLOAD AND SWAP4 DUP2 MLOAD SWAP6 DUP7 MSTORE PUSH1 0x20 DUP7 ADD MSTORE DUP5 ADD MSTORE PUSH1 0x60 DUP4 ADD MSTORE ISZERO ISZERO PUSH1 0x80 DUP3 ADD MSTORE RETURN JUMPDEST POP POP CALLVALUE PUSH2 0x2E9 JUMPI DUP2 PUSH1 0x3 NOT CALLDATASIZE ADD SLT PUSH2 0x2E9 JUMPI PUSH1 0x20 SWAP1 MLOAD PUSH3 0x15180 DUP2 MSTORE RETURN JUMPDEST DUP4 CALLVALUE PUSH2 0xE64 JUMPI DUP1 PUSH1 0x3 NOT CALLDATASIZE ADD SLT PUSH2 0xE64 JUMPI PUSH2 0xE20 PUSH2 0x14F6 JUMP JUMPDEST PUSH1 0x1 DUP1 SLOAD PUSH1 0x1 PUSH1 0x1 PUSH1 0xA0 SHL SUB NOT DUP2 AND SWAP1 SWAP2 SSTORE DUP2 SWAP1 PUSH1 0x1 PUSH1 0x1 PUSH1 0xA0 SHL SUB AND PUSH32 0x8BE0079C531659141344CD1FD0A4F28419497F9722A3DAAFE3B4186F6B6457E0 DUP3 DUP1 LOG3 DUP1 RETURN JUMPDEST DUP1 REVERT JUMPDEST POP DUP3 SWAP1 CALLVALUE PUSH2 0x2E9 JUMPI PUSH1 0x20 SWAP1 DUP2 PUSH1 0x3 NOT CALLDATASIZE ADD SLT PUSH2 0x213 JUMPI PUSH8 0xFFFFFFFFFFFFFFFF SWAP2 DUP2 CALLDATALOAD DUP4 DUP2 GT PUSH2 0xCBB JUMPI CALLDATASIZE PUSH1 0x23 DUP3 ADD SLT ISZERO PUSH2 0xCBB JUMPI DUP1 DUP4 ADD CALLDATALOAD SWAP3 DUP5 DUP5 GT PUSH2 0x87F JUMPI PUSH1 0x24 SWAP1 DUP2 DUP4 ADD SWAP3 DUP3 CALLDATASIZE SWAP2 DUP8 PUSH1 0x5 SHL ADD ADD GT PUSH2 0x87B JUMPI PUSH2 0xEC4 PUSH2 0x19C1 JUMP JUMPDEST PUSH2 0xECC PUSH2 0x19A0 JUMP JUMPDEST PUSH1 0xA DUP6 GT PUSH2 0x10B5 JUMPI GAS SWAP2 DUP8 SWAP4 DUP9 SWAP1 JUMPDEST DUP8 DUP3 LT PUSH2 0xFE9 JUMPI POP POP PUSH2 0xF09 PUSH2 0xF01 PUSH2 0x2710 PUSH2 0xEF9 PUSH1 0x8 SLOAD DUP9 PUSH2 0x18C4 JUMP JUMPDEST DIV DUP1 SWAP7 PUSH2 0x1875 JUMP JUMPDEST SWAP4 GAS SWAP1 PUSH2 0x1875 JUMP JUMPDEST SWAP4 PUSH3 0x249F0 DUP8 DUP2 DUP2 MUL DIV EQ DUP8 ISZERO OR ISZERO PUSH2 0xFD7 JUMPI PUSH2 0xF3F SWAP1 CALLER DUP11 MSTORE PUSH1 0x3 DUP8 MSTORE DUP11 DUP11 KECCAK256 PUSH2 0xF35 DUP7 DUP3 SLOAD PUSH2 0x17FB JUMP JUMPDEST SWAP1 SSTORE PUSH1 0xB SLOAD PUSH2 0x17FB JUMP JUMPDEST PUSH1 0xB SSTORE DUP9 MLOAD SWAP5 DUP6 ADD SWAP2 PUSH5 0xC4C2E8C6D PUSH1 0xDB SHL DUP4 MSTORE TIMESTAMP PUSH1 0x25 DUP8 ADD MSTORE CALLER PUSH1 0x60 SHL PUSH1 0x45 DUP8 ADD MSTORE PUSH1 0x39 DUP7 MSTORE PUSH1 0x60 DUP7 ADD SWAP8 DUP7 DUP10 LT SWAP1 DUP10 GT OR PUSH2 0xFC6 JUMPI POP POP DUP6 DUP8 SWAP9 MSTORE DUP4 MLOAD SWAP1 KECCAK256 SWAP4 DUP7 DUP7 MSTORE PUSH1 0x80 DUP5 ADD MSTORE PUSH1 0xA0 DUP4 ADD MSTORE PUSH1 0xC0 DUP3 ADD MSTORE PUSH1 0xE0 TIMESTAMP SWAP2 ADD MSTORE PUSH32 0x931D979B8E8C271B286B1B7E3950D92607B3B3528C79F5ED2D03742BB5AE50AB PUSH1 0xA0 CALLER SWAP4 LOG4 PUSH1 0x1 DUP2 SSTORE DUP1 RETURN JUMPDEST PUSH4 0x4E487B71 PUSH1 0xE0 SHL DUP10 MSTORE PUSH1 0x41 SWAP1 MSTORE DUP8 REVERT JUMPDEST POP PUSH4 0x4E487B71 PUSH1 0xE0 SHL DUP9 MSTORE PUSH1 0x11 DUP3 MSTORE DUP8 REVERT JUMPDEST SWAP1 SWAP5 TIMESTAMP PUSH1 0xC0 PUSH2 0xFF9 DUP9 DUP12 DUP7 PUSH2 0x19E4 JUMP JUMPDEST ADD CALLDATALOAD GT ISZERO PUSH2 0x1083 JUMPI PUSH2 0x1077 DUP7 PUSH2 0x107D SWAP3 PUSH2 0x1024 DUP12 PUSH2 0x101B PUSH1 0xA0 SWAP5 DUP6 SWAP3 DUP10 PUSH2 0x19E4 JUMP JUMPDEST ADD CALLDATALOAD ISZERO ISZERO PUSH2 0x170C JUMP JUMPDEST PUSH2 0x1072 PUSH2 0x103B CALLDATASIZE PUSH2 0x1036 DUP13 DUP16 DUP11 PUSH2 0x19E4 JUMP JUMPDEST PUSH2 0x15C9 JUMP JUMPDEST SWAP3 PUSH2 0x1067 PUSH1 0x1 DUP1 PUSH1 0xA0 SHL SUB PUSH2 0xB55 PUSH2 0x1055 DUP3 DUP9 MLOAD AND PUSH2 0x1B4C JUMP JUMPDEST SWAP2 PUSH2 0x105F DUP9 PUSH2 0x1A30 JUMP JUMPDEST DUP8 MLOAD AND PUSH2 0x1B4C JUMP JUMPDEST SWAP4 ADD MLOAD DUP4 LT ISZERO PUSH2 0x1882 JUMP JUMPDEST PUSH2 0x17FB JUMP JUMPDEST SWAP6 PUSH2 0x18D7 JUMP JUMPDEST SWAP1 PUSH2 0xEDB JUMP JUMPDEST DUP11 MLOAD PUSH3 0x461BCD PUSH1 0xE5 SHL DUP2 MSTORE DUP1 DUP6 ADD DUP9 SWAP1 MSTORE PUSH1 0xD DUP2 DUP6 ADD MSTORE PUSH13 0x151C98591948195E1C1A5C9959 PUSH1 0x9A SHL PUSH1 0x44 DUP3 ADD MSTORE PUSH1 0x64 SWAP1 REVERT JUMPDEST PUSH1 0x17 PUSH1 0x64 SWAP3 DUP6 DUP11 MLOAD SWAP4 PUSH3 0x461BCD PUSH1 0xE5 SHL DUP6 MSTORE DUP5 ADD MSTORE DUP3 ADD MSTORE PUSH32 0x4D61782031302074726164657320706572206261746368000000000000000000 PUSH1 0x44 DUP3 ADD MSTORE REVERT JUMPDEST POP POP CALLVALUE PUSH2 0x2E9 JUMPI DUP2 PUSH1 0x3 NOT CALLDATASIZE ADD SLT PUSH2 0x2E9 JUMPI PUSH1 0x20 SWAP1 PUSH1 0xFF PUSH1 0xD SLOAD PUSH1 0xA8 SHR AND SWAP1 MLOAD SWAP1 ISZERO ISZERO DUP2 MSTORE RETURN JUMPDEST POP POP CALLVALUE PUSH2 0x2E9 JUMPI DUP2 PUSH1 0x3 NOT CALLDATASIZE ADD SLT PUSH2 0x2E9 JUMPI PUSH1 0x20 SWAP1 MLOAD PUSH9 0x3635C9ADC5DEA00000 DUP2 MSTORE RETURN JUMPDEST POP POP CALLVALUE PUSH2 0x2E9 JUMPI DUP2 PUSH1 0x3 NOT CALLDATASIZE ADD SLT PUSH2 0x2E9 JUMPI PUSH1 0x20 SWAP1 PUSH1 0xB SLOAD SWAP1 MLOAD SWAP1 DUP2 MSTORE RETURN JUMPDEST POP POP CALLVALUE PUSH2 0x2E9 JUMPI PUSH1 0x20 CALLDATASIZE PUSH1 0x3 NOT ADD SLT PUSH2 0x2E9 JUMPI PUSH2 0x117A PUSH2 0x14C7 JUMP JUMPDEST PUSH2 0x1182 PUSH2 0x14F6 JUMP JUMPDEST PUSH1 0x1 PUSH1 0x1 PUSH1 0xA0 SHL SUB AND DUP3 MSTORE PUSH1 0x6 PUSH1 0x20 MSTORE DUP2 KECCAK256 DUP1 SLOAD PUSH1 0xFF NOT AND SWAP1 SSTORE DUP1 RETURN JUMPDEST POP POP CALLVALUE PUSH2 0x2E9 JUMPI DUP2 PUSH1 0x3 NOT CALLDATASIZE ADD SLT PUSH2 0x2E9 JUMPI PUSH1 0x20 SWAP1 PUSH1 0xFF PUSH1 0x1 SLOAD PUSH1 0xA0 SHR AND SWAP1 MLOAD SWAP1 ISZERO ISZERO DUP2 MSTORE RETURN JUMPDEST POP CALLVALUE PUSH2 0x213 JUMPI PUSH1 0x20 CALLDATASIZE PUSH1 0x3 NOT ADD SLT PUSH2 0x213 JUMPI PUSH2 0x11E0 PUSH2 0x14C7 JUMP JUMPDEST PUSH2 0x11E8 PUSH2 0x14F6 JUMP JUMPDEST PUSH1 0x1 PUSH1 0x1 PUSH1 0xA0 SHL SUB AND SWAP2 DUP3 ISZERO PUSH2 0x1210 JUMPI POP POP PUSH1 0x1 PUSH1 0x1 PUSH1 0x60 SHL SUB PUSH1 0xA0 SHL PUSH1 0xD SLOAD AND OR PUSH1 0xD SSTORE DUP1 RETURN JUMPDEST SWAP1 PUSH1 0x20 PUSH1 0x64 SWAP3 MLOAD SWAP2 PUSH3 0x461BCD PUSH1 0xE5 SHL DUP4 MSTORE DUP3 ADD MSTORE PUSH1 0xE PUSH1 0x24 DUP3 ADD MSTORE PUSH14 0x496E76616C6964206F7261636C65 PUSH1 0x90 SHL PUSH1 0x44 DUP3 ADD MSTORE REVERT JUMPDEST POP POP CALLVALUE PUSH2 0x2E9 JUMPI DUP2 PUSH1 0x3 NOT CALLDATASIZE ADD SLT PUSH2 0x2E9 JUMPI PUSH1 0x20 PUSH32 0x62E78CEA01BEE320CD4E420270B5EA74000D11B0C9F74754EBDBFC544B05A258 SWAP2 PUSH2 0x1282 PUSH2 0x14F6 JUMP JUMPDEST PUSH2 0x128A PUSH2 0x19A0 JUMP JUMPDEST PUSH1 0x1 DUP1 SLOAD PUSH1 0xFF PUSH1 0xA0 SHL NOT AND PUSH1 0x1 PUSH1 0xA0 SHL OR SWAP1 SSTORE MLOAD CALLER DUP2 MSTORE LOG1 DUP1 RETURN JUMPDEST POP DUP3 SWAP1 CALLVALUE PUSH2 0x2E9 JUMPI PUSH1 0x20 SWAP1 DUP2 PUSH1 0x3 NOT CALLDATASIZE ADD SLT PUSH2 0x213 JUMPI PUSH1 0x80 SWAP4 PUSH1 0x1 PUSH1 0x1 PUSH1 0xA0 SHL SUB PUSH2 0x12CE PUSH2 0x14C7 JUMP JUMPDEST AND DUP5 MSTORE PUSH1 0x3 DUP4 MSTORE DUP1 DUP5 KECCAK256 SLOAD SWAP4 DUP3 DUP5 MSTORE PUSH9 0x3635C9ADC5DEA00000 DUP3 DUP1 DUP4 KECCAK256 SLOAD SWAP3 PUSH1 0x5 DUP8 MSTORE DUP2 DUP2 KECCAK256 SLOAD SWAP6 DUP8 MSTORE KECCAK256 SLOAD LT SWAP4 DUP3 MLOAD SWAP6 DUP7 MSTORE DUP6 ADD MSTORE DUP4 ADD MSTORE PUSH1 0x60 DUP3 ADD MSTORE RETURN JUMPDEST POP POP CALLVALUE PUSH2 0x2E9 JUMPI PUSH1 0x20 CALLDATASIZE PUSH1 0x3 NOT ADD SLT PUSH2 0x2E9 JUMPI PUSH1 0x20 SWAP2 DUP2 SWAP1 PUSH1 0x1 PUSH1 0x1 PUSH1 0xA0 SHL SUB PUSH2 0x1336 PUSH2 0x14C7 JUMP JUMPDEST AND DUP2 MSTORE PUSH1 0x5 DUP5 MSTORE KECCAK256 SLOAD SWAP1 MLOAD SWAP1 DUP2 MSTORE RETURN JUMPDEST POP CALLVALUE PUSH2 0x213 JUMPI DUP3 PUSH1 0x3 NOT CALLDATASIZE ADD SLT PUSH2 0x213 JUMPI PUSH2 0x135F PUSH2 0x14F6 JUMP JUMPDEST PUSH1 0x1 SLOAD SWAP1 PUSH1 0xFF DUP3 PUSH1 0xA0 SHR AND ISZERO PUSH2 0x13A7 JUMPI POP PUSH1 0xFF PUSH1 0xA0 SHL NOT AND PUSH1 0x1 SSTORE MLOAD CALLER DUP2 MSTORE PUSH32 0x5DB9EE0A495BF2E6FF9C91A7834C1BA4FDD244A5E8AA4E537BD38AEAE4B073AA SWAP1 PUSH1 0x20 SWAP1 LOG1 DUP1 RETURN JUMPDEST DUP3 MLOAD PUSH4 0x8DFC202B PUSH1 0xE0 SHL DUP2 MSTORE REVERT JUMPDEST POP POP CALLVALUE PUSH2 0x2E9 JUMPI DUP2 PUSH1 0x3 NOT CALLDATASIZE ADD SLT PUSH2 0x2E9 JUMPI PUSH1 0x20 SWAP1 MLOAD PUSH9 0x56BC75E2D63100000 DUP2 MSTORE RETURN JUMPDEST POP POP CALLVALUE PUSH2 0x2E9 JUMPI DUP2 PUSH1 0x3 NOT CALLDATASIZE ADD SLT PUSH2 0x2E9 JUMPI PUSH1 0x20 SWAP1 PUSH1 0xA SLOAD SWAP1 MLOAD SWAP1 DUP2 MSTORE RETURN JUMPDEST POP POP CALLVALUE PUSH2 0x2E9 JUMPI DUP2 PUSH1 0x3 NOT CALLDATASIZE ADD SLT PUSH2 0x2E9 JUMPI PUSH1 0xD SLOAD SWAP1 MLOAD PUSH1 0x1 PUSH1 0x1 PUSH1 0xA0 SHL SUB SWAP1 SWAP2 AND DUP2 MSTORE PUSH1 0x20 SWAP1 RETURN JUMPDEST POP CALLVALUE PUSH2 0x213 JUMPI PUSH1 0x20 CALLDATASIZE PUSH1 0x3 NOT ADD SLT PUSH2 0x213 JUMPI PUSH2 0x143B PUSH2 0x14C7 JUMP JUMPDEST PUSH2 0x1443 PUSH2 0x14F6 JUMP JUMPDEST PUSH1 0x1 PUSH1 0x1 PUSH1 0xA0 SHL SUB AND SWAP1 DUP2 ISZERO PUSH2 0x146B JUMPI POP DUP3 MSTORE PUSH1 0x6 PUSH1 0x20 MSTORE DUP2 KECCAK256 DUP1 SLOAD PUSH1 0xFF NOT AND PUSH1 0x1 OR SWAP1 SSTORE DUP1 RETURN JUMPDEST PUSH1 0x64 SWAP1 PUSH1 0x20 DUP5 MLOAD SWAP2 PUSH3 0x461BCD PUSH1 0xE5 SHL DUP4 MSTORE DUP3 ADD MSTORE PUSH1 0xB PUSH1 0x24 DUP3 ADD MSTORE PUSH11 0x92DCECC2D8D2C840888AB PUSH1 0xAB SHL PUSH1 0x44 DUP3 ADD MSTORE REVERT JUMPDEST SWAP3 SWAP2 SWAP1 POP CALLVALUE PUSH2 0xCBF JUMPI PUSH1 0x20 CALLDATASIZE PUSH1 0x3 NOT ADD SLT PUSH2 0xCBF JUMPI CALLDATALOAD DUP4 MSTORE PUSH1 0x2 PUSH1 0x20 SWAP1 DUP2 MSTORE SWAP3 KECCAK256 SLOAD PUSH1 0xFF AND ISZERO ISZERO DUP2 MSTORE RETURN JUMPDEST PUSH1 0x4 CALLDATALOAD SWAP1 PUSH1 0x1 PUSH1 0x1 PUSH1 0xA0 SHL SUB DUP3 AND DUP3 SUB PUSH2 0x14DD JUMPI JUMP JUMPDEST PUSH1 0x0 DUP1 REVERT JUMPDEST CALLDATALOAD SWAP1 PUSH1 0x1 PUSH1 0x1 PUSH1 0xA0 SHL SUB DUP3 AND DUP3 SUB PUSH2 0x14DD JUMPI JUMP JUMPDEST PUSH1 0x1 SLOAD PUSH1 0x1 PUSH1 0x1 PUSH1 0xA0 SHL SUB AND CALLER SUB PUSH2 0x150A JUMPI JUMP JUMPDEST PUSH1 0x40 MLOAD PUSH4 0x118CDAA7 PUSH1 0xE0 SHL DUP2 MSTORE CALLER PUSH1 0x4 DUP3 ADD MSTORE PUSH1 0x24 SWAP1 REVERT JUMPDEST PUSH1 0xA0 DUP2 ADD SWAP1 DUP2 LT PUSH8 0xFFFFFFFFFFFFFFFF DUP3 GT OR PUSH2 0x153E JUMPI PUSH1 0x40 MSTORE JUMP JUMPDEST PUSH4 0x4E487B71 PUSH1 0xE0 SHL PUSH1 0x0 MSTORE PUSH1 0x41 PUSH1 0x4 MSTORE PUSH1 0x24 PUSH1 0x0 REVERT JUMPDEST SWAP1 PUSH1 0x1F DUP1 NOT SWAP2 ADD AND DUP2 ADD SWAP1 DUP2 LT PUSH8 0xFFFFFFFFFFFFFFFF DUP3 GT OR PUSH2 0x153E JUMPI PUSH1 0x40 MSTORE JUMP JUMPDEST PUSH8 0xFFFFFFFFFFFFFFFF DUP2 GT PUSH2 0x153E JUMPI PUSH1 0x1F ADD PUSH1 0x1F NOT AND PUSH1 0x20 ADD SWAP1 JUMP JUMPDEST SWAP3 SWAP2 SWAP3 PUSH2 0x159E DUP3 PUSH2 0x1576 JUMP JUMPDEST SWAP2 PUSH2 0x15AC PUSH1 0x40 MLOAD SWAP4 DUP5 PUSH2 0x1554 JUMP JUMPDEST DUP3 SWAP5 DUP2 DUP5 MSTORE DUP2 DUP4 ADD GT PUSH2 0x14DD JUMPI DUP3 DUP2 PUSH1 0x20 SWAP4 DUP5 PUSH1 0x0 SWAP7 ADD CALLDATACOPY ADD ADD MSTORE JUMP JUMPDEST SWAP2 SWAP1 PUSH1 0xE0 DUP4 DUP3 SUB SLT PUSH2 0x14DD JUMPI PUSH1 0x40 MLOAD SWAP1 PUSH8 0xFFFFFFFFFFFFFFFF PUSH1 0xE0 DUP4 ADD DUP2 DUP2 GT DUP5 DUP3 LT OR PUSH2 0x153E JUMPI PUSH1 0x40 MSTORE DUP3 SWAP5 PUSH2 0x15FF DUP2 PUSH2 0x14E2 JUMP JUMPDEST DUP5 MSTORE PUSH1 0x20 SWAP2 PUSH2 0x160F DUP4 DUP4 ADD PUSH2 0x14E2 JUMP JUMPDEST DUP4 DUP7 ADD MSTORE PUSH1 0x40 DUP3 ADD CALLDATALOAD PUSH1 0x40 DUP7 ADD MSTORE PUSH1 0x60 DUP3 ADD CALLDATALOAD DUP2 DUP2 GT PUSH2 0x14DD JUMPI DUP3 ADD DUP5 PUSH1 0x1F DUP3 ADD SLT ISZERO PUSH2 0x14DD JUMPI DUP1 CALLDATALOAD SWAP1 DUP3 DUP3 GT PUSH2 0x153E JUMPI DUP2 PUSH1 0x5 SHL PUSH1 0x40 MLOAD SWAP3 PUSH2 0x1654 DUP8 DUP4 ADD DUP6 PUSH2 0x1554 JUMP JUMPDEST DUP4 MSTORE DUP6 DUP1 DUP5 ADD SWAP2 DUP4 ADD ADD SWAP2 DUP8 DUP4 GT PUSH2 0x14DD JUMPI DUP7 DUP1 SWAP2 ADD SWAP2 JUMPDEST DUP4 DUP4 LT PUSH2 0x16BE JUMPI POP POP POP POP PUSH1 0x60 DUP7 ADD MSTORE PUSH1 0x80 DUP3 ADD CALLDATALOAD SWAP1 DUP2 GT PUSH2 0x14DD JUMPI DUP2 ADD SWAP2 DUP4 PUSH1 0x1F DUP5 ADD SLT ISZERO PUSH2 0x14DD JUMPI PUSH1 0xC0 SWAP4 DUP4 PUSH2 0x16A8 SWAP3 DUP7 SWAP6 CALLDATALOAD SWAP2 ADD PUSH2 0x1592 JUMP JUMPDEST PUSH1 0x80 DUP6 ADD MSTORE PUSH1 0xA0 DUP2 ADD CALLDATALOAD PUSH1 0xA0 DUP6 ADD MSTORE ADD CALLDATALOAD SWAP2 ADD MSTORE JUMP JUMPDEST DUP2 SWAP1 PUSH2 0x16C9 DUP5 PUSH2 0x14E2 JUMP JUMPDEST DUP2 MSTORE ADD SWAP2 ADD SWAP1 DUP7 SWAP1 PUSH2 0x166C JUMP JUMPDEST ISZERO PUSH2 0x16DD JUMPI JUMP JUMPDEST PUSH1 0x40 MLOAD PUSH3 0x461BCD PUSH1 0xE5 SHL DUP2 MSTORE PUSH1 0x20 PUSH1 0x4 DUP3 ADD MSTORE PUSH1 0x7 PUSH1 0x24 DUP3 ADD MSTORE PUSH7 0x115E1C1A5C9959 PUSH1 0xCA SHL PUSH1 0x44 DUP3 ADD MSTORE PUSH1 0x64 SWAP1 REVERT JUMPDEST ISZERO PUSH2 0x1713 JUMPI JUMP JUMPDEST PUSH1 0x40 MLOAD PUSH3 0x461BCD PUSH1 0xE5 SHL DUP2 MSTORE PUSH1 0x20 PUSH1 0x4 DUP3 ADD MSTORE PUSH1 0xE PUSH1 0x24 DUP3 ADD MSTORE PUSH14 0x125B9D985B1A59081C1C9BD99A5D PUSH1 0x92 SHL PUSH1 0x44 DUP3 ADD MSTORE PUSH1 0x64 SWAP1 REVERT JUMPDEST ISZERO PUSH2 0x1750 JUMPI JUMP JUMPDEST PUSH1 0x40 MLOAD PUSH3 0x461BCD PUSH1 0xE5 SHL DUP2 MSTORE PUSH1 0x20 PUSH1 0x4 DUP3 ADD MSTORE PUSH1 0xA PUSH1 0x24 DUP3 ADD MSTORE PUSH10 0x29B0B6B2903A37B5B2B7 PUSH1 0xB1 SHL PUSH1 0x44 DUP3 ADD MSTORE PUSH1 0x64 SWAP1 REVERT JUMPDEST ISZERO PUSH2 0x1789 JUMPI JUMP JUMPDEST PUSH1 0x40 MLOAD PUSH3 0x461BCD PUSH1 0xE5 SHL DUP2 MSTORE PUSH1 0x20 PUSH1 0x4 DUP3 ADD MSTORE PUSH1 0xC PUSH1 0x24 DUP3 ADD MSTORE PUSH12 0x4E65656420322B2044455873 PUSH1 0xA0 SHL PUSH1 0x44 DUP3 ADD MSTORE PUSH1 0x64 SWAP1 REVERT JUMPDEST ISZERO PUSH2 0x17C4 JUMPI JUMP JUMPDEST PUSH1 0x40 MLOAD PUSH3 0x461BCD PUSH1 0xE5 SHL DUP2 MSTORE PUSH1 0x20 PUSH1 0x4 DUP3 ADD MSTORE PUSH1 0xF PUSH1 0x24 DUP3 ADD MSTORE PUSH15 0x547261646520746F6F207269736B79 PUSH1 0x88 SHL PUSH1 0x44 DUP3 ADD MSTORE PUSH1 0x64 SWAP1 REVERT JUMPDEST SWAP2 SWAP1 DUP3 ADD DUP1 SWAP3 GT PUSH2 0x1808 JUMPI JUMP JUMPDEST PUSH4 0x4E487B71 PUSH1 0xE0 SHL PUSH1 0x0 MSTORE PUSH1 0x11 PUSH1 0x4 MSTORE PUSH1 0x24 PUSH1 0x0 REVERT JUMPDEST ISZERO PUSH2 0x1825 JUMPI JUMP JUMPDEST PUSH1 0x40 MLOAD PUSH3 0x461BCD PUSH1 0xE5 SHL DUP2 MSTORE PUSH1 0x20 PUSH1 0x4 DUP3 ADD MSTORE PUSH1 0x14 PUSH1 0x24 DUP3 ADD MSTORE PUSH20 0x11185A5B1E481B1A5B5A5D08195E18D959591959 PUSH1 0x62 SHL PUSH1 0x44 DUP3 ADD MSTORE PUSH1 0x64 SWAP1 REVERT JUMPDEST CALLDATALOAD PUSH1 0x1 PUSH1 0x1 PUSH1 0xA0 SHL SUB DUP2 AND DUP2 SUB PUSH2 0x14DD JUMPI SWAP1 JUMP JUMPDEST SWAP2 SWAP1 DUP3 SUB SWAP2 DUP3 GT PUSH2 0x1808 JUMPI JUMP JUMPDEST ISZERO PUSH2 0x1889 JUMPI JUMP JUMPDEST PUSH1 0x40 MLOAD PUSH3 0x461BCD PUSH1 0xE5 SHL DUP2 MSTORE PUSH1 0x20 PUSH1 0x4 DUP3 ADD MSTORE PUSH1 0x13 PUSH1 0x24 DUP3 ADD MSTORE PUSH19 0x125B9CDD59999A58DA595B9D081C1C9BD99A5D PUSH1 0x6A SHL PUSH1 0x44 DUP3 ADD MSTORE PUSH1 0x64 SWAP1 REVERT JUMPDEST DUP2 DUP2 MUL SWAP3 SWAP2 DUP2 ISZERO SWAP2 DUP5 DIV EQ OR ISZERO PUSH2 0x1808 JUMPI JUMP JUMPDEST PUSH1 0x0 NOT DUP2 EQ PUSH2 0x1808 JUMPI PUSH1 0x1 ADD SWAP1 JUMP JUMPDEST PUSH1 0x40 MLOAD PUSH4 0xA9059CBB PUSH1 0xE0 SHL PUSH1 0x20 DUP3 ADD MSTORE PUSH1 0x1 PUSH1 0x1 PUSH1 0xA0 SHL SUB SWAP1 SWAP3 AND PUSH1 0x24 DUP4 ADD MSTORE PUSH1 0x44 DUP1 DUP4 ADD SWAP4 SWAP1 SWAP4 MSTORE SWAP2 DUP2 MSTORE PUSH1 0x80 DUP2 ADD SWAP2 PUSH8 0xFFFFFFFFFFFFFFFF DUP4 GT DUP3 DUP5 LT OR PUSH2 0x153E JUMPI PUSH2 0x1936 SWAP3 PUSH1 0x40 MSTORE PUSH2 0x1938 JUMP JUMPDEST JUMP JUMPDEST SWAP1 PUSH1 0x0 PUSH1 0x20 SWAP2 DUP3 DUP2 MLOAD SWAP2 ADD DUP3 DUP6 GAS CALL ISZERO PUSH2 0x1994 JUMPI PUSH1 0x0 MLOAD RETURNDATASIZE PUSH2 0x198B JUMPI POP PUSH1 0x1 PUSH1 0x1 PUSH1 0xA0 SHL SUB DUP2 AND EXTCODESIZE ISZERO JUMPDEST PUSH2 0x1969 JUMPI POP JUMP JUMPDEST PUSH1 0x40 MLOAD PUSH4 0x5274AFE7 PUSH1 0xE0 SHL DUP2 MSTORE PUSH1 0x1 PUSH1 0x1 PUSH1 0xA0 SHL SUB SWAP1 SWAP2 AND PUSH1 0x4 DUP3 ADD MSTORE PUSH1 0x24 SWAP1 REVERT JUMPDEST PUSH1 0x1 EQ ISZERO PUSH2 0x1962 JUMP JUMPDEST PUSH1 0x40 MLOAD RETURNDATASIZE PUSH1 0x0 DUP3 RETURNDATACOPY RETURNDATASIZE SWAP1 REVERT JUMPDEST PUSH1 0xFF PUSH1 0x1 SLOAD PUSH1 0xA0 SHR AND PUSH2 0x19AF JUMPI JUMP JUMPDEST PUSH1 0x40 MLOAD PUSH4 0xD93C0665 PUSH1 0xE0 SHL DUP2 MSTORE PUSH1 0x4 SWAP1 REVERT JUMPDEST PUSH1 0x2 PUSH1 0x0 SLOAD EQ PUSH2 0x19D2 JUMPI PUSH1 0x2 PUSH1 0x0 SSTORE JUMP JUMPDEST PUSH1 0x40 MLOAD PUSH4 0x3EE5AEB5 PUSH1 0xE0 SHL DUP2 MSTORE PUSH1 0x4 SWAP1 REVERT JUMPDEST SWAP2 SWAP1 DUP2 LT ISZERO PUSH2 0x1A06 JUMPI PUSH1 0x5 SHL DUP2 ADD CALLDATALOAD SWAP1 PUSH1 0xDE NOT DUP2 CALLDATASIZE SUB ADD DUP3 SLT ISZERO PUSH2 0x14DD JUMPI ADD SWAP1 JUMP JUMPDEST PUSH4 0x4E487B71 PUSH1 0xE0 SHL PUSH1 0x0 MSTORE PUSH1 0x32 PUSH1 0x4 MSTORE PUSH1 0x24 PUSH1 0x0 REVERT JUMPDEST DUP1 MLOAD DUP3 LT ISZERO PUSH2 0x1A06 JUMPI PUSH1 0x20 SWAP2 PUSH1 0x5 SHL ADD ADD SWAP1 JUMP JUMPDEST PUSH1 0x0 JUMPDEST PUSH1 0x60 DUP3 ADD DUP1 MLOAD DUP1 MLOAD DUP4 LT ISZERO PUSH2 0x1B46 JUMPI PUSH1 0x1 PUSH1 0x1 PUSH1 0xA0 SHL SUB SWAP1 DUP2 SWAP1 PUSH2 0x1A58 SWAP1 DUP6 SWAP1 PUSH2 0x1A1C JUMP JUMPDEST MLOAD AND PUSH1 0x0 MSTORE PUSH1 0x20 SWAP2 PUSH1 0x6 DUP4 MSTORE PUSH1 0x40 SWAP2 PUSH1 0xFF DUP4 PUSH1 0x0 KECCAK256 SLOAD AND ISZERO PUSH2 0x1B0D JUMPI PUSH1 0x0 SWAP2 DUP3 SWAP2 PUSH2 0x1A89 DUP8 PUSH1 0x80 DUP11 ADD MLOAD SWAP4 MLOAD PUSH2 0x1A1C JUMP JUMPDEST MLOAD AND DUP3 DUP7 DUP4 MLOAD SWAP4 ADD SWAP2 PUSH3 0x493E0 CALL RETURNDATASIZE ISZERO PUSH2 0x1B08 JUMPI RETURNDATASIZE PUSH2 0x1AA7 DUP2 PUSH2 0x1576 JUMP JUMPDEST SWAP1 PUSH2 0x1AB4 DUP5 MLOAD SWAP3 DUP4 PUSH2 0x1554 JUMP JUMPDEST DUP2 MSTORE PUSH1 0x0 DUP5 RETURNDATASIZE SWAP3 ADD RETURNDATACOPY JUMPDEST ISZERO PUSH2 0x1AD3 JUMPI POP POP PUSH2 0x1ACE SWAP1 PUSH2 0x18D7 JUMP JUMPDEST PUSH2 0x1A33 JUMP JUMPDEST PUSH1 0x64 SWAP3 POP MLOAD SWAP1 PUSH3 0x461BCD PUSH1 0xE5 SHL DUP3 MSTORE PUSH1 0x4 DUP3 ADD MSTORE PUSH1 0xF PUSH1 0x24 DUP3 ADD MSTORE PUSH15 0x111156081CDDD85C0819985A5B1959 PUSH1 0x8A SHL PUSH1 0x44 DUP3 ADD MSTORE REVERT JUMPDEST PUSH2 0x1ABE JUMP JUMPDEST DUP3 MLOAD PUSH3 0x461BCD PUSH1 0xE5 SHL DUP2 MSTORE PUSH1 0x4 DUP2 ADD DUP6 SWAP1 MSTORE PUSH1 0x12 PUSH1 0x24 DUP3 ADD MSTORE PUSH18 0x111156081B9BDD08185D5D1A1BDC9A5E9959 PUSH1 0x72 SHL PUSH1 0x44 DUP3 ADD MSTORE PUSH1 0x64 SWAP1 REVERT JUMPDEST POP POP POP POP JUMP JUMPDEST PUSH1 0x40 MLOAD PUSH4 0x70A08231 PUSH1 0xE0 SHL DUP2 MSTORE ADDRESS PUSH1 0x4 DUP3 ADD MSTORE SWAP1 PUSH1 0x20 SWAP1 DUP3 SWAP1 PUSH1 0x24 SWAP1 DUP3 SWAP1 PUSH1 0x1 PUSH1 0x1 PUSH1 0xA0 SHL SUB AND GAS STATICCALL SWAP1 DUP2 ISZERO PUSH2 0x1994 JUMPI PUSH1 0x0 SWAP2 PUSH2 0x1B87 JUMPI POP SWAP1 JUMP JUMPDEST SWAP1 PUSH1 0x20 DUP3 RETURNDATASIZE DUP3 GT PUSH2 0x1BAD JUMPI JUMPDEST DUP2 PUSH2 0x1BA0 PUSH1 0x20 SWAP4 DUP4 PUSH2 0x1554 JUMP JUMPDEST DUP2 ADD SUB SLT PUSH2 0xE64 JUMPI POP MLOAD SWAP1 JUMP JUMPDEST RETURNDATASIZE SWAP2 POP PUSH2 0x1B93 JUMP JUMPDEST PUSH1 0x1 PUSH1 0x1 PUSH1 0xA0 SHL SUB AND PUSH1 0x0 DUP2 DUP2 MSTORE PUSH1 0x5 PUSH1 0x20 MSTORE PUSH1 0x40 DUP2 KECCAK256 SLOAD SWAP1 SWAP2 SWAP1 PUSH3 0x15180 DUP2 ADD SWAP1 DUP2 LT PUSH2 0x1BF5 JUMPI TIMESTAMP GT PUSH2 0x1BE7 JUMPI POP POP JUMP JUMPDEST DUP2 MSTORE PUSH1 0x4 PUSH1 0x20 MSTORE PUSH1 0x40 DUP2 KECCAK256 SSTORE JUMP JUMPDEST PUSH4 0x4E487B71 PUSH1 0xE0 SHL DUP4 MSTORE PUSH1 0x11 PUSH1 0x4 MSTORE PUSH1 0x24 DUP4 REVERT INVALID LOG2 PUSH5 0x6970667358 0x22 SLT KECCAK256 0xFC 0xAA 0x4B 0xCD BASEFEE PREVRANDAO SSTORE PUSH28 0x4E3DEEB344D819149BD262122B31215EFFDC3D996BD05CC364736F6C PUSH4 0x43000814 STOP CALLER "},"methodIdentifiers":{"FEE_DENOMINATOR()":"d73792a9","MAX_DAILY_LOSS()":"63e5c357","MAX_SINGLE_TRADE_LOSS()":"355bc240","SECONDS_PER_DAY()":"74f0314f","addAuthorizedDEX(address)":"21442afd","authorizedDEXs(address)":"c61f01d2","batchArbitrage((address,address,uint256,address[],bytes,uint256,uint256)[])":"6b5d11c7","emergencyPause()":"51858e27","emergencyUnpause()":"4a4e3bd5","emergencyWithdraw(address,uint256)":"95ccea67","emergencyWithdrawETH()":"84536017","executeArbitrage((address,address,uint256,address[],bytes,uint256,uint256))":"8bfbec68","executeFlashArbitrage(address,uint256,(address,address,uint256,address[],bytes,uint256,uint256),bytes)":"98ebdc1e","executedTrades(bytes32)":"0105746f","feeCollector()":"c415b95c","feePercentage()":"a001ecdd","flashLoanEnabled()":"65d61c6c","getContractStats()":"dfe6b5d6","getNetworkConfig(uint256)":"d39957c6","getUserStats(address)":"4e43603a","isTradeExecuted(bytes32)":"b236e18d","lastUserActivity(address)":"4e2dc9bb","mevProtectionEnabled()":"cce15db2","networkConfigs(uint256)":"7b99b603","owner()":"8da5cb5b","paused()":"5c975abb","priceOracle()":"2630c12f","removeAuthorizedDEX(address)":"5f457d7f","renounceOwnership()":"715018a6","setFeeCollector(address)":"a42dce80","setFeePercentage(uint256)":"ae06c1b7","setFlashLoanEnabled(bool)":"a55102f7","setMEVProtection(bool)":"88b70cb6","setPriceOracle(address)":"530e784f","totalFeesCollected()":"60c6d8ae","totalTradesExecuted()":"d2a037ab","totalVolumeProcessed()":"2718c14f","transferOwnership(address)":"f2fde38b","userDailyLoss(address)":"fbff3996","userProfits(address)":"be354836"}}}}}