{
  "_format": "hh-sol-artifact-1",
  "contractName": "AaveFlashLoanProvider",
  "sourceName": "src/adapters/AaveFlashLoanProvider.sol",
  "abi": [
    {
      "inputs": [
        {
          "internalType": "address",
          "name": "_aavePool",
          "type": "address"
        }
      ],
      "stateMutability": "nonpayable",
      "type": "constructor"
    },
    {
      "inputs": [
        {
          "internalType": "address",
          "name": "owner",
          "type": "address"
        }
      ],
      "name": "OwnableInvalidOwner",
      "type": "error"
    },
    {
      "inputs": [
        {
          "internalType": "address",
          "name": "account",
          "type": "address"
        }
      ],
      "name": "OwnableUnauthorizedAccount",
      "type": "error"
    },
    {
      "inputs": [],
      "name": "ReentrancyGuardReentrantCall",
      "type": "error"
    },
    {
      "inputs": [
        {
          "internalType": "address",
          "name": "token",
          "type": "address"
        }
      ],
      "name": "SafeERC20FailedOperation",
      "type": "error"
    },
    {
      "anonymous": false,
      "inputs": [
        {
          "indexed": true,
          "internalType": "address",
          "name": "asset",
          "type": "address"
        },
        {
          "indexed": false,
          "internalType": "bool",
          "name": "supported",
          "type": "bool"
        }
      ],
      "name": "AssetSupportUpdated",
      "type": "event"
    },
    {
      "anonymous": false,
      "inputs": [
        {
          "indexed": true,
          "internalType": "address",
          "name": "borrower",
          "type": "address"
        },
        {
          "indexed": true,
          "internalType": "address",
          "name": "asset",
          "type": "address"
        },
        {
          "indexed": false,
          "internalType": "uint256",
          "name": "amount",
          "type": "uint256"
        },
        {
          "indexed": false,
          "internalType": "uint256",
          "name": "fee",
          "type": "uint256"
        },
        {
          "indexed": false,
          "internalType": "bool",
          "name": "success",
          "type": "bool"
        }
      ],
      "name": "FlashLoanExecuted",
      "type": "event"
    },
    {
      "anonymous": false,
      "inputs": [
        {
          "indexed": false,
          "internalType": "uint256",
          "name": "newFee",
          "type": "uint256"
        }
      ],
      "name": "FlashLoanFeeUpdated",
      "type": "event"
    },
    {
      "anonymous": false,
      "inputs": [
        {
          "indexed": true,
          "internalType": "address",
          "name": "previousOwner",
          "type": "address"
        },
        {
          "indexed": true,
          "internalType": "address",
          "name": "newOwner",
          "type": "address"
        }
      ],
      "name": "OwnershipTransferred",
      "type": "event"
    },
    {
      "inputs": [],
      "name": "aavePool",
      "outputs": [
        {
          "internalType": "contract IAaveV3Pool",
          "name": "",
          "type": "address"
        }
      ],
      "stateMutability": "view",
      "type": "function"
    },
    {
      "inputs": [
        {
          "internalType": "uint256",
          "name": "",
          "type": "uint256"
        }
      ],
      "name": "assetsList",
      "outputs": [
        {
          "internalType": "address",
          "name": "",
          "type": "address"
        }
      ],
      "stateMutability": "view",
      "type": "function"
    },
    {
      "inputs": [
        {
          "internalType": "address",
          "name": "token",
          "type": "address"
        },
        {
          "internalType": "uint256",
          "name": "amount",
          "type": "uint256"
        }
      ],
      "name": "emergencyWithdraw",
      "outputs": [],
      "stateMutability": "nonpayable",
      "type": "function"
    },
    {
      "inputs": [
        {
          "internalType": "address[]",
          "name": "assets",
          "type": "address[]"
        },
        {
          "internalType": "uint256[]",
          "name": "amounts",
          "type": "uint256[]"
        },
        {
          "internalType": "uint256[]",
          "name": "premiums",
          "type": "uint256[]"
        },
        {
          "internalType": "address",
          "name": "initiator",
          "type": "address"
        },
        {
          "internalType": "bytes",
          "name": "params",
          "type": "bytes"
        }
      ],
      "name": "executeOperation",
      "outputs": [
        {
          "internalType": "bool",
          "name": "",
          "type": "bool"
        }
      ],
      "stateMutability": "nonpayable",
      "type": "function"
    },
    {
      "inputs": [
        {
          "internalType": "address",
          "name": "asset",
          "type": "address"
        },
        {
          "internalType": "uint256",
          "name": "amount",
          "type": "uint256"
        },
        {
          "internalType": "bytes",
          "name": "params",
          "type": "bytes"
        },
        {
          "internalType": "address",
          "name": "receiver",
          "type": "address"
        }
      ],
      "name": "flashLoan",
      "outputs": [],
      "stateMutability": "nonpayable",
      "type": "function"
    },
    {
      "inputs": [
        {
          "internalType": "address",
          "name": "asset",
          "type": "address"
        }
      ],
      "name": "getAvailableLiquidity",
      "outputs": [
        {
          "internalType": "uint256",
          "name": "liquidity",
          "type": "uint256"
        }
      ],
      "stateMutability": "view",
      "type": "function"
    },
    {
      "inputs": [
        {
          "internalType": "address",
          "name": "asset",
          "type": "address"
        },
        {
          "internalType": "uint256",
          "name": "amount",
          "type": "uint256"
        }
      ],
      "name": "getFlashLoanFee",
      "outputs": [
        {
          "internalType": "uint256",
          "name": "fee",
          "type": "uint256"
        }
      ],
      "stateMutability": "view",
      "type": "function"
    },
    {
      "inputs": [],
      "name": "getSupportedAssets",
      "outputs": [
        {
          "internalType": "address[]",
          "name": "",
          "type": "address[]"
        }
      ],
      "stateMutability": "view",
      "type": "function"
    },
    {
      "inputs": [
        {
          "internalType": "address",
          "name": "asset",
          "type": "address"
        }
      ],
      "name": "isAssetSupported",
      "outputs": [
        {
          "internalType": "bool",
          "name": "available",
          "type": "bool"
        }
      ],
      "stateMutability": "view",
      "type": "function"
    },
    {
      "inputs": [],
      "name": "owner",
      "outputs": [
        {
          "internalType": "address",
          "name": "",
          "type": "address"
        }
      ],
      "stateMutability": "view",
      "type": "function"
    },
    {
      "inputs": [],
      "name": "renounceOwnership",
      "outputs": [],
      "stateMutability": "nonpayable",
      "type": "function"
    },
    {
      "inputs": [
        {
          "internalType": "address",
          "name": "",
          "type": "address"
        }
      ],
      "name": "supportedAssets",
      "outputs": [
        {
          "internalType": "bool",
          "name": "",
          "type": "bool"
        }
      ],
      "stateMutability": "view",
      "type": "function"
    },
    {
      "inputs": [
        {
          "internalType": "address",
          "name": "newOwner",
          "type": "address"
        }
      ],
      "name": "transferOwnership",
      "outputs": [],
      "stateMutability": "nonpayable",
      "type": "function"
    },
    {
      "inputs": [
        {
          "internalType": "address",
          "name": "asset",
          "type": "address"
        },
        {
          "internalType": "bool",
          "name": "supported",
          "type": "bool"
        }
      ],
      "name": "updateAssetSupport",
      "outputs": [],
      "stateMutability": "nonpayable",
      "type": "function"
    },
    {
      "stateMutability": "payable",
      "type": "receive"
    }
  ],
  "bytecode": "0x60a03461015657601f611d5738819003918201601f19168301916001600160401b0383118484101761015b5780849260209460405283398101031261015657516001600160a01b0380821691829003610156576001600055331561013d5760018054336001600160a01b03198216811790925560405192167f8be0079c531659141344cd1fd0a4f28419497f9722a3daafe3b4186f6b6457e0600080a381156100ef5750608052604051611be5908161017282396080518181816103f8015281816104a701528181610931015281816109f901528181610baa01528181610daf01528181610e7c01526119aa0152f35b62461bcd60e51b815260206004820152602360248201527f41617665466c6173684c6f616e50726f76696465723a20496e76616c696420706044820152621bdbdb60ea1b6064820152608490fd5b604051631e4fbdf760e01b815260006004820152602490fd5b600080fd5b634e487b7160e01b600052604160045260246000fdfe6080604052600436101561001b575b361561001957600080fd5b005b6000803560e01c80630ad12ee9146112d7578063266e2bd8146112ab578063464b4158146101eb578063715018a61461124e57806371e85c411461120a5780638da5cb5b146111e1578063920f5c8414610b0757806395ccea6714610a28578063a03e4bc3146109e3578063b02c67fd146108d8578063b0fa92521461022a578063bd81579e146101eb578063e5406dbf146101535763f2fde38b146100c1575061000e565b34610150576020366003190112610150576100da611557565b6100e261166f565b6001600160a01b0390811690811561013757600154826bffffffffffffffffffffffff60a01b821617600155167f8be0079c531659141344cd1fd0a4f28419497f9722a3daafe3b4186f6b6457e0600080a380f35b604051631e4fbdf760e01b815260048101849052602490fd5b80fd5b5034610150578060031936011261015057604051809182600354808452602080940190600384527fc2575a0e9e593c00f959f8c92f12db2869c3395a3b0502d05e2516446f71f85b935b858282106101cc575050506101b492500383611765565b6101c8604051928284938452830190611632565b0390f35b85546001600160a01b031684526001958601958895509301920161019d565b50346101505760203660031901126101505760209060ff906040906001600160a01b03610216611557565b168152600284522054166040519015158152f35b503461015057608036600319011261015057610244611557565b906044356001600160401b0381116108d457610264903690600401611605565b929061026e611572565b9160028454146108c25760028085556001600160a01b0382168552602052604084205461029d9060ff1661169b565b6024351561086f576001600160a01b0383161561081a576024356102c082611967565b106107bf57600480546001600160a01b0319166001600160a01b0385161790556001600160401b0385116107ab576102f96005546116fa565b601f8111610744575b508484601f82116001146106d35785916106c8575b508560011b906000198760031b1c1916176005555b600160ff1960065416176006556103f660a06040519461034b86611734565b60018652602036818801376040519761036389611734565b60018952602036818b01376040519461037b86611734565b6001865260203681880137600180851b031661039688611786565b526024356103a38a611786565b52876103ae86611786565b5280604051968793336020860152600180871b031660408501526060808501528160808501528484013787838284010152601f80199101168101036080810185520183611765565b7f00000000000000000000000000000000000000000000000000000000000000006001600160a01b03163b156106c4579161049b61045f926104838695610471604051998a97889763ab9c4b5d60e01b89523060048a015260e060248a015260e4890190611632565b87810360031901604489015290611793565b85810360031901606487015290611793565b3060848501528381036003190160a4850152906117ea565b60c482018490520381837f00000000000000000000000000000000000000000000000000000000000000006001600160a01b03165af19182610699575b50906105e9578060033d116105d8575b506308c379a01461054a575b60405162461bcd60e51b815260206004820152602860248201527f41617665466c6173684c6f616e50726f76696465723a20466c617368206c6f616044820152671b8819985a5b195960c21b6064820152608490fd5b61055261180f565b8061055d57506104f4565b6105d4906105b4603760405180937f41617665466c6173684c6f616e50726f76696465723a2000000000000000000060208301526105a481518092602086860191016117c7565b8101036017810184520182611765565b60405162461bcd60e51b81526020600482015291829160248301906117ea565b0390fd5b9050600481803e5160e01c386104e8565b60ff19600654166006556bffffffffffffffffffffffff60a01b600454166004556106156005546116fa565b80610623575b506001815580f35b601f811160011461063b575060006005555b3861061b565b90601f600080516020611b70833981519152920160051c8201917f036b6384b5eca791c62761152d0c79bb0604c104a5fb6f4eb0703f3154bb3db15b83811061068d5750819250600060055555610635565b60008155600101610677565b6001600160401b0381116106b057604052386104d8565b634e487b7160e01b82526041600452602482fd5b8380fd5b905082013538610317565b60058652600080516020611b708339815191529150855b601f198816811061072c575086601f19811610610712575b5050600185811b0160055561032c565b830135600019600388901b60f8161c191690553880610702565b909160206001819285880135815501930191016106ea565b60058552601f860160051c600080516020611b708339815191520160208710610796575b601f820160051c600080516020611b7083398151915201811061078b5750610302565b858155600101610768565b50600080516020611b70833981519152610768565b634e487b7160e01b84526041600452602484fd5b60405162461bcd60e51b815260206004820152602d60248201527f41617665466c6173684c6f616e50726f76696465723a20496e7375666669636960448201526c656e74206c697175696469747960981b6064820152608490fd5b60405162461bcd60e51b815260206004820152602760248201527f41617665466c6173684c6f616e50726f76696465723a20496e76616c6964207260448201526632b1b2b4bb32b960c91b6064820152608490fd5b60405162461bcd60e51b815260206004820152602560248201527f41617665466c6173684c6f616e50726f76696465723a20496e76616c696420616044820152641b5bdd5b9d60da1b6064820152608490fd5b604051633ee5aeb560e01b8152600490fd5b5080fd5b5034610150576040366003190112610150576108f2611557565b906024359060018060a01b0380931681526004602080946002825261091d60ff60408620541661169b565b60405163074b2e4360e01b815292839182907f0000000000000000000000000000000000000000000000000000000000000000165afa80156109d857829061099d575b6001600160801b0391501691828102928184041490151715610989575061271060405191048152f35b634e487b7160e01b81526011600452602490fd5b508381813d83116109d1575b6109b38183611765565b810103126108d4576109cc6001600160801b039161193f565b610960565b503d6109a9565b6040513d84823e3d90fd5b50346101505780600319360112610150576040517f00000000000000000000000000000000000000000000000000000000000000006001600160a01b03168152602090f35b503461015057604036600319011261015057610a42611557565b602435610a4d61166f565b60ff60065416610aac5782916001600160a01b0390811680610a995750828092819260015416828215610a90575bf115610a845780f35b604051903d90823e3d90fd5b506108fc610a7b565b90610aa993506001541690611894565b80f35b60405162461bcd60e51b815260206004820152602d60248201527f41617665466c6173684c6f616e50726f76696465723a20466c617368206c6f6160448201526c6e20696e2070726f677265737360981b6064820152608490fd5b50346101505760a0366003190112610150576004356001600160401b0381116108d457610b389036906004016115d5565b91906024356001600160401b0381116111dd57610b599036906004016115d5565b90926044356001600160401b0381116108d457610b7a9036906004016115d5565b610b85939193611572565b906084356001600160401b0381116110ab57610ba5903690600401611605565b9390927f00000000000000000000000000000000000000000000000000000000000000006001600160a01b0316330361118a57306001600160a01b03909116036111345760ff60065416156110db5760608385810103126110ab57610c0983611880565b98610c1660208501611880565b936040810135906001600160401b0382116110c357868101601f8383010112156110c3576001600160401b0382820135116110c75760405196610c6682840135601f01601f191660200189611765565b8183018035808a529183019101602001116110c357879160209180820180359084018a850137013587010152156110af5786356001600160a01b03811690036110ab57156110975715611083578291602091610d2f9190610cd8908935906001600160a01b03908116908a3516611894565b60048054604051631b11d0ff60e01b81526001600160a01b038a358116938201939093528a356024820152883560448201528b8316606482015260a0608482015295869492909116928492839160a48301906117ea565b03925af19081156109d8578291611048575b5015610fea578135843501843511610989576040516370a0823160e01b815230600482015260208160248187356001600160a01b03165afa9081156109d8578291610fb8575b50823585350111610f5d5760405163095ea7b360e01b60208083018281526001600160a01b037f000000000000000000000000000000000000000000000000000000000000000016602485015285358835016044808601919091528452929391928290610df5606487611765565b8551908289356001600160a01b03165af181513d82610f37575b505015610e6f575b505060408051943585529135602085015250600190830152356001600160a01b039081169216907ff838d0bca6c4b117e7435267e17cd9cbaff8edba2492b6273496565f50df570f90606090a3602060405160018152f35b60405160208101929092527f00000000000000000000000000000000000000000000000000000000000000006001600160a01b031660248301526044808301829052825260808201906001600160401b03821183831017610f2357507ff838d0bca6c4b117e7435267e17cd9cbaff8edba2492b6273496565f50df570f9492610f0b60609593610f1b9360405260018060a01b038635166118d7565b83356001600160a01b03166118d7565b918193610e17565b634e487b7160e01b81526041600452602490fd5b909150610f55575084356001600160a01b03163b15155b3880610e0f565b600114610f4e565b60405162461bcd60e51b815260206004820152602d60248201527f41617665466c6173684c6f616e50726f76696465723a20496e7375666669636960448201526c195b9d081c995c185e5b595b9d609a1b6064820152608490fd5b90506020813d602011610fe2575b81610fd360209383611765565b810103126108d4575138610d87565b3d9150610fc6565b60405162461bcd60e51b815260206004820152603060248201527f41617665466c6173684c6f616e50726f76696465723a2052656365697665722060448201526f195e1958dd5d1a5bdb8819985a5b195960821b6064820152608490fd5b90506020813d60201161107b575b8161106360209383611765565b810103126108d4575180151581036108d45738610d41565b3d9150611056565b634e487b7160e01b83526032600452602483fd5b634e487b7160e01b84526032600452602484fd5b8480fd5b634e487b7160e01b85526032600452602485fd5b8780fd5b634e487b7160e01b88526041600452602488fd5b60405162461bcd60e51b815260206004820152602b60248201527f41617665466c6173684c6f616e50726f76696465723a204e6f2061637469766560448201526a10333630b9b4103637b0b760a91b6064820152608490fd5b60405162461bcd60e51b815260206004820152602860248201527f41617665466c6173684c6f616e50726f76696465723a20496e76616c696420696044820152673734ba34b0ba37b960c11b6064820152608490fd5b60405162461bcd60e51b815260206004820152602560248201527f41617665466c6173684c6f616e50726f76696465723a20496e76616c6964206360448201526430b63632b960d91b6064820152608490fd5b8280fd5b50346101505780600319360112610150576001546040516001600160a01b039091168152602090f35b5034610150576020366003190112610150576004359060035482101561015057602061123583611588565b905460405160039290921b1c6001600160a01b03168152f35b503461015057806003193601126101505761126761166f565b600180546001600160a01b0319811690915581906001600160a01b03167f8be0079c531659141344cd1fd0a4f28419497f9722a3daafe3b4186f6b6457e08280a380f35b50346101505760203660031901126101505760206112cf6112ca611557565b611967565b604051908152f35b5034610150576040366003190112610150576112f1611557565b6024908135918215918215928385036115535761130c61166f565b6001600160a01b03918216948515611502578587526002602052604087209081549160ff83169260ff88169060ff1916179055806114fa575b156113c55750505060035490680100000000000000008210156113b35750600080516020611b9083398151915291836113a661138984600160209601600355611588565b819391549060031b9160018060a01b03809116831b921b19161790565b90555b604051908152a280f35b634e487b7160e01b8552604160045284fd5b816114f2575b506113ea575b50506020600080516020611b90833981519152916113a9565b92909391825b60038054808310156114d357848761140785611588565b905490851b1c16146114395750506000198114611426576001016113f0565b634e487b7160e01b845260116004528584fd5b916000979193959796949619928381019081116114c0576113898661146061146d93611588565b905490881b1c1692611588565b905582549081156114ae57509160209391600080516020611b908339815191529593019161149a83611588565b9091825491841b1b19169055555b916113d1565b634e487b7160e01b8852603160045287fd5b634e487b7160e01b895260116004528289fd5b505050600080516020611b9083398151915292945060209193506114a8565b9050386113cb565b508015611345565b60405162461bcd60e51b8152602060048201528085018590527f41617665466c6173684c6f616e50726f76696465723a20496e76616c696420616044820152631cdcd95d60e21b6064820152608490fd5b8580fd5b600435906001600160a01b038216820361156d57565b600080fd5b606435906001600160a01b038216820361156d57565b6003548110156115bf5760036000527fc2575a0e9e593c00f959f8c92f12db2869c3395a3b0502d05e2516446f71f85b0190600090565b634e487b7160e01b600052603260045260246000fd5b9181601f8401121561156d578235916001600160401b03831161156d576020808501948460051b01011161156d57565b9181601f8401121561156d578235916001600160401b03831161156d576020838186019501011161156d57565b90815180825260208080930193019160005b828110611652575050505090565b83516001600160a01b031685529381019392810192600101611644565b6001546001600160a01b0316330361168357565b60405163118cdaa760e01b8152336004820152602490fd5b156116a257565b60405162461bcd60e51b815260206004820152602a60248201527f41617665466c6173684c6f616e50726f76696465723a204173736574206e6f74604482015269081cdd5c1c1bdc9d195960b21b6064820152608490fd5b90600182811c9216801561172a575b602083101461171457565b634e487b7160e01b600052602260045260246000fd5b91607f1691611709565b604081019081106001600160401b0382111761174f57604052565b634e487b7160e01b600052604160045260246000fd5b90601f801991011681019081106001600160401b0382111761174f57604052565b8051156115bf5760200190565b90815180825260208080930193019160005b8281106117b3575050505090565b8351855293810193928101926001016117a5565b60005b8381106117da5750506000910152565b81810151838201526020016117ca565b90602091611803815180928185528580860191016117c7565b601f01601f1916010190565b600060443d1061186c57604051600319913d83016004833e81516001600160401b03918282113d60248401111761186f57818401948551938411611877573d8501016020848701011161186f575061186c92910160200190611765565b90565b949350505050565b50949350505050565b35906001600160a01b038216820361156d57565b60405163a9059cbb60e01b60208201526001600160a01b039290921660248301526044808301939093529181526118d5916118d0606483611765565b6118d7565b565b906000602091828151910182855af115611933576000513d61192a57506001600160a01b0381163b155b6119085750565b604051635274afe760e01b81526001600160a01b039091166004820152602490fd5b60011415611901565b6040513d6000823e3d90fd5b51906001600160801b038216820361156d57565b51906001600160a01b038216820361156d57565b6000809160018060a01b038091168084526020916002835260ff60408620541615611b68576040516335ea6a7560e01b8152600481018390526101e080826024817f000000000000000000000000000000000000000000000000000000000000000087165afa9182918893611a73575b50506119e557505050505090565b95949192939516806119f8575b50505050565b83949550602460409492939451809581936370a0823160e01b835260048301525afa928315611a66578193611a35575b50505090388080806119f2565b9091809350813d8311611a5f575b611a4d8183611765565b81010312610150575051388080611a28565b503d611a43565b50604051903d90823e3d90fd5b9080929350813d8311611b61575b611a8b8183611765565b81010312611b5d57611a9e85820161193f565b50611aab6040820161193f565b50611ab86060820161193f565b50611ac56080820161193f565b50611ad260a0820161193f565b5060c081015164ffffffffff811603611b5d5760e081015161ffff811603611b5d57611b546101c0611b076101008401611953565b92611b156101208201611953565b50611b236101408201611953565b50611b316101608201611953565b50611b3f610180820161193f565b50611b4d6101a0820161193f565b500161193f565b509038806119d7565b8680fd5b503d611a81565b505050509056fe036b6384b5eca791c62761152d0c79bb0604c104a5fb6f4eb0703f3154bb3db090bc5441fdb22dd389a0bc9ac431bc4432d0b7459c2cd9745ab302343bfe94f9a2646970667358221220253aaf077a4067f0f20a7128d07627b1efb2a5e94f62e518aa0dc111345c7bcb64736f6c63430008140033",
  "linkReferences": {},
  "deployedLinkReferences": {}
}