{
  "_format": "hh-sol-artifact-1",
  "contractName": "MockUniswapV2Router",
  "sourceName": "src/mocks/MockUniswapV2Router.sol",
  "abi": [
    {
      "inputs": [],
      "stateMutability": "nonpayable",
      "type": "constructor"
    },
    {
      "inputs": [],
      "name": "factory",
      "outputs": [
        {
          "internalType": "address",
          "name": "",
          "type": "address"
        }
      ],
      "stateMutability": "view",
      "type": "function"
    },
    {
      "inputs": [
        {
          "internalType": "uint256",
          "name": "amountOut",
          "type": "uint256"
        },
        {
          "internalType": "address[]",
          "name": "path",
          "type": "address[]"
        }
      ],
      "name": "getAmountsIn",
      "outputs": [
        {
          "internalType": "uint256[]",
          "name": "amounts",
          "type": "uint256[]"
        }
      ],
      "stateMutability": "pure",
      "type": "function"
    },
    {
      "inputs": [
        {
          "internalType": "uint256",
          "name": "amountIn",
          "type": "uint256"
        },
        {
          "internalType": "address[]",
          "name": "path",
          "type": "address[]"
        }
      ],
      "name": "getAmountsOut",
      "outputs": [
        {
          "internalType": "uint256[]",
          "name": "amounts",
          "type": "uint256[]"
        }
      ],
      "stateMutability": "pure",
      "type": "function"
    },
    {
      "inputs": [
        {
          "internalType": "uint256",
          "name": "amountIn",
          "type": "uint256"
        },
        {
          "internalType": "uint256",
          "name": "amountOutMin",
          "type": "uint256"
        },
        {
          "internalType": "address[]",
          "name": "path",
          "type": "address[]"
        },
        {
          "internalType": "address",
          "name": "to",
          "type": "address"
        },
        {
          "internalType": "uint256",
          "name": "deadline",
          "type": "uint256"
        }
      ],
      "name": "swapExactTokensForTokens",
      "outputs": [
        {
          "internalType": "uint256[]",
          "name": "amounts",
          "type": "uint256[]"
        }
      ],
      "stateMutability": "nonpayable",
      "type": "function"
    }
  ],
  "bytecode": "0x6080806040523461002857600080546001600160a01b0319163317905561065e908161002e8239f35b600080fdfe6040608081526004908136101561001557600080fd5b600090813560e01c80631f00ca741461037057806338ed173914610120578063c45a0155146100f95763d06ca61f1461004d57600080fd5b346100f55761005b3661048f565b9193905061006c60028310156104fe565b6100758261059a565b9361007f856105cc565b5260015b82811061009b5783518061009787826104c3565b0390f35b60001981018181116100e2576100b190866105ef565b51605a908181029181830414901517156100e2579060646100dd92046100d782886105ef565b52610603565b610083565b634e487b7160e01b835260118752602483fd5b5080fd5b50346100f557816003193601126100f557905490516001600160a01b039091168152602090f35b5091346100f55760a03660031901126100f557803560443567ffffffffffffffff811161036c576101549036908401610459565b9093606492916001600160a01b0384358181160361030157426084351061032a5761018260028310156104fe565b61018b8261059a565b9684610196896105cc565b52821561031757359081168091036103015760208391868a51809481936323b872dd60e01b8352338c840152602499308b85015260448401525af1801561030d576102d2575b5060015b81811061027f575050845160001981019190821161026d5750610205823591866105ef565b51106102185784518061009786826104c3565b60849291602b6a1514155517d05353d5539560aa1b92602088519562461bcd60e51b87528601528401527f556e69737761705632526f757465723a20494e53554646494349454e545f4f556044840152820152fd5b634e487b7160e01b8152601185529050fd5b60001981018181116102bf5761029590886105ef565b51605a908181029181830414901517156102bf5790856102ba92046100d7828a6105ef565b6101e0565b5050634e487b7160e01b82525060118452fd5b6020813d8211610305575b816102ea6020938361054a565b810103126103015751801515036100f557386101dc565b8280fd5b3d91506102dd565b88513d85823e3d90fd5b634e487b7160e01b845260328752602484fd5b875162461bcd60e51b8152602081880152601860248201527f556e69737761705632526f757465723a2045585049524544000000000000000060448201528590fd5b8380fd5b509034610456576103803661048f565b905061039260028296939610156104fe565b61039b8161059a565b9081519560001996878101908111610443576103b790846105ef565b526001198101908111610410575b60018101808211610430576103da90836105ef565b5160649081810291818304149015171561043057605a90046103fc82846105ef565b5280156104235780156104105785016103c5565b634e487b7160e01b845260118352602484fd5b84518061009784826104c3565b634e487b7160e01b855260118452602485fd5b634e487b7160e01b865260118552602486fd5b80fd5b9181601f8401121561048a5782359167ffffffffffffffff831161048a576020808501948460051b01011161048a57565b600080fd5b90604060031983011261048a57600435916024359067ffffffffffffffff821161048a576104bf91600401610459565b9091565b6020908160408183019282815285518094520193019160005b8281106104ea575050505090565b8351855293810193928101926001016104dc565b1561050557565b60405162461bcd60e51b815260206004820152601d60248201527f556e69737761705632526f757465723a20494e56414c49445f504154480000006044820152606490fd5b90601f8019910116810190811067ffffffffffffffff82111761056c57604052565b634e487b7160e01b600052604160045260246000fd5b67ffffffffffffffff811161056c5760051b60200190565b906105a482610582565b6105b1604051918261054a565b82815280926105c2601f1991610582565b0190602036910137565b8051156105d95760200190565b634e487b7160e01b600052603260045260246000fd5b80518210156105d95760209160051b010190565b60001981146106125760010190565b634e487b7160e01b600052601160045260246000fdfea26469706673582212203c0691b35bf16c9ddd6a181226d195261c1fe596bdcc19c8ee56134dfe8c3b0764736f6c63430008140033",
  "linkReferences": {},
  "deployedLinkReferences": {}
}