{
  "_format": "hh-sol-artifact-1",
  "contractName": "ArbitrageCore",
  "sourceName": "contracts-new/ArbitrageCore.sol",
  "abi": [
    {
      "inputs": [
        {
          "internalType": "address",
          "name": "_priceOracle",
          "type": "address"
        },
        {
          "internalType": "address",
          "name": "_feeCollector",
          "type": "address"
        }
      ],
      "stateMutability": "nonpayable",
      "type": "constructor"
    },
    {
      "inputs": [],
      "name": "EnforcedPause",
      "type": "error"
    },
    {
      "inputs": [],
      "name": "ExpectedPause",
      "type": "error"
    },
    {
      "inputs": [
        {
          "internalType": "address",
          "name": "owner",
          "type": "address"
        }
      ],
      "name": "OwnableInvalidOwner",
      "type": "error"
    },
    {
      "inputs": [
        {
          "internalType": "address",
          "name": "account",
          "type": "address"
        }
      ],
      "name": "OwnableUnauthorizedAccount",
      "type": "error"
    },
    {
      "inputs": [],
      "name": "ReentrancyGuardReentrantCall",
      "type": "error"
    },
    {
      "inputs": [
        {
          "internalType": "address",
          "name": "token",
          "type": "address"
        }
      ],
      "name": "SafeERC20FailedOperation",
      "type": "error"
    },
    {
      "anonymous": false,
      "inputs": [
        {
          "indexed": true,
          "internalType": "bytes32",
          "name": "tradeId",
          "type": "bytes32"
        },
        {
          "indexed": true,
          "internalType": "address",
          "name": "user",
          "type": "address"
        },
        {
          "indexed": true,
          "internalType": "address",
          "name": "tokenIn",
          "type": "address"
        },
        {
          "indexed": false,
          "internalType": "address",
          "name": "tokenOut",
          "type": "address"
        },
        {
          "indexed": false,
          "internalType": "uint256",
          "name": "amountIn",
          "type": "uint256"
        },
        {
          "indexed": false,
          "internalType": "uint256",
          "name": "profit",
          "type": "uint256"
        },
        {
          "indexed": false,
          "internalType": "uint256",
          "name": "gasUsed",
          "type": "uint256"
        },
        {
          "indexed": false,
          "internalType": "uint256",
          "name": "timestamp",
          "type": "uint256"
        }
      ],
      "name": "ArbitrageExecuted",
      "type": "event"
    },
    {
      "anonymous": false,
      "inputs": [
        {
          "indexed": true,
          "internalType": "bytes32",
          "name": "tradeId",
          "type": "bytes32"
        },
        {
          "indexed": true,
          "internalType": "address",
          "name": "token",
          "type": "address"
        },
        {
          "indexed": false,
          "internalType": "uint256",
          "name": "flashAmount",
          "type": "uint256"
        },
        {
          "indexed": false,
          "internalType": "uint256",
          "name": "profit",
          "type": "uint256"
        },
        {
          "indexed": true,
          "internalType": "address",
          "name": "user",
          "type": "address"
        }
      ],
      "name": "FlashArbitrageExecuted",
      "type": "event"
    },
    {
      "anonymous": false,
      "inputs": [
        {
          "indexed": true,
          "internalType": "bytes32",
          "name": "tradeId",
          "type": "bytes32"
        },
        {
          "indexed": true,
          "internalType": "address",
          "name": "user",
          "type": "address"
        },
        {
          "indexed": false,
          "internalType": "uint256",
          "name": "protectionLevel",
          "type": "uint256"
        }
      ],
      "name": "MEVProtectionActivated",
      "type": "event"
    },
    {
      "anonymous": false,
      "inputs": [
        {
          "indexed": true,
          "internalType": "address",
          "name": "previousOwner",
          "type": "address"
        },
        {
          "indexed": true,
          "internalType": "address",
          "name": "newOwner",
          "type": "address"
        }
      ],
      "name": "OwnershipTransferred",
      "type": "event"
    },
    {
      "anonymous": false,
      "inputs": [
        {
          "indexed": false,
          "internalType": "address",
          "name": "account",
          "type": "address"
        }
      ],
      "name": "Paused",
      "type": "event"
    },
    {
      "anonymous": false,
      "inputs": [
        {
          "indexed": true,
          "internalType": "address",
          "name": "user",
          "type": "address"
        },
        {
          "indexed": false,
          "internalType": "uint256",
          "name": "attemptedAmount",
          "type": "uint256"
        },
        {
          "indexed": false,
          "internalType": "uint256",
          "name": "dailyLimit",
          "type": "uint256"
        },
        {
          "indexed": false,
          "internalType": "uint256",
          "name": "timestamp",
          "type": "uint256"
        }
      ],
      "name": "RiskLimitExceeded",
      "type": "event"
    },
    {
      "anonymous": false,
      "inputs": [
        {
          "indexed": false,
          "internalType": "address",
          "name": "account",
          "type": "address"
        }
      ],
      "name": "Unpaused",
      "type": "event"
    },
    {
      "stateMutability": "payable",
      "type": "fallback"
    },
    {
      "inputs": [],
      "name": "FEE_DENOMINATOR",
      "outputs": [
        {
          "internalType": "uint256",
          "name": "",
          "type": "uint256"
        }
      ],
      "stateMutability": "view",
      "type": "function"
    },
    {
      "inputs": [],
      "name": "MAX_DAILY_LOSS",
      "outputs": [
        {
          "internalType": "uint256",
          "name": "",
          "type": "uint256"
        }
      ],
      "stateMutability": "view",
      "type": "function"
    },
    {
      "inputs": [],
      "name": "MAX_SINGLE_TRADE_LOSS",
      "outputs": [
        {
          "internalType": "uint256",
          "name": "",
          "type": "uint256"
        }
      ],
      "stateMutability": "view",
      "type": "function"
    },
    {
      "inputs": [],
      "name": "SECONDS_PER_DAY",
      "outputs": [
        {
          "internalType": "uint256",
          "name": "",
          "type": "uint256"
        }
      ],
      "stateMutability": "view",
      "type": "function"
    },
    {
      "inputs": [
        {
          "internalType": "address",
          "name": "dex",
          "type": "address"
        }
      ],
      "name": "addAuthorizedDEX",
      "outputs": [],
      "stateMutability": "nonpayable",
      "type": "function"
    },
    {
      "inputs": [
        {
          "internalType": "address",
          "name": "",
          "type": "address"
        }
      ],
      "name": "authorizedDEXs",
      "outputs": [
        {
          "internalType": "bool",
          "name": "",
          "type": "bool"
        }
      ],
      "stateMutability": "view",
      "type": "function"
    },
    {
      "inputs": [
        {
          "components": [
            {
              "internalType": "address",
              "name": "tokenIn",
              "type": "address"
            },
            {
              "internalType": "address",
              "name": "tokenOut",
              "type": "address"
            },
            {
              "internalType": "uint256",
              "name": "amountIn",
              "type": "uint256"
            },
            {
              "internalType": "address[]",
              "name": "dexRoutes",
              "type": "address[]"
            },
            {
              "internalType": "bytes",
              "name": "routingData",
              "type": "bytes"
            },
            {
              "internalType": "uint256",
              "name": "minProfit",
              "type": "uint256"
            },
            {
              "internalType": "uint256",
              "name": "deadline",
              "type": "uint256"
            }
          ],
          "internalType": "struct ArbitrageCore.ArbitrageParams[]",
          "name": "trades",
          "type": "tuple[]"
        }
      ],
      "name": "batchArbitrage",
      "outputs": [],
      "stateMutability": "nonpayable",
      "type": "function"
    },
    {
      "inputs": [],
      "name": "emergencyPause",
      "outputs": [],
      "stateMutability": "nonpayable",
      "type": "function"
    },
    {
      "inputs": [],
      "name": "emergencyUnpause",
      "outputs": [],
      "stateMutability": "nonpayable",
      "type": "function"
    },
    {
      "inputs": [
        {
          "internalType": "address",
          "name": "token",
          "type": "address"
        },
        {
          "internalType": "uint256",
          "name": "amount",
          "type": "uint256"
        }
      ],
      "name": "emergencyWithdraw",
      "outputs": [],
      "stateMutability": "nonpayable",
      "type": "function"
    },
    {
      "inputs": [],
      "name": "emergencyWithdrawETH",
      "outputs": [],
      "stateMutability": "nonpayable",
      "type": "function"
    },
    {
      "inputs": [
        {
          "components": [
            {
              "internalType": "address",
              "name": "tokenIn",
              "type": "address"
            },
            {
              "internalType": "address",
              "name": "tokenOut",
              "type": "address"
            },
            {
              "internalType": "uint256",
              "name": "amountIn",
              "type": "uint256"
            },
            {
              "internalType": "address[]",
              "name": "dexRoutes",
              "type": "address[]"
            },
            {
              "internalType": "bytes",
              "name": "routingData",
              "type": "bytes"
            },
            {
              "internalType": "uint256",
              "name": "minProfit",
              "type": "uint256"
            },
            {
              "internalType": "uint256",
              "name": "deadline",
              "type": "uint256"
            }
          ],
          "internalType": "struct ArbitrageCore.ArbitrageParams",
          "name": "params",
          "type": "tuple"
        }
      ],
      "name": "executeArbitrage",
      "outputs": [],
      "stateMutability": "nonpayable",
      "type": "function"
    },
    {
      "inputs": [
        {
          "internalType": "address",
          "name": "flashToken",
          "type": "address"
        },
        {
          "internalType": "uint256",
          "name": "flashAmount",
          "type": "uint256"
        },
        {
          "components": [
            {
              "internalType": "address",
              "name": "tokenIn",
              "type": "address"
            },
            {
              "internalType": "address",
              "name": "tokenOut",
              "type": "address"
            },
            {
              "internalType": "uint256",
              "name": "amountIn",
              "type": "uint256"
            },
            {
              "internalType": "address[]",
              "name": "dexRoutes",
              "type": "address[]"
            },
            {
              "internalType": "bytes",
              "name": "routingData",
              "type": "bytes"
            },
            {
              "internalType": "uint256",
              "name": "minProfit",
              "type": "uint256"
            },
            {
              "internalType": "uint256",
              "name": "deadline",
              "type": "uint256"
            }
          ],
          "internalType": "struct ArbitrageCore.ArbitrageParams",
          "name": "params",
          "type": "tuple"
        },
        {
          "internalType": "bytes",
          "name": "flashLoanData",
          "type": "bytes"
        }
      ],
      "name": "executeFlashArbitrage",
      "outputs": [],
      "stateMutability": "nonpayable",
      "type": "function"
    },
    {
      "inputs": [
        {
          "internalType": "bytes32",
          "name": "",
          "type": "bytes32"
        }
      ],
      "name": "executedTrades",
      "outputs": [
        {
          "internalType": "bool",
          "name": "",
          "type": "bool"
        }
      ],
      "stateMutability": "view",
      "type": "function"
    },
    {
      "inputs": [],
      "name": "feeCollector",
      "outputs": [
        {
          "internalType": "address",
          "name": "",
          "type": "address"
        }
      ],
      "stateMutability": "view",
      "type": "function"
    },
    {
      "inputs": [],
      "name": "feePercentage",
      "outputs": [
        {
          "internalType": "uint256",
          "name": "",
          "type": "uint256"
        }
      ],
      "stateMutability": "view",
      "type": "function"
    },
    {
      "inputs": [],
      "name": "flashLoanEnabled",
      "outputs": [
        {
          "internalType": "bool",
          "name": "",
          "type": "bool"
        }
      ],
      "stateMutability": "view",
      "type": "function"
    },
    {
      "inputs": [],
      "name": "getContractStats",
      "outputs": [
        {
          "internalType": "uint256",
          "name": "totalTrades",
          "type": "uint256"
        },
        {
          "internalType": "uint256",
          "name": "totalVolume",
          "type": "uint256"
        },
        {
          "internalType": "uint256",
          "name": "totalFees",
          "type": "uint256"
        },
        {
          "internalType": "uint256",
          "name": "currentFee",
          "type": "uint256"
        },
        {
          "internalType": "bool",
          "name": "isPaused",
          "type": "bool"
        }
      ],
      "stateMutability": "view",
      "type": "function"
    },
    {
      "inputs": [
        {
          "internalType": "uint256",
          "name": "chainId",
          "type": "uint256"
        }
      ],
      "name": "getNetworkConfig",
      "outputs": [
        {
          "components": [
            {
              "internalType": "uint256",
              "name": "chainId",
              "type": "uint256"
            },
            {
              "internalType": "address",
              "name": "priceOracle",
              "type": "address"
            },
            {
              "internalType": "address",
              "name": "flashLoanProvider",
              "type": "address"
            },
            {
              "internalType": "uint256",
              "name": "maxGasPrice",
              "type": "uint256"
            },
            {
              "internalType": "bool",
              "name": "isActive",
              "type": "bool"
            }
          ],
          "internalType": "struct ArbitrageCore.NetworkConfig",
          "name": "",
          "type": "tuple"
        }
      ],
      "stateMutability": "view",
      "type": "function"
    },
    {
      "inputs": [
        {
          "internalType": "address",
          "name": "user",
          "type": "address"
        }
      ],
      "name": "getUserStats",
      "outputs": [
        {
          "internalType": "uint256",
          "name": "totalProfits",
          "type": "uint256"
        },
        {
          "internalType": "uint256",
          "name": "dailyLoss",
          "type": "uint256"
        },
        {
          "internalType": "uint256",
          "name": "lastActivity",
          "type": "uint256"
        },
        {
          "internalType": "bool",
          "name": "canTrade",
          "type": "bool"
        }
      ],
      "stateMutability": "view",
      "type": "function"
    },
    {
      "inputs": [
        {
          "internalType": "bytes32",
          "name": "tradeId",
          "type": "bytes32"
        }
      ],
      "name": "isTradeExecuted",
      "outputs": [
        {
          "internalType": "bool",
          "name": "",
          "type": "bool"
        }
      ],
      "stateMutability": "view",
      "type": "function"
    },
    {
      "inputs": [
        {
          "internalType": "address",
          "name": "",
          "type": "address"
        }
      ],
      "name": "lastUserActivity",
      "outputs": [
        {
          "internalType": "uint256",
          "name": "",
          "type": "uint256"
        }
      ],
      "stateMutability": "view",
      "type": "function"
    },
    {
      "inputs": [],
      "name": "mevProtectionEnabled",
      "outputs": [
        {
          "internalType": "bool",
          "name": "",
          "type": "bool"
        }
      ],
      "stateMutability": "view",
      "type": "function"
    },
    {
      "inputs": [
        {
          "internalType": "uint256",
          "name": "",
          "type": "uint256"
        }
      ],
      "name": "networkConfigs",
      "outputs": [
        {
          "internalType": "uint256",
          "name": "chainId",
          "type": "uint256"
        },
        {
          "internalType": "address",
          "name": "priceOracle",
          "type": "address"
        },
        {
          "internalType": "address",
          "name": "flashLoanProvider",
          "type": "address"
        },
        {
          "internalType": "uint256",
          "name": "maxGasPrice",
          "type": "uint256"
        },
        {
          "internalType": "bool",
          "name": "isActive",
          "type": "bool"
        }
      ],
      "stateMutability": "view",
      "type": "function"
    },
    {
      "inputs": [],
      "name": "owner",
      "outputs": [
        {
          "internalType": "address",
          "name": "",
          "type": "address"
        }
      ],
      "stateMutability": "view",
      "type": "function"
    },
    {
      "inputs": [],
      "name": "paused",
      "outputs": [
        {
          "internalType": "bool",
          "name": "",
          "type": "bool"
        }
      ],
      "stateMutability": "view",
      "type": "function"
    },
    {
      "inputs": [],
      "name": "priceOracle",
      "outputs": [
        {
          "internalType": "address",
          "name": "",
          "type": "address"
        }
      ],
      "stateMutability": "view",
      "type": "function"
    },
    {
      "inputs": [
        {
          "internalType": "address",
          "name": "dex",
          "type": "address"
        }
      ],
      "name": "removeAuthorizedDEX",
      "outputs": [],
      "stateMutability": "nonpayable",
      "type": "function"
    },
    {
      "inputs": [],
      "name": "renounceOwnership",
      "outputs": [],
      "stateMutability": "nonpayable",
      "type": "function"
    },
    {
      "inputs": [
        {
          "internalType": "address",
          "name": "_collector",
          "type": "address"
        }
      ],
      "name": "setFeeCollector",
      "outputs": [],
      "stateMutability": "nonpayable",
      "type": "function"
    },
    {
      "inputs": [
        {
          "internalType": "uint256",
          "name": "_fee",
          "type": "uint256"
        }
      ],
      "name": "setFeePercentage",
      "outputs": [],
      "stateMutability": "nonpayable",
      "type": "function"
    },
    {
      "inputs": [
        {
          "internalType": "bool",
          "name": "enabled",
          "type": "bool"
        }
      ],
      "name": "setFlashLoanEnabled",
      "outputs": [],
      "stateMutability": "nonpayable",
      "type": "function"
    },
    {
      "inputs": [
        {
          "internalType": "bool",
          "name": "enabled",
          "type": "bool"
        }
      ],
      "name": "setMEVProtection",
      "outputs": [],
      "stateMutability": "nonpayable",
      "type": "function"
    },
    {
      "inputs": [
        {
          "internalType": "address",
          "name": "_oracle",
          "type": "address"
        }
      ],
      "name": "setPriceOracle",
      "outputs": [],
      "stateMutability": "nonpayable",
      "type": "function"
    },
    {
      "inputs": [],
      "name": "totalFeesCollected",
      "outputs": [
        {
          "internalType": "uint256",
          "name": "",
          "type": "uint256"
        }
      ],
      "stateMutability": "view",
      "type": "function"
    },
    {
      "inputs": [],
      "name": "totalTradesExecuted",
      "outputs": [
        {
          "internalType": "uint256",
          "name": "",
          "type": "uint256"
        }
      ],
      "stateMutability": "view",
      "type": "function"
    },
    {
      "inputs": [],
      "name": "totalVolumeProcessed",
      "outputs": [
        {
          "internalType": "uint256",
          "name": "",
          "type": "uint256"
        }
      ],
      "stateMutability": "view",
      "type": "function"
    },
    {
      "inputs": [
        {
          "internalType": "address",
          "name": "newOwner",
          "type": "address"
        }
      ],
      "name": "transferOwnership",
      "outputs": [],
      "stateMutability": "nonpayable",
      "type": "function"
    },
    {
      "inputs": [
        {
          "internalType": "address",
          "name": "",
          "type": "address"
        }
      ],
      "name": "userDailyLoss",
      "outputs": [
        {
          "internalType": "uint256",
          "name": "",
          "type": "uint256"
        }
      ],
      "stateMutability": "view",
      "type": "function"
    },
    {
      "inputs": [
        {
          "internalType": "address",
          "name": "",
          "type": "address"
        }
      ],
      "name": "userProfits",
      "outputs": [
        {
          "internalType": "uint256",
          "name": "",
          "type": "uint256"
        }
      ],
      "stateMutability": "view",
      "type": "function"
    },
    {
      "stateMutability": "payable",
      "type": "receive"
    }
  ],
  "bytecode": "0x608034620003b2576200204290601f38839003908101601f19168201906001600160401b03821183831017620003b75780839160409586948552833981010312620003b2576200004f81620003ed565b6200005e6020809301620003ed565b9160019160009383855533156200039a578354336001600160a01b031980831682178755885190946001600160a01b0394919390929085167f8be0079c531659141344cd1fd0a4f28419497f9722a3daafe3b4186f6b6457e08a80a3603260085583600d549216928315620003675750831691821562000323576001600160b01b03199091161761010160a01b17600d55600c805484169091179055600692916200027b916004906200018462000114620003cd565b6089815283878b8d8c878487019184835283880193858552606089019564174876e8008752600760808b0198848a526089835252209751885587019151168a82541617905586600286019151168982541617905551600384015551151591019060ff801983541691151516179055565b6200020262000192620003cd565b6038815283878b8d8c87848701918483528388019385855260608901956402540be4008752600760808b0198848a526038835252209751885587019151168a82541617905586600286019151168982541617905551600384015551151591019060ff801983541691151516179055565b6200020c620003cd565b9261a4b191828552868501918a83528b8601918b83526060870193633b9aca00855260808801958c87528d5260078a528d8d2097518855818c890191511683825416179055600287019251169082541617905551600384015551151591019060ff801983541691151516179055565b73a5e0829caced8ffdd4de3c43696c57f7d7a678ff845252828083209260ff19938385825416179055731b02da8cb0d097eb8d57a175b88c7d8b4799750680825282822084868254161790557310ed43c718714eb63d5aa57b78b54704e256024e825282822084868254161790558152818120838582541617905573e592427a0aece92de3edee1f18e0157c058615648152209182541617905551611c3f9081620004038239f35b885162461bcd60e51b815260048101879052601560248201527f496e76616c69642066656520636f6c6c6563746f7200000000000000000000006044820152606490fd5b62461bcd60e51b815260048101879052600e60248201526d496e76616c6964206f7261636c6560901b6044820152606490fd5b8551631e4fbdf760e01b815260048101869052602490fd5b600080fd5b634e487b7160e01b600052604160045260246000fd5b6040519060a082016001600160401b03811183821017620003b757604052565b51906001600160a01b0382168203620003b25756fe6080604081815260048036101561001e575b505050361561001c57005b005b600092833560e01c9081630105746f1461149c5750806321442afd146114215780632630c12f146113f85780632718c14f146113d9578063355bc240146113b55780634a4e3bd5146113465780634e2dc9bb1461130e5780634e43603a146112a557806351858e2714611244578063530e784f146111c65780635c975abb1461119f5780635f457d7f1461115f57806360c6d8ae1461114057806363e5c3571461111c57806365d61c6c146110f55780636b5d11c714610e67578063715018a614610e0757806374f0314f14610de95780637b99b60314610d885780638453601714610d0957806388b70cb614610cc35780638bfbec68146109775780638da5cb5b1461094e57806395ccea671461088357806398ebdc1e14610616578063a001ecdd146105f7578063a42dce8014610576578063a55102f714610530578063ae06c1b7146104d3578063b236e18d146104a7578063be3548361461046f578063c415b95c14610446578063c61f01d214610408578063cce15db2146103e1578063d2a037ab146103c2578063d39957c61461030a578063d73792a9146102ed578063dfe6b5d6146102a1578063f2fde38b146102175763fbff39960361001157346102135760203660031901126102135760209282916001600160a01b036102056114c7565b168252845220549051908152f35b8280fd5b5034610213576020366003190112610213576102316114c7565b9061023a6114f6565b6001600160a01b0391821692831561028b575050600154826001600160601b0360a01b821617600155167f8be0079c531659141344cd1fd0a4f28419497f9722a3daafe3b4186f6b6457e08380a380f35b51631e4fbdf760e01b8152908101849052602490fd5b5050346102e957816003193601126102e95760a09060ff60095491600a5490600b546008549160015493815196875260208701528501526060840152831c1615156080820152f35b5080fd5b5050346102e957816003193601126102e957602090516127108152f35b50903461021357602036600319011261021357808360a0946080835161032f81611522565b828152826020820152828582015282606082015201528335815260076020522081519161035b83611522565b815493848452600180871b0390818060018601541660208701908152608060ff8360028901541694878a0195865260038901549860608b01998a52015416970196151587528451978852511660208701525116908401525160608301525115156080820152f35b5050346102e957816003193601126102e9576020906009549051908152f35b5050346102e957816003193601126102e95760209060ff600d5460a01c1690519015158152f35b5050346102e95760203660031901126102e95760209160ff9082906001600160a01b036104336114c7565b1681526006855220541690519015158152f35b5050346102e957816003193601126102e957600c5490516001600160a01b039091168152602090f35b5050346102e95760203660031901126102e95760209181906001600160a01b036104976114c7565b1681526003845220549051908152f35b5034610213576020366003190112610213578160209360ff923581526002855220541690519015158152f35b5034610213576020366003190112610213578035916104f06114f6565b60c8831161050057505060085580f35b906020606492519162461bcd60e51b8352820152600a6024820152694d61782066656520322560b01b6044820152fd5b8382346102e95760203660031901126102e957358015158091036102e9576105566114f6565b600d805460ff60a81b191660a89290921b60ff60a81b1691909117905580f35b5034610213576020366003190112610213576105906114c7565b6105986114f6565b6001600160a01b03169182156105c05750506001600160601b0360a01b600c541617600c5580f35b906020606492519162461bcd60e51b8352820152601160248201527024b73b30b634b21031b7b63632b1ba37b960791b6044820152fd5b5050346102e957816003193601126102e9576020906008549051908152f35b509190346102e957600319608036820112610213576106336114c7565b60243560443567ffffffffffffffff9384821161087b5760e090828901923603011261087f5760643584811161087b573660238201121561087b578088013594851161087b57366024868301011161087b579160609793918695936106966119c1565b61069e6119a0565b6106a836836115c9565b946106b860c087015142106116d6565b6106c760a0870151151561170c565b6106f6600260018060a01b039c886106ec8f809b511660209b8c840151161415611749565b0151511015611782565b610740683635c9adc5dea000006107398c601488049c8d9161071733611bb5565b61072c68056bc75e2d631000008411156117bd565b3381528c8c5220546117fb565b111561181e565b60ff600d5460a81c1615610841578315610807576107fe98999a6107e07f5a9c9c3fdd080eaa29d35c3dd6264ad4422b1ac6da922fa97292f16f3645d137938a936107d585518b810190640ccd8c2e6d60db1b82526001600160601b03198c60601b1660258201528a60398201524260598201523360601b6079820152606d81526107ca81611522565b5190209736906115c9565b506024369201611592565b5081519485528b8786015233951693a43386525283209182546117fb565b90556001815580f35b875162461bcd60e51b81528088018790526014602482015273125b9d985b1a5908199b185cda08185b5bdd5b9d60621b6044820152606490fd5b875162461bcd60e51b81528088018790526014602482015273119b185cda081b1bd85b9cc8191a5cd8589b195960621b6044820152606490fd5b8680fd5b8580fd5b50903461021357806003193601126102135761089d6114c7565b602435916108a96114f6565b82156108ce575b506001546108cb93506001600160a01b0390811691166118e6565b80f35b80516370a0823160e01b815230948101949094529091506020836024816001600160a01b0386165afa90811561094557508390610912575b6108cb925090386108b0565b506020823d821161093d575b8161092b60209383611554565b81010312610213576108cb9151610906565b3d915061091e565b513d85823e3d90fd5b5050346102e957816003193601126102e95760015490516001600160a01b039091168152602090f35b508290346102e957602092600319918483360112610cbf5780359467ffffffffffffffff8611610cbb5760e0868301948736030112610cbb576109b86119c1565b6109c06119a0565b6109ca36856115c9565b936109da60c086015142106116d6565b6109e960a0860151151561170c565b610a0c6002606060018060a01b03976106ec898251168a88840151161415611749565b6044870135600a810495610a1f33611bb5565b610a3468056bc75e2d631000008811156117bd565b338852848452610a54683635c9adc5dea0000061073989898c20546117fb565b610a5d83611861565b60248a0190610a6b82611861565b90885190878201926001600160601b0319809260601b16845260601b1660348201528460488201524260688201523360601b6088820152607c8152610aaf81611522565b51902093848a526002865260ff888b205416610c8957899a610bef610be9610be9866107fe9d9e610b6560a48f898f610b37908f93610b5a945a99610b04610afe610af988611861565b611b4c565b96611861565b169151926323b872dd60e01b90840152336024840152306044840152606483015260648252610b3282611522565b611938565b610b49610b44368d6115c9565b611a30565b610b55610af98c611861565b611875565b970135871015611882565b610b7f612710610b77600854896118c4565b048097611875565b9586610c6f575b80610c40575b508a815260028c528d8120600160ff1982541617905533815260038c528d8120610bb78782546117fb565b905533815260058c528d42912055610bd06009546118d7565b600955610bdf89600a546117fb565b600a555a90611875565b93611861565b94848a51961686528786015288850152606084015242608084015216917f931d979b8e8c271b286b1b7e3950d92607b3b3528c79f5ed2d03742bb5ae50ab60a03393a43386525283209182546117fb565b80610c5e610c66928c610c528c611861565b168d600c5416906118e6565b600b546117fb565b600b5538610b8c565b610c8487338c610c7e8c611861565b166118e6565b610b86565b875162461bcd60e51b8152808801879052600c60248201526b54726164652065786973747360a01b6044820152606490fd5b8480fd5b8380fd5b8382346102e95760203660031901126102e957358015158091036102e957610ce96114f6565b600d805460ff60a01b191660a09290921b60ff60a01b1691909117905580f35b5034610213578260031936011261021357610d226114f6565b47908115610d54575060015483918291829182916001600160a01b031682f115610d4a575080f35b51903d90823e3d90fd5b606490602084519162461bcd60e51b8352820152600e60248201526d4e6f204554482062616c616e636560901b6044820152fd5b509034610213576020366003190112610213578060a09383358152600760205220805492600180861b039260ff8460018501541694600285015416926003850154940154169381519586526020860152840152606083015215156080820152f35b5050346102e957816003193601126102e95760209051620151808152f35b8334610e645780600319360112610e6457610e206114f6565b600180546001600160a01b0319811690915581906001600160a01b03167f8be0079c531659141344cd1fd0a4f28419497f9722a3daafe3b4186f6b6457e08280a380f35b80fd5b508290346102e957602090816003193601126102135767ffffffffffffffff918135838111610cbb5736602382011215610cbb57808301359284841161087f57602490818301928236918760051b01011161087b57610ec46119c1565b610ecc6119a0565b600a85116110b5575a91879388905b878210610fe9575050610f09610f01612710610ef9600854886118c4565b048096611875565b935a90611875565b93620249f087818102041487151715610fd757610f3f90338a52600387528a8a20610f358682546117fb565b9055600b546117fb565b600b55885194850191640c4c2e8c6d60db1b83524260258701523360601b604587015260398652606086019786891090891117610fc6575050858798528351902093868652608084015260a083015260c082015260e0429101527f931d979b8e8c271b286b1b7e3950d92607b3b3528c79f5ed2d03742bb5ae50ab60a03393a46001815580f35b634e487b7160e01b89526041905287fd5b50634e487b7160e01b88526011825287fd5b90944260c0610ff9888b866119e4565b01351115611083576110778661107d926110248b61101b60a0948592896119e4565b0135151561170c565b61107261103b366110368c8f8a6119e4565b6115c9565b9261106760018060a01b03610b5561105582885116611b4c565b9161105f88611a30565b875116611b4c565b930151831015611882565b6117fb565b956118d7565b90610edb565b8a5162461bcd60e51b8152808501889052600d818501526c151c98591948195e1c1a5c9959609a1b6044820152606490fd5b6017606492858a519362461bcd60e51b85528401528201527f4d617820313020747261646573207065722062617463680000000000000000006044820152fd5b5050346102e957816003193601126102e95760209060ff600d5460a81c1690519015158152f35b5050346102e957816003193601126102e95760209051683635c9adc5dea000008152f35b5050346102e957816003193601126102e957602090600b549051908152f35b5050346102e95760203660031901126102e95761117a6114c7565b6111826114f6565b6001600160a01b0316825260066020528120805460ff1916905580f35b5050346102e957816003193601126102e95760209060ff60015460a01c1690519015158152f35b5034610213576020366003190112610213576111e06114c7565b6111e86114f6565b6001600160a01b03169182156112105750506001600160601b0360a01b600d541617600d5580f35b906020606492519162461bcd60e51b8352820152600e60248201526d496e76616c6964206f7261636c6560901b6044820152fd5b5050346102e957816003193601126102e95760207f62e78cea01bee320cd4e420270b5ea74000d11b0c9f74754ebdbfc544b05a258916112826114f6565b61128a6119a0565b6001805460ff60a01b1916600160a01b17905551338152a180f35b508290346102e95760209081600319360112610213576080936001600160a01b036112ce6114c7565b168452600383528084205493828452683635c9adc5dea0000082808320549260058752818120549587522054109382519586528501528301526060820152f35b5050346102e95760203660031901126102e95760209181906001600160a01b036113366114c7565b1681526005845220549051908152f35b503461021357826003193601126102135761135f6114f6565b6001549060ff8260a01c16156113a7575060ff60a01b1916600155513381527f5db9ee0a495bf2e6ff9c91a7834c1ba4fdd244a5e8aa4e537bd38aeae4b073aa90602090a180f35b8251638dfc202b60e01b8152fd5b5050346102e957816003193601126102e9576020905168056bc75e2d631000008152f35b5050346102e957816003193601126102e957602090600a549051908152f35b5050346102e957816003193601126102e957600d5490516001600160a01b039091168152602090f35b50346102135760203660031901126102135761143b6114c7565b6114436114f6565b6001600160a01b031690811561146b5750825260066020528120805460ff1916600117905580f35b606490602084519162461bcd60e51b8352820152600b60248201526a092dcecc2d8d2c840888ab60ab1b6044820152fd5b9291905034610cbf576020366003190112610cbf573583526002602090815292205460ff1615158152f35b600435906001600160a01b03821682036114dd57565b600080fd5b35906001600160a01b03821682036114dd57565b6001546001600160a01b0316330361150a57565b60405163118cdaa760e01b8152336004820152602490fd5b60a0810190811067ffffffffffffffff82111761153e57604052565b634e487b7160e01b600052604160045260246000fd5b90601f8019910116810190811067ffffffffffffffff82111761153e57604052565b67ffffffffffffffff811161153e57601f01601f191660200190565b92919261159e82611576565b916115ac6040519384611554565b8294818452818301116114dd578281602093846000960137010152565b919060e0838203126114dd576040519067ffffffffffffffff60e083018181118482101761153e5760405282946115ff816114e2565b845260209161160f8383016114e2565b838601526040820135604086015260608201358181116114dd57820184601f820112156114dd5780359082821161153e578160051b6040519261165487830185611554565b83528580840191830101918783116114dd5786809101915b8383106116be5750505050606086015260808201359081116114dd5781019183601f840112156114dd5760c093836116a8928695359101611592565b608085015260a081013560a08501520135910152565b81906116c9846114e2565b815201910190869061166c565b156116dd57565b60405162461bcd60e51b8152602060048201526007602482015266115e1c1a5c995960ca1b6044820152606490fd5b1561171357565b60405162461bcd60e51b815260206004820152600e60248201526d125b9d985b1a59081c1c9bd99a5d60921b6044820152606490fd5b1561175057565b60405162461bcd60e51b815260206004820152600a60248201526929b0b6b2903a37b5b2b760b11b6044820152606490fd5b1561178957565b60405162461bcd60e51b815260206004820152600c60248201526b4e65656420322b204445587360a01b6044820152606490fd5b156117c457565b60405162461bcd60e51b815260206004820152600f60248201526e547261646520746f6f207269736b7960881b6044820152606490fd5b9190820180921161180857565b634e487b7160e01b600052601160045260246000fd5b1561182557565b60405162461bcd60e51b815260206004820152601460248201527311185a5b1e481b1a5b5a5d08195e18d95959195960621b6044820152606490fd5b356001600160a01b03811681036114dd5790565b9190820391821161180857565b1561188957565b60405162461bcd60e51b8152602060048201526013602482015272125b9cdd59999a58da595b9d081c1c9bd99a5d606a1b6044820152606490fd5b8181029291811591840414171561180857565b60001981146118085760010190565b60405163a9059cbb60e01b60208201526001600160a01b039092166024830152604480830193909352918152608081019167ffffffffffffffff83118284101761153e5761193692604052611938565b565b906000602091828151910182855af115611994576000513d61198b57506001600160a01b0381163b155b6119695750565b604051635274afe760e01b81526001600160a01b039091166004820152602490fd5b60011415611962565b6040513d6000823e3d90fd5b60ff60015460a01c166119af57565b60405163d93c066560e01b8152600490fd5b6002600054146119d2576002600055565b604051633ee5aeb560e01b8152600490fd5b9190811015611a065760051b8101359060de19813603018212156114dd570190565b634e487b7160e01b600052603260045260246000fd5b8051821015611a065760209160051b010190565b60005b6060820180518051831015611b46576001600160a01b03908190611a58908590611a1c565b51166000526020916006835260409160ff83600020541615611b0d576000918291611a898760808a01519351611a1c565b511682868351930191620493e0f13d15611b08573d611aa781611576565b90611ab484519283611554565b81526000843d92013e5b15611ad3575050611ace906118d7565b611a33565b60649250519062461bcd60e51b82526004820152600f60248201526e111156081cddd85c0819985a5b1959608a1b6044820152fd5b611abe565b825162461bcd60e51b8152600481018590526012602482015271111156081b9bdd08185d5d1a1bdc9a5e995960721b6044820152606490fd5b50505050565b6040516370a0823160e01b815230600482015290602090829060249082906001600160a01b03165afa90811561199457600091611b87575090565b906020823d8211611bad575b81611ba060209383611554565b81010312610e6457505190565b3d9150611b93565b6001600160a01b0316600081815260056020526040812054909190620151808101908110611bf5574211611be7575050565b815260046020526040812055565b634e487b7160e01b83526011600452602483fdfea2646970667358221220fcaa4bcd4844557b4e3deeb344d819149bd262122b31215effdc3d996bd05cc364736f6c63430008140033",
  "linkReferences": {},
  "deployedLinkReferences": {}
}