{
  "_format": "hh-sol-artifact-1",
  "contractName": "MockUniswapV2Factory",
  "sourceName": "src/mocks/MockUniswapV2Factory.sol",
  "abi": [
    {
      "anonymous": false,
      "inputs": [
        {
          "indexed": true,
          "internalType": "address",
          "name": "token0",
          "type": "address"
        },
        {
          "indexed": true,
          "internalType": "address",
          "name": "token1",
          "type": "address"
        },
        {
          "indexed": false,
          "internalType": "address",
          "name": "pair",
          "type": "address"
        },
        {
          "indexed": false,
          "internalType": "uint256",
          "name": "",
          "type": "uint256"
        }
      ],
      "name": "PairCreated",
      "type": "event"
    },
    {
      "inputs": [
        {
          "internalType": "uint256",
          "name": "",
          "type": "uint256"
        }
      ],
      "name": "allPairs",
      "outputs": [
        {
          "internalType": "address",
          "name": "",
          "type": "address"
        }
      ],
      "stateMutability": "view",
      "type": "function"
    },
    {
      "inputs": [],
      "name": "allPairsLength",
      "outputs": [
        {
          "internalType": "uint256",
          "name": "",
          "type": "uint256"
        }
      ],
      "stateMutability": "view",
      "type": "function"
    },
    {
      "inputs": [
        {
          "internalType": "address",
          "name": "tokenA",
          "type": "address"
        },
        {
          "internalType": "address",
          "name": "tokenB",
          "type": "address"
        }
      ],
      "name": "createPair",
      "outputs": [
        {
          "internalType": "address",
          "name": "pair",
          "type": "address"
        }
      ],
      "stateMutability": "nonpayable",
      "type": "function"
    },
    {
      "inputs": [
        {
          "internalType": "address",
          "name": "",
          "type": "address"
        },
        {
          "internalType": "address",
          "name": "",
          "type": "address"
        }
      ],
      "name": "getPair",
      "outputs": [
        {
          "internalType": "address",
          "name": "",
          "type": "address"
        }
      ],
      "stateMutability": "view",
      "type": "function"
    }
  ],
  "bytecode": "0x6080806040523461001657610416908161001c8239f35b600080fdfe6040608081526004908136101561001557600080fd5b600091823560e01c9081631e3dd18b1461031a578163574f2ba3146102fb578163c9c653961461009c575063e6a439051461004f57600080fd5b346100985780600319360112610098576020918161006b6103af565b916100746103ca565b6001600160a01b039384168252818652828220908416825285522054915191168152f35b5080fd5b8383346100985780600319360112610098576100b66103af565b926100bf6103ca565b6001600160a01b03949091908583168187168082146102b85710156102b25791945b80831691821561026f578286526020968688528587209483821695868952895283878920541661023357865190898201926bffffffffffffffffffffffff19809260601b16845260601b166034820152426048820152604881526080810181811067ffffffffffffffff82111761022057908492918852519020169583815280885285812085825288528581206bffffffffffffffffffffffff60a01b90888282541617905581895286822085835289528787832091825416179055600154916801000000000000000083101561020d5750508060016101c49201600155610362565b819291549060031b9187831b921b19161790557f0d3648bd0f6ba80134a33ba9275ac585d9d315f0ad8355cddefde31afa28d0e98360015481519087825288820152a351908152f35b634e487b7160e01b825260419052602490fd5b634e487b7160e01b895260418452602489fd5b865162461bcd60e51b81528084018a90526016602482015275556e697377617056323a20504149525f45584953545360501b6044820152606490fd5b606490602086519162461bcd60e51b8352820152601760248201527f556e697377617056323a205a45524f5f414444524553530000000000000000006044820152fd5b946100e1565b855162461bcd60e51b8152602081860152601e60248201527f556e697377617056323a204944454e544943414c5f41444452455353455300006044820152606490fd5b5050346100985781600319360112610098576020906001549051908152f35b90503461035e57602036600319011261035e57359160015483101561035b5750610345602092610362565b905491519160018060a01b039160031b1c168152f35b80fd5b8280fd5b6001548110156103995760016000527fb10e2d527612073b26eecdfd717e6a320cf44b4afac2b0732d9fcbe2b7fa0cf60190600090565b634e487b7160e01b600052603260045260246000fd5b600435906001600160a01b03821682036103c557565b600080fd5b602435906001600160a01b03821682036103c55756fea2646970667358221220b81d57f1f437410025849a9e93aa992e4e33c06589baa4760ffca12093c2c54264736f6c63430008140033",
  "linkReferences": {},
  "deployedLinkReferences": {}
}