{"src/adapters/UniswapV2Adapter.sol":{"UniswapV2Adapter":{"abi":[{"inputs":[{"internalType":"address","name":"_router","type":"address"},{"internalType":"address","name":"_factory","type":"address"},{"internalType":"address","name":"_weth","type":"address"}],"stateMutability":"nonpayable","type":"constructor"},{"inputs":[],"name":"ReentrancyGuardReentrantCall","type":"error"},{"inputs":[{"internalType":"address","name":"token","type":"address"}],"name":"SafeERC20FailedOperation","type":"error"},{"anonymous":false,"inputs":[{"indexed":true,"internalType":"address","name":"pool","type":"address"},{"indexed":true,"internalType":"address","name":"tokenA","type":"address"},{"indexed":true,"internalType":"address","name":"tokenB","type":"address"},{"indexed":false,"internalType":"string","name":"dexName","type":"string"}],"name":"LiquidityPoolRegistered","type":"event"},{"anonymous":false,"inputs":[{"indexed":true,"internalType":"address","name":"tokenIn","type":"address"},{"indexed":true,"internalType":"address","name":"tokenOut","type":"address"},{"indexed":false,"internalType":"uint256","name":"amountIn","type":"uint256"},{"indexed":false,"internalType":"uint256","name":"amountOut","type":"uint256"},{"indexed":true,"internalType":"address","name":"executor","type":"address"}],"name":"SwapExecuted","type":"event"},{"inputs":[],"name":"BASIS_POINTS","outputs":[{"internalType":"uint256","name":"","type":"uint256"}],"stateMutability":"view","type":"function"},{"inputs":[],"name":"DEX_NAME","outputs":[{"internalType":"string","name":"","type":"string"}],"stateMutability":"view","type":"function"},{"inputs":[],"name":"SWAP_FEE","outputs":[{"internalType":"uint256","name":"","type":"uint256"}],"stateMutability":"view","type":"function"},{"inputs":[],"name":"VERSION","outputs":[{"internalType":"string","name":"","type":"string"}],"stateMutability":"view","type":"function"},{"inputs":[],"name":"WETH","outputs":[{"internalType":"address","name":"","type":"address"}],"stateMutability":"view","type":"function"},{"inputs":[{"components":[{"internalType":"address","name":"tokenIn","type":"address"},{"internalType":"address","name":"tokenOut","type":"address"},{"internalType":"uint256","name":"amountIn","type":"uint256"},{"internalType":"uint256","name":"amountOutMinimum","type":"uint256"},{"internalType":"uint256","name":"deadline","type":"uint256"},{"internalType":"bytes","name":"routeData","type":"bytes"}],"internalType":"struct SwapParams","name":"params","type":"tuple"}],"name":"estimateGas","outputs":[{"internalType":"uint256","name":"gasEstimate","type":"uint256"}],"stateMutability":"view","type":"function"},{"inputs":[],"name":"factory","outputs":[{"internalType":"contract IUniswapV2Factory","name":"","type":"address"}],"stateMutability":"view","type":"function"},{"inputs":[{"internalType":"address","name":"tokenA","type":"address"},{"internalType":"address","name":"tokenB","type":"address"}],"name":"getAvailablePools","outputs":[{"internalType":"address[]","name":"pools","type":"address[]"},{"internalType":"uint256[][]","name":"reserves","type":"uint256[][]"}],"stateMutability":"view","type":"function"},{"inputs":[{"internalType":"address","name":"tokenIn","type":"address"},{"internalType":"address","name":"tokenOut","type":"address"},{"internalType":"uint256","name":"amountIn","type":"uint256"}],"name":"getBestRoute","outputs":[{"internalType":"bytes","name":"route","type":"bytes"},{"internalType":"uint256","name":"expectedOutput","type":"uint256"}],"stateMutability":"view","type":"function"},{"inputs":[],"name":"getDEXName","outputs":[{"internalType":"string","name":"name","type":"string"}],"stateMutability":"pure","type":"function"},{"inputs":[{"components":[{"internalType":"address","name":"tokenIn","type":"address"},{"internalType":"address","name":"tokenOut","type":"address"},{"internalType":"uint256","name":"amountIn","type":"uint256"},{"internalType":"bytes","name":"routeData","type":"bytes"}],"internalType":"struct QuoteParams","name":"params","type":"tuple"}],"name":"getQuote","outputs":[{"internalType":"uint256","name":"amountOut","type":"uint256"},{"internalType":"uint256","name":"priceImpact","type":"uint256"}],"stateMutability":"view","type":"function"},{"inputs":[{"internalType":"address","name":"","type":"address"},{"internalType":"address","name":"","type":"address"},{"internalType":"address","name":"","type":"address"}],"name":"getSwapFee","outputs":[{"internalType":"uint256","name":"fee","type":"uint256"}],"stateMutability":"pure","type":"function"},{"inputs":[],"name":"getVersion","outputs":[{"internalType":"string","name":"version","type":"string"}],"stateMutability":"pure","type":"function"},{"inputs":[{"internalType":"address","name":"tokenA","type":"address"},{"internalType":"address","name":"tokenB","type":"address"}],"name":"isTokenPairSupported","outputs":[{"internalType":"bool","name":"supported","type":"bool"}],"stateMutability":"view","type":"function"},{"inputs":[],"name":"router","outputs":[{"internalType":"contract IUniswapV2Router02","name":"","type":"address"}],"stateMutability":"view","type":"function"},{"inputs":[{"components":[{"internalType":"address","name":"tokenIn","type":"address"},{"internalType":"address","name":"tokenOut","type":"address"},{"internalType":"uint256","name":"amountIn","type":"uint256"},{"internalType":"uint256","name":"amountOutMinimum","type":"uint256"},{"internalType":"uint256","name":"deadline","type":"uint256"},{"internalType":"bytes","name":"routeData","type":"bytes"}],"internalType":"struct SwapParams","name":"params","type":"tuple"}],"name":"swap","outputs":[{"internalType":"uint256","name":"amountOut","type":"uint256"}],"stateMutability":"nonpayable","type":"function"}],"evm":{"bytecode":{"linkReferences":{},"object":"60e034620001d657601f620015c038819003918201601f191683019291906001600160401b03841183851017620001db578160609284926040968752833981010312620001d6576200005181620001f1565b6200006c836200006460208501620001f1565b9301620001f1565b6001600055916001600160a01b03918216908115620001935782169182156200014557831615620001015760805260a05260c052516113b990816200020782396080518181816101a0015281816102620152818161037b0152610952015260a0518181816106250152818161087c01528181610f420152818161110c01526111a2015260c051818181610a4901526110a90152f35b835162461bcd60e51b815260206004820152601e60248201527f556e69737761705632416461707465723a20496e76616c6964205745544800006044820152606490fd5b845162461bcd60e51b815260206004820152602160248201527f556e69737761705632416461707465723a20496e76616c696420666163746f726044820152607960f81b6064820152608490fd5b6064855162461bcd60e51b815260206004820152602060248201527f556e69737761705632416461707465723a20496e76616c696420726f757465726044820152fd5b600080fd5b634e487b7160e01b600052604160045260246000fd5b51906001600160a01b0382168203620001d65756fe60806040818152600436101561001457600080fd5b600091823560e01c9081630d601f2114610b5c575080630d8e6e2c14610b3c5780632be55ff814610b1b57806371204cff14610adb578063768aebde14610ac05780637839abec14610a78578063ad5c464814610a35578063bc94392214610a05578063bd8b8182146108ab578063c45a015514610868578063c522894c146105bd578063d0394e5c146102ad578063e1f1c4a714610291578063f887ea401461024e578063faa55b6d1461011d5763ffa1ad74146100d257600080fd5b346101195781600319360112610119578051610115916100f182610b79565b60058252640312e302e360dc1b602083015251918291602083526020830190610c21565b0390f35b5080fd5b50346101195760603660031901126101195761014861013a610c98565b610142610cae565b9061101d565b9161019c818351946020808701526101748661016687820184610cc4565b03601f198101885287610bff565b84518093819263d06ca61f60e01b835260443560048401528760248401526044830190610cc4565b03817f00000000000000000000000000000000000000000000000000000000000000006001600160a01b03165afa82918161022a575b506101f657505b6101ec8251938385948552840190610c21565b9060208301520390f35b805160001981019290831161021657509061021091610e66565b516101d9565b634e487b7160e01b81526011600452602490fd5b6102479192503d8085833e61023f8183610bff565b810190610db7565b90386101d2565b5034610119578160031936011261011957517f00000000000000000000000000000000000000000000000000000000000000006001600160a01b03168152602090f35b5034610119578160031936011261011957602090516127108152f35b5034610119576102bc36610c61565b9060028354146105ad576002835580820135916102da831515610d01565b426080820135106105695761030b6103066102f483610d4c565b61030060208501610d4c565b90610f01565b610d60565b6001600160a01b03908161031e82610d4c565b84516323b872dd60e01b602082015233602482015230604482015260648082018890528152911660a0820167ffffffffffffffff8111838210176105555785526103689190610e7a565b84806104318461037785610d4c565b16857f000000000000000000000000000000000000000000000000000000000000000016908751602081019160208663095ea7b360e01b948581528660248601528d6044860152604485526103cb85610be3565b84519082855af186513d82610539575b5050156104fe575b5050506103fe6103f286610d4c565b61014260208801610d4c565b87519485809481936338ed173960e01b83528c600484015260608a0135602484015260a0604484015260a4830190610cc4565b3360648301526080890135608483015203925af19081156104f45786916104da575b5080516000198101919082116104c657916104746001949260209894610e66565b51957fee4825a7988c5519a874be79f2a84d13d02cfe5f74cad97cda2d5b55d2b13bfa866104ac8a6104a586610d4c565b9501610d4c565b948151938452898b85015280339616941692a45551908152f35b634e487b7160e01b87526011600452602487fd5b6104ee91503d8088833e61023f8183610bff565b38610453565b84513d88823e3d90fd5b61052c610531938b519060208201528560248201528760448201526044815261052681610be3565b82610e7a565b610e7a565b3880806103e3565b90915061054d5750803b15155b38806103db565b600114610546565b634e487b7160e01b88526041600452602488fd5b815162461bcd60e51b815260206004820152601960248201527f556e69737761705632416461707465723a2045787069726564000000000000006044820152606490fd5b51633ee5aeb560e01b8152600490fd5b50346101195780600319360112610119576105d6610c98565b916106126105e2610cae565b835163e6a4390560e01b81526001600160a01b039586166004820152941660248501526020939081906044820190565b6001600160a01b039291869183919003817f000000000000000000000000000000000000000000000000000000000000000086165afa90811561085e578391610831575b50169081156108095782519161066b83610b79565b600183528436818501378351839161068282610b79565b6001825286845b8181106107f95750506060816004926106a28598610e33565b528751630240bc6b60e21b815292839182905afa80156107ef5761072161073794939261072792879188916107be575b5089516106de81610bc7565b600281528a368d8301376106f186610e33565b526106fb85610e33565b506001600160701b0380921661071961071387610e33565b51610e33565b521692610e33565b51610e56565b525b845194808652850190610cc4565b93838503818501528251908186528086019281808460051b890101950193815b8483106107645787870388f35b90919280949596601f198a820301845287519082808351928381520192019084905b8082106107a55750505090806001929801930193019194939290610757565b9193806001929486518152019401920187939291610786565b90506107e1915060603d81116107e8575b6107d98183610bff565b810190610fb5565b50386106d2565b503d6107cf565b86513d86823e3d90fd5b6060828286010152018790610689565b9050815161081681610bab565b81815290610737835161082881610bab565b82815292610729565b6108519150853d8711610857575b6108498183610bff565b810190610ee2565b38610656565b503d61083f565b84513d85823e3d90fd5b5034610119578160031936011261011957517f00000000000000000000000000000000000000000000000000000000000000006001600160a01b03168152602090f35b509034610a02576003196020368201126101195760043567ffffffffffffffff81116109fe576080816004019282360301126109fe576044810135906108f2821515610d01565b61090f610306602461090386610d4c565b93019261030084610d4c565b61094e8461092861091f86610d4c565b61014285610d4c565b87518093819263d06ca61f60e01b83528760048401528a60248401526044830190610cc4565b03817f00000000000000000000000000000000000000000000000000000000000000006001600160a01b03165afa8591816109e2575b5061099d57505050506127105b82519182526020820152f35b805193949293919260001983019283116102165750916109d76109c86109dd95936109d19795610e66565b51958694610d4c565b91610d4c565b90611164565b610991565b6109f79192503d8088833e61023f8183610bff565b9038610984565b8280fd5b80fd5b5034610119578060031936011261011957602090610a2c610a24610c98565b610300610cae565b90519015158152f35b5034610119578160031936011261011957517f00000000000000000000000000000000000000000000000000000000000000006001600160a01b03168152602090f35b5034610119578160031936011261011957805161011591610a9882610b79565b60098252682ab734b9bbb0b82b1960b91b602083015251918291602083526020830190610c21565b503461011957816003193601126101195760209051601e8152f35b503461011957606036600319011261011957610af5610c98565b50610afe610cae565b506044356001600160a01b038116036101195760209051601e8152f35b503461011957602090610b35610b3036610c61565b610feb565b9051908152f35b50346101195781600319360112610119578051610115916100f182610b79565b919050346109fe57826003193601126109fe576101159250610a98825b6040810190811067ffffffffffffffff821117610b9557604052565b634e487b7160e01b600052604160045260246000fd5b6020810190811067ffffffffffffffff821117610b9557604052565b6060810190811067ffffffffffffffff821117610b9557604052565b6080810190811067ffffffffffffffff821117610b9557604052565b90601f8019910116810190811067ffffffffffffffff821117610b9557604052565b919082519283825260005b848110610c4d575050826000602080949584010152601f8019910116010190565b602081830181015184830182015201610c2c565b60031990602081830112610c93576004359167ffffffffffffffff8311610c93578260c092030112610c935760040190565b600080fd5b600435906001600160a01b0382168203610c9357565b602435906001600160a01b0382168203610c9357565b90815180825260208080930193019160005b828110610ce4575050505090565b83516001600160a01b031685529381019392810192600101610cd6565b15610d0857565b606460405162461bcd60e51b815260206004820152602060248201527f556e69737761705632416461707465723a20496e76616c696420616d6f756e746044820152fd5b356001600160a01b0381168103610c935790565b15610d6757565b60405162461bcd60e51b815260206004820152602260248201527f556e69737761705632416461707465723a20556e737570706f7274656420706160448201526134b960f11b6064820152608490fd5b906020908183820312610c9357825167ffffffffffffffff93848211610c93570181601f82011215610c93578051938411610b95578360051b9060405194610e0185840187610bff565b85528380860192820101928311610c93578301905b828210610e24575050505090565b81518152908301908301610e16565b805115610e405760200190565b634e487b7160e01b600052603260045260246000fd5b805160011015610e405760400190565b8051821015610e405760209160051b010190565b906000602091828151910182855af115610ed6576000513d610ecd57506001600160a01b0381163b155b610eab5750565b604051635274afe760e01b81526001600160a01b039091166004820152602490fd5b60011415610ea4565b6040513d6000823e3d90fd5b90816020910312610c9357516001600160a01b0381168103610c935790565b6001600160a01b03919082811683831614610f995760405163e6a4390560e01b81526001600160a01b039182166004820152911660248201526020816044817f000000000000000000000000000000000000000000000000000000000000000086165afa908115610ed657600091610f7b575b5016151590565b610f93915060203d8111610857576108498183610bff565b38610f74565b505050600090565b51906001600160701b0382168203610c9357565b90816060910312610c9357610fc981610fa1565b916040610fd860208401610fa1565b92015163ffffffff81168103610c935790565b61100a906110046020610ffd83610d4c565b9201610d4c565b906110de565b1561101657620249f090565b6203d09090565b919061102981846110de565b1561106c576040519261103b84610bc7565b6002845260403660208601376110668461105481610e33565b6001600160a01b039384169052610e56565b91169052565b6040519061107982610be3565b600382526060366020840137819361109083610e33565b6001600160a01b0391821690526110a683610e56565b817f0000000000000000000000000000000000000000000000000000000000000000169052825160021015610e405760609116910152565b60405163e6a4390560e01b81526001600160a01b0391821660048201529181166024830152906020816044817f000000000000000000000000000000000000000000000000000000000000000086165afa908115610ed657600091610f7b575016151590565b811561114e570490565b634e487b7160e01b600052601260045260246000fd5b6040805163e6a4390560e01b81526001600160a01b0383811660048084019190915294811660248301529396959491939192602092909183816044817f000000000000000000000000000000000000000000000000000000000000000086165afa9081156113785790829160009161135b575b501694851561134d578051630240bc6b60e21b8152936060858b818a5afa96871561134257908a91600096879961131d575b508190845193848092630dfe168160e01b82525afa9283156113135750908392916000926112f6575b5050169116146000146112e3576001600160701b038091169216905b8181029181830414901517156112c2579061126891611144565b90808211156112d757808203908282116112c2576127108083029283041490831417156112ad5761129a929350611144565b905b6127108083116112a95750565b9150565b601184634e487b7160e01b6000525260246000fd5b601185634e487b7160e01b6000525260246000fd5b5050905060009061129c565b6001600160701b0392831692169061124e565b61130c9250803d10610857576108498183610bff565b3880611232565b513d6000823e3d90fd5b61133991995082975060603d81116107e8576107d98183610bff565b50989096611209565b82513d6000823e3d90fd5b506127109750505050505050565b6113729150853d8711610857576108498183610bff565b386111d7565b86513d6000823e3d90fdfea2646970667358221220ed3e8b3887dc7156ac8c8921cdacff629a319bb9d72995673b9613d2ad7e6c9164736f6c63430008140033","opcodes":"PUSH1 0xE0 CALLVALUE PUSH3 0x1D6 JUMPI PUSH1 0x1F PUSH3 0x15C0 CODESIZE DUP2 SWAP1 SUB SWAP2 DUP3 ADD PUSH1 0x1F NOT AND DUP4 ADD SWAP3 SWAP2 SWAP1 PUSH1 0x1 PUSH1 0x1 PUSH1 0x40 SHL SUB DUP5 GT DUP4 DUP6 LT OR PUSH3 0x1DB JUMPI DUP2 PUSH1 0x60 SWAP3 DUP5 SWAP3 PUSH1 0x40 SWAP7 DUP8 MSTORE DUP4 CODECOPY DUP2 ADD SUB SLT PUSH3 0x1D6 JUMPI PUSH3 0x51 DUP2 PUSH3 0x1F1 JUMP JUMPDEST PUSH3 0x6C DUP4 PUSH3 0x64 PUSH1 0x20 DUP6 ADD PUSH3 0x1F1 JUMP JUMPDEST SWAP4 ADD PUSH3 0x1F1 JUMP JUMPDEST PUSH1 0x1 PUSH1 0x0 SSTORE SWAP2 PUSH1 0x1 PUSH1 0x1 PUSH1 0xA0 SHL SUB SWAP2 DUP3 AND SWAP1 DUP2 ISZERO PUSH3 0x193 JUMPI DUP3 AND SWAP2 DUP3 ISZERO PUSH3 0x145 JUMPI DUP4 AND ISZERO PUSH3 0x101 JUMPI PUSH1 0x80 MSTORE PUSH1 0xA0 MSTORE PUSH1 0xC0 MSTORE MLOAD PUSH2 0x13B9 SWAP1 DUP2 PUSH3 0x207 DUP3 CODECOPY PUSH1 0x80 MLOAD DUP2 DUP2 DUP2 PUSH2 0x1A0 ADD MSTORE DUP2 DUP2 PUSH2 0x262 ADD MSTORE DUP2 DUP2 PUSH2 0x37B ADD MSTORE PUSH2 0x952 ADD MSTORE PUSH1 0xA0 MLOAD DUP2 DUP2 DUP2 PUSH2 0x625 ADD MSTORE DUP2 DUP2 PUSH2 0x87C ADD MSTORE DUP2 DUP2 PUSH2 0xF42 ADD MSTORE DUP2 DUP2 PUSH2 0x110C ADD MSTORE PUSH2 0x11A2 ADD MSTORE PUSH1 0xC0 MLOAD DUP2 DUP2 DUP2 PUSH2 0xA49 ADD MSTORE PUSH2 0x10A9 ADD MSTORE RETURN JUMPDEST DUP4 MLOAD PUSH3 0x461BCD PUSH1 0xE5 SHL DUP2 MSTORE PUSH1 0x20 PUSH1 0x4 DUP3 ADD MSTORE PUSH1 0x1E PUSH1 0x24 DUP3 ADD MSTORE PUSH32 0x556E69737761705632416461707465723A20496E76616C696420574554480000 PUSH1 0x44 DUP3 ADD MSTORE PUSH1 0x64 SWAP1 REVERT JUMPDEST DUP5 MLOAD PUSH3 0x461BCD PUSH1 0xE5 SHL DUP2 MSTORE PUSH1 0x20 PUSH1 0x4 DUP3 ADD MSTORE PUSH1 0x21 PUSH1 0x24 DUP3 ADD MSTORE PUSH32 0x556E69737761705632416461707465723A20496E76616C696420666163746F72 PUSH1 0x44 DUP3 ADD MSTORE PUSH1 0x79 PUSH1 0xF8 SHL PUSH1 0x64 DUP3 ADD MSTORE PUSH1 0x84 SWAP1 REVERT JUMPDEST PUSH1 0x64 DUP6 MLOAD PUSH3 0x461BCD PUSH1 0xE5 SHL DUP2 MSTORE PUSH1 0x20 PUSH1 0x4 DUP3 ADD MSTORE PUSH1 0x20 PUSH1 0x24 DUP3 ADD MSTORE PUSH32 0x556E69737761705632416461707465723A20496E76616C696420726F75746572 PUSH1 0x44 DUP3 ADD MSTORE REVERT JUMPDEST PUSH1 0x0 DUP1 REVERT JUMPDEST PUSH4 0x4E487B71 PUSH1 0xE0 SHL PUSH1 0x0 MSTORE PUSH1 0x41 PUSH1 0x4 MSTORE PUSH1 0x24 PUSH1 0x0 REVERT JUMPDEST MLOAD SWAP1 PUSH1 0x1 PUSH1 0x1 PUSH1 0xA0 SHL SUB DUP3 AND DUP3 SUB PUSH3 0x1D6 JUMPI JUMP INVALID PUSH1 0x80 PUSH1 0x40 DUP2 DUP2 MSTORE PUSH1 0x4 CALLDATASIZE LT ISZERO PUSH2 0x14 JUMPI PUSH1 0x0 DUP1 REVERT JUMPDEST PUSH1 0x0 SWAP2 DUP3 CALLDATALOAD PUSH1 0xE0 SHR SWAP1 DUP2 PUSH4 0xD601F21 EQ PUSH2 0xB5C JUMPI POP DUP1 PUSH4 0xD8E6E2C EQ PUSH2 0xB3C JUMPI DUP1 PUSH4 0x2BE55FF8 EQ PUSH2 0xB1B JUMPI DUP1 PUSH4 0x71204CFF EQ PUSH2 0xADB JUMPI DUP1 PUSH4 0x768AEBDE EQ PUSH2 0xAC0 JUMPI DUP1 PUSH4 0x7839ABEC EQ PUSH2 0xA78 JUMPI DUP1 PUSH4 0xAD5C4648 EQ PUSH2 0xA35 JUMPI DUP1 PUSH4 0xBC943922 EQ PUSH2 0xA05 JUMPI DUP1 PUSH4 0xBD8B8182 EQ PUSH2 0x8AB JUMPI DUP1 PUSH4 0xC45A0155 EQ PUSH2 0x868 JUMPI DUP1 PUSH4 0xC522894C EQ PUSH2 0x5BD JUMPI DUP1 PUSH4 0xD0394E5C EQ PUSH2 0x2AD JUMPI DUP1 PUSH4 0xE1F1C4A7 EQ PUSH2 0x291 JUMPI DUP1 PUSH4 0xF887EA40 EQ PUSH2 0x24E JUMPI DUP1 PUSH4 0xFAA55B6D EQ PUSH2 0x11D JUMPI PUSH4 0xFFA1AD74 EQ PUSH2 0xD2 JUMPI PUSH1 0x0 DUP1 REVERT JUMPDEST CALLVALUE PUSH2 0x119 JUMPI DUP2 PUSH1 0x3 NOT CALLDATASIZE ADD SLT PUSH2 0x119 JUMPI DUP1 MLOAD PUSH2 0x115 SWAP2 PUSH2 0xF1 DUP3 PUSH2 0xB79 JUMP JUMPDEST PUSH1 0x5 DUP3 MSTORE PUSH5 0x312E302E3 PUSH1 0xDC SHL PUSH1 0x20 DUP4 ADD MSTORE MLOAD SWAP2 DUP3 SWAP2 PUSH1 0x20 DUP4 MSTORE PUSH1 0x20 DUP4 ADD SWAP1 PUSH2 0xC21 JUMP JUMPDEST SUB SWAP1 RETURN JUMPDEST POP DUP1 REVERT JUMPDEST POP CALLVALUE PUSH2 0x119 JUMPI PUSH1 0x60 CALLDATASIZE PUSH1 0x3 NOT ADD SLT PUSH2 0x119 JUMPI PUSH2 0x148 PUSH2 0x13A PUSH2 0xC98 JUMP JUMPDEST PUSH2 0x142 PUSH2 0xCAE JUMP JUMPDEST SWAP1 PUSH2 0x101D JUMP JUMPDEST SWAP2 PUSH2 0x19C DUP2 DUP4 MLOAD SWAP5 PUSH1 0x20 DUP1 DUP8 ADD MSTORE PUSH2 0x174 DUP7 PUSH2 0x166 DUP8 DUP3 ADD DUP5 PUSH2 0xCC4 JUMP JUMPDEST SUB PUSH1 0x1F NOT DUP2 ADD DUP9 MSTORE DUP8 PUSH2 0xBFF JUMP JUMPDEST DUP5 MLOAD DUP1 SWAP4 DUP2 SWAP3 PUSH4 0xD06CA61F PUSH1 0xE0 SHL DUP4 MSTORE PUSH1 0x44 CALLDATALOAD PUSH1 0x4 DUP5 ADD MSTORE DUP8 PUSH1 0x24 DUP5 ADD MSTORE PUSH1 0x44 DUP4 ADD SWAP1 PUSH2 0xCC4 JUMP JUMPDEST SUB DUP2 PUSH32 0x0 PUSH1 0x1 PUSH1 0x1 PUSH1 0xA0 SHL SUB AND GAS STATICCALL DUP3 SWAP2 DUP2 PUSH2 0x22A JUMPI JUMPDEST POP PUSH2 0x1F6 JUMPI POP JUMPDEST PUSH2 0x1EC DUP3 MLOAD SWAP4 DUP4 DUP6 SWAP5 DUP6 MSTORE DUP5 ADD SWAP1 PUSH2 0xC21 JUMP JUMPDEST SWAP1 PUSH1 0x20 DUP4 ADD MSTORE SUB SWAP1 RETURN JUMPDEST DUP1 MLOAD PUSH1 0x0 NOT DUP2 ADD SWAP3 SWAP1 DUP4 GT PUSH2 0x216 JUMPI POP SWAP1 PUSH2 0x210 SWAP2 PUSH2 0xE66 JUMP JUMPDEST MLOAD PUSH2 0x1D9 JUMP JUMPDEST PUSH4 0x4E487B71 PUSH1 0xE0 SHL DUP2 MSTORE PUSH1 0x11 PUSH1 0x4 MSTORE PUSH1 0x24 SWAP1 REVERT JUMPDEST PUSH2 0x247 SWAP2 SWAP3 POP RETURNDATASIZE DUP1 DUP6 DUP4 RETURNDATACOPY PUSH2 0x23F DUP2 DUP4 PUSH2 0xBFF JUMP JUMPDEST DUP2 ADD SWAP1 PUSH2 0xDB7 JUMP JUMPDEST SWAP1 CODESIZE PUSH2 0x1D2 JUMP JUMPDEST POP CALLVALUE PUSH2 0x119 JUMPI DUP2 PUSH1 0x3 NOT CALLDATASIZE ADD SLT PUSH2 0x119 JUMPI MLOAD PUSH32 0x0 PUSH1 0x1 PUSH1 0x1 PUSH1 0xA0 SHL SUB AND DUP2 MSTORE PUSH1 0x20 SWAP1 RETURN JUMPDEST POP CALLVALUE PUSH2 0x119 JUMPI DUP2 PUSH1 0x3 NOT CALLDATASIZE ADD SLT PUSH2 0x119 JUMPI PUSH1 0x20 SWAP1 MLOAD PUSH2 0x2710 DUP2 MSTORE RETURN JUMPDEST POP CALLVALUE PUSH2 0x119 JUMPI PUSH2 0x2BC CALLDATASIZE PUSH2 0xC61 JUMP JUMPDEST SWAP1 PUSH1 0x2 DUP4 SLOAD EQ PUSH2 0x5AD JUMPI PUSH1 0x2 DUP4 SSTORE DUP1 DUP3 ADD CALLDATALOAD SWAP2 PUSH2 0x2DA DUP4 ISZERO ISZERO PUSH2 0xD01 JUMP JUMPDEST TIMESTAMP PUSH1 0x80 DUP3 ADD CALLDATALOAD LT PUSH2 0x569 JUMPI PUSH2 0x30B PUSH2 0x306 PUSH2 0x2F4 DUP4 PUSH2 0xD4C JUMP JUMPDEST PUSH2 0x300 PUSH1 0x20 DUP6 ADD PUSH2 0xD4C JUMP JUMPDEST SWAP1 PUSH2 0xF01 JUMP JUMPDEST PUSH2 0xD60 JUMP JUMPDEST PUSH1 0x1 PUSH1 0x1 PUSH1 0xA0 SHL SUB SWAP1 DUP2 PUSH2 0x31E DUP3 PUSH2 0xD4C JUMP JUMPDEST DUP5 MLOAD PUSH4 0x23B872DD PUSH1 0xE0 SHL PUSH1 0x20 DUP3 ADD MSTORE CALLER PUSH1 0x24 DUP3 ADD MSTORE ADDRESS PUSH1 0x44 DUP3 ADD MSTORE PUSH1 0x64 DUP1 DUP3 ADD DUP9 SWAP1 MSTORE DUP2 MSTORE SWAP2 AND PUSH1 0xA0 DUP3 ADD PUSH8 0xFFFFFFFFFFFFFFFF DUP2 GT DUP4 DUP3 LT OR PUSH2 0x555 JUMPI DUP6 MSTORE PUSH2 0x368 SWAP2 SWAP1 PUSH2 0xE7A JUMP JUMPDEST DUP5 DUP1 PUSH2 0x431 DUP5 PUSH2 0x377 DUP6 PUSH2 0xD4C JUMP JUMPDEST AND DUP6 PUSH32 0x0 AND SWAP1 DUP8 MLOAD PUSH1 0x20 DUP2 ADD SWAP2 PUSH1 0x20 DUP7 PUSH4 0x95EA7B3 PUSH1 0xE0 SHL SWAP5 DUP6 DUP2 MSTORE DUP7 PUSH1 0x24 DUP7 ADD MSTORE DUP14 PUSH1 0x44 DUP7 ADD MSTORE PUSH1 0x44 DUP6 MSTORE PUSH2 0x3CB DUP6 PUSH2 0xBE3 JUMP JUMPDEST DUP5 MLOAD SWAP1 DUP3 DUP6 GAS CALL DUP7 MLOAD RETURNDATASIZE DUP3 PUSH2 0x539 JUMPI JUMPDEST POP POP ISZERO PUSH2 0x4FE JUMPI JUMPDEST POP POP POP PUSH2 0x3FE PUSH2 0x3F2 DUP7 PUSH2 0xD4C JUMP JUMPDEST PUSH2 0x142 PUSH1 0x20 DUP9 ADD PUSH2 0xD4C JUMP JUMPDEST DUP8 MLOAD SWAP5 DUP6 DUP1 SWAP5 DUP2 SWAP4 PUSH4 0x38ED1739 PUSH1 0xE0 SHL DUP4 MSTORE DUP13 PUSH1 0x4 DUP5 ADD MSTORE PUSH1 0x60 DUP11 ADD CALLDATALOAD PUSH1 0x24 DUP5 ADD MSTORE PUSH1 0xA0 PUSH1 0x44 DUP5 ADD MSTORE PUSH1 0xA4 DUP4 ADD SWAP1 PUSH2 0xCC4 JUMP JUMPDEST CALLER PUSH1 0x64 DUP4 ADD MSTORE PUSH1 0x80 DUP10 ADD CALLDATALOAD PUSH1 0x84 DUP4 ADD MSTORE SUB SWAP3 GAS CALL SWAP1 DUP2 ISZERO PUSH2 0x4F4 JUMPI DUP7 SWAP2 PUSH2 0x4DA JUMPI JUMPDEST POP DUP1 MLOAD PUSH1 0x0 NOT DUP2 ADD SWAP2 SWAP1 DUP3 GT PUSH2 0x4C6 JUMPI SWAP2 PUSH2 0x474 PUSH1 0x1 SWAP5 SWAP3 PUSH1 0x20 SWAP9 SWAP5 PUSH2 0xE66 JUMP JUMPDEST MLOAD SWAP6 PUSH32 0xEE4825A7988C5519A874BE79F2A84D13D02CFE5F74CAD97CDA2D5B55D2B13BFA DUP7 PUSH2 0x4AC DUP11 PUSH2 0x4A5 DUP7 PUSH2 0xD4C JUMP JUMPDEST SWAP6 ADD PUSH2 0xD4C JUMP JUMPDEST SWAP5 DUP2 MLOAD SWAP4 DUP5 MSTORE DUP10 DUP12 DUP6 ADD MSTORE DUP1 CALLER SWAP7 AND SWAP5 AND SWAP3 LOG4 SSTORE MLOAD SWAP1 DUP2 MSTORE RETURN JUMPDEST PUSH4 0x4E487B71 PUSH1 0xE0 SHL DUP8 MSTORE PUSH1 0x11 PUSH1 0x4 MSTORE PUSH1 0x24 DUP8 REVERT JUMPDEST PUSH2 0x4EE SWAP2 POP RETURNDATASIZE DUP1 DUP9 DUP4 RETURNDATACOPY PUSH2 0x23F DUP2 DUP4 PUSH2 0xBFF JUMP JUMPDEST CODESIZE PUSH2 0x453 JUMP JUMPDEST DUP5 MLOAD RETURNDATASIZE DUP9 DUP3 RETURNDATACOPY RETURNDATASIZE SWAP1 REVERT JUMPDEST PUSH2 0x52C PUSH2 0x531 SWAP4 DUP12 MLOAD SWAP1 PUSH1 0x20 DUP3 ADD MSTORE DUP6 PUSH1 0x24 DUP3 ADD MSTORE DUP8 PUSH1 0x44 DUP3 ADD MSTORE PUSH1 0x44 DUP2 MSTORE PUSH2 0x526 DUP2 PUSH2 0xBE3 JUMP JUMPDEST DUP3 PUSH2 0xE7A JUMP JUMPDEST PUSH2 0xE7A JUMP JUMPDEST CODESIZE DUP1 DUP1 PUSH2 0x3E3 JUMP JUMPDEST SWAP1 SWAP2 POP PUSH2 0x54D JUMPI POP DUP1 EXTCODESIZE ISZERO ISZERO JUMPDEST CODESIZE DUP1 PUSH2 0x3DB JUMP JUMPDEST PUSH1 0x1 EQ PUSH2 0x546 JUMP JUMPDEST PUSH4 0x4E487B71 PUSH1 0xE0 SHL DUP9 MSTORE PUSH1 0x41 PUSH1 0x4 MSTORE PUSH1 0x24 DUP9 REVERT JUMPDEST DUP2 MLOAD PUSH3 0x461BCD PUSH1 0xE5 SHL DUP2 MSTORE PUSH1 0x20 PUSH1 0x4 DUP3 ADD MSTORE PUSH1 0x19 PUSH1 0x24 DUP3 ADD MSTORE PUSH32 0x556E69737761705632416461707465723A204578706972656400000000000000 PUSH1 0x44 DUP3 ADD MSTORE PUSH1 0x64 SWAP1 REVERT JUMPDEST MLOAD PUSH4 0x3EE5AEB5 PUSH1 0xE0 SHL DUP2 MSTORE PUSH1 0x4 SWAP1 REVERT JUMPDEST POP CALLVALUE PUSH2 0x119 JUMPI DUP1 PUSH1 0x3 NOT CALLDATASIZE ADD SLT PUSH2 0x119 JUMPI PUSH2 0x5D6 PUSH2 0xC98 JUMP JUMPDEST SWAP2 PUSH2 0x612 PUSH2 0x5E2 PUSH2 0xCAE JUMP JUMPDEST DUP4 MLOAD PUSH4 0xE6A43905 PUSH1 0xE0 SHL DUP2 MSTORE PUSH1 0x1 PUSH1 0x1 PUSH1 0xA0 SHL SUB SWAP6 DUP7 AND PUSH1 0x4 DUP3 ADD MSTORE SWAP5 AND PUSH1 0x24 DUP6 ADD MSTORE PUSH1 0x20 SWAP4 SWAP1 DUP2 SWAP1 PUSH1 0x44 DUP3 ADD SWAP1 JUMP JUMPDEST PUSH1 0x1 PUSH1 0x1 PUSH1 0xA0 SHL SUB SWAP3 SWAP2 DUP7 SWAP2 DUP4 SWAP2 SWAP1 SUB DUP2 PUSH32 0x0 DUP7 AND GAS STATICCALL SWAP1 DUP2 ISZERO PUSH2 0x85E JUMPI DUP4 SWAP2 PUSH2 0x831 JUMPI JUMPDEST POP AND SWAP1 DUP2 ISZERO PUSH2 0x809 JUMPI DUP3 MLOAD SWAP2 PUSH2 0x66B DUP4 PUSH2 0xB79 JUMP JUMPDEST PUSH1 0x1 DUP4 MSTORE DUP5 CALLDATASIZE DUP2 DUP6 ADD CALLDATACOPY DUP4 MLOAD DUP4 SWAP2 PUSH2 0x682 DUP3 PUSH2 0xB79 JUMP JUMPDEST PUSH1 0x1 DUP3 MSTORE DUP7 DUP5 JUMPDEST DUP2 DUP2 LT PUSH2 0x7F9 JUMPI POP POP PUSH1 0x60 DUP2 PUSH1 0x4 SWAP3 PUSH2 0x6A2 DUP6 SWAP9 PUSH2 0xE33 JUMP JUMPDEST MSTORE DUP8 MLOAD PUSH4 0x240BC6B PUSH1 0xE2 SHL DUP2 MSTORE SWAP3 DUP4 SWAP2 DUP3 SWAP1 GAS STATICCALL DUP1 ISZERO PUSH2 0x7EF JUMPI PUSH2 0x721 PUSH2 0x737 SWAP5 SWAP4 SWAP3 PUSH2 0x727 SWAP3 DUP8 SWAP2 DUP9 SWAP2 PUSH2 0x7BE JUMPI JUMPDEST POP DUP10 MLOAD PUSH2 0x6DE DUP2 PUSH2 0xBC7 JUMP JUMPDEST PUSH1 0x2 DUP2 MSTORE DUP11 CALLDATASIZE DUP14 DUP4 ADD CALLDATACOPY PUSH2 0x6F1 DUP7 PUSH2 0xE33 JUMP JUMPDEST MSTORE PUSH2 0x6FB DUP6 PUSH2 0xE33 JUMP JUMPDEST POP PUSH1 0x1 PUSH1 0x1 PUSH1 0x70 SHL SUB DUP1 SWAP3 AND PUSH2 0x719 PUSH2 0x713 DUP8 PUSH2 0xE33 JUMP JUMPDEST MLOAD PUSH2 0xE33 JUMP JUMPDEST MSTORE AND SWAP3 PUSH2 0xE33 JUMP JUMPDEST MLOAD PUSH2 0xE56 JUMP JUMPDEST MSTORE JUMPDEST DUP5 MLOAD SWAP5 DUP1 DUP7 MSTORE DUP6 ADD SWAP1 PUSH2 0xCC4 JUMP JUMPDEST SWAP4 DUP4 DUP6 SUB DUP2 DUP6 ADD MSTORE DUP3 MLOAD SWAP1 DUP2 DUP7 MSTORE DUP1 DUP7 ADD SWAP3 DUP2 DUP1 DUP5 PUSH1 0x5 SHL DUP10 ADD ADD SWAP6 ADD SWAP4 DUP2 JUMPDEST DUP5 DUP4 LT PUSH2 0x764 JUMPI DUP8 DUP8 SUB DUP9 RETURN JUMPDEST SWAP1 SWAP2 SWAP3 DUP1 SWAP5 SWAP6 SWAP7 PUSH1 0x1F NOT DUP11 DUP3 SUB ADD DUP5 MSTORE DUP8 MLOAD SWAP1 DUP3 DUP1 DUP4 MLOAD SWAP3 DUP4 DUP2 MSTORE ADD SWAP3 ADD SWAP1 DUP5 SWAP1 JUMPDEST DUP1 DUP3 LT PUSH2 0x7A5 JUMPI POP POP POP SWAP1 DUP1 PUSH1 0x1 SWAP3 SWAP9 ADD SWAP4 ADD SWAP4 ADD SWAP2 SWAP5 SWAP4 SWAP3 SWAP1 PUSH2 0x757 JUMP JUMPDEST SWAP2 SWAP4 DUP1 PUSH1 0x1 SWAP3 SWAP5 DUP7 MLOAD DUP2 MSTORE ADD SWAP5 ADD SWAP3 ADD DUP8 SWAP4 SWAP3 SWAP2 PUSH2 0x786 JUMP JUMPDEST SWAP1 POP PUSH2 0x7E1 SWAP2 POP PUSH1 0x60 RETURNDATASIZE DUP2 GT PUSH2 0x7E8 JUMPI JUMPDEST PUSH2 0x7D9 DUP2 DUP4 PUSH2 0xBFF JUMP JUMPDEST DUP2 ADD SWAP1 PUSH2 0xFB5 JUMP JUMPDEST POP CODESIZE PUSH2 0x6D2 JUMP JUMPDEST POP RETURNDATASIZE PUSH2 0x7CF JUMP JUMPDEST DUP7 MLOAD RETURNDATASIZE DUP7 DUP3 RETURNDATACOPY RETURNDATASIZE SWAP1 REVERT JUMPDEST PUSH1 0x60 DUP3 DUP3 DUP7 ADD ADD MSTORE ADD DUP8 SWAP1 PUSH2 0x689 JUMP JUMPDEST SWAP1 POP DUP2 MLOAD PUSH2 0x816 DUP2 PUSH2 0xBAB JUMP JUMPDEST DUP2 DUP2 MSTORE SWAP1 PUSH2 0x737 DUP4 MLOAD PUSH2 0x828 DUP2 PUSH2 0xBAB JUMP JUMPDEST DUP3 DUP2 MSTORE SWAP3 PUSH2 0x729 JUMP JUMPDEST PUSH2 0x851 SWAP2 POP DUP6 RETURNDATASIZE DUP8 GT PUSH2 0x857 JUMPI JUMPDEST PUSH2 0x849 DUP2 DUP4 PUSH2 0xBFF JUMP JUMPDEST DUP2 ADD SWAP1 PUSH2 0xEE2 JUMP JUMPDEST CODESIZE PUSH2 0x656 JUMP JUMPDEST POP RETURNDATASIZE PUSH2 0x83F JUMP JUMPDEST DUP5 MLOAD RETURNDATASIZE DUP6 DUP3 RETURNDATACOPY RETURNDATASIZE SWAP1 REVERT JUMPDEST POP CALLVALUE PUSH2 0x119 JUMPI DUP2 PUSH1 0x3 NOT CALLDATASIZE ADD SLT PUSH2 0x119 JUMPI MLOAD PUSH32 0x0 PUSH1 0x1 PUSH1 0x1 PUSH1 0xA0 SHL SUB AND DUP2 MSTORE PUSH1 0x20 SWAP1 RETURN JUMPDEST POP SWAP1 CALLVALUE PUSH2 0xA02 JUMPI PUSH1 0x3 NOT PUSH1 0x20 CALLDATASIZE DUP3 ADD SLT PUSH2 0x119 JUMPI PUSH1 0x4 CALLDATALOAD PUSH8 0xFFFFFFFFFFFFFFFF DUP2 GT PUSH2 0x9FE JUMPI PUSH1 0x80 DUP2 PUSH1 0x4 ADD SWAP3 DUP3 CALLDATASIZE SUB ADD SLT PUSH2 0x9FE JUMPI PUSH1 0x44 DUP2 ADD CALLDATALOAD SWAP1 PUSH2 0x8F2 DUP3 ISZERO ISZERO PUSH2 0xD01 JUMP JUMPDEST PUSH2 0x90F PUSH2 0x306 PUSH1 0x24 PUSH2 0x903 DUP7 PUSH2 0xD4C JUMP JUMPDEST SWAP4 ADD SWAP3 PUSH2 0x300 DUP5 PUSH2 0xD4C JUMP JUMPDEST PUSH2 0x94E DUP5 PUSH2 0x928 PUSH2 0x91F DUP7 PUSH2 0xD4C JUMP JUMPDEST PUSH2 0x142 DUP6 PUSH2 0xD4C JUMP JUMPDEST DUP8 MLOAD DUP1 SWAP4 DUP2 SWAP3 PUSH4 0xD06CA61F PUSH1 0xE0 SHL DUP4 MSTORE DUP8 PUSH1 0x4 DUP5 ADD MSTORE DUP11 PUSH1 0x24 DUP5 ADD MSTORE PUSH1 0x44 DUP4 ADD SWAP1 PUSH2 0xCC4 JUMP JUMPDEST SUB DUP2 PUSH32 0x0 PUSH1 0x1 PUSH1 0x1 PUSH1 0xA0 SHL SUB AND GAS STATICCALL DUP6 SWAP2 DUP2 PUSH2 0x9E2 JUMPI JUMPDEST POP PUSH2 0x99D JUMPI POP POP POP POP PUSH2 0x2710 JUMPDEST DUP3 MLOAD SWAP2 DUP3 MSTORE PUSH1 0x20 DUP3 ADD MSTORE RETURN JUMPDEST DUP1 MLOAD SWAP4 SWAP5 SWAP3 SWAP4 SWAP2 SWAP3 PUSH1 0x0 NOT DUP4 ADD SWAP3 DUP4 GT PUSH2 0x216 JUMPI POP SWAP2 PUSH2 0x9D7 PUSH2 0x9C8 PUSH2 0x9DD SWAP6 SWAP4 PUSH2 0x9D1 SWAP8 SWAP6 PUSH2 0xE66 JUMP JUMPDEST MLOAD SWAP6 DUP7 SWAP5 PUSH2 0xD4C JUMP JUMPDEST SWAP2 PUSH2 0xD4C JUMP JUMPDEST SWAP1 PUSH2 0x1164 JUMP JUMPDEST PUSH2 0x991 JUMP JUMPDEST PUSH2 0x9F7 SWAP2 SWAP3 POP RETURNDATASIZE DUP1 DUP9 DUP4 RETURNDATACOPY PUSH2 0x23F DUP2 DUP4 PUSH2 0xBFF JUMP JUMPDEST SWAP1 CODESIZE PUSH2 0x984 JUMP JUMPDEST DUP3 DUP1 REVERT JUMPDEST DUP1 REVERT JUMPDEST POP CALLVALUE PUSH2 0x119 JUMPI DUP1 PUSH1 0x3 NOT CALLDATASIZE ADD SLT PUSH2 0x119 JUMPI PUSH1 0x20 SWAP1 PUSH2 0xA2C PUSH2 0xA24 PUSH2 0xC98 JUMP JUMPDEST PUSH2 0x300 PUSH2 0xCAE JUMP JUMPDEST SWAP1 MLOAD SWAP1 ISZERO ISZERO DUP2 MSTORE RETURN JUMPDEST POP CALLVALUE PUSH2 0x119 JUMPI DUP2 PUSH1 0x3 NOT CALLDATASIZE ADD SLT PUSH2 0x119 JUMPI MLOAD PUSH32 0x0 PUSH1 0x1 PUSH1 0x1 PUSH1 0xA0 SHL SUB AND DUP2 MSTORE PUSH1 0x20 SWAP1 RETURN JUMPDEST POP CALLVALUE PUSH2 0x119 JUMPI DUP2 PUSH1 0x3 NOT CALLDATASIZE ADD SLT PUSH2 0x119 JUMPI DUP1 MLOAD PUSH2 0x115 SWAP2 PUSH2 0xA98 DUP3 PUSH2 0xB79 JUMP JUMPDEST PUSH1 0x9 DUP3 MSTORE PUSH9 0x2AB734B9BBB0B82B19 PUSH1 0xB9 SHL PUSH1 0x20 DUP4 ADD MSTORE MLOAD SWAP2 DUP3 SWAP2 PUSH1 0x20 DUP4 MSTORE PUSH1 0x20 DUP4 ADD SWAP1 PUSH2 0xC21 JUMP JUMPDEST POP CALLVALUE PUSH2 0x119 JUMPI DUP2 PUSH1 0x3 NOT CALLDATASIZE ADD SLT PUSH2 0x119 JUMPI PUSH1 0x20 SWAP1 MLOAD PUSH1 0x1E DUP2 MSTORE RETURN JUMPDEST POP CALLVALUE PUSH2 0x119 JUMPI PUSH1 0x60 CALLDATASIZE PUSH1 0x3 NOT ADD SLT PUSH2 0x119 JUMPI PUSH2 0xAF5 PUSH2 0xC98 JUMP JUMPDEST POP PUSH2 0xAFE PUSH2 0xCAE JUMP JUMPDEST POP PUSH1 0x44 CALLDATALOAD PUSH1 0x1 PUSH1 0x1 PUSH1 0xA0 SHL SUB DUP2 AND SUB PUSH2 0x119 JUMPI PUSH1 0x20 SWAP1 MLOAD PUSH1 0x1E DUP2 MSTORE RETURN JUMPDEST POP CALLVALUE PUSH2 0x119 JUMPI PUSH1 0x20 SWAP1 PUSH2 0xB35 PUSH2 0xB30 CALLDATASIZE PUSH2 0xC61 JUMP JUMPDEST PUSH2 0xFEB JUMP JUMPDEST SWAP1 MLOAD SWAP1 DUP2 MSTORE RETURN JUMPDEST POP CALLVALUE PUSH2 0x119 JUMPI DUP2 PUSH1 0x3 NOT CALLDATASIZE ADD SLT PUSH2 0x119 JUMPI DUP1 MLOAD PUSH2 0x115 SWAP2 PUSH2 0xF1 DUP3 PUSH2 0xB79 JUMP JUMPDEST SWAP2 SWAP1 POP CALLVALUE PUSH2 0x9FE JUMPI DUP3 PUSH1 0x3 NOT CALLDATASIZE ADD SLT PUSH2 0x9FE JUMPI PUSH2 0x115 SWAP3 POP PUSH2 0xA98 DUP3 JUMPDEST PUSH1 0x40 DUP2 ADD SWAP1 DUP2 LT PUSH8 0xFFFFFFFFFFFFFFFF DUP3 GT OR PUSH2 0xB95 JUMPI PUSH1 0x40 MSTORE JUMP JUMPDEST PUSH4 0x4E487B71 PUSH1 0xE0 SHL PUSH1 0x0 MSTORE PUSH1 0x41 PUSH1 0x4 MSTORE PUSH1 0x24 PUSH1 0x0 REVERT JUMPDEST PUSH1 0x20 DUP2 ADD SWAP1 DUP2 LT PUSH8 0xFFFFFFFFFFFFFFFF DUP3 GT OR PUSH2 0xB95 JUMPI PUSH1 0x40 MSTORE JUMP JUMPDEST PUSH1 0x60 DUP2 ADD SWAP1 DUP2 LT PUSH8 0xFFFFFFFFFFFFFFFF DUP3 GT OR PUSH2 0xB95 JUMPI PUSH1 0x40 MSTORE JUMP JUMPDEST PUSH1 0x80 DUP2 ADD SWAP1 DUP2 LT PUSH8 0xFFFFFFFFFFFFFFFF DUP3 GT OR PUSH2 0xB95 JUMPI PUSH1 0x40 MSTORE JUMP JUMPDEST SWAP1 PUSH1 0x1F DUP1 NOT SWAP2 ADD AND DUP2 ADD SWAP1 DUP2 LT PUSH8 0xFFFFFFFFFFFFFFFF DUP3 GT OR PUSH2 0xB95 JUMPI PUSH1 0x40 MSTORE JUMP JUMPDEST SWAP2 SWAP1 DUP3 MLOAD SWAP3 DUP4 DUP3 MSTORE PUSH1 0x0 JUMPDEST DUP5 DUP2 LT PUSH2 0xC4D JUMPI POP POP DUP3 PUSH1 0x0 PUSH1 0x20 DUP1 SWAP5 SWAP6 DUP5 ADD ADD MSTORE PUSH1 0x1F DUP1 NOT SWAP2 ADD AND ADD ADD SWAP1 JUMP JUMPDEST PUSH1 0x20 DUP2 DUP4 ADD DUP2 ADD MLOAD DUP5 DUP4 ADD DUP3 ADD MSTORE ADD PUSH2 0xC2C JUMP JUMPDEST PUSH1 0x3 NOT SWAP1 PUSH1 0x20 DUP2 DUP4 ADD SLT PUSH2 0xC93 JUMPI PUSH1 0x4 CALLDATALOAD SWAP2 PUSH8 0xFFFFFFFFFFFFFFFF DUP4 GT PUSH2 0xC93 JUMPI DUP3 PUSH1 0xC0 SWAP3 SUB ADD SLT PUSH2 0xC93 JUMPI PUSH1 0x4 ADD SWAP1 JUMP JUMPDEST PUSH1 0x0 DUP1 REVERT JUMPDEST PUSH1 0x4 CALLDATALOAD SWAP1 PUSH1 0x1 PUSH1 0x1 PUSH1 0xA0 SHL SUB DUP3 AND DUP3 SUB PUSH2 0xC93 JUMPI JUMP JUMPDEST PUSH1 0x24 CALLDATALOAD SWAP1 PUSH1 0x1 PUSH1 0x1 PUSH1 0xA0 SHL SUB DUP3 AND DUP3 SUB PUSH2 0xC93 JUMPI JUMP JUMPDEST SWAP1 DUP2 MLOAD DUP1 DUP3 MSTORE PUSH1 0x20 DUP1 DUP1 SWAP4 ADD SWAP4 ADD SWAP2 PUSH1 0x0 JUMPDEST DUP3 DUP2 LT PUSH2 0xCE4 JUMPI POP POP POP POP SWAP1 JUMP JUMPDEST DUP4 MLOAD PUSH1 0x1 PUSH1 0x1 PUSH1 0xA0 SHL SUB AND DUP6 MSTORE SWAP4 DUP2 ADD SWAP4 SWAP3 DUP2 ADD SWAP3 PUSH1 0x1 ADD PUSH2 0xCD6 JUMP JUMPDEST ISZERO PUSH2 0xD08 JUMPI JUMP JUMPDEST PUSH1 0x64 PUSH1 0x40 MLOAD PUSH3 0x461BCD PUSH1 0xE5 SHL DUP2 MSTORE PUSH1 0x20 PUSH1 0x4 DUP3 ADD MSTORE PUSH1 0x20 PUSH1 0x24 DUP3 ADD MSTORE PUSH32 0x556E69737761705632416461707465723A20496E76616C696420616D6F756E74 PUSH1 0x44 DUP3 ADD MSTORE REVERT JUMPDEST CALLDATALOAD PUSH1 0x1 PUSH1 0x1 PUSH1 0xA0 SHL SUB DUP2 AND DUP2 SUB PUSH2 0xC93 JUMPI SWAP1 JUMP JUMPDEST ISZERO PUSH2 0xD67 JUMPI JUMP JUMPDEST PUSH1 0x40 MLOAD PUSH3 0x461BCD PUSH1 0xE5 SHL DUP2 MSTORE PUSH1 0x20 PUSH1 0x4 DUP3 ADD MSTORE PUSH1 0x22 PUSH1 0x24 DUP3 ADD MSTORE PUSH32 0x556E69737761705632416461707465723A20556E737570706F72746564207061 PUSH1 0x44 DUP3 ADD MSTORE PUSH2 0x34B9 PUSH1 0xF1 SHL PUSH1 0x64 DUP3 ADD MSTORE PUSH1 0x84 SWAP1 REVERT JUMPDEST SWAP1 PUSH1 0x20 SWAP1 DUP2 DUP4 DUP3 SUB SLT PUSH2 0xC93 JUMPI DUP3 MLOAD PUSH8 0xFFFFFFFFFFFFFFFF SWAP4 DUP5 DUP3 GT PUSH2 0xC93 JUMPI ADD DUP2 PUSH1 0x1F DUP3 ADD SLT ISZERO PUSH2 0xC93 JUMPI DUP1 MLOAD SWAP4 DUP5 GT PUSH2 0xB95 JUMPI DUP4 PUSH1 0x5 SHL SWAP1 PUSH1 0x40 MLOAD SWAP5 PUSH2 0xE01 DUP6 DUP5 ADD DUP8 PUSH2 0xBFF JUMP JUMPDEST DUP6 MSTORE DUP4 DUP1 DUP7 ADD SWAP3 DUP3 ADD ADD SWAP3 DUP4 GT PUSH2 0xC93 JUMPI DUP4 ADD SWAP1 JUMPDEST DUP3 DUP3 LT PUSH2 0xE24 JUMPI POP POP POP POP SWAP1 JUMP JUMPDEST DUP2 MLOAD DUP2 MSTORE SWAP1 DUP4 ADD SWAP1 DUP4 ADD PUSH2 0xE16 JUMP JUMPDEST DUP1 MLOAD ISZERO PUSH2 0xE40 JUMPI PUSH1 0x20 ADD SWAP1 JUMP JUMPDEST PUSH4 0x4E487B71 PUSH1 0xE0 SHL PUSH1 0x0 MSTORE PUSH1 0x32 PUSH1 0x4 MSTORE PUSH1 0x24 PUSH1 0x0 REVERT JUMPDEST DUP1 MLOAD PUSH1 0x1 LT ISZERO PUSH2 0xE40 JUMPI PUSH1 0x40 ADD SWAP1 JUMP JUMPDEST DUP1 MLOAD DUP3 LT ISZERO PUSH2 0xE40 JUMPI PUSH1 0x20 SWAP2 PUSH1 0x5 SHL ADD ADD SWAP1 JUMP JUMPDEST SWAP1 PUSH1 0x0 PUSH1 0x20 SWAP2 DUP3 DUP2 MLOAD SWAP2 ADD DUP3 DUP6 GAS CALL ISZERO PUSH2 0xED6 JUMPI PUSH1 0x0 MLOAD RETURNDATASIZE PUSH2 0xECD JUMPI POP PUSH1 0x1 PUSH1 0x1 PUSH1 0xA0 SHL SUB DUP2 AND EXTCODESIZE ISZERO JUMPDEST PUSH2 0xEAB JUMPI POP JUMP JUMPDEST PUSH1 0x40 MLOAD PUSH4 0x5274AFE7 PUSH1 0xE0 SHL DUP2 MSTORE PUSH1 0x1 PUSH1 0x1 PUSH1 0xA0 SHL SUB SWAP1 SWAP2 AND PUSH1 0x4 DUP3 ADD MSTORE PUSH1 0x24 SWAP1 REVERT JUMPDEST PUSH1 0x1 EQ ISZERO PUSH2 0xEA4 JUMP JUMPDEST PUSH1 0x40 MLOAD RETURNDATASIZE PUSH1 0x0 DUP3 RETURNDATACOPY RETURNDATASIZE SWAP1 REVERT JUMPDEST SWAP1 DUP2 PUSH1 0x20 SWAP2 SUB SLT PUSH2 0xC93 JUMPI MLOAD PUSH1 0x1 PUSH1 0x1 PUSH1 0xA0 SHL SUB DUP2 AND DUP2 SUB PUSH2 0xC93 JUMPI SWAP1 JUMP JUMPDEST PUSH1 0x1 PUSH1 0x1 PUSH1 0xA0 SHL SUB SWAP2 SWAP1 DUP3 DUP2 AND DUP4 DUP4 AND EQ PUSH2 0xF99 JUMPI PUSH1 0x40 MLOAD PUSH4 0xE6A43905 PUSH1 0xE0 SHL DUP2 MSTORE PUSH1 0x1 PUSH1 0x1 PUSH1 0xA0 SHL SUB SWAP2 DUP3 AND PUSH1 0x4 DUP3 ADD MSTORE SWAP2 AND PUSH1 0x24 DUP3 ADD MSTORE PUSH1 0x20 DUP2 PUSH1 0x44 DUP2 PUSH32 0x0 DUP7 AND GAS STATICCALL SWAP1 DUP2 ISZERO PUSH2 0xED6 JUMPI PUSH1 0x0 SWAP2 PUSH2 0xF7B JUMPI JUMPDEST POP AND ISZERO ISZERO SWAP1 JUMP JUMPDEST PUSH2 0xF93 SWAP2 POP PUSH1 0x20 RETURNDATASIZE DUP2 GT PUSH2 0x857 JUMPI PUSH2 0x849 DUP2 DUP4 PUSH2 0xBFF JUMP JUMPDEST CODESIZE PUSH2 0xF74 JUMP JUMPDEST POP POP POP PUSH1 0x0 SWAP1 JUMP JUMPDEST MLOAD SWAP1 PUSH1 0x1 PUSH1 0x1 PUSH1 0x70 SHL SUB DUP3 AND DUP3 SUB PUSH2 0xC93 JUMPI JUMP JUMPDEST SWAP1 DUP2 PUSH1 0x60 SWAP2 SUB SLT PUSH2 0xC93 JUMPI PUSH2 0xFC9 DUP2 PUSH2 0xFA1 JUMP JUMPDEST SWAP2 PUSH1 0x40 PUSH2 0xFD8 PUSH1 0x20 DUP5 ADD PUSH2 0xFA1 JUMP JUMPDEST SWAP3 ADD MLOAD PUSH4 0xFFFFFFFF DUP2 AND DUP2 SUB PUSH2 0xC93 JUMPI SWAP1 JUMP JUMPDEST PUSH2 0x100A SWAP1 PUSH2 0x1004 PUSH1 0x20 PUSH2 0xFFD DUP4 PUSH2 0xD4C JUMP JUMPDEST SWAP3 ADD PUSH2 0xD4C JUMP JUMPDEST SWAP1 PUSH2 0x10DE JUMP JUMPDEST ISZERO PUSH2 0x1016 JUMPI PUSH3 0x249F0 SWAP1 JUMP JUMPDEST PUSH3 0x3D090 SWAP1 JUMP JUMPDEST SWAP2 SWAP1 PUSH2 0x1029 DUP2 DUP5 PUSH2 0x10DE JUMP JUMPDEST ISZERO PUSH2 0x106C JUMPI PUSH1 0x40 MLOAD SWAP3 PUSH2 0x103B DUP5 PUSH2 0xBC7 JUMP JUMPDEST PUSH1 0x2 DUP5 MSTORE PUSH1 0x40 CALLDATASIZE PUSH1 0x20 DUP7 ADD CALLDATACOPY PUSH2 0x1066 DUP5 PUSH2 0x1054 DUP2 PUSH2 0xE33 JUMP JUMPDEST PUSH1 0x1 PUSH1 0x1 PUSH1 0xA0 SHL SUB SWAP4 DUP5 AND SWAP1 MSTORE PUSH2 0xE56 JUMP JUMPDEST SWAP2 AND SWAP1 MSTORE JUMP JUMPDEST PUSH1 0x40 MLOAD SWAP1 PUSH2 0x1079 DUP3 PUSH2 0xBE3 JUMP JUMPDEST PUSH1 0x3 DUP3 MSTORE PUSH1 0x60 CALLDATASIZE PUSH1 0x20 DUP5 ADD CALLDATACOPY DUP2 SWAP4 PUSH2 0x1090 DUP4 PUSH2 0xE33 JUMP JUMPDEST PUSH1 0x1 PUSH1 0x1 PUSH1 0xA0 SHL SUB SWAP2 DUP3 AND SWAP1 MSTORE PUSH2 0x10A6 DUP4 PUSH2 0xE56 JUMP JUMPDEST DUP2 PUSH32 0x0 AND SWAP1 MSTORE DUP3 MLOAD PUSH1 0x2 LT ISZERO PUSH2 0xE40 JUMPI PUSH1 0x60 SWAP2 AND SWAP2 ADD MSTORE JUMP JUMPDEST PUSH1 0x40 MLOAD PUSH4 0xE6A43905 PUSH1 0xE0 SHL DUP2 MSTORE PUSH1 0x1 PUSH1 0x1 PUSH1 0xA0 SHL SUB SWAP2 DUP3 AND PUSH1 0x4 DUP3 ADD MSTORE SWAP2 DUP2 AND PUSH1 0x24 DUP4 ADD MSTORE SWAP1 PUSH1 0x20 DUP2 PUSH1 0x44 DUP2 PUSH32 0x0 DUP7 AND GAS STATICCALL SWAP1 DUP2 ISZERO PUSH2 0xED6 JUMPI PUSH1 0x0 SWAP2 PUSH2 0xF7B JUMPI POP AND ISZERO ISZERO SWAP1 JUMP JUMPDEST DUP2 ISZERO PUSH2 0x114E JUMPI DIV SWAP1 JUMP JUMPDEST PUSH4 0x4E487B71 PUSH1 0xE0 SHL PUSH1 0x0 MSTORE PUSH1 0x12 PUSH1 0x4 MSTORE PUSH1 0x24 PUSH1 0x0 REVERT JUMPDEST PUSH1 0x40 DUP1 MLOAD PUSH4 0xE6A43905 PUSH1 0xE0 SHL DUP2 MSTORE PUSH1 0x1 PUSH1 0x1 PUSH1 0xA0 SHL SUB DUP4 DUP2 AND PUSH1 0x4 DUP1 DUP5 ADD SWAP2 SWAP1 SWAP2 MSTORE SWAP5 DUP2 AND PUSH1 0x24 DUP4 ADD MSTORE SWAP4 SWAP7 SWAP6 SWAP5 SWAP2 SWAP4 SWAP2 SWAP3 PUSH1 0x20 SWAP3 SWAP1 SWAP2 DUP4 DUP2 PUSH1 0x44 DUP2 PUSH32 0x0 DUP7 AND GAS STATICCALL SWAP1 DUP2 ISZERO PUSH2 0x1378 JUMPI SWAP1 DUP3 SWAP2 PUSH1 0x0 SWAP2 PUSH2 0x135B JUMPI JUMPDEST POP AND SWAP5 DUP6 ISZERO PUSH2 0x134D JUMPI DUP1 MLOAD PUSH4 0x240BC6B PUSH1 0xE2 SHL DUP2 MSTORE SWAP4 PUSH1 0x60 DUP6 DUP12 DUP2 DUP11 GAS STATICCALL SWAP7 DUP8 ISZERO PUSH2 0x1342 JUMPI SWAP1 DUP11 SWAP2 PUSH1 0x0 SWAP7 DUP8 SWAP10 PUSH2 0x131D JUMPI JUMPDEST POP DUP2 SWAP1 DUP5 MLOAD SWAP4 DUP5 DUP1 SWAP3 PUSH4 0xDFE1681 PUSH1 0xE0 SHL DUP3 MSTORE GAS STATICCALL SWAP3 DUP4 ISZERO PUSH2 0x1313 JUMPI POP SWAP1 DUP4 SWAP3 SWAP2 PUSH1 0x0 SWAP3 PUSH2 0x12F6 JUMPI JUMPDEST POP POP AND SWAP2 AND EQ PUSH1 0x0 EQ PUSH2 0x12E3 JUMPI PUSH1 0x1 PUSH1 0x1 PUSH1 0x70 SHL SUB DUP1 SWAP2 AND SWAP3 AND SWAP1 JUMPDEST DUP2 DUP2 MUL SWAP2 DUP2 DUP4 DIV EQ SWAP1 ISZERO OR ISZERO PUSH2 0x12C2 JUMPI SWAP1 PUSH2 0x1268 SWAP2 PUSH2 0x1144 JUMP JUMPDEST SWAP1 DUP1 DUP3 GT ISZERO PUSH2 0x12D7 JUMPI DUP1 DUP3 SUB SWAP1 DUP3 DUP3 GT PUSH2 0x12C2 JUMPI PUSH2 0x2710 DUP1 DUP4 MUL SWAP3 DUP4 DIV EQ SWAP1 DUP4 EQ OR ISZERO PUSH2 0x12AD JUMPI PUSH2 0x129A SWAP3 SWAP4 POP PUSH2 0x1144 JUMP JUMPDEST SWAP1 JUMPDEST PUSH2 0x2710 DUP1 DUP4 GT PUSH2 0x12A9 JUMPI POP JUMP JUMPDEST SWAP2 POP JUMP JUMPDEST PUSH1 0x11 DUP5 PUSH4 0x4E487B71 PUSH1 0xE0 SHL PUSH1 0x0 MSTORE MSTORE PUSH1 0x24 PUSH1 0x0 REVERT JUMPDEST PUSH1 0x11 DUP6 PUSH4 0x4E487B71 PUSH1 0xE0 SHL PUSH1 0x0 MSTORE MSTORE PUSH1 0x24 PUSH1 0x0 REVERT JUMPDEST POP POP SWAP1 POP PUSH1 0x0 SWAP1 PUSH2 0x129C JUMP JUMPDEST PUSH1 0x1 PUSH1 0x1 PUSH1 0x70 SHL SUB SWAP3 DUP4 AND SWAP3 AND SWAP1 PUSH2 0x124E JUMP JUMPDEST PUSH2 0x130C SWAP3 POP DUP1 RETURNDATASIZE LT PUSH2 0x857 JUMPI PUSH2 0x849 DUP2 DUP4 PUSH2 0xBFF JUMP JUMPDEST CODESIZE DUP1 PUSH2 0x1232 JUMP JUMPDEST MLOAD RETURNDATASIZE PUSH1 0x0 DUP3 RETURNDATACOPY RETURNDATASIZE SWAP1 REVERT JUMPDEST PUSH2 0x1339 SWAP2 SWAP10 POP DUP3 SWAP8 POP PUSH1 0x60 RETURNDATASIZE DUP2 GT PUSH2 0x7E8 JUMPI PUSH2 0x7D9 DUP2 DUP4 PUSH2 0xBFF JUMP JUMPDEST POP SWAP9 SWAP1 SWAP7 PUSH2 0x1209 JUMP JUMPDEST DUP3 MLOAD RETURNDATASIZE PUSH1 0x0 DUP3 RETURNDATACOPY RETURNDATASIZE SWAP1 REVERT JUMPDEST POP PUSH2 0x2710 SWAP8 POP POP POP POP POP POP POP JUMP JUMPDEST PUSH2 0x1372 SWAP2 POP DUP6 RETURNDATASIZE DUP8 GT PUSH2 0x857 JUMPI PUSH2 0x849 DUP2 DUP4 PUSH2 0xBFF JUMP JUMPDEST CODESIZE PUSH2 0x11D7 JUMP JUMPDEST DUP7 MLOAD RETURNDATASIZE PUSH1 0x0 DUP3 RETURNDATACOPY RETURNDATASIZE SWAP1 REVERT INVALID LOG2 PUSH5 0x6970667358 0x22 SLT KECCAK256 0xED RETURNDATACOPY DUP12 CODESIZE DUP8 0xDC PUSH18 0x56AC8C8921CDACFF629A319BB9D72995673B SWAP7 SGT 0xD2 0xAD PUSH31 0x6C9164736F6C63430008140033000000000000000000000000000000000000 "},"methodIdentifiers":{"BASIS_POINTS()":"e1f1c4a7","DEX_NAME()":"0d601f21","SWAP_FEE()":"768aebde","VERSION()":"ffa1ad74","WETH()":"ad5c4648","estimateGas((address,address,uint256,uint256,uint256,bytes))":"2be55ff8","factory()":"c45a0155","getAvailablePools(address,address)":"c522894c","getBestRoute(address,address,uint256)":"faa55b6d","getDEXName()":"7839abec","getQuote((address,address,uint256,bytes))":"bd8b8182","getSwapFee(address,address,address)":"71204cff","getVersion()":"0d8e6e2c","isTokenPairSupported(address,address)":"bc943922","router()":"f887ea40","swap((address,address,uint256,uint256,uint256,bytes))":"d0394e5c"}}}}}