{"src/ArbitrageEngine.sol":{"ArbitrageEngine":{"abi":[{"inputs":[{"internalType":"address","name":"_feeCollector","type":"address"}],"stateMutability":"nonpayable","type":"constructor"},{"inputs":[],"name":"EnforcedPause","type":"error"},{"inputs":[],"name":"ExpectedPause","type":"error"},{"inputs":[{"internalType":"address","name":"owner","type":"address"}],"name":"OwnableInvalidOwner","type":"error"},{"inputs":[{"internalType":"address","name":"account","type":"address"}],"name":"OwnableUnauthorizedAccount","type":"error"},{"inputs":[],"name":"ReentrancyGuardReentrantCall","type":"error"},{"inputs":[{"internalType":"address","name":"token","type":"address"}],"name":"SafeERC20FailedOperation","type":"error"},{"anonymous":false,"inputs":[{"indexed":true,"internalType":"address","name":"executor","type":"address"},{"indexed":true,"internalType":"address","name":"tokenA","type":"address"},{"indexed":true,"internalType":"address","name":"tokenB","type":"address"},{"indexed":false,"internalType":"uint256","name":"amount","type":"uint256"},{"indexed":false,"internalType":"uint256","name":"profit","type":"uint256"},{"indexed":false,"internalType":"string","name":"strategyType","type":"string"}],"name":"ArbitrageExecuted","type":"event"},{"anonymous":false,"inputs":[{"indexed":true,"internalType":"address","name":"caller","type":"address"},{"indexed":false,"internalType":"bool","name":"authorized","type":"bool"}],"name":"AuthorizedCallerUpdated","type":"event"},{"anonymous":false,"inputs":[{"indexed":true,"internalType":"address","name":"oldCollector","type":"address"},{"indexed":true,"internalType":"address","name":"newCollector","type":"address"}],"name":"FeeCollectorUpdated","type":"event"},{"anonymous":false,"inputs":[{"indexed":true,"internalType":"address","name":"asset","type":"address"},{"indexed":false,"internalType":"uint256","name":"amount","type":"uint256"},{"indexed":true,"internalType":"address","name":"borrower","type":"address"}],"name":"FlashLoanInitiated","type":"event"},{"anonymous":false,"inputs":[{"indexed":true,"internalType":"address","name":"provider","type":"address"}],"name":"FlashLoanProviderAdded","type":"event"},{"anonymous":false,"inputs":[{"indexed":true,"internalType":"address","name":"provider","type":"address"}],"name":"FlashLoanProviderRemoved","type":"event"},{"anonymous":false,"inputs":[{"indexed":true,"internalType":"address","name":"previousOwner","type":"address"},{"indexed":true,"internalType":"address","name":"newOwner","type":"address"}],"name":"OwnershipTransferred","type":"event"},{"anonymous":false,"inputs":[{"indexed":false,"internalType":"address","name":"account","type":"address"}],"name":"Paused","type":"event"},{"anonymous":false,"inputs":[{"indexed":true,"internalType":"address","name":"executor","type":"address"},{"indexed":false,"internalType":"uint256","name":"amount","type":"uint256"},{"indexed":false,"internalType":"uint256","name":"fee","type":"uint256"}],"name":"ProfitDistributed","type":"event"},{"anonymous":false,"inputs":[{"indexed":true,"internalType":"string","name":"strategyType","type":"string"},{"indexed":true,"internalType":"address","name":"implementation","type":"address"}],"name":"StrategyRegistered","type":"event"},{"anonymous":false,"inputs":[{"indexed":true,"internalType":"address","name":"token","type":"address"},{"indexed":false,"internalType":"bool","name":"supported","type":"bool"}],"name":"TokenSupportUpdated","type":"event"},{"anonymous":false,"inputs":[{"indexed":false,"internalType":"address","name":"account","type":"address"}],"name":"Unpaused","type":"event"},{"inputs":[],"name":"BASIS_POINTS","outputs":[{"internalType":"uint256","name":"","type":"uint256"}],"stateMutability":"view","type":"function"},{"inputs":[],"name":"MAX_SLIPPAGE","outputs":[{"internalType":"uint256","name":"","type":"uint256"}],"stateMutability":"view","type":"function"},{"inputs":[],"name":"MIN_PROFIT_THRESHOLD","outputs":[{"internalType":"uint256","name":"","type":"uint256"}],"stateMutability":"view","type":"function"},{"inputs":[],"name":"PLATFORM_FEE","outputs":[{"internalType":"uint256","name":"","type":"uint256"}],"stateMutability":"view","type":"function"},{"inputs":[{"internalType":"address","name":"provider","type":"address"}],"name":"addFlashLoanProvider","outputs":[],"stateMutability":"nonpayable","type":"function"},{"inputs":[{"internalType":"address","name":"","type":"address"}],"name":"authorizedCallers","outputs":[{"internalType":"bool","name":"","type":"bool"}],"stateMutability":"view","type":"function"},{"inputs":[],"name":"emergencyPause","outputs":[],"stateMutability":"nonpayable","type":"function"},{"inputs":[{"components":[{"internalType":"address","name":"tokenA","type":"address"},{"internalType":"address","name":"tokenB","type":"address"},{"internalType":"uint256","name":"amount","type":"uint256"},{"internalType":"uint256","name":"minProfit","type":"uint256"},{"internalType":"uint256","name":"maxSlippage","type":"uint256"},{"internalType":"uint256","name":"deadline","type":"uint256"},{"internalType":"bytes","name":"strategyData","type":"bytes"}],"internalType":"struct ArbitrageParams","name":"params","type":"tuple"}],"name":"executeArbitrage","outputs":[{"components":[{"internalType":"bool","name":"success","type":"bool"},{"internalType":"uint256","name":"profit","type":"uint256"},{"internalType":"uint256","name":"gasUsed","type":"uint256"},{"internalType":"uint256","name":"executionTime","type":"uint256"}],"internalType":"struct ArbitrageResult","name":"result","type":"tuple"}],"stateMutability":"nonpayable","type":"function"},{"inputs":[{"internalType":"address","name":"asset","type":"address"},{"internalType":"uint256","name":"amount","type":"uint256"},{"internalType":"uint256","name":"fee","type":"uint256"},{"internalType":"address","name":"initiator","type":"address"},{"internalType":"bytes","name":"params","type":"bytes"}],"name":"executeOperation","outputs":[{"internalType":"bool","name":"success","type":"bool"}],"stateMutability":"nonpayable","type":"function"},{"inputs":[],"name":"feeCollector","outputs":[{"internalType":"address","name":"","type":"address"}],"stateMutability":"view","type":"function"},{"inputs":[{"internalType":"uint256","name":"","type":"uint256"}],"name":"flashLoanProviders","outputs":[{"internalType":"address","name":"","type":"address"}],"stateMutability":"view","type":"function"},{"inputs":[{"internalType":"string","name":"strategyType","type":"string"}],"name":"getStrategy","outputs":[{"internalType":"address","name":"implementation","type":"address"}],"stateMutability":"view","type":"function"},{"inputs":[{"internalType":"address","name":"token","type":"address"}],"name":"getTokenBalance","outputs":[{"internalType":"uint256","name":"balance","type":"uint256"}],"stateMutability":"view","type":"function"},{"inputs":[{"internalType":"string","name":"strategyType","type":"string"}],"name":"isStrategyAvailable","outputs":[{"internalType":"bool","name":"available","type":"bool"}],"stateMutability":"view","type":"function"},{"inputs":[],"name":"owner","outputs":[{"internalType":"address","name":"","type":"address"}],"stateMutability":"view","type":"function"},{"inputs":[],"name":"paused","outputs":[{"internalType":"bool","name":"","type":"bool"}],"stateMutability":"view","type":"function"},{"inputs":[{"internalType":"string","name":"strategyType","type":"string"},{"internalType":"address","name":"implementation","type":"address"}],"name":"registerStrategy","outputs":[],"stateMutability":"nonpayable","type":"function"},{"inputs":[{"internalType":"address","name":"provider","type":"address"}],"name":"removeFlashLoanProvider","outputs":[],"stateMutability":"nonpayable","type":"function"},{"inputs":[],"name":"renounceOwnership","outputs":[],"stateMutability":"nonpayable","type":"function"},{"inputs":[{"components":[{"internalType":"address","name":"tokenA","type":"address"},{"internalType":"address","name":"tokenB","type":"address"},{"internalType":"uint256","name":"amount","type":"uint256"},{"internalType":"uint256","name":"minProfit","type":"uint256"},{"internalType":"uint256","name":"maxSlippage","type":"uint256"},{"internalType":"uint256","name":"deadline","type":"uint256"},{"internalType":"bytes","name":"strategyData","type":"bytes"}],"internalType":"struct ArbitrageParams","name":"params","type":"tuple"}],"name":"simulateArbitrage","outputs":[{"internalType":"uint256","name":"estimatedProfit","type":"uint256"},{"internalType":"uint256","name":"estimatedGas","type":"uint256"}],"stateMutability":"view","type":"function"},{"inputs":[{"internalType":"string","name":"","type":"string"}],"name":"strategies","outputs":[{"internalType":"address","name":"","type":"address"}],"stateMutability":"view","type":"function"},{"inputs":[{"internalType":"address","name":"","type":"address"}],"name":"supportedTokens","outputs":[{"internalType":"bool","name":"","type":"bool"}],"stateMutability":"view","type":"function"},{"inputs":[],"name":"totalArbitragesExecuted","outputs":[{"internalType":"uint256","name":"","type":"uint256"}],"stateMutability":"view","type":"function"},{"inputs":[],"name":"totalFeesCollected","outputs":[{"internalType":"uint256","name":"","type":"uint256"}],"stateMutability":"view","type":"function"},{"inputs":[{"internalType":"address","name":"newOwner","type":"address"}],"name":"transferOwnership","outputs":[],"stateMutability":"nonpayable","type":"function"},{"inputs":[],"name":"unpause","outputs":[],"stateMutability":"nonpayable","type":"function"},{"inputs":[{"internalType":"address","name":"caller","type":"address"},{"internalType":"bool","name":"authorized","type":"bool"}],"name":"updateAuthorizedCaller","outputs":[],"stateMutability":"nonpayable","type":"function"},{"inputs":[{"internalType":"address","name":"newCollector","type":"address"}],"name":"updateFeeCollector","outputs":[],"stateMutability":"nonpayable","type":"function"},{"inputs":[{"internalType":"address","name":"token","type":"address"},{"internalType":"bool","name":"supported","type":"bool"}],"name":"updateTokenSupport","outputs":[],"stateMutability":"nonpayable","type":"function"},{"inputs":[{"internalType":"address","name":"","type":"address"}],"name":"userProfits","outputs":[{"internalType":"uint256","name":"","type":"uint256"}],"stateMutability":"view","type":"function"},{"inputs":[{"internalType":"address","name":"token","type":"address"},{"internalType":"uint256","name":"amount","type":"uint256"}],"name":"withdrawProfits","outputs":[],"stateMutability":"nonpayable","type":"function"},{"stateMutability":"payable","type":"receive"}],"evm":{"bytecode":{"linkReferences":{},"object":"6080346200016657601f620027f738819003918201601f19168301916001600160401b038311848410176200016b578084926020946040528339810103126200016657516001600160a01b03908181169081900362000166576000906001825533156200014d5760018054610100600160a81b0319811633600881811b610100600160a81b0316929092179093556040519591901c167f8be0079c531659141344cd1fd0a4f28419497f9722a3daafe3b4186f6b6457e08480a38015620000fc57600780546001600160a01b0319169190911790558080526005602052604090819020805460ff1916600117905551612675915081620001828239f35b62461bcd60e51b835260206004840152602660248401527f417262697472616765456e67696e653a20496e76616c69642066656520636f6c6044840152653632b1ba37b960d11b6064840152608483fd5b604051631e4fbdf760e01b815260048101839052602490fd5b600080fd5b634e487b7160e01b600052604160045260246000fdfe6080604052600436101561001b575b361561001957600080fd5b005b60003560e01c80630d222c841461020b5780631328c07e146102065780631b11d0ff146102015780631e9ef4ce146101fc57806326f9dd1e146101f757806334fbc9a1146101f25780633aecd0e3146101ed5780633db08eb2146101e85780633f4ba83a146101e357806351858e27146101de578063536fff6c146101d95780635c975abb146101d457806360c6d8ae146101cf57806368c4ac26146101ca578063715018a6146101c55780637317b989146101c0578063780f1acd146101bb5780637b4c9274146101b65780638937ca15146101b15780638d34eff9146101ac5780638da5cb5b146101a75780638f83e539146101a2578063aafc96511461019d578063b35ddc8a14610198578063be35483614610193578063c415b95c1461018e578063d2c35ce814610189578063e1f1c4a714610184578063e73d668f1461017f578063f2fde38b1461017a5763f97595180361000e5761166c565b6115cf565b6115ad565b611590565b6114c2565b611499565b61145c565b611401565b6112f4565b61102a565b610ffd565b610f29565b610ec3565b610e56565b610dc9565b610b77565b610b12565b610ad0565b610ab2565b610a8f565b610a4d565b6109f4565b61098a565b61087d565b61084e565b610832565b6107f9565b6107be565b6103b4565b610358565b610246565b6003199060208183011261024157600435916001600160401b038311610241578260e0920301126102415760040190565b600080fd5b346102415761025436610210565b60ff60406060815161026581610ca1565b600091818380935282602082015282858201520152610282611f38565b61028a611f1a565b33815260036020522054168015610333575b156102ee576102ad6102ea91611c02565b6102b76001600055565b60405191829182919091606080608083019480511515845260208101516020850152604081015160408501520151910152565b0390f35b60405162461bcd60e51b815260206004820152601f60248201527f417262697472616765456e67696e653a204e6f7420617574686f72697a6564006044820152606490fd5b506001543360089190911c6001600160a01b03161461029c565b600091031261024157565b34610241576000366003190112610241576020600954604051908152f35b6001600160a01b0381160361024157565b9181601f84011215610241578235916001600160401b038311610241576020838186019501011161024157565b346102415760a03660031901126102415760048035906103d382610376565b602435906064356103e381610376565b6084356001600160401b038111610241576104019036908401610387565b919060ff60115460a01c161561073e579061045761044a6104456104406104399560009760018060a01b039788978830911614611f5b565b3691610d23565b612605565b610da3565b546001600160a01b031690565b1694610464861515611fb2565b16916040938451916370a0823160e01b9182845260209788858061049930878301919091602081019260018060a01b03169052565b03818a5afa9485156106f95786918a91839761071b575b50600a5461053891906001600160a01b0316600b546001600160a01b03168c87600d5491610504600f54946104f56104e6610cf5565b6001600160a01b039098168852565b6001600160a01b0316868a0152565b84015260608301526080820152610519612019565b60a08201528b5194858094819363340e539760e21b83528a83016120c3565b03925af190816106fe575b5061058c575050505050506102ea91506000905b6011805460ff60a01b1916905561056c612191565b601180546001600160a01b03191690555190151581529081906020820190565b6105b9929161059f899260443590612116565b885193845230918401918252929384918291602090910190565b0381885afa9182156106f9576102ea976105e695936106c4575b50506105e190821015612123565b611bca565b906106056105fe6105f68461217b565b612710900490565b8093611bca565b9182610617575b505050600190610557565b6011546001600160a01b031660009081526004602052604090207f6d3df9844b6224b91ec53a46da9db0ba7e5fa27ee2d61416dceaff91331bff2b9261068d91839190610665878254612116565b905561067b61067683600854612116565b600855565b6007546001600160a01b031690612229565b6011546106aa906001600160a01b03165b6001600160a01b031690565b8451938452602084019190915291604090a238808061060c565b6105e192935090816106ea92903d106106f2575b6106e28183610cd4565b81019061200a565b9190386105d3565b503d6106d8565b611ad2565b610714908a3d8c116106f2576106e28183610cd4565b5038610543565b61053891975061073790833d85116106f2576106e28183610cd4565b96906104b0565b60405162461bcd60e51b8152602081860152602560248201527f417262697472616765456e67696e653a204e6f2061637469766520666c617368604482015264103637b0b760d91b6064820152608490fd5b602060031982011261024157600435906001600160401b038211610241576107ba91600401610387565b9091565b346102415760206107ce36610790565b80604051928337600290820190815281900382019020546040516001600160a01b0390911615158152f35b3461024157602061080936610790565b80604051928337600290820190815281900382019020546040516001600160a01b039091168152f35b3461024157600036600319011261024157602060405160328152f35b3461024157602036600319011261024157602061087560043561087081610376565b612326565b604051908152f35b346102415760203660031901126102415760043561089a81610376565b6108a2611689565b6001600160a01b039081169060005b600680549081831015610019576000527ff652222313e28459528d920b65115c16c04f3efc82aaedc97be59f3f377c0d3f82015483166001600160a01b03168414610905575061090090611bd7565b6108b1565b61095b925061093661092161091c61093c93611bb6565b6113c5565b905460039190911b1c6001600160a01b031690565b916113c5565b90919082549060031b9160018060a01b03809116831b921b1916179055565b6109636123db565b7f16efea6e0195948001c10bd6643a290feed99dc10dc38c7b3b3d1195de7007cb600080a2005b34610241576000366003190112610241576109a3611689565b60015460ff8116156109e25760ff19166001557f5db9ee0a495bf2e6ff9c91a7834c1ba4fdd244a5e8aa4e537bd38aeae4b073aa6020604051338152a1005b604051638dfc202b60e01b8152600490fd5b3461024157600036600319011261024157610a0d611689565b610a15611f1a565b600160ff19815416176001557f62e78cea01bee320cd4e420270b5ea74000d11b0c9f74754ebdbfc544b05a2586020604051338152a1005b3461024157602036600319011261024157600435610a6a81610376565b60018060a01b03166000526003602052602060ff604060002054166040519015158152f35b3461024157600036600319011261024157602060ff600154166040519015158152f35b34610241576000366003190112610241576020600854604051908152f35b3461024157602036600319011261024157600435610aed81610376565b60018060a01b03166000526005602052602060ff604060002054166040519015158152f35b3461024157600080600319360112610b7457610b2c611689565b60018054610100600160a81b03198116909155819060081c6001600160a01b03167f8be0079c531659141344cd1fd0a4f28419497f9722a3daafe3b4186f6b6457e08280a380f35b80fd5b34610241576040366003190112610241576004356001600160401b03811161024157610ba7903690600401610387565b60243590610bb482610376565b610bbc611689565b6001600160a01b038216928315610c3657610c0a610c0f936040518484823760208186810160028152030190209060018060a01b03166bffffffffffffffffffffffff60a01b825416179055565b612311565b7f26b7ec31932b80f7f1658730c601cceecf15549501f585b6c39f8743aa2c08eb600080a3005b60405162461bcd60e51b815260206004820152602760248201527f417262697472616765456e67696e653a20496e76616c696420696d706c656d65604482015266373a30ba34b7b760c91b6064820152608490fd5b634e487b7160e01b600052604160045260246000fd5b608081019081106001600160401b03821117610cbc57604052565b610c8b565b6001600160401b038111610cbc57604052565b90601f801991011681019081106001600160401b03821117610cbc57604052565b6040519060c082018281106001600160401b03821117610cbc57604052565b60405190610d2182610ca1565b565b9291926001600160401b038211610cbc5760405191610d4c601f8201601f191660200184610cd4565b829481845281830111610241578281602093846000960137010152565b60005b838110610d7c5750506000910152565b8181015183820152602001610d6c565b90610d9f60209282815194859201610d69565b0190565b6020610dbc918160405193828580945193849201610d69565b8101600281520301902090565b34610241576020366003190112610241576004356001600160401b0381116102415736602382011215610241576020906001600160a01b0390610e1a90610445903690600481013590602401610d23565b5416604051908152f35b8015150361024157565b604090600319011261024157600435610e4681610376565b90602435610e5381610e24565b90565b346102415760207fbbe72b7d9dcb594ee398a4a617885aba53d833e2aad601c813ce9df99fdeb49b610e8736610e2e565b9290610e91611689565b6001600160a01b031660008181526005835260409020805460ff191660ff86151516179055925b6040519015158152a2005b346102415760207fad857fa38c9319cb80848f1ef2f924383b90297eb5d71755738ff037d100faa1610ef436610e2e565b9290610efe611689565b6001600160a01b031660008181526003835260409020805460ff191660ff8615151617905592610eb8565b3461024157602036600319011261024157600435610f4681610376565b610f4e611689565b6001600160a01b038116908115610fae576006549068010000000000000000821015610cbc5761093c826001610f8794016006556113c5565b7f3194b3206f246d437471a9c64a6f81c6242ee6916c91240bc107002639540e12600080a2005b60405162461bcd60e51b815260206004820152602160248201527f417262697472616765456e67696e653a20496e76616c69642070726f766964656044820152603960f91b6064820152608490fd5b346102415760003660031901126102415760015460405160089190911c6001600160a01b03168152602090f35b346102415761103836610210565b60c0810190600061044061106761044a6104456110558787611812565b6001600160a01b039591369190610d23565b1692611074841515611fb2565b6110f5611080846117b1565b9160209586860191611091836117b1565b96604080966110d78b838501359b6110cb6110ac8888611812565b9290936110ba6104e6610d14565b6001600160a01b0390911690860152565b8c858501523691610d23565b6060820152815180978192635ec5c0c160e11b8352600483016122d2565b0381865afa80156106f9576111639588916112c6575b50898961112661069e61069e83611121886117b1565b61245f565b61112f856117b1565b8a5163b02c67fd60e01b81526001600160a01b03909116600482015260248101929092529097889190829081906044820190565b03915afa9081156106f9578a9689926112a7575b50611182828b612116565b8111611269575b5050906111e360a08361121e98999a6111b76111b06111aa6111ff986117b1565b996117b1565b9583611812565b9490956111d46111c5610cf5565b6001600160a01b03909b168b52565b6001600160a01b0316898b0152565b8a88015260608101356060880152013560808601523691610d23565b60a08301528451808095819463057cabff60e31b8352600483016120c3565b03915afa9384156106f957600094611244575b5050519081526020810191909152604090f35b6102ea929450908161126192903d106106f2576106e28183610cd4565b929038611231565b61121e9798506111ff939261129c61128a6111e3946105e18e60a096611bca565b6112966105f68261217b565b90611bca565b999850929350611189565b6112bf919250873d89116106f2576106e28183610cd4565b9038611177565b6112e69150873d89116112ed575b6112de8183610cd4565b8101906122bc565b503861110b565b503d6112d4565b346102415760403660031901126102415760043561131181610376565b6024359061131d611f38565b81159161132a83156116b8565b600092839233845260046020526113478360408620541015612381565b336000908152600460205260409020611361848254611bca565b90556001600160a01b03168061139d575082809281928290611394575b3390f1156106f9575b6113916001600055565b80f35b506108fc61137e565b6113aa9350339150612229565b611387565b634e487b7160e01b600052603260045260246000fd5b6006548110156113fc5760066000527ff652222313e28459528d920b65115c16c04f3efc82aaedc97be59f3f377c0d3f0190600090565b6113af565b34610241576020366003190112610241576004356006548110156102415760066000527ff652222313e28459528d920b65115c16c04f3efc82aaedc97be59f3f377c0d3f01546040516001600160a01b039091168152602090f35b346102415760203660031901126102415760043561147981610376565b60018060a01b031660005260046020526020604060002054604051908152f35b34610241576000366003190112610241576007546040516001600160a01b039091168152602090f35b34610241576020366003190112610241576004356114df81610376565b6114e7611689565b6001600160a01b0381811691821561154057600780546001600160a01b031981166001600160a01b039384161790915516167f5d16ad41baeb009cd23eb8f6c7cde5c2e0cd5acf4a33926ab488875c37c37f38600080a3005b60405162461bcd60e51b815260206004820152602260248201527f417262697472616765456e67696e653a20496e76616c696420636f6c6c65637460448201526137b960f11b6064820152608490fd5b346102415760003660031901126102415760206040516127108152f35b3461024157600036600319011261024157602060405166038d7ea4c680008152f35b34610241576020366003190112610241576004356115ec81610376565b6115f4611689565b6001600160a01b038181169182156116535760018054610100600160a81b03198116600893841b610100600160a81b031617909155901c167f8be0079c531659141344cd1fd0a4f28419497f9722a3daafe3b4186f6b6457e0600080a3005b604051631e4fbdf760e01b815260006004820152602490fd5b346102415760003660031901126102415760206040516113888152f35b60015460081c6001600160a01b031633036116a057565b60405163118cdaa760e01b8152336004820152602490fd5b156116bf57565b60405162461bcd60e51b815260206004820152601f60248201527f417262697472616765456e67696e653a20496e76616c696420616d6f756e74006044820152606490fd5b1561170b57565b60405162461bcd60e51b815260206004820152602160248201527f417262697472616765456e67696e653a204578706972656420646561646c696e6044820152606560f81b6064820152608490fd5b1561176157565b60405162461bcd60e51b815260206004820152602260248201527f417262697472616765456e67696e653a20536c69707061676520746f6f2068696044820152610ced60f31b6064820152608490fd5b35610e5381610376565b156117c257565b60405162461bcd60e51b815260206004820152602260248201527f417262697472616765456e67696e653a20556e737570706f7274656420746f6b60448201526132b760f11b6064820152608490fd5b903590601e198136030182121561024157018035906001600160401b0382116102415760200191813603831361024157565b90600182811c92168015611874575b602083101461185e57565b634e487b7160e01b600052602260045260246000fd5b91607f1691611853565b601f811161188a575050565b60009060108252600080516020612620833981519152906020601f850160051c830194106118d3575b601f0160051c01915b8281106118c857505050565b8181556001016118bc565b90925082906118b3565b906119508235926118ed84610376565b600a80546001600160a01b03199081166001600160a01b03968716179091556020948286013561191c81610376565b1690600b541617600b556040810135600c556060810135600d556080810135600e5560a0810135600f5560c0810190611812565b906001600160401b038211610cbc576119738261196e601054611844565b61187e565b600093601f83116001146119b05750928192936000926119a5575b50508160011b916000199060031b1c191617601055565b01359050388061198e565b90601f198316946119d1601060005260008051602061262083398151915290565b9281905b878210611a0e5750508360019596106119f4575b505050811b01601055565b0135600019600384901b60f8161c191690553880806119e9565b806001849682949587013581550195019201906119d5565b15611a2d57565b60405162461bcd60e51b815260206004820152603160248201527f417262697472616765456e67696e653a204e6f20666c617368206c6f616e2070604482015270726f766964657220617661696c61626c6560781b6064820152608490fd5b938060609460a09394989798600180861b038096168852602088015260806040880152816080880152838701376000828287010152601f80199101168401019416910152565b6040513d6000823e3d90fd5b60009060033d11611aeb57565b905060046000803e60005160e01c90565b600060443d10610e5357604051600319913d83016004833e81516001600160401b03918282113d602484011117611b5957818401948551938411611b61573d85010160208487010111611b595750610e5392910160200190610cd4565b949350505050565b50949350505050565b90602091611b8381518092818552858086019101610d69565b601f01601f1916010190565b906020610e53928181520190611b6a565b634e487b7160e01b600052601160045260246000fd5b600019810191908211611bc557565b611ba0565b91908203918211611bc557565b6000198114611bc55760010190565b610e539392606092825260208201528160408201520190611b6a565b906040918281013590611c168215156116b8565b611c264260a08301351015611704565b611c386113886080830135111561175a565b611c68611c61611c47836117b1565b6001600160a01b0316600090815260056020526040902090565b5460ff1690565b80611efd575b611c77906117bb565b5a91611c82826118dd565b601180546001600160a01b031916331790556011805460ff60a01b1916600160a01b1790556001600160a01b039283611cbe83611121866117b1565b1693611ccb851515611a26565b611cd4846117b1565b60c0850195611ce38787611812565b929091803b1561024157611d1493600080948d519687958694859363587d492960e11b85528d309360048701611a8c565b03925af19081611ee4575b50611e2a5786611d2d611ade565b6308c379a014611d97575b6011805460ff60a01b191690555162461bcd60e51b815260206004820152602260248201527f417262697472616765456e67696e653a20466c617368206c6f616e206661696c604482015261195960f21b6064820152608490fd5b0390fd5b611d9f611afc565b80611daa5750611d38565b6011805460ff60a01b19169055611d9391611e0691611e149082517f417262697472616765456e67696e653a20466c617368206c6f616e206661696c602082015264032b21016960dd1b60408201529384916045830190610d8c565b03601f198101845283610cd4565b5162461bcd60e51b815291829160048301611b8f565b611e567f922d95291cf829964b61841560048f40a0b2ca9d8572e0ab690822346c797eae925a90611bca565b611edf611e634242611bca565b336000908152600460205260409020549290611e7d610d14565b6001815291602083019485528b830152606082015298611ea6611ea1600954611bd7565b600955565b83611ece610440610439611eb98b6117b1565b9b611ec660208d016117b1565b97519b611812565b915194859416981696339684611be6565b0390a4565b80611ef1611ef792610cc1565b8061034d565b38611d1f565b50611c77611f13611c61611c47602085016117b1565b9050611c6e565b60ff60015416611f2657565b60405163d93c066560e01b8152600490fd5b600260005414611f49576002600055565b604051633ee5aeb560e01b8152600490fd5b15611f6257565b60405162461bcd60e51b815260206004820152602260248201527f417262697472616765456e67696e653a20496e76616c696420696e697469617460448201526137b960f11b6064820152608490fd5b15611fb957565b60405162461bcd60e51b815260206004820152602360248201527f417262697472616765456e67696e653a205374726174656779206e6f7420666f6044820152621d5b9960ea1b6064820152608490fd5b90816020910312610241575190565b604051906000826010549161202d83611844565b808352926001908181169081156120a15750600114612054575b50610d2192500383610cd4565b6010600090815291506000805160206126208339815191525b8483106120865750610d21935050810160200138612047565b81935090816020925483858a0101520191019091859261206d565b905060209250610d2194915060ff191682840152151560051b82010138612047565b60e060a0610e539360208452600180831b038082511660208601526020820151166040850152604081015160608501526060810151608085015260808101518285015201519160c0808201520190611b6a565b91908201809211611bc557565b1561212a57565b60405162461bcd60e51b8152602060048201526024808201527f417262697472616765456e67696e653a20496e73756666696369656e742070726044820152631bd99a5d60e21b6064820152608490fd5b90603282029180830460321490151715611bc557565b600080600a5580600b5580600c5580600d5580600e5580600f556121b6601054611844565b806121bf575050565b601f81116001146121d05750601055565b601f600080516020612620833981519152910160051c81017f1b6847dc741a1b0cd08d278845f9d819d87b734759afb55fe2de5cb82a9ae6735b81811061221e575050601082528160105555565b83815560010161220a565b60405163a9059cbb60e01b60208083019182526001600160a01b039490941660248301526044808301959095529381529092600091612269606482610cd4565b519082855af115611ad2576000513d6122b357506001600160a01b0381163b155b6122915750565b604051635274afe760e01b81526001600160a01b039091166004820152602490fd5b6001141561228a565b9190826040910312610241576020825192015190565b60a06060610e539360208452600180841b0380825116602086015260208201511660408501526040810151828501520151916080808201520190611b6a565b81604051928392833781016000815203902090565b6001600160a01b03168061233957504790565b6020602491604051928380926370a0823160e01b82523060048301525afa9081156106f957600091612369575090565b610e53915060203d81116106f2576106e28183610cd4565b1561238857565b60405162461bcd60e51b815260206004820152602560248201527f417262697472616765456e67696e653a20496e73756666696369656e742070726044820152646f6669747360d81b6064820152608490fd5b600654801561243457600019810190808210156113fc577ff652222313e28459528d920b65115c16c04f3efc82aaedc97be59f3f377c0d3e906006600052016bffffffffffffffffffffffff60a01b8154169055600655565b634e487b7160e01b600052603160045260246000fd5b908160209103126102415751610e5381610e24565b600654600093928492600019845b84811061247c57505050505050565b612488610921826113c5565b604080516308c9682b60e31b81526001600160a01b038681166004808401919091526020939291851691908482602481865afa9384156106f9578a948a938e916125d8575b508061256f575b6124ee575b505050505050506124e990611bd7565b61246d565b5163b02c67fd60e01b81526001600160a01b03909216908201908152602081019390935291839183918290819060400103915afa9182156106f9578992612552575b5050838110612544575b85818681806124d9565b90985091506124e93861253a565b6125689250803d106106f2576106e28183610cd4565b3880612530565b5080516304cdc57b60e31b81526001600160a01b038b168184019081529095509092508590859081906020010381865afa9182156106f9578a8a9381968f916125bb575b5010156124d4565b6125d29150883d8a116106f2576106e28183610cd4565b386125b3565b6125f89150873d89116125fe575b6125f08183610cd4565b81019061244a565b386124cd565b503d6125e6565b606090602081511015612616575090565b6020915001519056fe1b6847dc741a1b0cd08d278845f9d819d87b734759afb55fe2de5cb82a9ae672a26469706673582212205149587b51b7da4a346bb4a09f8d030d5ee07a4d827eaca1ef8d208b868156f764736f6c63430008140033","opcodes":"PUSH1 0x80 CALLVALUE PUSH3 0x166 JUMPI PUSH1 0x1F PUSH3 0x27F7 CODESIZE DUP2 SWAP1 SUB SWAP2 DUP3 ADD PUSH1 0x1F NOT AND DUP4 ADD SWAP2 PUSH1 0x1 PUSH1 0x1 PUSH1 0x40 SHL SUB DUP4 GT DUP5 DUP5 LT OR PUSH3 0x16B JUMPI DUP1 DUP5 SWAP3 PUSH1 0x20 SWAP5 PUSH1 0x40 MSTORE DUP4 CODECOPY DUP2 ADD SUB SLT PUSH3 0x166 JUMPI MLOAD PUSH1 0x1 PUSH1 0x1 PUSH1 0xA0 SHL SUB SWAP1 DUP2 DUP2 AND SWAP1 DUP2 SWAP1 SUB PUSH3 0x166 JUMPI PUSH1 0x0 SWAP1 PUSH1 0x1 DUP3 SSTORE CALLER ISZERO PUSH3 0x14D JUMPI PUSH1 0x1 DUP1 SLOAD PUSH2 0x100 PUSH1 0x1 PUSH1 0xA8 SHL SUB NOT DUP2 AND CALLER PUSH1 0x8 DUP2 DUP2 SHL PUSH2 0x100 PUSH1 0x1 PUSH1 0xA8 SHL SUB AND SWAP3 SWAP1 SWAP3 OR SWAP1 SWAP4 SSTORE PUSH1 0x40 MLOAD SWAP6 SWAP2 SWAP1 SHR AND PUSH32 0x8BE0079C531659141344CD1FD0A4F28419497F9722A3DAAFE3B4186F6B6457E0 DUP5 DUP1 LOG3 DUP1 ISZERO PUSH3 0xFC JUMPI PUSH1 0x7 DUP1 SLOAD PUSH1 0x1 PUSH1 0x1 PUSH1 0xA0 SHL SUB NOT AND SWAP2 SWAP1 SWAP2 OR SWAP1 SSTORE DUP1 DUP1 MSTORE PUSH1 0x5 PUSH1 0x20 MSTORE PUSH1 0x40 SWAP1 DUP2 SWAP1 KECCAK256 DUP1 SLOAD PUSH1 0xFF NOT AND PUSH1 0x1 OR SWAP1 SSTORE MLOAD PUSH2 0x2675 SWAP2 POP DUP2 PUSH3 0x182 DUP3 CODECOPY RETURN JUMPDEST PUSH3 0x461BCD PUSH1 0xE5 SHL DUP4 MSTORE PUSH1 0x20 PUSH1 0x4 DUP5 ADD MSTORE PUSH1 0x26 PUSH1 0x24 DUP5 ADD MSTORE PUSH32 0x417262697472616765456E67696E653A20496E76616C69642066656520636F6C PUSH1 0x44 DUP5 ADD MSTORE PUSH6 0x3632B1BA37B9 PUSH1 0xD1 SHL PUSH1 0x64 DUP5 ADD MSTORE PUSH1 0x84 DUP4 REVERT JUMPDEST PUSH1 0x40 MLOAD PUSH4 0x1E4FBDF7 PUSH1 0xE0 SHL DUP2 MSTORE PUSH1 0x4 DUP2 ADD DUP4 SWAP1 MSTORE PUSH1 0x24 SWAP1 REVERT JUMPDEST PUSH1 0x0 DUP1 REVERT JUMPDEST PUSH4 0x4E487B71 PUSH1 0xE0 SHL PUSH1 0x0 MSTORE PUSH1 0x41 PUSH1 0x4 MSTORE PUSH1 0x24 PUSH1 0x0 REVERT INVALID PUSH1 0x80 PUSH1 0x40 MSTORE PUSH1 0x4 CALLDATASIZE LT ISZERO PUSH2 0x1B JUMPI JUMPDEST CALLDATASIZE ISZERO PUSH2 0x19 JUMPI PUSH1 0x0 DUP1 REVERT JUMPDEST STOP JUMPDEST PUSH1 0x0 CALLDATALOAD PUSH1 0xE0 SHR DUP1 PUSH4 0xD222C84 EQ PUSH2 0x20B JUMPI DUP1 PUSH4 0x1328C07E EQ PUSH2 0x206 JUMPI DUP1 PUSH4 0x1B11D0FF EQ PUSH2 0x201 JUMPI DUP1 PUSH4 0x1E9EF4CE EQ PUSH2 0x1FC JUMPI DUP1 PUSH4 0x26F9DD1E EQ PUSH2 0x1F7 JUMPI DUP1 PUSH4 0x34FBC9A1 EQ PUSH2 0x1F2 JUMPI DUP1 PUSH4 0x3AECD0E3 EQ PUSH2 0x1ED JUMPI DUP1 PUSH4 0x3DB08EB2 EQ PUSH2 0x1E8 JUMPI DUP1 PUSH4 0x3F4BA83A EQ PUSH2 0x1E3 JUMPI DUP1 PUSH4 0x51858E27 EQ PUSH2 0x1DE JUMPI DUP1 PUSH4 0x536FFF6C EQ PUSH2 0x1D9 JUMPI DUP1 PUSH4 0x5C975ABB EQ PUSH2 0x1D4 JUMPI DUP1 PUSH4 0x60C6D8AE EQ PUSH2 0x1CF JUMPI DUP1 PUSH4 0x68C4AC26 EQ PUSH2 0x1CA JUMPI DUP1 PUSH4 0x715018A6 EQ PUSH2 0x1C5 JUMPI DUP1 PUSH4 0x7317B989 EQ PUSH2 0x1C0 JUMPI DUP1 PUSH4 0x780F1ACD EQ PUSH2 0x1BB JUMPI DUP1 PUSH4 0x7B4C9274 EQ PUSH2 0x1B6 JUMPI DUP1 PUSH4 0x8937CA15 EQ PUSH2 0x1B1 JUMPI DUP1 PUSH4 0x8D34EFF9 EQ PUSH2 0x1AC JUMPI DUP1 PUSH4 0x8DA5CB5B EQ PUSH2 0x1A7 JUMPI DUP1 PUSH4 0x8F83E539 EQ PUSH2 0x1A2 JUMPI DUP1 PUSH4 0xAAFC9651 EQ PUSH2 0x19D JUMPI DUP1 PUSH4 0xB35DDC8A EQ PUSH2 0x198 JUMPI DUP1 PUSH4 0xBE354836 EQ PUSH2 0x193 JUMPI DUP1 PUSH4 0xC415B95C EQ PUSH2 0x18E JUMPI DUP1 PUSH4 0xD2C35CE8 EQ PUSH2 0x189 JUMPI DUP1 PUSH4 0xE1F1C4A7 EQ PUSH2 0x184 JUMPI DUP1 PUSH4 0xE73D668F EQ PUSH2 0x17F JUMPI DUP1 PUSH4 0xF2FDE38B EQ PUSH2 0x17A JUMPI PUSH4 0xF9759518 SUB PUSH2 0xE JUMPI PUSH2 0x166C JUMP JUMPDEST PUSH2 0x15CF JUMP JUMPDEST PUSH2 0x15AD JUMP JUMPDEST PUSH2 0x1590 JUMP JUMPDEST PUSH2 0x14C2 JUMP JUMPDEST PUSH2 0x1499 JUMP JUMPDEST PUSH2 0x145C JUMP JUMPDEST PUSH2 0x1401 JUMP JUMPDEST PUSH2 0x12F4 JUMP JUMPDEST PUSH2 0x102A JUMP JUMPDEST PUSH2 0xFFD JUMP JUMPDEST PUSH2 0xF29 JUMP JUMPDEST PUSH2 0xEC3 JUMP JUMPDEST PUSH2 0xE56 JUMP JUMPDEST PUSH2 0xDC9 JUMP JUMPDEST PUSH2 0xB77 JUMP JUMPDEST PUSH2 0xB12 JUMP JUMPDEST PUSH2 0xAD0 JUMP JUMPDEST PUSH2 0xAB2 JUMP JUMPDEST PUSH2 0xA8F JUMP JUMPDEST PUSH2 0xA4D JUMP JUMPDEST PUSH2 0x9F4 JUMP JUMPDEST PUSH2 0x98A JUMP JUMPDEST PUSH2 0x87D JUMP JUMPDEST PUSH2 0x84E JUMP JUMPDEST PUSH2 0x832 JUMP JUMPDEST PUSH2 0x7F9 JUMP JUMPDEST PUSH2 0x7BE JUMP JUMPDEST PUSH2 0x3B4 JUMP JUMPDEST PUSH2 0x358 JUMP JUMPDEST PUSH2 0x246 JUMP JUMPDEST PUSH1 0x3 NOT SWAP1 PUSH1 0x20 DUP2 DUP4 ADD SLT PUSH2 0x241 JUMPI PUSH1 0x4 CALLDATALOAD SWAP2 PUSH1 0x1 PUSH1 0x1 PUSH1 0x40 SHL SUB DUP4 GT PUSH2 0x241 JUMPI DUP3 PUSH1 0xE0 SWAP3 SUB ADD SLT PUSH2 0x241 JUMPI PUSH1 0x4 ADD SWAP1 JUMP JUMPDEST PUSH1 0x0 DUP1 REVERT JUMPDEST CALLVALUE PUSH2 0x241 JUMPI PUSH2 0x254 CALLDATASIZE PUSH2 0x210 JUMP JUMPDEST PUSH1 0xFF PUSH1 0x40 PUSH1 0x60 DUP2 MLOAD PUSH2 0x265 DUP2 PUSH2 0xCA1 JUMP JUMPDEST PUSH1 0x0 SWAP2 DUP2 DUP4 DUP1 SWAP4 MSTORE DUP3 PUSH1 0x20 DUP3 ADD MSTORE DUP3 DUP6 DUP3 ADD MSTORE ADD MSTORE PUSH2 0x282 PUSH2 0x1F38 JUMP JUMPDEST PUSH2 0x28A PUSH2 0x1F1A JUMP JUMPDEST CALLER DUP2 MSTORE PUSH1 0x3 PUSH1 0x20 MSTORE KECCAK256 SLOAD AND DUP1 ISZERO PUSH2 0x333 JUMPI JUMPDEST ISZERO PUSH2 0x2EE JUMPI PUSH2 0x2AD PUSH2 0x2EA SWAP2 PUSH2 0x1C02 JUMP JUMPDEST PUSH2 0x2B7 PUSH1 0x1 PUSH1 0x0 SSTORE JUMP JUMPDEST PUSH1 0x40 MLOAD SWAP2 DUP3 SWAP2 DUP3 SWAP2 SWAP1 SWAP2 PUSH1 0x60 DUP1 PUSH1 0x80 DUP4 ADD SWAP5 DUP1 MLOAD ISZERO ISZERO DUP5 MSTORE PUSH1 0x20 DUP2 ADD MLOAD PUSH1 0x20 DUP6 ADD MSTORE PUSH1 0x40 DUP2 ADD MLOAD PUSH1 0x40 DUP6 ADD MSTORE ADD MLOAD SWAP2 ADD MSTORE JUMP JUMPDEST SUB SWAP1 RETURN JUMPDEST PUSH1 0x40 MLOAD PUSH3 0x461BCD PUSH1 0xE5 SHL DUP2 MSTORE PUSH1 0x20 PUSH1 0x4 DUP3 ADD MSTORE PUSH1 0x1F PUSH1 0x24 DUP3 ADD MSTORE PUSH32 0x417262697472616765456E67696E653A204E6F7420617574686F72697A656400 PUSH1 0x44 DUP3 ADD MSTORE PUSH1 0x64 SWAP1 REVERT JUMPDEST POP PUSH1 0x1 SLOAD CALLER PUSH1 0x8 SWAP2 SWAP1 SWAP2 SHR PUSH1 0x1 PUSH1 0x1 PUSH1 0xA0 SHL SUB AND EQ PUSH2 0x29C JUMP JUMPDEST PUSH1 0x0 SWAP2 SUB SLT PUSH2 0x241 JUMPI JUMP JUMPDEST CALLVALUE PUSH2 0x241 JUMPI PUSH1 0x0 CALLDATASIZE PUSH1 0x3 NOT ADD SLT PUSH2 0x241 JUMPI PUSH1 0x20 PUSH1 0x9 SLOAD PUSH1 0x40 MLOAD SWAP1 DUP2 MSTORE RETURN JUMPDEST PUSH1 0x1 PUSH1 0x1 PUSH1 0xA0 SHL SUB DUP2 AND SUB PUSH2 0x241 JUMPI JUMP JUMPDEST SWAP2 DUP2 PUSH1 0x1F DUP5 ADD SLT ISZERO PUSH2 0x241 JUMPI DUP3 CALLDATALOAD SWAP2 PUSH1 0x1 PUSH1 0x1 PUSH1 0x40 SHL SUB DUP4 GT PUSH2 0x241 JUMPI PUSH1 0x20 DUP4 DUP2 DUP7 ADD SWAP6 ADD ADD GT PUSH2 0x241 JUMPI JUMP JUMPDEST CALLVALUE PUSH2 0x241 JUMPI PUSH1 0xA0 CALLDATASIZE PUSH1 0x3 NOT ADD SLT PUSH2 0x241 JUMPI PUSH1 0x4 DUP1 CALLDATALOAD SWAP1 PUSH2 0x3D3 DUP3 PUSH2 0x376 JUMP JUMPDEST PUSH1 0x24 CALLDATALOAD SWAP1 PUSH1 0x64 CALLDATALOAD PUSH2 0x3E3 DUP2 PUSH2 0x376 JUMP JUMPDEST PUSH1 0x84 CALLDATALOAD PUSH1 0x1 PUSH1 0x1 PUSH1 0x40 SHL SUB DUP2 GT PUSH2 0x241 JUMPI PUSH2 0x401 SWAP1 CALLDATASIZE SWAP1 DUP5 ADD PUSH2 0x387 JUMP JUMPDEST SWAP2 SWAP1 PUSH1 0xFF PUSH1 0x11 SLOAD PUSH1 0xA0 SHR AND ISZERO PUSH2 0x73E JUMPI SWAP1 PUSH2 0x457 PUSH2 0x44A PUSH2 0x445 PUSH2 0x440 PUSH2 0x439 SWAP6 PUSH1 0x0 SWAP8 PUSH1 0x1 DUP1 PUSH1 0xA0 SHL SUB SWAP8 DUP9 SWAP8 DUP9 ADDRESS SWAP2 AND EQ PUSH2 0x1F5B JUMP JUMPDEST CALLDATASIZE SWAP2 PUSH2 0xD23 JUMP JUMPDEST PUSH2 0x2605 JUMP JUMPDEST PUSH2 0xDA3 JUMP JUMPDEST SLOAD PUSH1 0x1 PUSH1 0x1 PUSH1 0xA0 SHL SUB AND SWAP1 JUMP JUMPDEST AND SWAP5 PUSH2 0x464 DUP7 ISZERO ISZERO PUSH2 0x1FB2 JUMP JUMPDEST AND SWAP2 PUSH1 0x40 SWAP4 DUP5 MLOAD SWAP2 PUSH4 0x70A08231 PUSH1 0xE0 SHL SWAP2 DUP3 DUP5 MSTORE PUSH1 0x20 SWAP8 DUP9 DUP6 DUP1 PUSH2 0x499 ADDRESS DUP8 DUP4 ADD SWAP2 SWAP1 SWAP2 PUSH1 0x20 DUP2 ADD SWAP3 PUSH1 0x1 DUP1 PUSH1 0xA0 SHL SUB AND SWAP1 MSTORE JUMP JUMPDEST SUB DUP2 DUP11 GAS STATICCALL SWAP5 DUP6 ISZERO PUSH2 0x6F9 JUMPI DUP7 SWAP2 DUP11 SWAP2 DUP4 SWAP8 PUSH2 0x71B JUMPI JUMPDEST POP PUSH1 0xA SLOAD PUSH2 0x538 SWAP2 SWAP1 PUSH1 0x1 PUSH1 0x1 PUSH1 0xA0 SHL SUB AND PUSH1 0xB SLOAD PUSH1 0x1 PUSH1 0x1 PUSH1 0xA0 SHL SUB AND DUP13 DUP8 PUSH1 0xD SLOAD SWAP2 PUSH2 0x504 PUSH1 0xF SLOAD SWAP5 PUSH2 0x4F5 PUSH2 0x4E6 PUSH2 0xCF5 JUMP JUMPDEST PUSH1 0x1 PUSH1 0x1 PUSH1 0xA0 SHL SUB SWAP1 SWAP9 AND DUP9 MSTORE JUMP JUMPDEST PUSH1 0x1 PUSH1 0x1 PUSH1 0xA0 SHL SUB AND DUP7 DUP11 ADD MSTORE JUMP JUMPDEST DUP5 ADD MSTORE PUSH1 0x60 DUP4 ADD MSTORE PUSH1 0x80 DUP3 ADD MSTORE PUSH2 0x519 PUSH2 0x2019 JUMP JUMPDEST PUSH1 0xA0 DUP3 ADD MSTORE DUP12 MLOAD SWAP5 DUP6 DUP1 SWAP5 DUP2 SWAP4 PUSH4 0x340E5397 PUSH1 0xE2 SHL DUP4 MSTORE DUP11 DUP4 ADD PUSH2 0x20C3 JUMP JUMPDEST SUB SWAP3 GAS CALL SWAP1 DUP2 PUSH2 0x6FE JUMPI JUMPDEST POP PUSH2 0x58C JUMPI POP POP POP POP POP POP PUSH2 0x2EA SWAP2 POP PUSH1 0x0 SWAP1 JUMPDEST PUSH1 0x11 DUP1 SLOAD PUSH1 0xFF PUSH1 0xA0 SHL NOT AND SWAP1 SSTORE PUSH2 0x56C PUSH2 0x2191 JUMP JUMPDEST PUSH1 0x11 DUP1 SLOAD PUSH1 0x1 PUSH1 0x1 PUSH1 0xA0 SHL SUB NOT AND SWAP1 SSTORE MLOAD SWAP1 ISZERO ISZERO DUP2 MSTORE SWAP1 DUP2 SWAP1 PUSH1 0x20 DUP3 ADD SWAP1 JUMP JUMPDEST PUSH2 0x5B9 SWAP3 SWAP2 PUSH2 0x59F DUP10 SWAP3 PUSH1 0x44 CALLDATALOAD SWAP1 PUSH2 0x2116 JUMP JUMPDEST DUP9 MLOAD SWAP4 DUP5 MSTORE ADDRESS SWAP2 DUP5 ADD SWAP2 DUP3 MSTORE SWAP3 SWAP4 DUP5 SWAP2 DUP3 SWAP2 PUSH1 0x20 SWAP1 SWAP2 ADD SWAP1 JUMP JUMPDEST SUB DUP2 DUP9 GAS STATICCALL SWAP2 DUP3 ISZERO PUSH2 0x6F9 JUMPI PUSH2 0x2EA SWAP8 PUSH2 0x5E6 SWAP6 SWAP4 PUSH2 0x6C4 JUMPI JUMPDEST POP POP PUSH2 0x5E1 SWAP1 DUP3 LT ISZERO PUSH2 0x2123 JUMP JUMPDEST PUSH2 0x1BCA JUMP JUMPDEST SWAP1 PUSH2 0x605 PUSH2 0x5FE PUSH2 0x5F6 DUP5 PUSH2 0x217B JUMP JUMPDEST PUSH2 0x2710 SWAP1 DIV SWAP1 JUMP JUMPDEST DUP1 SWAP4 PUSH2 0x1BCA JUMP JUMPDEST SWAP2 DUP3 PUSH2 0x617 JUMPI JUMPDEST POP POP POP PUSH1 0x1 SWAP1 PUSH2 0x557 JUMP JUMPDEST PUSH1 0x11 SLOAD PUSH1 0x1 PUSH1 0x1 PUSH1 0xA0 SHL SUB AND PUSH1 0x0 SWAP1 DUP2 MSTORE PUSH1 0x4 PUSH1 0x20 MSTORE PUSH1 0x40 SWAP1 KECCAK256 PUSH32 0x6D3DF9844B6224B91EC53A46DA9DB0BA7E5FA27EE2D61416DCEAFF91331BFF2B SWAP3 PUSH2 0x68D SWAP2 DUP4 SWAP2 SWAP1 PUSH2 0x665 DUP8 DUP3 SLOAD PUSH2 0x2116 JUMP JUMPDEST SWAP1 SSTORE PUSH2 0x67B PUSH2 0x676 DUP4 PUSH1 0x8 SLOAD PUSH2 0x2116 JUMP JUMPDEST PUSH1 0x8 SSTORE JUMP JUMPDEST PUSH1 0x7 SLOAD PUSH1 0x1 PUSH1 0x1 PUSH1 0xA0 SHL SUB AND SWAP1 PUSH2 0x2229 JUMP JUMPDEST PUSH1 0x11 SLOAD PUSH2 0x6AA SWAP1 PUSH1 0x1 PUSH1 0x1 PUSH1 0xA0 SHL SUB AND JUMPDEST PUSH1 0x1 PUSH1 0x1 PUSH1 0xA0 SHL SUB AND SWAP1 JUMP JUMPDEST DUP5 MLOAD SWAP4 DUP5 MSTORE PUSH1 0x20 DUP5 ADD SWAP2 SWAP1 SWAP2 MSTORE SWAP2 PUSH1 0x40 SWAP1 LOG2 CODESIZE DUP1 DUP1 PUSH2 0x60C JUMP JUMPDEST PUSH2 0x5E1 SWAP3 SWAP4 POP SWAP1 DUP2 PUSH2 0x6EA SWAP3 SWAP1 RETURNDATASIZE LT PUSH2 0x6F2 JUMPI JUMPDEST PUSH2 0x6E2 DUP2 DUP4 PUSH2 0xCD4 JUMP JUMPDEST DUP2 ADD SWAP1 PUSH2 0x200A JUMP JUMPDEST SWAP2 SWAP1 CODESIZE PUSH2 0x5D3 JUMP JUMPDEST POP RETURNDATASIZE PUSH2 0x6D8 JUMP JUMPDEST PUSH2 0x1AD2 JUMP JUMPDEST PUSH2 0x714 SWAP1 DUP11 RETURNDATASIZE DUP13 GT PUSH2 0x6F2 JUMPI PUSH2 0x6E2 DUP2 DUP4 PUSH2 0xCD4 JUMP JUMPDEST POP CODESIZE PUSH2 0x543 JUMP JUMPDEST PUSH2 0x538 SWAP2 SWAP8 POP PUSH2 0x737 SWAP1 DUP4 RETURNDATASIZE DUP6 GT PUSH2 0x6F2 JUMPI PUSH2 0x6E2 DUP2 DUP4 PUSH2 0xCD4 JUMP JUMPDEST SWAP7 SWAP1 PUSH2 0x4B0 JUMP JUMPDEST PUSH1 0x40 MLOAD PUSH3 0x461BCD PUSH1 0xE5 SHL DUP2 MSTORE PUSH1 0x20 DUP2 DUP7 ADD MSTORE PUSH1 0x25 PUSH1 0x24 DUP3 ADD MSTORE PUSH32 0x417262697472616765456E67696E653A204E6F2061637469766520666C617368 PUSH1 0x44 DUP3 ADD MSTORE PUSH5 0x103637B0B7 PUSH1 0xD9 SHL PUSH1 0x64 DUP3 ADD MSTORE PUSH1 0x84 SWAP1 REVERT JUMPDEST PUSH1 0x20 PUSH1 0x3 NOT DUP3 ADD SLT PUSH2 0x241 JUMPI PUSH1 0x4 CALLDATALOAD SWAP1 PUSH1 0x1 PUSH1 0x1 PUSH1 0x40 SHL SUB DUP3 GT PUSH2 0x241 JUMPI PUSH2 0x7BA SWAP2 PUSH1 0x4 ADD PUSH2 0x387 JUMP JUMPDEST SWAP1 SWAP2 JUMP JUMPDEST CALLVALUE PUSH2 0x241 JUMPI PUSH1 0x20 PUSH2 0x7CE CALLDATASIZE PUSH2 0x790 JUMP JUMPDEST DUP1 PUSH1 0x40 MLOAD SWAP3 DUP4 CALLDATACOPY PUSH1 0x2 SWAP1 DUP3 ADD SWAP1 DUP2 MSTORE DUP2 SWAP1 SUB DUP3 ADD SWAP1 KECCAK256 SLOAD PUSH1 0x40 MLOAD PUSH1 0x1 PUSH1 0x1 PUSH1 0xA0 SHL SUB SWAP1 SWAP2 AND ISZERO ISZERO DUP2 MSTORE RETURN JUMPDEST CALLVALUE PUSH2 0x241 JUMPI PUSH1 0x20 PUSH2 0x809 CALLDATASIZE PUSH2 0x790 JUMP JUMPDEST DUP1 PUSH1 0x40 MLOAD SWAP3 DUP4 CALLDATACOPY PUSH1 0x2 SWAP1 DUP3 ADD SWAP1 DUP2 MSTORE DUP2 SWAP1 SUB DUP3 ADD SWAP1 KECCAK256 SLOAD PUSH1 0x40 MLOAD PUSH1 0x1 PUSH1 0x1 PUSH1 0xA0 SHL SUB SWAP1 SWAP2 AND DUP2 MSTORE RETURN JUMPDEST CALLVALUE PUSH2 0x241 JUMPI PUSH1 0x0 CALLDATASIZE PUSH1 0x3 NOT ADD SLT PUSH2 0x241 JUMPI PUSH1 0x20 PUSH1 0x40 MLOAD PUSH1 0x32 DUP2 MSTORE RETURN JUMPDEST CALLVALUE PUSH2 0x241 JUMPI PUSH1 0x20 CALLDATASIZE PUSH1 0x3 NOT ADD SLT PUSH2 0x241 JUMPI PUSH1 0x20 PUSH2 0x875 PUSH1 0x4 CALLDATALOAD PUSH2 0x870 DUP2 PUSH2 0x376 JUMP JUMPDEST PUSH2 0x2326 JUMP JUMPDEST PUSH1 0x40 MLOAD SWAP1 DUP2 MSTORE RETURN JUMPDEST CALLVALUE PUSH2 0x241 JUMPI PUSH1 0x20 CALLDATASIZE PUSH1 0x3 NOT ADD SLT PUSH2 0x241 JUMPI PUSH1 0x4 CALLDATALOAD PUSH2 0x89A DUP2 PUSH2 0x376 JUMP JUMPDEST PUSH2 0x8A2 PUSH2 0x1689 JUMP JUMPDEST PUSH1 0x1 PUSH1 0x1 PUSH1 0xA0 SHL SUB SWAP1 DUP2 AND SWAP1 PUSH1 0x0 JUMPDEST PUSH1 0x6 DUP1 SLOAD SWAP1 DUP2 DUP4 LT ISZERO PUSH2 0x19 JUMPI PUSH1 0x0 MSTORE PUSH32 0xF652222313E28459528D920B65115C16C04F3EFC82AAEDC97BE59F3F377C0D3F DUP3 ADD SLOAD DUP4 AND PUSH1 0x1 PUSH1 0x1 PUSH1 0xA0 SHL SUB AND DUP5 EQ PUSH2 0x905 JUMPI POP PUSH2 0x900 SWAP1 PUSH2 0x1BD7 JUMP JUMPDEST PUSH2 0x8B1 JUMP JUMPDEST PUSH2 0x95B SWAP3 POP PUSH2 0x936 PUSH2 0x921 PUSH2 0x91C PUSH2 0x93C SWAP4 PUSH2 0x1BB6 JUMP JUMPDEST PUSH2 0x13C5 JUMP JUMPDEST SWAP1 SLOAD PUSH1 0x3 SWAP2 SWAP1 SWAP2 SHL SHR PUSH1 0x1 PUSH1 0x1 PUSH1 0xA0 SHL SUB AND SWAP1 JUMP JUMPDEST SWAP2 PUSH2 0x13C5 JUMP JUMPDEST SWAP1 SWAP2 SWAP1 DUP3 SLOAD SWAP1 PUSH1 0x3 SHL SWAP2 PUSH1 0x1 DUP1 PUSH1 0xA0 SHL SUB DUP1 SWAP2 AND DUP4 SHL SWAP3 SHL NOT AND OR SWAP1 SSTORE JUMP JUMPDEST PUSH2 0x963 PUSH2 0x23DB JUMP JUMPDEST PUSH32 0x16EFEA6E0195948001C10BD6643A290FEED99DC10DC38C7B3B3D1195DE7007CB PUSH1 0x0 DUP1 LOG2 STOP JUMPDEST CALLVALUE PUSH2 0x241 JUMPI PUSH1 0x0 CALLDATASIZE PUSH1 0x3 NOT ADD SLT PUSH2 0x241 JUMPI PUSH2 0x9A3 PUSH2 0x1689 JUMP JUMPDEST PUSH1 0x1 SLOAD PUSH1 0xFF DUP2 AND ISZERO PUSH2 0x9E2 JUMPI PUSH1 0xFF NOT AND PUSH1 0x1 SSTORE PUSH32 0x5DB9EE0A495BF2E6FF9C91A7834C1BA4FDD244A5E8AA4E537BD38AEAE4B073AA PUSH1 0x20 PUSH1 0x40 MLOAD CALLER DUP2 MSTORE LOG1 STOP JUMPDEST PUSH1 0x40 MLOAD PUSH4 0x8DFC202B PUSH1 0xE0 SHL DUP2 MSTORE PUSH1 0x4 SWAP1 REVERT JUMPDEST CALLVALUE PUSH2 0x241 JUMPI PUSH1 0x0 CALLDATASIZE PUSH1 0x3 NOT ADD SLT PUSH2 0x241 JUMPI PUSH2 0xA0D PUSH2 0x1689 JUMP JUMPDEST PUSH2 0xA15 PUSH2 0x1F1A JUMP JUMPDEST PUSH1 0x1 PUSH1 0xFF NOT DUP2 SLOAD AND OR PUSH1 0x1 SSTORE PUSH32 0x62E78CEA01BEE320CD4E420270B5EA74000D11B0C9F74754EBDBFC544B05A258 PUSH1 0x20 PUSH1 0x40 MLOAD CALLER DUP2 MSTORE LOG1 STOP JUMPDEST CALLVALUE PUSH2 0x241 JUMPI PUSH1 0x20 CALLDATASIZE PUSH1 0x3 NOT ADD SLT PUSH2 0x241 JUMPI PUSH1 0x4 CALLDATALOAD PUSH2 0xA6A DUP2 PUSH2 0x376 JUMP JUMPDEST PUSH1 0x1 DUP1 PUSH1 0xA0 SHL SUB AND PUSH1 0x0 MSTORE PUSH1 0x3 PUSH1 0x20 MSTORE PUSH1 0x20 PUSH1 0xFF PUSH1 0x40 PUSH1 0x0 KECCAK256 SLOAD AND PUSH1 0x40 MLOAD SWAP1 ISZERO ISZERO DUP2 MSTORE RETURN JUMPDEST CALLVALUE PUSH2 0x241 JUMPI PUSH1 0x0 CALLDATASIZE PUSH1 0x3 NOT ADD SLT PUSH2 0x241 JUMPI PUSH1 0x20 PUSH1 0xFF PUSH1 0x1 SLOAD AND PUSH1 0x40 MLOAD SWAP1 ISZERO ISZERO DUP2 MSTORE RETURN JUMPDEST CALLVALUE PUSH2 0x241 JUMPI PUSH1 0x0 CALLDATASIZE PUSH1 0x3 NOT ADD SLT PUSH2 0x241 JUMPI PUSH1 0x20 PUSH1 0x8 SLOAD PUSH1 0x40 MLOAD SWAP1 DUP2 MSTORE RETURN JUMPDEST CALLVALUE PUSH2 0x241 JUMPI PUSH1 0x20 CALLDATASIZE PUSH1 0x3 NOT ADD SLT PUSH2 0x241 JUMPI PUSH1 0x4 CALLDATALOAD PUSH2 0xAED DUP2 PUSH2 0x376 JUMP JUMPDEST PUSH1 0x1 DUP1 PUSH1 0xA0 SHL SUB AND PUSH1 0x0 MSTORE PUSH1 0x5 PUSH1 0x20 MSTORE PUSH1 0x20 PUSH1 0xFF PUSH1 0x40 PUSH1 0x0 KECCAK256 SLOAD AND PUSH1 0x40 MLOAD SWAP1 ISZERO ISZERO DUP2 MSTORE RETURN JUMPDEST CALLVALUE PUSH2 0x241 JUMPI PUSH1 0x0 DUP1 PUSH1 0x3 NOT CALLDATASIZE ADD SLT PUSH2 0xB74 JUMPI PUSH2 0xB2C PUSH2 0x1689 JUMP JUMPDEST PUSH1 0x1 DUP1 SLOAD PUSH2 0x100 PUSH1 0x1 PUSH1 0xA8 SHL SUB NOT DUP2 AND SWAP1 SWAP2 SSTORE DUP2 SWAP1 PUSH1 0x8 SHR PUSH1 0x1 PUSH1 0x1 PUSH1 0xA0 SHL SUB AND PUSH32 0x8BE0079C531659141344CD1FD0A4F28419497F9722A3DAAFE3B4186F6B6457E0 DUP3 DUP1 LOG3 DUP1 RETURN JUMPDEST DUP1 REVERT JUMPDEST CALLVALUE PUSH2 0x241 JUMPI PUSH1 0x40 CALLDATASIZE PUSH1 0x3 NOT ADD SLT PUSH2 0x241 JUMPI PUSH1 0x4 CALLDATALOAD PUSH1 0x1 PUSH1 0x1 PUSH1 0x40 SHL SUB DUP2 GT PUSH2 0x241 JUMPI PUSH2 0xBA7 SWAP1 CALLDATASIZE SWAP1 PUSH1 0x4 ADD PUSH2 0x387 JUMP JUMPDEST PUSH1 0x24 CALLDATALOAD SWAP1 PUSH2 0xBB4 DUP3 PUSH2 0x376 JUMP JUMPDEST PUSH2 0xBBC PUSH2 0x1689 JUMP JUMPDEST PUSH1 0x1 PUSH1 0x1 PUSH1 0xA0 SHL SUB DUP3 AND SWAP3 DUP4 ISZERO PUSH2 0xC36 JUMPI PUSH2 0xC0A PUSH2 0xC0F SWAP4 PUSH1 0x40 MLOAD DUP5 DUP5 DUP3 CALLDATACOPY PUSH1 0x20 DUP2 DUP7 DUP2 ADD PUSH1 0x2 DUP2 MSTORE SUB ADD SWAP1 KECCAK256 SWAP1 PUSH1 0x1 DUP1 PUSH1 0xA0 SHL SUB AND PUSH12 0xFFFFFFFFFFFFFFFFFFFFFFFF PUSH1 0xA0 SHL DUP3 SLOAD AND OR SWAP1 SSTORE JUMP JUMPDEST PUSH2 0x2311 JUMP JUMPDEST PUSH32 0x26B7EC31932B80F7F1658730C601CCEECF15549501F585B6C39F8743AA2C08EB PUSH1 0x0 DUP1 LOG3 STOP JUMPDEST PUSH1 0x40 MLOAD PUSH3 0x461BCD PUSH1 0xE5 SHL DUP2 MSTORE PUSH1 0x20 PUSH1 0x4 DUP3 ADD MSTORE PUSH1 0x27 PUSH1 0x24 DUP3 ADD MSTORE PUSH32 0x417262697472616765456E67696E653A20496E76616C696420696D706C656D65 PUSH1 0x44 DUP3 ADD MSTORE PUSH7 0x373A30BA34B7B7 PUSH1 0xC9 SHL PUSH1 0x64 DUP3 ADD MSTORE PUSH1 0x84 SWAP1 REVERT JUMPDEST PUSH4 0x4E487B71 PUSH1 0xE0 SHL PUSH1 0x0 MSTORE PUSH1 0x41 PUSH1 0x4 MSTORE PUSH1 0x24 PUSH1 0x0 REVERT JUMPDEST PUSH1 0x80 DUP2 ADD SWAP1 DUP2 LT PUSH1 0x1 PUSH1 0x1 PUSH1 0x40 SHL SUB DUP3 GT OR PUSH2 0xCBC JUMPI PUSH1 0x40 MSTORE JUMP JUMPDEST PUSH2 0xC8B JUMP JUMPDEST PUSH1 0x1 PUSH1 0x1 PUSH1 0x40 SHL SUB DUP2 GT PUSH2 0xCBC JUMPI PUSH1 0x40 MSTORE JUMP JUMPDEST SWAP1 PUSH1 0x1F DUP1 NOT SWAP2 ADD AND DUP2 ADD SWAP1 DUP2 LT PUSH1 0x1 PUSH1 0x1 PUSH1 0x40 SHL SUB DUP3 GT OR PUSH2 0xCBC JUMPI PUSH1 0x40 MSTORE JUMP JUMPDEST PUSH1 0x40 MLOAD SWAP1 PUSH1 0xC0 DUP3 ADD DUP3 DUP2 LT PUSH1 0x1 PUSH1 0x1 PUSH1 0x40 SHL SUB DUP3 GT OR PUSH2 0xCBC JUMPI PUSH1 0x40 MSTORE JUMP JUMPDEST PUSH1 0x40 MLOAD SWAP1 PUSH2 0xD21 DUP3 PUSH2 0xCA1 JUMP JUMPDEST JUMP JUMPDEST SWAP3 SWAP2 SWAP3 PUSH1 0x1 PUSH1 0x1 PUSH1 0x40 SHL SUB DUP3 GT PUSH2 0xCBC JUMPI PUSH1 0x40 MLOAD SWAP2 PUSH2 0xD4C PUSH1 0x1F DUP3 ADD PUSH1 0x1F NOT AND PUSH1 0x20 ADD DUP5 PUSH2 0xCD4 JUMP JUMPDEST DUP3 SWAP5 DUP2 DUP5 MSTORE DUP2 DUP4 ADD GT PUSH2 0x241 JUMPI DUP3 DUP2 PUSH1 0x20 SWAP4 DUP5 PUSH1 0x0 SWAP7 ADD CALLDATACOPY ADD ADD MSTORE JUMP JUMPDEST PUSH1 0x0 JUMPDEST DUP4 DUP2 LT PUSH2 0xD7C JUMPI POP POP PUSH1 0x0 SWAP2 ADD MSTORE JUMP JUMPDEST DUP2 DUP2 ADD MLOAD DUP4 DUP3 ADD MSTORE PUSH1 0x20 ADD PUSH2 0xD6C JUMP JUMPDEST SWAP1 PUSH2 0xD9F PUSH1 0x20 SWAP3 DUP3 DUP2 MLOAD SWAP5 DUP6 SWAP3 ADD PUSH2 0xD69 JUMP JUMPDEST ADD SWAP1 JUMP JUMPDEST PUSH1 0x20 PUSH2 0xDBC SWAP2 DUP2 PUSH1 0x40 MLOAD SWAP4 DUP3 DUP6 DUP1 SWAP5 MLOAD SWAP4 DUP5 SWAP3 ADD PUSH2 0xD69 JUMP JUMPDEST DUP2 ADD PUSH1 0x2 DUP2 MSTORE SUB ADD SWAP1 KECCAK256 SWAP1 JUMP JUMPDEST CALLVALUE PUSH2 0x241 JUMPI PUSH1 0x20 CALLDATASIZE PUSH1 0x3 NOT ADD SLT PUSH2 0x241 JUMPI PUSH1 0x4 CALLDATALOAD PUSH1 0x1 PUSH1 0x1 PUSH1 0x40 SHL SUB DUP2 GT PUSH2 0x241 JUMPI CALLDATASIZE PUSH1 0x23 DUP3 ADD SLT ISZERO PUSH2 0x241 JUMPI PUSH1 0x20 SWAP1 PUSH1 0x1 PUSH1 0x1 PUSH1 0xA0 SHL SUB SWAP1 PUSH2 0xE1A SWAP1 PUSH2 0x445 SWAP1 CALLDATASIZE SWAP1 PUSH1 0x4 DUP2 ADD CALLDATALOAD SWAP1 PUSH1 0x24 ADD PUSH2 0xD23 JUMP JUMPDEST SLOAD AND PUSH1 0x40 MLOAD SWAP1 DUP2 MSTORE RETURN JUMPDEST DUP1 ISZERO ISZERO SUB PUSH2 0x241 JUMPI JUMP JUMPDEST PUSH1 0x40 SWAP1 PUSH1 0x3 NOT ADD SLT PUSH2 0x241 JUMPI PUSH1 0x4 CALLDATALOAD PUSH2 0xE46 DUP2 PUSH2 0x376 JUMP JUMPDEST SWAP1 PUSH1 0x24 CALLDATALOAD PUSH2 0xE53 DUP2 PUSH2 0xE24 JUMP JUMPDEST SWAP1 JUMP JUMPDEST CALLVALUE PUSH2 0x241 JUMPI PUSH1 0x20 PUSH32 0xBBE72B7D9DCB594EE398A4A617885ABA53D833E2AAD601C813CE9DF99FDEB49B PUSH2 0xE87 CALLDATASIZE PUSH2 0xE2E JUMP JUMPDEST SWAP3 SWAP1 PUSH2 0xE91 PUSH2 0x1689 JUMP JUMPDEST PUSH1 0x1 PUSH1 0x1 PUSH1 0xA0 SHL SUB AND PUSH1 0x0 DUP2 DUP2 MSTORE PUSH1 0x5 DUP4 MSTORE PUSH1 0x40 SWAP1 KECCAK256 DUP1 SLOAD PUSH1 0xFF NOT AND PUSH1 0xFF DUP7 ISZERO ISZERO AND OR SWAP1 SSTORE SWAP3 JUMPDEST PUSH1 0x40 MLOAD SWAP1 ISZERO ISZERO DUP2 MSTORE LOG2 STOP JUMPDEST CALLVALUE PUSH2 0x241 JUMPI PUSH1 0x20 PUSH32 0xAD857FA38C9319CB80848F1EF2F924383B90297EB5D71755738FF037D100FAA1 PUSH2 0xEF4 CALLDATASIZE PUSH2 0xE2E JUMP JUMPDEST SWAP3 SWAP1 PUSH2 0xEFE PUSH2 0x1689 JUMP JUMPDEST PUSH1 0x1 PUSH1 0x1 PUSH1 0xA0 SHL SUB AND PUSH1 0x0 DUP2 DUP2 MSTORE PUSH1 0x3 DUP4 MSTORE PUSH1 0x40 SWAP1 KECCAK256 DUP1 SLOAD PUSH1 0xFF NOT AND PUSH1 0xFF DUP7 ISZERO ISZERO AND OR SWAP1 SSTORE SWAP3 PUSH2 0xEB8 JUMP JUMPDEST CALLVALUE PUSH2 0x241 JUMPI PUSH1 0x20 CALLDATASIZE PUSH1 0x3 NOT ADD SLT PUSH2 0x241 JUMPI PUSH1 0x4 CALLDATALOAD PUSH2 0xF46 DUP2 PUSH2 0x376 JUMP JUMPDEST PUSH2 0xF4E PUSH2 0x1689 JUMP JUMPDEST PUSH1 0x1 PUSH1 0x1 PUSH1 0xA0 SHL SUB DUP2 AND SWAP1 DUP2 ISZERO PUSH2 0xFAE JUMPI PUSH1 0x6 SLOAD SWAP1 PUSH9 0x10000000000000000 DUP3 LT ISZERO PUSH2 0xCBC JUMPI PUSH2 0x93C DUP3 PUSH1 0x1 PUSH2 0xF87 SWAP5 ADD PUSH1 0x6 SSTORE PUSH2 0x13C5 JUMP JUMPDEST PUSH32 0x3194B3206F246D437471A9C64A6F81C6242EE6916C91240BC107002639540E12 PUSH1 0x0 DUP1 LOG2 STOP JUMPDEST PUSH1 0x40 MLOAD PUSH3 0x461BCD PUSH1 0xE5 SHL DUP2 MSTORE PUSH1 0x20 PUSH1 0x4 DUP3 ADD MSTORE PUSH1 0x21 PUSH1 0x24 DUP3 ADD MSTORE PUSH32 0x417262697472616765456E67696E653A20496E76616C69642070726F76696465 PUSH1 0x44 DUP3 ADD MSTORE PUSH1 0x39 PUSH1 0xF9 SHL PUSH1 0x64 DUP3 ADD MSTORE PUSH1 0x84 SWAP1 REVERT JUMPDEST CALLVALUE PUSH2 0x241 JUMPI PUSH1 0x0 CALLDATASIZE PUSH1 0x3 NOT ADD SLT PUSH2 0x241 JUMPI PUSH1 0x1 SLOAD PUSH1 0x40 MLOAD PUSH1 0x8 SWAP2 SWAP1 SWAP2 SHR PUSH1 0x1 PUSH1 0x1 PUSH1 0xA0 SHL SUB AND DUP2 MSTORE PUSH1 0x20 SWAP1 RETURN JUMPDEST CALLVALUE PUSH2 0x241 JUMPI PUSH2 0x1038 CALLDATASIZE PUSH2 0x210 JUMP JUMPDEST PUSH1 0xC0 DUP2 ADD SWAP1 PUSH1 0x0 PUSH2 0x440 PUSH2 0x1067 PUSH2 0x44A PUSH2 0x445 PUSH2 0x1055 DUP8 DUP8 PUSH2 0x1812 JUMP JUMPDEST PUSH1 0x1 PUSH1 0x1 PUSH1 0xA0 SHL SUB SWAP6 SWAP2 CALLDATASIZE SWAP2 SWAP1 PUSH2 0xD23 JUMP JUMPDEST AND SWAP3 PUSH2 0x1074 DUP5 ISZERO ISZERO PUSH2 0x1FB2 JUMP JUMPDEST PUSH2 0x10F5 PUSH2 0x1080 DUP5 PUSH2 0x17B1 JUMP JUMPDEST SWAP2 PUSH1 0x20 SWAP6 DUP7 DUP7 ADD SWAP2 PUSH2 0x1091 DUP4 PUSH2 0x17B1 JUMP JUMPDEST SWAP7 PUSH1 0x40 DUP1 SWAP7 PUSH2 0x10D7 DUP12 DUP4 DUP6 ADD CALLDATALOAD SWAP12 PUSH2 0x10CB PUSH2 0x10AC DUP9 DUP9 PUSH2 0x1812 JUMP JUMPDEST SWAP3 SWAP1 SWAP4 PUSH2 0x10BA PUSH2 0x4E6 PUSH2 0xD14 JUMP JUMPDEST PUSH1 0x1 PUSH1 0x1 PUSH1 0xA0 SHL SUB SWAP1 SWAP2 AND SWAP1 DUP7 ADD MSTORE JUMP JUMPDEST DUP13 DUP6 DUP6 ADD MSTORE CALLDATASIZE SWAP2 PUSH2 0xD23 JUMP JUMPDEST PUSH1 0x60 DUP3 ADD MSTORE DUP2 MLOAD DUP1 SWAP8 DUP2 SWAP3 PUSH4 0x5EC5C0C1 PUSH1 0xE1 SHL DUP4 MSTORE PUSH1 0x4 DUP4 ADD PUSH2 0x22D2 JUMP JUMPDEST SUB DUP2 DUP7 GAS STATICCALL DUP1 ISZERO PUSH2 0x6F9 JUMPI PUSH2 0x1163 SWAP6 DUP9 SWAP2 PUSH2 0x12C6 JUMPI JUMPDEST POP DUP10 DUP10 PUSH2 0x1126 PUSH2 0x69E PUSH2 0x69E DUP4 PUSH2 0x1121 DUP9 PUSH2 0x17B1 JUMP JUMPDEST PUSH2 0x245F JUMP JUMPDEST PUSH2 0x112F DUP6 PUSH2 0x17B1 JUMP JUMPDEST DUP11 MLOAD PUSH4 0xB02C67FD PUSH1 0xE0 SHL DUP2 MSTORE PUSH1 0x1 PUSH1 0x1 PUSH1 0xA0 SHL SUB SWAP1 SWAP2 AND PUSH1 0x4 DUP3 ADD MSTORE PUSH1 0x24 DUP2 ADD SWAP3 SWAP1 SWAP3 MSTORE SWAP1 SWAP8 DUP9 SWAP2 SWAP1 DUP3 SWAP1 DUP2 SWAP1 PUSH1 0x44 DUP3 ADD SWAP1 JUMP JUMPDEST SUB SWAP2 GAS STATICCALL SWAP1 DUP2 ISZERO PUSH2 0x6F9 JUMPI DUP11 SWAP7 DUP10 SWAP3 PUSH2 0x12A7 JUMPI JUMPDEST POP PUSH2 0x1182 DUP3 DUP12 PUSH2 0x2116 JUMP JUMPDEST DUP2 GT PUSH2 0x1269 JUMPI JUMPDEST POP POP SWAP1 PUSH2 0x11E3 PUSH1 0xA0 DUP4 PUSH2 0x121E SWAP9 SWAP10 SWAP11 PUSH2 0x11B7 PUSH2 0x11B0 PUSH2 0x11AA PUSH2 0x11FF SWAP9 PUSH2 0x17B1 JUMP JUMPDEST SWAP10 PUSH2 0x17B1 JUMP JUMPDEST SWAP6 DUP4 PUSH2 0x1812 JUMP JUMPDEST SWAP5 SWAP1 SWAP6 PUSH2 0x11D4 PUSH2 0x11C5 PUSH2 0xCF5 JUMP JUMPDEST PUSH1 0x1 PUSH1 0x1 PUSH1 0xA0 SHL SUB SWAP1 SWAP12 AND DUP12 MSTORE JUMP JUMPDEST PUSH1 0x1 PUSH1 0x1 PUSH1 0xA0 SHL SUB AND DUP10 DUP12 ADD MSTORE JUMP JUMPDEST DUP11 DUP9 ADD MSTORE PUSH1 0x60 DUP2 ADD CALLDATALOAD PUSH1 0x60 DUP9 ADD MSTORE ADD CALLDATALOAD PUSH1 0x80 DUP7 ADD MSTORE CALLDATASIZE SWAP2 PUSH2 0xD23 JUMP JUMPDEST PUSH1 0xA0 DUP4 ADD MSTORE DUP5 MLOAD DUP1 DUP1 SWAP6 DUP2 SWAP5 PUSH4 0x57CABFF PUSH1 0xE3 SHL DUP4 MSTORE PUSH1 0x4 DUP4 ADD PUSH2 0x20C3 JUMP JUMPDEST SUB SWAP2 GAS STATICCALL SWAP4 DUP5 ISZERO PUSH2 0x6F9 JUMPI PUSH1 0x0 SWAP5 PUSH2 0x1244 JUMPI JUMPDEST POP POP MLOAD SWAP1 DUP2 MSTORE PUSH1 0x20 DUP2 ADD SWAP2 SWAP1 SWAP2 MSTORE PUSH1 0x40 SWAP1 RETURN JUMPDEST PUSH2 0x2EA SWAP3 SWAP5 POP SWAP1 DUP2 PUSH2 0x1261 SWAP3 SWAP1 RETURNDATASIZE LT PUSH2 0x6F2 JUMPI PUSH2 0x6E2 DUP2 DUP4 PUSH2 0xCD4 JUMP JUMPDEST SWAP3 SWAP1 CODESIZE PUSH2 0x1231 JUMP JUMPDEST PUSH2 0x121E SWAP8 SWAP9 POP PUSH2 0x11FF SWAP4 SWAP3 PUSH2 0x129C PUSH2 0x128A PUSH2 0x11E3 SWAP5 PUSH2 0x5E1 DUP15 PUSH1 0xA0 SWAP7 PUSH2 0x1BCA JUMP JUMPDEST PUSH2 0x1296 PUSH2 0x5F6 DUP3 PUSH2 0x217B JUMP JUMPDEST SWAP1 PUSH2 0x1BCA JUMP JUMPDEST SWAP10 SWAP9 POP SWAP3 SWAP4 POP PUSH2 0x1189 JUMP JUMPDEST PUSH2 0x12BF SWAP2 SWAP3 POP DUP8 RETURNDATASIZE DUP10 GT PUSH2 0x6F2 JUMPI PUSH2 0x6E2 DUP2 DUP4 PUSH2 0xCD4 JUMP JUMPDEST SWAP1 CODESIZE PUSH2 0x1177 JUMP JUMPDEST PUSH2 0x12E6 SWAP2 POP DUP8 RETURNDATASIZE DUP10 GT PUSH2 0x12ED JUMPI JUMPDEST PUSH2 0x12DE DUP2 DUP4 PUSH2 0xCD4 JUMP JUMPDEST DUP2 ADD SWAP1 PUSH2 0x22BC JUMP JUMPDEST POP CODESIZE PUSH2 0x110B JUMP JUMPDEST POP RETURNDATASIZE PUSH2 0x12D4 JUMP JUMPDEST CALLVALUE PUSH2 0x241 JUMPI PUSH1 0x40 CALLDATASIZE PUSH1 0x3 NOT ADD SLT PUSH2 0x241 JUMPI PUSH1 0x4 CALLDATALOAD PUSH2 0x1311 DUP2 PUSH2 0x376 JUMP JUMPDEST PUSH1 0x24 CALLDATALOAD SWAP1 PUSH2 0x131D PUSH2 0x1F38 JUMP JUMPDEST DUP2 ISZERO SWAP2 PUSH2 0x132A DUP4 ISZERO PUSH2 0x16B8 JUMP JUMPDEST PUSH1 0x0 SWAP3 DUP4 SWAP3 CALLER DUP5 MSTORE PUSH1 0x4 PUSH1 0x20 MSTORE PUSH2 0x1347 DUP4 PUSH1 0x40 DUP7 KECCAK256 SLOAD LT ISZERO PUSH2 0x2381 JUMP JUMPDEST CALLER PUSH1 0x0 SWAP1 DUP2 MSTORE PUSH1 0x4 PUSH1 0x20 MSTORE PUSH1 0x40 SWAP1 KECCAK256 PUSH2 0x1361 DUP5 DUP3 SLOAD PUSH2 0x1BCA JUMP JUMPDEST SWAP1 SSTORE PUSH1 0x1 PUSH1 0x1 PUSH1 0xA0 SHL SUB AND DUP1 PUSH2 0x139D JUMPI POP DUP3 DUP1 SWAP3 DUP2 SWAP3 DUP3 SWAP1 PUSH2 0x1394 JUMPI JUMPDEST CALLER SWAP1 CALL ISZERO PUSH2 0x6F9 JUMPI JUMPDEST PUSH2 0x1391 PUSH1 0x1 PUSH1 0x0 SSTORE JUMP JUMPDEST DUP1 RETURN JUMPDEST POP PUSH2 0x8FC PUSH2 0x137E JUMP JUMPDEST PUSH2 0x13AA SWAP4 POP CALLER SWAP2 POP PUSH2 0x2229 JUMP JUMPDEST PUSH2 0x1387 JUMP JUMPDEST PUSH4 0x4E487B71 PUSH1 0xE0 SHL PUSH1 0x0 MSTORE PUSH1 0x32 PUSH1 0x4 MSTORE PUSH1 0x24 PUSH1 0x0 REVERT JUMPDEST PUSH1 0x6 SLOAD DUP2 LT ISZERO PUSH2 0x13FC JUMPI PUSH1 0x6 PUSH1 0x0 MSTORE PUSH32 0xF652222313E28459528D920B65115C16C04F3EFC82AAEDC97BE59F3F377C0D3F ADD SWAP1 PUSH1 0x0 SWAP1 JUMP JUMPDEST PUSH2 0x13AF JUMP JUMPDEST CALLVALUE PUSH2 0x241 JUMPI PUSH1 0x20 CALLDATASIZE PUSH1 0x3 NOT ADD SLT PUSH2 0x241 JUMPI PUSH1 0x4 CALLDATALOAD PUSH1 0x6 SLOAD DUP2 LT ISZERO PUSH2 0x241 JUMPI PUSH1 0x6 PUSH1 0x0 MSTORE PUSH32 0xF652222313E28459528D920B65115C16C04F3EFC82AAEDC97BE59F3F377C0D3F ADD SLOAD PUSH1 0x40 MLOAD PUSH1 0x1 PUSH1 0x1 PUSH1 0xA0 SHL SUB SWAP1 SWAP2 AND DUP2 MSTORE PUSH1 0x20 SWAP1 RETURN JUMPDEST CALLVALUE PUSH2 0x241 JUMPI PUSH1 0x20 CALLDATASIZE PUSH1 0x3 NOT ADD SLT PUSH2 0x241 JUMPI PUSH1 0x4 CALLDATALOAD PUSH2 0x1479 DUP2 PUSH2 0x376 JUMP JUMPDEST PUSH1 0x1 DUP1 PUSH1 0xA0 SHL SUB AND PUSH1 0x0 MSTORE PUSH1 0x4 PUSH1 0x20 MSTORE PUSH1 0x20 PUSH1 0x40 PUSH1 0x0 KECCAK256 SLOAD PUSH1 0x40 MLOAD SWAP1 DUP2 MSTORE RETURN JUMPDEST CALLVALUE PUSH2 0x241 JUMPI PUSH1 0x0 CALLDATASIZE PUSH1 0x3 NOT ADD SLT PUSH2 0x241 JUMPI PUSH1 0x7 SLOAD PUSH1 0x40 MLOAD PUSH1 0x1 PUSH1 0x1 PUSH1 0xA0 SHL SUB SWAP1 SWAP2 AND DUP2 MSTORE PUSH1 0x20 SWAP1 RETURN JUMPDEST CALLVALUE PUSH2 0x241 JUMPI PUSH1 0x20 CALLDATASIZE PUSH1 0x3 NOT ADD SLT PUSH2 0x241 JUMPI PUSH1 0x4 CALLDATALOAD PUSH2 0x14DF DUP2 PUSH2 0x376 JUMP JUMPDEST PUSH2 0x14E7 PUSH2 0x1689 JUMP JUMPDEST PUSH1 0x1 PUSH1 0x1 PUSH1 0xA0 SHL SUB DUP2 DUP2 AND SWAP2 DUP3 ISZERO PUSH2 0x1540 JUMPI PUSH1 0x7 DUP1 SLOAD PUSH1 0x1 PUSH1 0x1 PUSH1 0xA0 SHL SUB NOT DUP2 AND PUSH1 0x1 PUSH1 0x1 PUSH1 0xA0 SHL SUB SWAP4 DUP5 AND OR SWAP1 SWAP2 SSTORE AND AND PUSH32 0x5D16AD41BAEB009CD23EB8F6C7CDE5C2E0CD5ACF4A33926AB488875C37C37F38 PUSH1 0x0 DUP1 LOG3 STOP JUMPDEST PUSH1 0x40 MLOAD PUSH3 0x461BCD PUSH1 0xE5 SHL DUP2 MSTORE PUSH1 0x20 PUSH1 0x4 DUP3 ADD MSTORE PUSH1 0x22 PUSH1 0x24 DUP3 ADD MSTORE PUSH32 0x417262697472616765456E67696E653A20496E76616C696420636F6C6C656374 PUSH1 0x44 DUP3 ADD MSTORE PUSH2 0x37B9 PUSH1 0xF1 SHL PUSH1 0x64 DUP3 ADD MSTORE PUSH1 0x84 SWAP1 REVERT JUMPDEST CALLVALUE PUSH2 0x241 JUMPI PUSH1 0x0 CALLDATASIZE PUSH1 0x3 NOT ADD SLT PUSH2 0x241 JUMPI PUSH1 0x20 PUSH1 0x40 MLOAD PUSH2 0x2710 DUP2 MSTORE RETURN JUMPDEST CALLVALUE PUSH2 0x241 JUMPI PUSH1 0x0 CALLDATASIZE PUSH1 0x3 NOT ADD SLT PUSH2 0x241 JUMPI PUSH1 0x20 PUSH1 0x40 MLOAD PUSH7 0x38D7EA4C68000 DUP2 MSTORE RETURN JUMPDEST CALLVALUE PUSH2 0x241 JUMPI PUSH1 0x20 CALLDATASIZE PUSH1 0x3 NOT ADD SLT PUSH2 0x241 JUMPI PUSH1 0x4 CALLDATALOAD PUSH2 0x15EC DUP2 PUSH2 0x376 JUMP JUMPDEST PUSH2 0x15F4 PUSH2 0x1689 JUMP JUMPDEST PUSH1 0x1 PUSH1 0x1 PUSH1 0xA0 SHL SUB DUP2 DUP2 AND SWAP2 DUP3 ISZERO PUSH2 0x1653 JUMPI PUSH1 0x1 DUP1 SLOAD PUSH2 0x100 PUSH1 0x1 PUSH1 0xA8 SHL SUB NOT DUP2 AND PUSH1 0x8 SWAP4 DUP5 SHL PUSH2 0x100 PUSH1 0x1 PUSH1 0xA8 SHL SUB AND OR SWAP1 SWAP2 SSTORE SWAP1 SHR AND PUSH32 0x8BE0079C531659141344CD1FD0A4F28419497F9722A3DAAFE3B4186F6B6457E0 PUSH1 0x0 DUP1 LOG3 STOP JUMPDEST PUSH1 0x40 MLOAD PUSH4 0x1E4FBDF7 PUSH1 0xE0 SHL DUP2 MSTORE PUSH1 0x0 PUSH1 0x4 DUP3 ADD MSTORE PUSH1 0x24 SWAP1 REVERT JUMPDEST CALLVALUE PUSH2 0x241 JUMPI PUSH1 0x0 CALLDATASIZE PUSH1 0x3 NOT ADD SLT PUSH2 0x241 JUMPI PUSH1 0x20 PUSH1 0x40 MLOAD PUSH2 0x1388 DUP2 MSTORE RETURN JUMPDEST PUSH1 0x1 SLOAD PUSH1 0x8 SHR PUSH1 0x1 PUSH1 0x1 PUSH1 0xA0 SHL SUB AND CALLER SUB PUSH2 0x16A0 JUMPI JUMP JUMPDEST PUSH1 0x40 MLOAD PUSH4 0x118CDAA7 PUSH1 0xE0 SHL DUP2 MSTORE CALLER PUSH1 0x4 DUP3 ADD MSTORE PUSH1 0x24 SWAP1 REVERT JUMPDEST ISZERO PUSH2 0x16BF JUMPI JUMP JUMPDEST PUSH1 0x40 MLOAD PUSH3 0x461BCD PUSH1 0xE5 SHL DUP2 MSTORE PUSH1 0x20 PUSH1 0x4 DUP3 ADD MSTORE PUSH1 0x1F PUSH1 0x24 DUP3 ADD MSTORE PUSH32 0x417262697472616765456E67696E653A20496E76616C696420616D6F756E7400 PUSH1 0x44 DUP3 ADD MSTORE PUSH1 0x64 SWAP1 REVERT JUMPDEST ISZERO PUSH2 0x170B JUMPI JUMP JUMPDEST PUSH1 0x40 MLOAD PUSH3 0x461BCD PUSH1 0xE5 SHL DUP2 MSTORE PUSH1 0x20 PUSH1 0x4 DUP3 ADD MSTORE PUSH1 0x21 PUSH1 0x24 DUP3 ADD MSTORE PUSH32 0x417262697472616765456E67696E653A204578706972656420646561646C696E PUSH1 0x44 DUP3 ADD MSTORE PUSH1 0x65 PUSH1 0xF8 SHL PUSH1 0x64 DUP3 ADD MSTORE PUSH1 0x84 SWAP1 REVERT JUMPDEST ISZERO PUSH2 0x1761 JUMPI JUMP JUMPDEST PUSH1 0x40 MLOAD PUSH3 0x461BCD PUSH1 0xE5 SHL DUP2 MSTORE PUSH1 0x20 PUSH1 0x4 DUP3 ADD MSTORE PUSH1 0x22 PUSH1 0x24 DUP3 ADD MSTORE PUSH32 0x417262697472616765456E67696E653A20536C69707061676520746F6F206869 PUSH1 0x44 DUP3 ADD MSTORE PUSH2 0xCED PUSH1 0xF3 SHL PUSH1 0x64 DUP3 ADD MSTORE PUSH1 0x84 SWAP1 REVERT JUMPDEST CALLDATALOAD PUSH2 0xE53 DUP2 PUSH2 0x376 JUMP JUMPDEST ISZERO PUSH2 0x17C2 JUMPI JUMP JUMPDEST PUSH1 0x40 MLOAD PUSH3 0x461BCD PUSH1 0xE5 SHL DUP2 MSTORE PUSH1 0x20 PUSH1 0x4 DUP3 ADD MSTORE PUSH1 0x22 PUSH1 0x24 DUP3 ADD MSTORE PUSH32 0x417262697472616765456E67696E653A20556E737570706F7274656420746F6B PUSH1 0x44 DUP3 ADD MSTORE PUSH2 0x32B7 PUSH1 0xF1 SHL PUSH1 0x64 DUP3 ADD MSTORE PUSH1 0x84 SWAP1 REVERT JUMPDEST SWAP1 CALLDATALOAD SWAP1 PUSH1 0x1E NOT DUP2 CALLDATASIZE SUB ADD DUP3 SLT ISZERO PUSH2 0x241 JUMPI ADD DUP1 CALLDATALOAD SWAP1 PUSH1 0x1 PUSH1 0x1 PUSH1 0x40 SHL SUB DUP3 GT PUSH2 0x241 JUMPI PUSH1 0x20 ADD SWAP2 DUP2 CALLDATASIZE SUB DUP4 SGT PUSH2 0x241 JUMPI JUMP JUMPDEST SWAP1 PUSH1 0x1 DUP3 DUP2 SHR SWAP3 AND DUP1 ISZERO PUSH2 0x1874 JUMPI JUMPDEST PUSH1 0x20 DUP4 LT EQ PUSH2 0x185E JUMPI JUMP JUMPDEST PUSH4 0x4E487B71 PUSH1 0xE0 SHL PUSH1 0x0 MSTORE PUSH1 0x22 PUSH1 0x4 MSTORE PUSH1 0x24 PUSH1 0x0 REVERT JUMPDEST SWAP2 PUSH1 0x7F AND SWAP2 PUSH2 0x1853 JUMP JUMPDEST PUSH1 0x1F DUP2 GT PUSH2 0x188A JUMPI POP POP JUMP JUMPDEST PUSH1 0x0 SWAP1 PUSH1 0x10 DUP3 MSTORE PUSH1 0x0 DUP1 MLOAD PUSH1 0x20 PUSH2 0x2620 DUP4 CODECOPY DUP2 MLOAD SWAP2 MSTORE SWAP1 PUSH1 0x20 PUSH1 0x1F DUP6 ADD PUSH1 0x5 SHR DUP4 ADD SWAP5 LT PUSH2 0x18D3 JUMPI JUMPDEST PUSH1 0x1F ADD PUSH1 0x5 SHR ADD SWAP2 JUMPDEST DUP3 DUP2 LT PUSH2 0x18C8 JUMPI POP POP POP JUMP JUMPDEST DUP2 DUP2 SSTORE PUSH1 0x1 ADD PUSH2 0x18BC JUMP JUMPDEST SWAP1 SWAP3 POP DUP3 SWAP1 PUSH2 0x18B3 JUMP JUMPDEST SWAP1 PUSH2 0x1950 DUP3 CALLDATALOAD SWAP3 PUSH2 0x18ED DUP5 PUSH2 0x376 JUMP JUMPDEST PUSH1 0xA DUP1 SLOAD PUSH1 0x1 PUSH1 0x1 PUSH1 0xA0 SHL SUB NOT SWAP1 DUP2 AND PUSH1 0x1 PUSH1 0x1 PUSH1 0xA0 SHL SUB SWAP7 DUP8 AND OR SWAP1 SWAP2 SSTORE PUSH1 0x20 SWAP5 DUP3 DUP7 ADD CALLDATALOAD PUSH2 0x191C DUP2 PUSH2 0x376 JUMP JUMPDEST AND SWAP1 PUSH1 0xB SLOAD AND OR PUSH1 0xB SSTORE PUSH1 0x40 DUP2 ADD CALLDATALOAD PUSH1 0xC SSTORE PUSH1 0x60 DUP2 ADD CALLDATALOAD PUSH1 0xD SSTORE PUSH1 0x80 DUP2 ADD CALLDATALOAD PUSH1 0xE SSTORE PUSH1 0xA0 DUP2 ADD CALLDATALOAD PUSH1 0xF SSTORE PUSH1 0xC0 DUP2 ADD SWAP1 PUSH2 0x1812 JUMP JUMPDEST SWAP1 PUSH1 0x1 PUSH1 0x1 PUSH1 0x40 SHL SUB DUP3 GT PUSH2 0xCBC JUMPI PUSH2 0x1973 DUP3 PUSH2 0x196E PUSH1 0x10 SLOAD PUSH2 0x1844 JUMP JUMPDEST PUSH2 0x187E JUMP JUMPDEST PUSH1 0x0 SWAP4 PUSH1 0x1F DUP4 GT PUSH1 0x1 EQ PUSH2 0x19B0 JUMPI POP SWAP3 DUP2 SWAP3 SWAP4 PUSH1 0x0 SWAP3 PUSH2 0x19A5 JUMPI JUMPDEST POP POP DUP2 PUSH1 0x1 SHL SWAP2 PUSH1 0x0 NOT SWAP1 PUSH1 0x3 SHL SHR NOT AND OR PUSH1 0x10 SSTORE JUMP JUMPDEST ADD CALLDATALOAD SWAP1 POP CODESIZE DUP1 PUSH2 0x198E JUMP JUMPDEST SWAP1 PUSH1 0x1F NOT DUP4 AND SWAP5 PUSH2 0x19D1 PUSH1 0x10 PUSH1 0x0 MSTORE PUSH1 0x0 DUP1 MLOAD PUSH1 0x20 PUSH2 0x2620 DUP4 CODECOPY DUP2 MLOAD SWAP2 MSTORE SWAP1 JUMP JUMPDEST SWAP3 DUP2 SWAP1 JUMPDEST DUP8 DUP3 LT PUSH2 0x1A0E JUMPI POP POP DUP4 PUSH1 0x1 SWAP6 SWAP7 LT PUSH2 0x19F4 JUMPI JUMPDEST POP POP POP DUP2 SHL ADD PUSH1 0x10 SSTORE JUMP JUMPDEST ADD CALLDATALOAD PUSH1 0x0 NOT PUSH1 0x3 DUP5 SWAP1 SHL PUSH1 0xF8 AND SHR NOT AND SWAP1 SSTORE CODESIZE DUP1 DUP1 PUSH2 0x19E9 JUMP JUMPDEST DUP1 PUSH1 0x1 DUP5 SWAP7 DUP3 SWAP5 SWAP6 DUP8 ADD CALLDATALOAD DUP2 SSTORE ADD SWAP6 ADD SWAP3 ADD SWAP1 PUSH2 0x19D5 JUMP JUMPDEST ISZERO PUSH2 0x1A2D JUMPI JUMP JUMPDEST PUSH1 0x40 MLOAD PUSH3 0x461BCD PUSH1 0xE5 SHL DUP2 MSTORE PUSH1 0x20 PUSH1 0x4 DUP3 ADD MSTORE PUSH1 0x31 PUSH1 0x24 DUP3 ADD MSTORE PUSH32 0x417262697472616765456E67696E653A204E6F20666C617368206C6F616E2070 PUSH1 0x44 DUP3 ADD MSTORE PUSH17 0x726F766964657220617661696C61626C65 PUSH1 0x78 SHL PUSH1 0x64 DUP3 ADD MSTORE PUSH1 0x84 SWAP1 REVERT JUMPDEST SWAP4 DUP1 PUSH1 0x60 SWAP5 PUSH1 0xA0 SWAP4 SWAP5 SWAP9 SWAP8 SWAP9 PUSH1 0x1 DUP1 DUP7 SHL SUB DUP1 SWAP7 AND DUP9 MSTORE PUSH1 0x20 DUP9 ADD MSTORE PUSH1 0x80 PUSH1 0x40 DUP9 ADD MSTORE DUP2 PUSH1 0x80 DUP9 ADD MSTORE DUP4 DUP8 ADD CALLDATACOPY PUSH1 0x0 DUP3 DUP3 DUP8 ADD ADD MSTORE PUSH1 0x1F DUP1 NOT SWAP2 ADD AND DUP5 ADD ADD SWAP5 AND SWAP2 ADD MSTORE JUMP JUMPDEST PUSH1 0x40 MLOAD RETURNDATASIZE PUSH1 0x0 DUP3 RETURNDATACOPY RETURNDATASIZE SWAP1 REVERT JUMPDEST PUSH1 0x0 SWAP1 PUSH1 0x3 RETURNDATASIZE GT PUSH2 0x1AEB JUMPI JUMP JUMPDEST SWAP1 POP PUSH1 0x4 PUSH1 0x0 DUP1 RETURNDATACOPY PUSH1 0x0 MLOAD PUSH1 0xE0 SHR SWAP1 JUMP JUMPDEST PUSH1 0x0 PUSH1 0x44 RETURNDATASIZE LT PUSH2 0xE53 JUMPI PUSH1 0x40 MLOAD PUSH1 0x3 NOT SWAP2 RETURNDATASIZE DUP4 ADD PUSH1 0x4 DUP4 RETURNDATACOPY DUP2 MLOAD PUSH1 0x1 PUSH1 0x1 PUSH1 0x40 SHL SUB SWAP2 DUP3 DUP3 GT RETURNDATASIZE PUSH1 0x24 DUP5 ADD GT OR PUSH2 0x1B59 JUMPI DUP2 DUP5 ADD SWAP5 DUP6 MLOAD SWAP4 DUP5 GT PUSH2 0x1B61 JUMPI RETURNDATASIZE DUP6 ADD ADD PUSH1 0x20 DUP5 DUP8 ADD ADD GT PUSH2 0x1B59 JUMPI POP PUSH2 0xE53 SWAP3 SWAP2 ADD PUSH1 0x20 ADD SWAP1 PUSH2 0xCD4 JUMP JUMPDEST SWAP5 SWAP4 POP POP POP POP JUMP JUMPDEST POP SWAP5 SWAP4 POP POP POP POP JUMP JUMPDEST SWAP1 PUSH1 0x20 SWAP2 PUSH2 0x1B83 DUP2 MLOAD DUP1 SWAP3 DUP2 DUP6 MSTORE DUP6 DUP1 DUP7 ADD SWAP2 ADD PUSH2 0xD69 JUMP JUMPDEST PUSH1 0x1F ADD PUSH1 0x1F NOT AND ADD ADD SWAP1 JUMP JUMPDEST SWAP1 PUSH1 0x20 PUSH2 0xE53 SWAP3 DUP2 DUP2 MSTORE ADD SWAP1 PUSH2 0x1B6A JUMP JUMPDEST PUSH4 0x4E487B71 PUSH1 0xE0 SHL PUSH1 0x0 MSTORE PUSH1 0x11 PUSH1 0x4 MSTORE PUSH1 0x24 PUSH1 0x0 REVERT JUMPDEST PUSH1 0x0 NOT DUP2 ADD SWAP2 SWAP1 DUP3 GT PUSH2 0x1BC5 JUMPI JUMP JUMPDEST PUSH2 0x1BA0 JUMP JUMPDEST SWAP2 SWAP1 DUP3 SUB SWAP2 DUP3 GT PUSH2 0x1BC5 JUMPI JUMP JUMPDEST PUSH1 0x0 NOT DUP2 EQ PUSH2 0x1BC5 JUMPI PUSH1 0x1 ADD SWAP1 JUMP JUMPDEST PUSH2 0xE53 SWAP4 SWAP3 PUSH1 0x60 SWAP3 DUP3 MSTORE PUSH1 0x20 DUP3 ADD MSTORE DUP2 PUSH1 0x40 DUP3 ADD MSTORE ADD SWAP1 PUSH2 0x1B6A JUMP JUMPDEST SWAP1 PUSH1 0x40 SWAP2 DUP3 DUP2 ADD CALLDATALOAD SWAP1 PUSH2 0x1C16 DUP3 ISZERO ISZERO PUSH2 0x16B8 JUMP JUMPDEST PUSH2 0x1C26 TIMESTAMP PUSH1 0xA0 DUP4 ADD CALLDATALOAD LT ISZERO PUSH2 0x1704 JUMP JUMPDEST PUSH2 0x1C38 PUSH2 0x1388 PUSH1 0x80 DUP4 ADD CALLDATALOAD GT ISZERO PUSH2 0x175A JUMP JUMPDEST PUSH2 0x1C68 PUSH2 0x1C61 PUSH2 0x1C47 DUP4 PUSH2 0x17B1 JUMP JUMPDEST PUSH1 0x1 PUSH1 0x1 PUSH1 0xA0 SHL SUB AND PUSH1 0x0 SWAP1 DUP2 MSTORE PUSH1 0x5 PUSH1 0x20 MSTORE PUSH1 0x40 SWAP1 KECCAK256 SWAP1 JUMP JUMPDEST SLOAD PUSH1 0xFF AND SWAP1 JUMP JUMPDEST DUP1 PUSH2 0x1EFD JUMPI JUMPDEST PUSH2 0x1C77 SWAP1 PUSH2 0x17BB JUMP JUMPDEST GAS SWAP2 PUSH2 0x1C82 DUP3 PUSH2 0x18DD JUMP JUMPDEST PUSH1 0x11 DUP1 SLOAD PUSH1 0x1 PUSH1 0x1 PUSH1 0xA0 SHL SUB NOT AND CALLER OR SWAP1 SSTORE PUSH1 0x11 DUP1 SLOAD PUSH1 0xFF PUSH1 0xA0 SHL NOT AND PUSH1 0x1 PUSH1 0xA0 SHL OR SWAP1 SSTORE PUSH1 0x1 PUSH1 0x1 PUSH1 0xA0 SHL SUB SWAP3 DUP4 PUSH2 0x1CBE DUP4 PUSH2 0x1121 DUP7 PUSH2 0x17B1 JUMP JUMPDEST AND SWAP4 PUSH2 0x1CCB DUP6 ISZERO ISZERO PUSH2 0x1A26 JUMP JUMPDEST PUSH2 0x1CD4 DUP5 PUSH2 0x17B1 JUMP JUMPDEST PUSH1 0xC0 DUP6 ADD SWAP6 PUSH2 0x1CE3 DUP8 DUP8 PUSH2 0x1812 JUMP JUMPDEST SWAP3 SWAP1 SWAP2 DUP1 EXTCODESIZE ISZERO PUSH2 0x241 JUMPI PUSH2 0x1D14 SWAP4 PUSH1 0x0 DUP1 SWAP5 DUP14 MLOAD SWAP7 DUP8 SWAP6 DUP7 SWAP5 DUP6 SWAP4 PUSH4 0x587D4929 PUSH1 0xE1 SHL DUP6 MSTORE DUP14 ADDRESS SWAP4 PUSH1 0x4 DUP8 ADD PUSH2 0x1A8C JUMP JUMPDEST SUB SWAP3 GAS CALL SWAP1 DUP2 PUSH2 0x1EE4 JUMPI JUMPDEST POP PUSH2 0x1E2A JUMPI DUP7 PUSH2 0x1D2D PUSH2 0x1ADE JUMP JUMPDEST PUSH4 0x8C379A0 EQ PUSH2 0x1D97 JUMPI JUMPDEST PUSH1 0x11 DUP1 SLOAD PUSH1 0xFF PUSH1 0xA0 SHL NOT AND SWAP1 SSTORE MLOAD PUSH3 0x461BCD PUSH1 0xE5 SHL DUP2 MSTORE PUSH1 0x20 PUSH1 0x4 DUP3 ADD MSTORE PUSH1 0x22 PUSH1 0x24 DUP3 ADD MSTORE PUSH32 0x417262697472616765456E67696E653A20466C617368206C6F616E206661696C PUSH1 0x44 DUP3 ADD MSTORE PUSH2 0x1959 PUSH1 0xF2 SHL PUSH1 0x64 DUP3 ADD MSTORE PUSH1 0x84 SWAP1 REVERT JUMPDEST SUB SWAP1 REVERT JUMPDEST PUSH2 0x1D9F PUSH2 0x1AFC JUMP JUMPDEST DUP1 PUSH2 0x1DAA JUMPI POP PUSH2 0x1D38 JUMP JUMPDEST PUSH1 0x11 DUP1 SLOAD PUSH1 0xFF PUSH1 0xA0 SHL NOT AND SWAP1 SSTORE PUSH2 0x1D93 SWAP2 PUSH2 0x1E06 SWAP2 PUSH2 0x1E14 SWAP1 DUP3 MLOAD PUSH32 0x417262697472616765456E67696E653A20466C617368206C6F616E206661696C PUSH1 0x20 DUP3 ADD MSTORE PUSH5 0x32B210169 PUSH1 0xDD SHL PUSH1 0x40 DUP3 ADD MSTORE SWAP4 DUP5 SWAP2 PUSH1 0x45 DUP4 ADD SWAP1 PUSH2 0xD8C JUMP JUMPDEST SUB PUSH1 0x1F NOT DUP2 ADD DUP5 MSTORE DUP4 PUSH2 0xCD4 JUMP JUMPDEST MLOAD PUSH3 0x461BCD PUSH1 0xE5 SHL DUP2 MSTORE SWAP2 DUP3 SWAP2 PUSH1 0x4 DUP4 ADD PUSH2 0x1B8F JUMP JUMPDEST PUSH2 0x1E56 PUSH32 0x922D95291CF829964B61841560048F40A0B2CA9D8572E0AB690822346C797EAE SWAP3 GAS SWAP1 PUSH2 0x1BCA JUMP JUMPDEST PUSH2 0x1EDF PUSH2 0x1E63 TIMESTAMP TIMESTAMP PUSH2 0x1BCA JUMP JUMPDEST CALLER PUSH1 0x0 SWAP1 DUP2 MSTORE PUSH1 0x4 PUSH1 0x20 MSTORE PUSH1 0x40 SWAP1 KECCAK256 SLOAD SWAP3 SWAP1 PUSH2 0x1E7D PUSH2 0xD14 JUMP JUMPDEST PUSH1 0x1 DUP2 MSTORE SWAP2 PUSH1 0x20 DUP4 ADD SWAP5 DUP6 MSTORE DUP12 DUP4 ADD MSTORE PUSH1 0x60 DUP3 ADD MSTORE SWAP9 PUSH2 0x1EA6 PUSH2 0x1EA1 PUSH1 0x9 SLOAD PUSH2 0x1BD7 JUMP JUMPDEST PUSH1 0x9 SSTORE JUMP JUMPDEST DUP4 PUSH2 0x1ECE PUSH2 0x440 PUSH2 0x439 PUSH2 0x1EB9 DUP12 PUSH2 0x17B1 JUMP JUMPDEST SWAP12 PUSH2 0x1EC6 PUSH1 0x20 DUP14 ADD PUSH2 0x17B1 JUMP JUMPDEST SWAP8 MLOAD SWAP12 PUSH2 0x1812 JUMP JUMPDEST SWAP2 MLOAD SWAP5 DUP6 SWAP5 AND SWAP9 AND SWAP7 CALLER SWAP7 DUP5 PUSH2 0x1BE6 JUMP JUMPDEST SUB SWAP1 LOG4 JUMP JUMPDEST DUP1 PUSH2 0x1EF1 PUSH2 0x1EF7 SWAP3 PUSH2 0xCC1 JUMP JUMPDEST DUP1 PUSH2 0x34D JUMP JUMPDEST CODESIZE PUSH2 0x1D1F JUMP JUMPDEST POP PUSH2 0x1C77 PUSH2 0x1F13 PUSH2 0x1C61 PUSH2 0x1C47 PUSH1 0x20 DUP6 ADD PUSH2 0x17B1 JUMP JUMPDEST SWAP1 POP PUSH2 0x1C6E JUMP JUMPDEST PUSH1 0xFF PUSH1 0x1 SLOAD AND PUSH2 0x1F26 JUMPI JUMP JUMPDEST PUSH1 0x40 MLOAD PUSH4 0xD93C0665 PUSH1 0xE0 SHL DUP2 MSTORE PUSH1 0x4 SWAP1 REVERT JUMPDEST PUSH1 0x2 PUSH1 0x0 SLOAD EQ PUSH2 0x1F49 JUMPI PUSH1 0x2 PUSH1 0x0 SSTORE JUMP JUMPDEST PUSH1 0x40 MLOAD PUSH4 0x3EE5AEB5 PUSH1 0xE0 SHL DUP2 MSTORE PUSH1 0x4 SWAP1 REVERT JUMPDEST ISZERO PUSH2 0x1F62 JUMPI JUMP JUMPDEST PUSH1 0x40 MLOAD PUSH3 0x461BCD PUSH1 0xE5 SHL DUP2 MSTORE PUSH1 0x20 PUSH1 0x4 DUP3 ADD MSTORE PUSH1 0x22 PUSH1 0x24 DUP3 ADD MSTORE PUSH32 0x417262697472616765456E67696E653A20496E76616C696420696E6974696174 PUSH1 0x44 DUP3 ADD MSTORE PUSH2 0x37B9 PUSH1 0xF1 SHL PUSH1 0x64 DUP3 ADD MSTORE PUSH1 0x84 SWAP1 REVERT JUMPDEST ISZERO PUSH2 0x1FB9 JUMPI JUMP JUMPDEST PUSH1 0x40 MLOAD PUSH3 0x461BCD PUSH1 0xE5 SHL DUP2 MSTORE PUSH1 0x20 PUSH1 0x4 DUP3 ADD MSTORE PUSH1 0x23 PUSH1 0x24 DUP3 ADD MSTORE PUSH32 0x417262697472616765456E67696E653A205374726174656779206E6F7420666F PUSH1 0x44 DUP3 ADD MSTORE PUSH3 0x1D5B99 PUSH1 0xEA SHL PUSH1 0x64 DUP3 ADD MSTORE PUSH1 0x84 SWAP1 REVERT JUMPDEST SWAP1 DUP2 PUSH1 0x20 SWAP2 SUB SLT PUSH2 0x241 JUMPI MLOAD SWAP1 JUMP JUMPDEST PUSH1 0x40 MLOAD SWAP1 PUSH1 0x0 DUP3 PUSH1 0x10 SLOAD SWAP2 PUSH2 0x202D DUP4 PUSH2 0x1844 JUMP JUMPDEST DUP1 DUP4 MSTORE SWAP3 PUSH1 0x1 SWAP1 DUP2 DUP2 AND SWAP1 DUP2 ISZERO PUSH2 0x20A1 JUMPI POP PUSH1 0x1 EQ PUSH2 0x2054 JUMPI JUMPDEST POP PUSH2 0xD21 SWAP3 POP SUB DUP4 PUSH2 0xCD4 JUMP JUMPDEST PUSH1 0x10 PUSH1 0x0 SWAP1 DUP2 MSTORE SWAP2 POP PUSH1 0x0 DUP1 MLOAD PUSH1 0x20 PUSH2 0x2620 DUP4 CODECOPY DUP2 MLOAD SWAP2 MSTORE JUMPDEST DUP5 DUP4 LT PUSH2 0x2086 JUMPI POP PUSH2 0xD21 SWAP4 POP POP DUP2 ADD PUSH1 0x20 ADD CODESIZE PUSH2 0x2047 JUMP JUMPDEST DUP2 SWAP4 POP SWAP1 DUP2 PUSH1 0x20 SWAP3 SLOAD DUP4 DUP6 DUP11 ADD ADD MSTORE ADD SWAP2 ADD SWAP1 SWAP2 DUP6 SWAP3 PUSH2 0x206D JUMP JUMPDEST SWAP1 POP PUSH1 0x20 SWAP3 POP PUSH2 0xD21 SWAP5 SWAP2 POP PUSH1 0xFF NOT AND DUP3 DUP5 ADD MSTORE ISZERO ISZERO PUSH1 0x5 SHL DUP3 ADD ADD CODESIZE PUSH2 0x2047 JUMP JUMPDEST PUSH1 0xE0 PUSH1 0xA0 PUSH2 0xE53 SWAP4 PUSH1 0x20 DUP5 MSTORE PUSH1 0x1 DUP1 DUP4 SHL SUB DUP1 DUP3 MLOAD AND PUSH1 0x20 DUP7 ADD MSTORE PUSH1 0x20 DUP3 ADD MLOAD AND PUSH1 0x40 DUP6 ADD MSTORE PUSH1 0x40 DUP2 ADD MLOAD PUSH1 0x60 DUP6 ADD MSTORE PUSH1 0x60 DUP2 ADD MLOAD PUSH1 0x80 DUP6 ADD MSTORE PUSH1 0x80 DUP2 ADD MLOAD DUP3 DUP6 ADD MSTORE ADD MLOAD SWAP2 PUSH1 0xC0 DUP1 DUP3 ADD MSTORE ADD SWAP1 PUSH2 0x1B6A JUMP JUMPDEST SWAP2 SWAP1 DUP3 ADD DUP1 SWAP3 GT PUSH2 0x1BC5 JUMPI JUMP JUMPDEST ISZERO PUSH2 0x212A JUMPI JUMP JUMPDEST PUSH1 0x40 MLOAD PUSH3 0x461BCD PUSH1 0xE5 SHL DUP2 MSTORE PUSH1 0x20 PUSH1 0x4 DUP3 ADD MSTORE PUSH1 0x24 DUP1 DUP3 ADD MSTORE PUSH32 0x417262697472616765456E67696E653A20496E73756666696369656E74207072 PUSH1 0x44 DUP3 ADD MSTORE PUSH4 0x1BD99A5D PUSH1 0xE2 SHL PUSH1 0x64 DUP3 ADD MSTORE PUSH1 0x84 SWAP1 REVERT JUMPDEST SWAP1 PUSH1 0x32 DUP3 MUL SWAP2 DUP1 DUP4 DIV PUSH1 0x32 EQ SWAP1 ISZERO OR ISZERO PUSH2 0x1BC5 JUMPI JUMP JUMPDEST PUSH1 0x0 DUP1 PUSH1 0xA SSTORE DUP1 PUSH1 0xB SSTORE DUP1 PUSH1 0xC SSTORE DUP1 PUSH1 0xD SSTORE DUP1 PUSH1 0xE SSTORE DUP1 PUSH1 0xF SSTORE PUSH2 0x21B6 PUSH1 0x10 SLOAD PUSH2 0x1844 JUMP JUMPDEST DUP1 PUSH2 0x21BF JUMPI POP POP JUMP JUMPDEST PUSH1 0x1F DUP2 GT PUSH1 0x1 EQ PUSH2 0x21D0 JUMPI POP PUSH1 0x10 SSTORE JUMP JUMPDEST PUSH1 0x1F PUSH1 0x0 DUP1 MLOAD PUSH1 0x20 PUSH2 0x2620 DUP4 CODECOPY DUP2 MLOAD SWAP2 MSTORE SWAP2 ADD PUSH1 0x5 SHR DUP2 ADD PUSH32 0x1B6847DC741A1B0CD08D278845F9D819D87B734759AFB55FE2DE5CB82A9AE673 JUMPDEST DUP2 DUP2 LT PUSH2 0x221E JUMPI POP POP PUSH1 0x10 DUP3 MSTORE DUP2 PUSH1 0x10 SSTORE SSTORE JUMP JUMPDEST DUP4 DUP2 SSTORE PUSH1 0x1 ADD PUSH2 0x220A JUMP JUMPDEST PUSH1 0x40 MLOAD PUSH4 0xA9059CBB PUSH1 0xE0 SHL PUSH1 0x20 DUP1 DUP4 ADD SWAP2 DUP3 MSTORE PUSH1 0x1 PUSH1 0x1 PUSH1 0xA0 SHL SUB SWAP5 SWAP1 SWAP5 AND PUSH1 0x24 DUP4 ADD MSTORE PUSH1 0x44 DUP1 DUP4 ADD SWAP6 SWAP1 SWAP6 MSTORE SWAP4 DUP2 MSTORE SWAP1 SWAP3 PUSH1 0x0 SWAP2 PUSH2 0x2269 PUSH1 0x64 DUP3 PUSH2 0xCD4 JUMP JUMPDEST MLOAD SWAP1 DUP3 DUP6 GAS CALL ISZERO PUSH2 0x1AD2 JUMPI PUSH1 0x0 MLOAD RETURNDATASIZE PUSH2 0x22B3 JUMPI POP PUSH1 0x1 PUSH1 0x1 PUSH1 0xA0 SHL SUB DUP2 AND EXTCODESIZE ISZERO JUMPDEST PUSH2 0x2291 JUMPI POP JUMP JUMPDEST PUSH1 0x40 MLOAD PUSH4 0x5274AFE7 PUSH1 0xE0 SHL DUP2 MSTORE PUSH1 0x1 PUSH1 0x1 PUSH1 0xA0 SHL SUB SWAP1 SWAP2 AND PUSH1 0x4 DUP3 ADD MSTORE PUSH1 0x24 SWAP1 REVERT JUMPDEST PUSH1 0x1 EQ ISZERO PUSH2 0x228A JUMP JUMPDEST SWAP2 SWAP1 DUP3 PUSH1 0x40 SWAP2 SUB SLT PUSH2 0x241 JUMPI PUSH1 0x20 DUP3 MLOAD SWAP3 ADD MLOAD SWAP1 JUMP JUMPDEST PUSH1 0xA0 PUSH1 0x60 PUSH2 0xE53 SWAP4 PUSH1 0x20 DUP5 MSTORE PUSH1 0x1 DUP1 DUP5 SHL SUB DUP1 DUP3 MLOAD AND PUSH1 0x20 DUP7 ADD MSTORE PUSH1 0x20 DUP3 ADD MLOAD AND PUSH1 0x40 DUP6 ADD MSTORE PUSH1 0x40 DUP2 ADD MLOAD DUP3 DUP6 ADD MSTORE ADD MLOAD SWAP2 PUSH1 0x80 DUP1 DUP3 ADD MSTORE ADD SWAP1 PUSH2 0x1B6A JUMP JUMPDEST DUP2 PUSH1 0x40 MLOAD SWAP3 DUP4 SWAP3 DUP4 CALLDATACOPY DUP2 ADD PUSH1 0x0 DUP2 MSTORE SUB SWAP1 KECCAK256 SWAP1 JUMP JUMPDEST PUSH1 0x1 PUSH1 0x1 PUSH1 0xA0 SHL SUB AND DUP1 PUSH2 0x2339 JUMPI POP SELFBALANCE SWAP1 JUMP JUMPDEST PUSH1 0x20 PUSH1 0x24 SWAP2 PUSH1 0x40 MLOAD SWAP3 DUP4 DUP1 SWAP3 PUSH4 0x70A08231 PUSH1 0xE0 SHL DUP3 MSTORE ADDRESS PUSH1 0x4 DUP4 ADD MSTORE GAS STATICCALL SWAP1 DUP2 ISZERO PUSH2 0x6F9 JUMPI PUSH1 0x0 SWAP2 PUSH2 0x2369 JUMPI POP SWAP1 JUMP JUMPDEST PUSH2 0xE53 SWAP2 POP PUSH1 0x20 RETURNDATASIZE DUP2 GT PUSH2 0x6F2 JUMPI PUSH2 0x6E2 DUP2 DUP4 PUSH2 0xCD4 JUMP JUMPDEST ISZERO PUSH2 0x2388 JUMPI JUMP JUMPDEST PUSH1 0x40 MLOAD PUSH3 0x461BCD PUSH1 0xE5 SHL DUP2 MSTORE PUSH1 0x20 PUSH1 0x4 DUP3 ADD MSTORE PUSH1 0x25 PUSH1 0x24 DUP3 ADD MSTORE PUSH32 0x417262697472616765456E67696E653A20496E73756666696369656E74207072 PUSH1 0x44 DUP3 ADD MSTORE PUSH5 0x6F66697473 PUSH1 0xD8 SHL PUSH1 0x64 DUP3 ADD MSTORE PUSH1 0x84 SWAP1 REVERT JUMPDEST PUSH1 0x6 SLOAD DUP1 ISZERO PUSH2 0x2434 JUMPI PUSH1 0x0 NOT DUP2 ADD SWAP1 DUP1 DUP3 LT ISZERO PUSH2 0x13FC JUMPI PUSH32 0xF652222313E28459528D920B65115C16C04F3EFC82AAEDC97BE59F3F377C0D3E SWAP1 PUSH1 0x6 PUSH1 0x0 MSTORE ADD PUSH12 0xFFFFFFFFFFFFFFFFFFFFFFFF PUSH1 0xA0 SHL DUP2 SLOAD AND SWAP1 SSTORE PUSH1 0x6 SSTORE JUMP JUMPDEST PUSH4 0x4E487B71 PUSH1 0xE0 SHL PUSH1 0x0 MSTORE PUSH1 0x31 PUSH1 0x4 MSTORE PUSH1 0x24 PUSH1 0x0 REVERT JUMPDEST SWAP1 DUP2 PUSH1 0x20 SWAP2 SUB SLT PUSH2 0x241 JUMPI MLOAD PUSH2 0xE53 DUP2 PUSH2 0xE24 JUMP JUMPDEST PUSH1 0x6 SLOAD PUSH1 0x0 SWAP4 SWAP3 DUP5 SWAP3 PUSH1 0x0 NOT DUP5 JUMPDEST DUP5 DUP2 LT PUSH2 0x247C JUMPI POP POP POP POP POP POP JUMP JUMPDEST PUSH2 0x2488 PUSH2 0x921 DUP3 PUSH2 0x13C5 JUMP JUMPDEST PUSH1 0x40 DUP1 MLOAD PUSH4 0x8C9682B PUSH1 0xE3 SHL DUP2 MSTORE PUSH1 0x1 PUSH1 0x1 PUSH1 0xA0 SHL SUB DUP7 DUP2 AND PUSH1 0x4 DUP1 DUP5 ADD SWAP2 SWAP1 SWAP2 MSTORE PUSH1 0x20 SWAP4 SWAP3 SWAP2 DUP6 AND SWAP2 SWAP1 DUP5 DUP3 PUSH1 0x24 DUP2 DUP7 GAS STATICCALL SWAP4 DUP5 ISZERO PUSH2 0x6F9 JUMPI DUP11 SWAP5 DUP11 SWAP4 DUP15 SWAP2 PUSH2 0x25D8 JUMPI JUMPDEST POP DUP1 PUSH2 0x256F JUMPI JUMPDEST PUSH2 0x24EE JUMPI JUMPDEST POP POP POP POP POP POP POP PUSH2 0x24E9 SWAP1 PUSH2 0x1BD7 JUMP JUMPDEST PUSH2 0x246D JUMP JUMPDEST MLOAD PUSH4 0xB02C67FD PUSH1 0xE0 SHL DUP2 MSTORE PUSH1 0x1 PUSH1 0x1 PUSH1 0xA0 SHL SUB SWAP1 SWAP3 AND SWAP1 DUP3 ADD SWAP1 DUP2 MSTORE PUSH1 0x20 DUP2 ADD SWAP4 SWAP1 SWAP4 MSTORE SWAP2 DUP4 SWAP2 DUP4 SWAP2 DUP3 SWAP1 DUP2 SWAP1 PUSH1 0x40 ADD SUB SWAP2 GAS STATICCALL SWAP2 DUP3 ISZERO PUSH2 0x6F9 JUMPI DUP10 SWAP3 PUSH2 0x2552 JUMPI JUMPDEST POP POP DUP4 DUP2 LT PUSH2 0x2544 JUMPI JUMPDEST DUP6 DUP2 DUP7 DUP2 DUP1 PUSH2 0x24D9 JUMP JUMPDEST SWAP1 SWAP9 POP SWAP2 POP PUSH2 0x24E9 CODESIZE PUSH2 0x253A JUMP JUMPDEST PUSH2 0x2568 SWAP3 POP DUP1 RETURNDATASIZE LT PUSH2 0x6F2 JUMPI PUSH2 0x6E2 DUP2 DUP4 PUSH2 0xCD4 JUMP JUMPDEST CODESIZE DUP1 PUSH2 0x2530 JUMP JUMPDEST POP DUP1 MLOAD PUSH4 0x4CDC57B PUSH1 0xE3 SHL DUP2 MSTORE PUSH1 0x1 PUSH1 0x1 PUSH1 0xA0 SHL SUB DUP12 AND DUP2 DUP5 ADD SWAP1 DUP2 MSTORE SWAP1 SWAP6 POP SWAP1 SWAP3 POP DUP6 SWAP1 DUP6 SWAP1 DUP2 SWAP1 PUSH1 0x20 ADD SUB DUP2 DUP7 GAS STATICCALL SWAP2 DUP3 ISZERO PUSH2 0x6F9 JUMPI DUP11 DUP11 SWAP4 DUP2 SWAP7 DUP16 SWAP2 PUSH2 0x25BB JUMPI JUMPDEST POP LT ISZERO PUSH2 0x24D4 JUMP JUMPDEST PUSH2 0x25D2 SWAP2 POP DUP9 RETURNDATASIZE DUP11 GT PUSH2 0x6F2 JUMPI PUSH2 0x6E2 DUP2 DUP4 PUSH2 0xCD4 JUMP JUMPDEST CODESIZE PUSH2 0x25B3 JUMP JUMPDEST PUSH2 0x25F8 SWAP2 POP DUP8 RETURNDATASIZE DUP10 GT PUSH2 0x25FE JUMPI JUMPDEST PUSH2 0x25F0 DUP2 DUP4 PUSH2 0xCD4 JUMP JUMPDEST DUP2 ADD SWAP1 PUSH2 0x244A JUMP JUMPDEST CODESIZE PUSH2 0x24CD JUMP JUMPDEST POP RETURNDATASIZE PUSH2 0x25E6 JUMP JUMPDEST PUSH1 0x60 SWAP1 PUSH1 0x20 DUP2 MLOAD LT ISZERO PUSH2 0x2616 JUMPI POP SWAP1 JUMP JUMPDEST PUSH1 0x20 SWAP2 POP ADD MLOAD SWAP1 JUMP INVALID SHL PUSH9 0x47DC741A1B0CD08D27 DUP9 GASLIMIT 0xF9 0xD8 NOT 0xD8 PUSH28 0x734759AFB55FE2DE5CB82A9AE672A26469706673582212205149587B MLOAD 0xB7 0xDA 0x4A CALLVALUE PUSH12 0xB4A09F8D030D5EE07A4D827E 0xAC LOG1 0xEF DUP14 KECCAK256 DUP12 DUP7 DUP2 JUMP 0xF7 PUSH5 0x736F6C6343 STOP ADDMOD EQ STOP CALLER "},"methodIdentifiers":{"BASIS_POINTS()":"e1f1c4a7","MAX_SLIPPAGE()":"f9759518","MIN_PROFIT_THRESHOLD()":"e73d668f","PLATFORM_FEE()":"34fbc9a1","addFlashLoanProvider(address)":"8d34eff9","authorizedCallers(address)":"536fff6c","emergencyPause()":"51858e27","executeArbitrage((address,address,uint256,uint256,uint256,uint256,bytes))":"0d222c84","executeOperation(address,uint256,uint256,address,bytes)":"1b11d0ff","feeCollector()":"c415b95c","flashLoanProviders(uint256)":"b35ddc8a","getStrategy(string)":"26f9dd1e","getTokenBalance(address)":"3aecd0e3","isStrategyAvailable(string)":"1e9ef4ce","owner()":"8da5cb5b","paused()":"5c975abb","registerStrategy(string,address)":"7317b989","removeFlashLoanProvider(address)":"3db08eb2","renounceOwnership()":"715018a6","simulateArbitrage((address,address,uint256,uint256,uint256,uint256,bytes))":"8f83e539","strategies(string)":"780f1acd","supportedTokens(address)":"68c4ac26","totalArbitragesExecuted()":"1328c07e","totalFeesCollected()":"60c6d8ae","transferOwnership(address)":"f2fde38b","unpause()":"3f4ba83a","updateAuthorizedCaller(address,bool)":"8937ca15","updateFeeCollector(address)":"d2c35ce8","updateTokenSupport(address,bool)":"7b4c9274","userProfits(address)":"be354836","withdrawProfits(address,uint256)":"aafc9651"}}}}}