{"src/adapters/AaveFlashLoanProvider.sol":{"AaveFlashLoanProvider":{"abi":[{"inputs":[{"internalType":"address","name":"_aavePool","type":"address"}],"stateMutability":"nonpayable","type":"constructor"},{"inputs":[{"internalType":"address","name":"owner","type":"address"}],"name":"OwnableInvalidOwner","type":"error"},{"inputs":[{"internalType":"address","name":"account","type":"address"}],"name":"OwnableUnauthorizedAccount","type":"error"},{"inputs":[],"name":"ReentrancyGuardReentrantCall","type":"error"},{"inputs":[{"internalType":"address","name":"token","type":"address"}],"name":"SafeERC20FailedOperation","type":"error"},{"anonymous":false,"inputs":[{"indexed":true,"internalType":"address","name":"asset","type":"address"},{"indexed":false,"internalType":"bool","name":"supported","type":"bool"}],"name":"AssetSupportUpdated","type":"event"},{"anonymous":false,"inputs":[{"indexed":true,"internalType":"address","name":"borrower","type":"address"},{"indexed":true,"internalType":"address","name":"asset","type":"address"},{"indexed":false,"internalType":"uint256","name":"amount","type":"uint256"},{"indexed":false,"internalType":"uint256","name":"fee","type":"uint256"},{"indexed":false,"internalType":"bool","name":"success","type":"bool"}],"name":"FlashLoanExecuted","type":"event"},{"anonymous":false,"inputs":[{"indexed":false,"internalType":"uint256","name":"newFee","type":"uint256"}],"name":"FlashLoanFeeUpdated","type":"event"},{"anonymous":false,"inputs":[{"indexed":true,"internalType":"address","name":"previousOwner","type":"address"},{"indexed":true,"internalType":"address","name":"newOwner","type":"address"}],"name":"OwnershipTransferred","type":"event"},{"inputs":[],"name":"aavePool","outputs":[{"internalType":"contract IAaveV3Pool","name":"","type":"address"}],"stateMutability":"view","type":"function"},{"inputs":[{"internalType":"uint256","name":"","type":"uint256"}],"name":"assetsList","outputs":[{"internalType":"address","name":"","type":"address"}],"stateMutability":"view","type":"function"},{"inputs":[{"internalType":"address","name":"token","type":"address"},{"internalType":"uint256","name":"amount","type":"uint256"}],"name":"emergencyWithdraw","outputs":[],"stateMutability":"nonpayable","type":"function"},{"inputs":[{"internalType":"address[]","name":"assets","type":"address[]"},{"internalType":"uint256[]","name":"amounts","type":"uint256[]"},{"internalType":"uint256[]","name":"premiums","type":"uint256[]"},{"internalType":"address","name":"initiator","type":"address"},{"internalType":"bytes","name":"params","type":"bytes"}],"name":"executeOperation","outputs":[{"internalType":"bool","name":"","type":"bool"}],"stateMutability":"nonpayable","type":"function"},{"inputs":[{"internalType":"address","name":"asset","type":"address"},{"internalType":"uint256","name":"amount","type":"uint256"},{"internalType":"bytes","name":"params","type":"bytes"},{"internalType":"address","name":"receiver","type":"address"}],"name":"flashLoan","outputs":[],"stateMutability":"nonpayable","type":"function"},{"inputs":[{"internalType":"address","name":"asset","type":"address"}],"name":"getAvailableLiquidity","outputs":[{"internalType":"uint256","name":"liquidity","type":"uint256"}],"stateMutability":"view","type":"function"},{"inputs":[{"internalType":"address","name":"asset","type":"address"},{"internalType":"uint256","name":"amount","type":"uint256"}],"name":"getFlashLoanFee","outputs":[{"internalType":"uint256","name":"fee","type":"uint256"}],"stateMutability":"view","type":"function"},{"inputs":[],"name":"getSupportedAssets","outputs":[{"internalType":"address[]","name":"","type":"address[]"}],"stateMutability":"view","type":"function"},{"inputs":[{"internalType":"address","name":"asset","type":"address"}],"name":"isAssetSupported","outputs":[{"internalType":"bool","name":"available","type":"bool"}],"stateMutability":"view","type":"function"},{"inputs":[],"name":"owner","outputs":[{"internalType":"address","name":"","type":"address"}],"stateMutability":"view","type":"function"},{"inputs":[],"name":"renounceOwnership","outputs":[],"stateMutability":"nonpayable","type":"function"},{"inputs":[{"internalType":"address","name":"","type":"address"}],"name":"supportedAssets","outputs":[{"internalType":"bool","name":"","type":"bool"}],"stateMutability":"view","type":"function"},{"inputs":[{"internalType":"address","name":"newOwner","type":"address"}],"name":"transferOwnership","outputs":[],"stateMutability":"nonpayable","type":"function"},{"inputs":[{"internalType":"address","name":"asset","type":"address"},{"internalType":"bool","name":"supported","type":"bool"}],"name":"updateAssetSupport","outputs":[],"stateMutability":"nonpayable","type":"function"},{"stateMutability":"payable","type":"receive"}],"evm":{"bytecode":{"linkReferences":{},"object":"60a03461015657601f611d5738819003918201601f19168301916001600160401b0383118484101761015b5780849260209460405283398101031261015657516001600160a01b0380821691829003610156576001600055331561013d5760018054336001600160a01b03198216811790925560405192167f8be0079c531659141344cd1fd0a4f28419497f9722a3daafe3b4186f6b6457e0600080a381156100ef5750608052604051611be5908161017282396080518181816103f8015281816104a701528181610931015281816109f901528181610baa01528181610daf01528181610e7c01526119aa0152f35b62461bcd60e51b815260206004820152602360248201527f41617665466c6173684c6f616e50726f76696465723a20496e76616c696420706044820152621bdbdb60ea1b6064820152608490fd5b604051631e4fbdf760e01b815260006004820152602490fd5b600080fd5b634e487b7160e01b600052604160045260246000fdfe6080604052600436101561001b575b361561001957600080fd5b005b6000803560e01c80630ad12ee9146112d7578063266e2bd8146112ab578063464b4158146101eb578063715018a61461124e57806371e85c411461120a5780638da5cb5b146111e1578063920f5c8414610b0757806395ccea6714610a28578063a03e4bc3146109e3578063b02c67fd146108d8578063b0fa92521461022a578063bd81579e146101eb578063e5406dbf146101535763f2fde38b146100c1575061000e565b34610150576020366003190112610150576100da611557565b6100e261166f565b6001600160a01b0390811690811561013757600154826bffffffffffffffffffffffff60a01b821617600155167f8be0079c531659141344cd1fd0a4f28419497f9722a3daafe3b4186f6b6457e0600080a380f35b604051631e4fbdf760e01b815260048101849052602490fd5b80fd5b5034610150578060031936011261015057604051809182600354808452602080940190600384527fc2575a0e9e593c00f959f8c92f12db2869c3395a3b0502d05e2516446f71f85b935b858282106101cc575050506101b492500383611765565b6101c8604051928284938452830190611632565b0390f35b85546001600160a01b031684526001958601958895509301920161019d565b50346101505760203660031901126101505760209060ff906040906001600160a01b03610216611557565b168152600284522054166040519015158152f35b503461015057608036600319011261015057610244611557565b906044356001600160401b0381116108d457610264903690600401611605565b929061026e611572565b9160028454146108c25760028085556001600160a01b0382168552602052604084205461029d9060ff1661169b565b6024351561086f576001600160a01b0383161561081a576024356102c082611967565b106107bf57600480546001600160a01b0319166001600160a01b0385161790556001600160401b0385116107ab576102f96005546116fa565b601f8111610744575b508484601f82116001146106d35785916106c8575b508560011b906000198760031b1c1916176005555b600160ff1960065416176006556103f660a06040519461034b86611734565b60018652602036818801376040519761036389611734565b60018952602036818b01376040519461037b86611734565b6001865260203681880137600180851b031661039688611786565b526024356103a38a611786565b52876103ae86611786565b5280604051968793336020860152600180871b031660408501526060808501528160808501528484013787838284010152601f80199101168101036080810185520183611765565b7f00000000000000000000000000000000000000000000000000000000000000006001600160a01b03163b156106c4579161049b61045f926104838695610471604051998a97889763ab9c4b5d60e01b89523060048a015260e060248a015260e4890190611632565b87810360031901604489015290611793565b85810360031901606487015290611793565b3060848501528381036003190160a4850152906117ea565b60c482018490520381837f00000000000000000000000000000000000000000000000000000000000000006001600160a01b03165af19182610699575b50906105e9578060033d116105d8575b506308c379a01461054a575b60405162461bcd60e51b815260206004820152602860248201527f41617665466c6173684c6f616e50726f76696465723a20466c617368206c6f616044820152671b8819985a5b195960c21b6064820152608490fd5b61055261180f565b8061055d57506104f4565b6105d4906105b4603760405180937f41617665466c6173684c6f616e50726f76696465723a2000000000000000000060208301526105a481518092602086860191016117c7565b8101036017810184520182611765565b60405162461bcd60e51b81526020600482015291829160248301906117ea565b0390fd5b9050600481803e5160e01c386104e8565b60ff19600654166006556bffffffffffffffffffffffff60a01b600454166004556106156005546116fa565b80610623575b506001815580f35b601f811160011461063b575060006005555b3861061b565b90601f600080516020611b70833981519152920160051c8201917f036b6384b5eca791c62761152d0c79bb0604c104a5fb6f4eb0703f3154bb3db15b83811061068d5750819250600060055555610635565b60008155600101610677565b6001600160401b0381116106b057604052386104d8565b634e487b7160e01b82526041600452602482fd5b8380fd5b905082013538610317565b60058652600080516020611b708339815191529150855b601f198816811061072c575086601f19811610610712575b5050600185811b0160055561032c565b830135600019600388901b60f8161c191690553880610702565b909160206001819285880135815501930191016106ea565b60058552601f860160051c600080516020611b708339815191520160208710610796575b601f820160051c600080516020611b7083398151915201811061078b5750610302565b858155600101610768565b50600080516020611b70833981519152610768565b634e487b7160e01b84526041600452602484fd5b60405162461bcd60e51b815260206004820152602d60248201527f41617665466c6173684c6f616e50726f76696465723a20496e7375666669636960448201526c656e74206c697175696469747960981b6064820152608490fd5b60405162461bcd60e51b815260206004820152602760248201527f41617665466c6173684c6f616e50726f76696465723a20496e76616c6964207260448201526632b1b2b4bb32b960c91b6064820152608490fd5b60405162461bcd60e51b815260206004820152602560248201527f41617665466c6173684c6f616e50726f76696465723a20496e76616c696420616044820152641b5bdd5b9d60da1b6064820152608490fd5b604051633ee5aeb560e01b8152600490fd5b5080fd5b5034610150576040366003190112610150576108f2611557565b906024359060018060a01b0380931681526004602080946002825261091d60ff60408620541661169b565b60405163074b2e4360e01b815292839182907f0000000000000000000000000000000000000000000000000000000000000000165afa80156109d857829061099d575b6001600160801b0391501691828102928184041490151715610989575061271060405191048152f35b634e487b7160e01b81526011600452602490fd5b508381813d83116109d1575b6109b38183611765565b810103126108d4576109cc6001600160801b039161193f565b610960565b503d6109a9565b6040513d84823e3d90fd5b50346101505780600319360112610150576040517f00000000000000000000000000000000000000000000000000000000000000006001600160a01b03168152602090f35b503461015057604036600319011261015057610a42611557565b602435610a4d61166f565b60ff60065416610aac5782916001600160a01b0390811680610a995750828092819260015416828215610a90575bf115610a845780f35b604051903d90823e3d90fd5b506108fc610a7b565b90610aa993506001541690611894565b80f35b60405162461bcd60e51b815260206004820152602d60248201527f41617665466c6173684c6f616e50726f76696465723a20466c617368206c6f6160448201526c6e20696e2070726f677265737360981b6064820152608490fd5b50346101505760a0366003190112610150576004356001600160401b0381116108d457610b389036906004016115d5565b91906024356001600160401b0381116111dd57610b599036906004016115d5565b90926044356001600160401b0381116108d457610b7a9036906004016115d5565b610b85939193611572565b906084356001600160401b0381116110ab57610ba5903690600401611605565b9390927f00000000000000000000000000000000000000000000000000000000000000006001600160a01b0316330361118a57306001600160a01b03909116036111345760ff60065416156110db5760608385810103126110ab57610c0983611880565b98610c1660208501611880565b936040810135906001600160401b0382116110c357868101601f8383010112156110c3576001600160401b0382820135116110c75760405196610c6682840135601f01601f191660200189611765565b8183018035808a529183019101602001116110c357879160209180820180359084018a850137013587010152156110af5786356001600160a01b03811690036110ab57156110975715611083578291602091610d2f9190610cd8908935906001600160a01b03908116908a3516611894565b60048054604051631b11d0ff60e01b81526001600160a01b038a358116938201939093528a356024820152883560448201528b8316606482015260a0608482015295869492909116928492839160a48301906117ea565b03925af19081156109d8578291611048575b5015610fea578135843501843511610989576040516370a0823160e01b815230600482015260208160248187356001600160a01b03165afa9081156109d8578291610fb8575b50823585350111610f5d5760405163095ea7b360e01b60208083018281526001600160a01b037f000000000000000000000000000000000000000000000000000000000000000016602485015285358835016044808601919091528452929391928290610df5606487611765565b8551908289356001600160a01b03165af181513d82610f37575b505015610e6f575b505060408051943585529135602085015250600190830152356001600160a01b039081169216907ff838d0bca6c4b117e7435267e17cd9cbaff8edba2492b6273496565f50df570f90606090a3602060405160018152f35b60405160208101929092527f00000000000000000000000000000000000000000000000000000000000000006001600160a01b031660248301526044808301829052825260808201906001600160401b03821183831017610f2357507ff838d0bca6c4b117e7435267e17cd9cbaff8edba2492b6273496565f50df570f9492610f0b60609593610f1b9360405260018060a01b038635166118d7565b83356001600160a01b03166118d7565b918193610e17565b634e487b7160e01b81526041600452602490fd5b909150610f55575084356001600160a01b03163b15155b3880610e0f565b600114610f4e565b60405162461bcd60e51b815260206004820152602d60248201527f41617665466c6173684c6f616e50726f76696465723a20496e7375666669636960448201526c195b9d081c995c185e5b595b9d609a1b6064820152608490fd5b90506020813d602011610fe2575b81610fd360209383611765565b810103126108d4575138610d87565b3d9150610fc6565b60405162461bcd60e51b815260206004820152603060248201527f41617665466c6173684c6f616e50726f76696465723a2052656365697665722060448201526f195e1958dd5d1a5bdb8819985a5b195960821b6064820152608490fd5b90506020813d60201161107b575b8161106360209383611765565b810103126108d4575180151581036108d45738610d41565b3d9150611056565b634e487b7160e01b83526032600452602483fd5b634e487b7160e01b84526032600452602484fd5b8480fd5b634e487b7160e01b85526032600452602485fd5b8780fd5b634e487b7160e01b88526041600452602488fd5b60405162461bcd60e51b815260206004820152602b60248201527f41617665466c6173684c6f616e50726f76696465723a204e6f2061637469766560448201526a10333630b9b4103637b0b760a91b6064820152608490fd5b60405162461bcd60e51b815260206004820152602860248201527f41617665466c6173684c6f616e50726f76696465723a20496e76616c696420696044820152673734ba34b0ba37b960c11b6064820152608490fd5b60405162461bcd60e51b815260206004820152602560248201527f41617665466c6173684c6f616e50726f76696465723a20496e76616c6964206360448201526430b63632b960d91b6064820152608490fd5b8280fd5b50346101505780600319360112610150576001546040516001600160a01b039091168152602090f35b5034610150576020366003190112610150576004359060035482101561015057602061123583611588565b905460405160039290921b1c6001600160a01b03168152f35b503461015057806003193601126101505761126761166f565b600180546001600160a01b0319811690915581906001600160a01b03167f8be0079c531659141344cd1fd0a4f28419497f9722a3daafe3b4186f6b6457e08280a380f35b50346101505760203660031901126101505760206112cf6112ca611557565b611967565b604051908152f35b5034610150576040366003190112610150576112f1611557565b6024908135918215918215928385036115535761130c61166f565b6001600160a01b03918216948515611502578587526002602052604087209081549160ff83169260ff88169060ff1916179055806114fa575b156113c55750505060035490680100000000000000008210156113b35750600080516020611b9083398151915291836113a661138984600160209601600355611588565b819391549060031b9160018060a01b03809116831b921b19161790565b90555b604051908152a280f35b634e487b7160e01b8552604160045284fd5b816114f2575b506113ea575b50506020600080516020611b90833981519152916113a9565b92909391825b60038054808310156114d357848761140785611588565b905490851b1c16146114395750506000198114611426576001016113f0565b634e487b7160e01b845260116004528584fd5b916000979193959796949619928381019081116114c0576113898661146061146d93611588565b905490881b1c1692611588565b905582549081156114ae57509160209391600080516020611b908339815191529593019161149a83611588565b9091825491841b1b19169055555b916113d1565b634e487b7160e01b8852603160045287fd5b634e487b7160e01b895260116004528289fd5b505050600080516020611b9083398151915292945060209193506114a8565b9050386113cb565b508015611345565b60405162461bcd60e51b8152602060048201528085018590527f41617665466c6173684c6f616e50726f76696465723a20496e76616c696420616044820152631cdcd95d60e21b6064820152608490fd5b8580fd5b600435906001600160a01b038216820361156d57565b600080fd5b606435906001600160a01b038216820361156d57565b6003548110156115bf5760036000527fc2575a0e9e593c00f959f8c92f12db2869c3395a3b0502d05e2516446f71f85b0190600090565b634e487b7160e01b600052603260045260246000fd5b9181601f8401121561156d578235916001600160401b03831161156d576020808501948460051b01011161156d57565b9181601f8401121561156d578235916001600160401b03831161156d576020838186019501011161156d57565b90815180825260208080930193019160005b828110611652575050505090565b83516001600160a01b031685529381019392810192600101611644565b6001546001600160a01b0316330361168357565b60405163118cdaa760e01b8152336004820152602490fd5b156116a257565b60405162461bcd60e51b815260206004820152602a60248201527f41617665466c6173684c6f616e50726f76696465723a204173736574206e6f74604482015269081cdd5c1c1bdc9d195960b21b6064820152608490fd5b90600182811c9216801561172a575b602083101461171457565b634e487b7160e01b600052602260045260246000fd5b91607f1691611709565b604081019081106001600160401b0382111761174f57604052565b634e487b7160e01b600052604160045260246000fd5b90601f801991011681019081106001600160401b0382111761174f57604052565b8051156115bf5760200190565b90815180825260208080930193019160005b8281106117b3575050505090565b8351855293810193928101926001016117a5565b60005b8381106117da5750506000910152565b81810151838201526020016117ca565b90602091611803815180928185528580860191016117c7565b601f01601f1916010190565b600060443d1061186c57604051600319913d83016004833e81516001600160401b03918282113d60248401111761186f57818401948551938411611877573d8501016020848701011161186f575061186c92910160200190611765565b90565b949350505050565b50949350505050565b35906001600160a01b038216820361156d57565b60405163a9059cbb60e01b60208201526001600160a01b039290921660248301526044808301939093529181526118d5916118d0606483611765565b6118d7565b565b906000602091828151910182855af115611933576000513d61192a57506001600160a01b0381163b155b6119085750565b604051635274afe760e01b81526001600160a01b039091166004820152602490fd5b60011415611901565b6040513d6000823e3d90fd5b51906001600160801b038216820361156d57565b51906001600160a01b038216820361156d57565b6000809160018060a01b038091168084526020916002835260ff60408620541615611b68576040516335ea6a7560e01b8152600481018390526101e080826024817f000000000000000000000000000000000000000000000000000000000000000087165afa9182918893611a73575b50506119e557505050505090565b95949192939516806119f8575b50505050565b83949550602460409492939451809581936370a0823160e01b835260048301525afa928315611a66578193611a35575b50505090388080806119f2565b9091809350813d8311611a5f575b611a4d8183611765565b81010312610150575051388080611a28565b503d611a43565b50604051903d90823e3d90fd5b9080929350813d8311611b61575b611a8b8183611765565b81010312611b5d57611a9e85820161193f565b50611aab6040820161193f565b50611ab86060820161193f565b50611ac56080820161193f565b50611ad260a0820161193f565b5060c081015164ffffffffff811603611b5d5760e081015161ffff811603611b5d57611b546101c0611b076101008401611953565b92611b156101208201611953565b50611b236101408201611953565b50611b316101608201611953565b50611b3f610180820161193f565b50611b4d6101a0820161193f565b500161193f565b509038806119d7565b8680fd5b503d611a81565b505050509056fe036b6384b5eca791c62761152d0c79bb0604c104a5fb6f4eb0703f3154bb3db090bc5441fdb22dd389a0bc9ac431bc4432d0b7459c2cd9745ab302343bfe94f9a2646970667358221220253aaf077a4067f0f20a7128d07627b1efb2a5e94f62e518aa0dc111345c7bcb64736f6c63430008140033","opcodes":"PUSH1 0xA0 CALLVALUE PUSH2 0x156 JUMPI PUSH1 0x1F PUSH2 0x1D57 CODESIZE DUP2 SWAP1 SUB SWAP2 DUP3 ADD PUSH1 0x1F NOT AND DUP4 ADD SWAP2 PUSH1 0x1 PUSH1 0x1 PUSH1 0x40 SHL SUB DUP4 GT DUP5 DUP5 LT OR PUSH2 0x15B JUMPI DUP1 DUP5 SWAP3 PUSH1 0x20 SWAP5 PUSH1 0x40 MSTORE DUP4 CODECOPY DUP2 ADD SUB SLT PUSH2 0x156 JUMPI MLOAD PUSH1 0x1 PUSH1 0x1 PUSH1 0xA0 SHL SUB DUP1 DUP3 AND SWAP2 DUP3 SWAP1 SUB PUSH2 0x156 JUMPI PUSH1 0x1 PUSH1 0x0 SSTORE CALLER ISZERO PUSH2 0x13D JUMPI PUSH1 0x1 DUP1 SLOAD CALLER PUSH1 0x1 PUSH1 0x1 PUSH1 0xA0 SHL SUB NOT DUP3 AND DUP2 OR SWAP1 SWAP3 SSTORE PUSH1 0x40 MLOAD SWAP3 AND PUSH32 0x8BE0079C531659141344CD1FD0A4F28419497F9722A3DAAFE3B4186F6B6457E0 PUSH1 0x0 DUP1 LOG3 DUP2 ISZERO PUSH2 0xEF JUMPI POP PUSH1 0x80 MSTORE PUSH1 0x40 MLOAD PUSH2 0x1BE5 SWAP1 DUP2 PUSH2 0x172 DUP3 CODECOPY PUSH1 0x80 MLOAD DUP2 DUP2 DUP2 PUSH2 0x3F8 ADD MSTORE DUP2 DUP2 PUSH2 0x4A7 ADD MSTORE DUP2 DUP2 PUSH2 0x931 ADD MSTORE DUP2 DUP2 PUSH2 0x9F9 ADD MSTORE DUP2 DUP2 PUSH2 0xBAA ADD MSTORE DUP2 DUP2 PUSH2 0xDAF ADD MSTORE DUP2 DUP2 PUSH2 0xE7C ADD MSTORE PUSH2 0x19AA ADD MSTORE RETURN JUMPDEST PUSH3 0x461BCD PUSH1 0xE5 SHL DUP2 MSTORE PUSH1 0x20 PUSH1 0x4 DUP3 ADD MSTORE PUSH1 0x23 PUSH1 0x24 DUP3 ADD MSTORE PUSH32 0x41617665466C6173684C6F616E50726F76696465723A20496E76616C69642070 PUSH1 0x44 DUP3 ADD MSTORE PUSH3 0x1BDBDB PUSH1 0xEA SHL PUSH1 0x64 DUP3 ADD MSTORE PUSH1 0x84 SWAP1 REVERT JUMPDEST PUSH1 0x40 MLOAD PUSH4 0x1E4FBDF7 PUSH1 0xE0 SHL DUP2 MSTORE PUSH1 0x0 PUSH1 0x4 DUP3 ADD MSTORE PUSH1 0x24 SWAP1 REVERT JUMPDEST PUSH1 0x0 DUP1 REVERT JUMPDEST PUSH4 0x4E487B71 PUSH1 0xE0 SHL PUSH1 0x0 MSTORE PUSH1 0x41 PUSH1 0x4 MSTORE PUSH1 0x24 PUSH1 0x0 REVERT INVALID PUSH1 0x80 PUSH1 0x40 MSTORE PUSH1 0x4 CALLDATASIZE LT ISZERO PUSH2 0x1B JUMPI JUMPDEST CALLDATASIZE ISZERO PUSH2 0x19 JUMPI PUSH1 0x0 DUP1 REVERT JUMPDEST STOP JUMPDEST PUSH1 0x0 DUP1 CALLDATALOAD PUSH1 0xE0 SHR DUP1 PUSH4 0xAD12EE9 EQ PUSH2 0x12D7 JUMPI DUP1 PUSH4 0x266E2BD8 EQ PUSH2 0x12AB JUMPI DUP1 PUSH4 0x464B4158 EQ PUSH2 0x1EB JUMPI DUP1 PUSH4 0x715018A6 EQ PUSH2 0x124E JUMPI DUP1 PUSH4 0x71E85C41 EQ PUSH2 0x120A JUMPI DUP1 PUSH4 0x8DA5CB5B EQ PUSH2 0x11E1 JUMPI DUP1 PUSH4 0x920F5C84 EQ PUSH2 0xB07 JUMPI DUP1 PUSH4 0x95CCEA67 EQ PUSH2 0xA28 JUMPI DUP1 PUSH4 0xA03E4BC3 EQ PUSH2 0x9E3 JUMPI DUP1 PUSH4 0xB02C67FD EQ PUSH2 0x8D8 JUMPI DUP1 PUSH4 0xB0FA9252 EQ PUSH2 0x22A JUMPI DUP1 PUSH4 0xBD81579E EQ PUSH2 0x1EB JUMPI DUP1 PUSH4 0xE5406DBF EQ PUSH2 0x153 JUMPI PUSH4 0xF2FDE38B EQ PUSH2 0xC1 JUMPI POP PUSH2 0xE JUMP JUMPDEST CALLVALUE PUSH2 0x150 JUMPI PUSH1 0x20 CALLDATASIZE PUSH1 0x3 NOT ADD SLT PUSH2 0x150 JUMPI PUSH2 0xDA PUSH2 0x1557 JUMP JUMPDEST PUSH2 0xE2 PUSH2 0x166F JUMP JUMPDEST PUSH1 0x1 PUSH1 0x1 PUSH1 0xA0 SHL SUB SWAP1 DUP2 AND SWAP1 DUP2 ISZERO PUSH2 0x137 JUMPI PUSH1 0x1 SLOAD DUP3 PUSH12 0xFFFFFFFFFFFFFFFFFFFFFFFF PUSH1 0xA0 SHL DUP3 AND OR PUSH1 0x1 SSTORE AND PUSH32 0x8BE0079C531659141344CD1FD0A4F28419497F9722A3DAAFE3B4186F6B6457E0 PUSH1 0x0 DUP1 LOG3 DUP1 RETURN JUMPDEST PUSH1 0x40 MLOAD PUSH4 0x1E4FBDF7 PUSH1 0xE0 SHL DUP2 MSTORE PUSH1 0x4 DUP2 ADD DUP5 SWAP1 MSTORE PUSH1 0x24 SWAP1 REVERT JUMPDEST DUP1 REVERT JUMPDEST POP CALLVALUE PUSH2 0x150 JUMPI DUP1 PUSH1 0x3 NOT CALLDATASIZE ADD SLT PUSH2 0x150 JUMPI PUSH1 0x40 MLOAD DUP1 SWAP2 DUP3 PUSH1 0x3 SLOAD DUP1 DUP5 MSTORE PUSH1 0x20 DUP1 SWAP5 ADD SWAP1 PUSH1 0x3 DUP5 MSTORE PUSH32 0xC2575A0E9E593C00F959F8C92F12DB2869C3395A3B0502D05E2516446F71F85B SWAP4 JUMPDEST DUP6 DUP3 DUP3 LT PUSH2 0x1CC JUMPI POP POP POP PUSH2 0x1B4 SWAP3 POP SUB DUP4 PUSH2 0x1765 JUMP JUMPDEST PUSH2 0x1C8 PUSH1 0x40 MLOAD SWAP3 DUP3 DUP5 SWAP4 DUP5 MSTORE DUP4 ADD SWAP1 PUSH2 0x1632 JUMP JUMPDEST SUB SWAP1 RETURN JUMPDEST DUP6 SLOAD PUSH1 0x1 PUSH1 0x1 PUSH1 0xA0 SHL SUB AND DUP5 MSTORE PUSH1 0x1 SWAP6 DUP7 ADD SWAP6 DUP9 SWAP6 POP SWAP4 ADD SWAP3 ADD PUSH2 0x19D JUMP JUMPDEST POP CALLVALUE PUSH2 0x150 JUMPI PUSH1 0x20 CALLDATASIZE PUSH1 0x3 NOT ADD SLT PUSH2 0x150 JUMPI PUSH1 0x20 SWAP1 PUSH1 0xFF SWAP1 PUSH1 0x40 SWAP1 PUSH1 0x1 PUSH1 0x1 PUSH1 0xA0 SHL SUB PUSH2 0x216 PUSH2 0x1557 JUMP JUMPDEST AND DUP2 MSTORE PUSH1 0x2 DUP5 MSTORE KECCAK256 SLOAD AND PUSH1 0x40 MLOAD SWAP1 ISZERO ISZERO DUP2 MSTORE RETURN JUMPDEST POP CALLVALUE PUSH2 0x150 JUMPI PUSH1 0x80 CALLDATASIZE PUSH1 0x3 NOT ADD SLT PUSH2 0x150 JUMPI PUSH2 0x244 PUSH2 0x1557 JUMP JUMPDEST SWAP1 PUSH1 0x44 CALLDATALOAD PUSH1 0x1 PUSH1 0x1 PUSH1 0x40 SHL SUB DUP2 GT PUSH2 0x8D4 JUMPI PUSH2 0x264 SWAP1 CALLDATASIZE SWAP1 PUSH1 0x4 ADD PUSH2 0x1605 JUMP JUMPDEST SWAP3 SWAP1 PUSH2 0x26E PUSH2 0x1572 JUMP JUMPDEST SWAP2 PUSH1 0x2 DUP5 SLOAD EQ PUSH2 0x8C2 JUMPI PUSH1 0x2 DUP1 DUP6 SSTORE PUSH1 0x1 PUSH1 0x1 PUSH1 0xA0 SHL SUB DUP3 AND DUP6 MSTORE PUSH1 0x20 MSTORE PUSH1 0x40 DUP5 KECCAK256 SLOAD PUSH2 0x29D SWAP1 PUSH1 0xFF AND PUSH2 0x169B JUMP JUMPDEST PUSH1 0x24 CALLDATALOAD ISZERO PUSH2 0x86F JUMPI PUSH1 0x1 PUSH1 0x1 PUSH1 0xA0 SHL SUB DUP4 AND ISZERO PUSH2 0x81A JUMPI PUSH1 0x24 CALLDATALOAD PUSH2 0x2C0 DUP3 PUSH2 0x1967 JUMP JUMPDEST LT PUSH2 0x7BF JUMPI PUSH1 0x4 DUP1 SLOAD PUSH1 0x1 PUSH1 0x1 PUSH1 0xA0 SHL SUB NOT AND PUSH1 0x1 PUSH1 0x1 PUSH1 0xA0 SHL SUB DUP6 AND OR SWAP1 SSTORE PUSH1 0x1 PUSH1 0x1 PUSH1 0x40 SHL SUB DUP6 GT PUSH2 0x7AB JUMPI PUSH2 0x2F9 PUSH1 0x5 SLOAD PUSH2 0x16FA JUMP JUMPDEST PUSH1 0x1F DUP2 GT PUSH2 0x744 JUMPI JUMPDEST POP DUP5 DUP5 PUSH1 0x1F DUP3 GT PUSH1 0x1 EQ PUSH2 0x6D3 JUMPI DUP6 SWAP2 PUSH2 0x6C8 JUMPI JUMPDEST POP DUP6 PUSH1 0x1 SHL SWAP1 PUSH1 0x0 NOT DUP8 PUSH1 0x3 SHL SHR NOT AND OR PUSH1 0x5 SSTORE JUMPDEST PUSH1 0x1 PUSH1 0xFF NOT PUSH1 0x6 SLOAD AND OR PUSH1 0x6 SSTORE PUSH2 0x3F6 PUSH1 0xA0 PUSH1 0x40 MLOAD SWAP5 PUSH2 0x34B DUP7 PUSH2 0x1734 JUMP JUMPDEST PUSH1 0x1 DUP7 MSTORE PUSH1 0x20 CALLDATASIZE DUP2 DUP9 ADD CALLDATACOPY PUSH1 0x40 MLOAD SWAP8 PUSH2 0x363 DUP10 PUSH2 0x1734 JUMP JUMPDEST PUSH1 0x1 DUP10 MSTORE PUSH1 0x20 CALLDATASIZE DUP2 DUP12 ADD CALLDATACOPY PUSH1 0x40 MLOAD SWAP5 PUSH2 0x37B DUP7 PUSH2 0x1734 JUMP JUMPDEST PUSH1 0x1 DUP7 MSTORE PUSH1 0x20 CALLDATASIZE DUP2 DUP9 ADD CALLDATACOPY PUSH1 0x1 DUP1 DUP6 SHL SUB AND PUSH2 0x396 DUP9 PUSH2 0x1786 JUMP JUMPDEST MSTORE PUSH1 0x24 CALLDATALOAD PUSH2 0x3A3 DUP11 PUSH2 0x1786 JUMP JUMPDEST MSTORE DUP8 PUSH2 0x3AE DUP7 PUSH2 0x1786 JUMP JUMPDEST MSTORE DUP1 PUSH1 0x40 MLOAD SWAP7 DUP8 SWAP4 CALLER PUSH1 0x20 DUP7 ADD MSTORE PUSH1 0x1 DUP1 DUP8 SHL SUB AND PUSH1 0x40 DUP6 ADD MSTORE PUSH1 0x60 DUP1 DUP6 ADD MSTORE DUP2 PUSH1 0x80 DUP6 ADD MSTORE DUP5 DUP5 ADD CALLDATACOPY DUP8 DUP4 DUP3 DUP5 ADD ADD MSTORE PUSH1 0x1F DUP1 NOT SWAP2 ADD AND DUP2 ADD SUB PUSH1 0x80 DUP2 ADD DUP6 MSTORE ADD DUP4 PUSH2 0x1765 JUMP JUMPDEST PUSH32 0x0 PUSH1 0x1 PUSH1 0x1 PUSH1 0xA0 SHL SUB AND EXTCODESIZE ISZERO PUSH2 0x6C4 JUMPI SWAP2 PUSH2 0x49B PUSH2 0x45F SWAP3 PUSH2 0x483 DUP7 SWAP6 PUSH2 0x471 PUSH1 0x40 MLOAD SWAP10 DUP11 SWAP8 DUP9 SWAP8 PUSH4 0xAB9C4B5D PUSH1 0xE0 SHL DUP10 MSTORE ADDRESS PUSH1 0x4 DUP11 ADD MSTORE PUSH1 0xE0 PUSH1 0x24 DUP11 ADD MSTORE PUSH1 0xE4 DUP10 ADD SWAP1 PUSH2 0x1632 JUMP JUMPDEST DUP8 DUP2 SUB PUSH1 0x3 NOT ADD PUSH1 0x44 DUP10 ADD MSTORE SWAP1 PUSH2 0x1793 JUMP JUMPDEST DUP6 DUP2 SUB PUSH1 0x3 NOT ADD PUSH1 0x64 DUP8 ADD MSTORE SWAP1 PUSH2 0x1793 JUMP JUMPDEST ADDRESS PUSH1 0x84 DUP6 ADD MSTORE DUP4 DUP2 SUB PUSH1 0x3 NOT ADD PUSH1 0xA4 DUP6 ADD MSTORE SWAP1 PUSH2 0x17EA JUMP JUMPDEST PUSH1 0xC4 DUP3 ADD DUP5 SWAP1 MSTORE SUB DUP2 DUP4 PUSH32 0x0 PUSH1 0x1 PUSH1 0x1 PUSH1 0xA0 SHL SUB AND GAS CALL SWAP2 DUP3 PUSH2 0x699 JUMPI JUMPDEST POP SWAP1 PUSH2 0x5E9 JUMPI DUP1 PUSH1 0x3 RETURNDATASIZE GT PUSH2 0x5D8 JUMPI JUMPDEST POP PUSH4 0x8C379A0 EQ PUSH2 0x54A JUMPI JUMPDEST PUSH1 0x40 MLOAD PUSH3 0x461BCD PUSH1 0xE5 SHL DUP2 MSTORE PUSH1 0x20 PUSH1 0x4 DUP3 ADD MSTORE PUSH1 0x28 PUSH1 0x24 DUP3 ADD MSTORE PUSH32 0x41617665466C6173684C6F616E50726F76696465723A20466C617368206C6F61 PUSH1 0x44 DUP3 ADD MSTORE PUSH8 0x1B8819985A5B1959 PUSH1 0xC2 SHL PUSH1 0x64 DUP3 ADD MSTORE PUSH1 0x84 SWAP1 REVERT JUMPDEST PUSH2 0x552 PUSH2 0x180F JUMP JUMPDEST DUP1 PUSH2 0x55D JUMPI POP PUSH2 0x4F4 JUMP JUMPDEST PUSH2 0x5D4 SWAP1 PUSH2 0x5B4 PUSH1 0x37 PUSH1 0x40 MLOAD DUP1 SWAP4 PUSH32 0x41617665466C6173684C6F616E50726F76696465723A20000000000000000000 PUSH1 0x20 DUP4 ADD MSTORE PUSH2 0x5A4 DUP2 MLOAD DUP1 SWAP3 PUSH1 0x20 DUP7 DUP7 ADD SWAP2 ADD PUSH2 0x17C7 JUMP JUMPDEST DUP2 ADD SUB PUSH1 0x17 DUP2 ADD DUP5 MSTORE ADD DUP3 PUSH2 0x1765 JUMP JUMPDEST PUSH1 0x40 MLOAD PUSH3 0x461BCD PUSH1 0xE5 SHL DUP2 MSTORE PUSH1 0x20 PUSH1 0x4 DUP3 ADD MSTORE SWAP2 DUP3 SWAP2 PUSH1 0x24 DUP4 ADD SWAP1 PUSH2 0x17EA JUMP JUMPDEST SUB SWAP1 REVERT JUMPDEST SWAP1 POP PUSH1 0x4 DUP2 DUP1 RETURNDATACOPY MLOAD PUSH1 0xE0 SHR CODESIZE PUSH2 0x4E8 JUMP JUMPDEST PUSH1 0xFF NOT PUSH1 0x6 SLOAD AND PUSH1 0x6 SSTORE PUSH12 0xFFFFFFFFFFFFFFFFFFFFFFFF PUSH1 0xA0 SHL PUSH1 0x4 SLOAD AND PUSH1 0x4 SSTORE PUSH2 0x615 PUSH1 0x5 SLOAD PUSH2 0x16FA JUMP JUMPDEST DUP1 PUSH2 0x623 JUMPI JUMPDEST POP PUSH1 0x1 DUP2 SSTORE DUP1 RETURN JUMPDEST PUSH1 0x1F DUP2 GT PUSH1 0x1 EQ PUSH2 0x63B JUMPI POP PUSH1 0x0 PUSH1 0x5 SSTORE JUMPDEST CODESIZE PUSH2 0x61B JUMP JUMPDEST SWAP1 PUSH1 0x1F PUSH1 0x0 DUP1 MLOAD PUSH1 0x20 PUSH2 0x1B70 DUP4 CODECOPY DUP2 MLOAD SWAP2 MSTORE SWAP3 ADD PUSH1 0x5 SHR DUP3 ADD SWAP2 PUSH32 0x36B6384B5ECA791C62761152D0C79BB0604C104A5FB6F4EB0703F3154BB3DB1 JUMPDEST DUP4 DUP2 LT PUSH2 0x68D JUMPI POP DUP2 SWAP3 POP PUSH1 0x0 PUSH1 0x5 SSTORE SSTORE PUSH2 0x635 JUMP JUMPDEST PUSH1 0x0 DUP2 SSTORE PUSH1 0x1 ADD PUSH2 0x677 JUMP JUMPDEST PUSH1 0x1 PUSH1 0x1 PUSH1 0x40 SHL SUB DUP2 GT PUSH2 0x6B0 JUMPI PUSH1 0x40 MSTORE CODESIZE PUSH2 0x4D8 JUMP JUMPDEST PUSH4 0x4E487B71 PUSH1 0xE0 SHL DUP3 MSTORE PUSH1 0x41 PUSH1 0x4 MSTORE PUSH1 0x24 DUP3 REVERT JUMPDEST DUP4 DUP1 REVERT JUMPDEST SWAP1 POP DUP3 ADD CALLDATALOAD CODESIZE PUSH2 0x317 JUMP JUMPDEST PUSH1 0x5 DUP7 MSTORE PUSH1 0x0 DUP1 MLOAD PUSH1 0x20 PUSH2 0x1B70 DUP4 CODECOPY DUP2 MLOAD SWAP2 MSTORE SWAP2 POP DUP6 JUMPDEST PUSH1 0x1F NOT DUP9 AND DUP2 LT PUSH2 0x72C JUMPI POP DUP7 PUSH1 0x1F NOT DUP2 AND LT PUSH2 0x712 JUMPI JUMPDEST POP POP PUSH1 0x1 DUP6 DUP2 SHL ADD PUSH1 0x5 SSTORE PUSH2 0x32C JUMP JUMPDEST DUP4 ADD CALLDATALOAD PUSH1 0x0 NOT PUSH1 0x3 DUP9 SWAP1 SHL PUSH1 0xF8 AND SHR NOT AND SWAP1 SSTORE CODESIZE DUP1 PUSH2 0x702 JUMP JUMPDEST SWAP1 SWAP2 PUSH1 0x20 PUSH1 0x1 DUP2 SWAP3 DUP6 DUP9 ADD CALLDATALOAD DUP2 SSTORE ADD SWAP4 ADD SWAP2 ADD PUSH2 0x6EA JUMP JUMPDEST PUSH1 0x5 DUP6 MSTORE PUSH1 0x1F DUP7 ADD PUSH1 0x5 SHR PUSH1 0x0 DUP1 MLOAD PUSH1 0x20 PUSH2 0x1B70 DUP4 CODECOPY DUP2 MLOAD SWAP2 MSTORE ADD PUSH1 0x20 DUP8 LT PUSH2 0x796 JUMPI JUMPDEST PUSH1 0x1F DUP3 ADD PUSH1 0x5 SHR PUSH1 0x0 DUP1 MLOAD PUSH1 0x20 PUSH2 0x1B70 DUP4 CODECOPY DUP2 MLOAD SWAP2 MSTORE ADD DUP2 LT PUSH2 0x78B JUMPI POP PUSH2 0x302 JUMP JUMPDEST DUP6 DUP2 SSTORE PUSH1 0x1 ADD PUSH2 0x768 JUMP JUMPDEST POP PUSH1 0x0 DUP1 MLOAD PUSH1 0x20 PUSH2 0x1B70 DUP4 CODECOPY DUP2 MLOAD SWAP2 MSTORE PUSH2 0x768 JUMP JUMPDEST PUSH4 0x4E487B71 PUSH1 0xE0 SHL DUP5 MSTORE PUSH1 0x41 PUSH1 0x4 MSTORE PUSH1 0x24 DUP5 REVERT JUMPDEST PUSH1 0x40 MLOAD PUSH3 0x461BCD PUSH1 0xE5 SHL DUP2 MSTORE PUSH1 0x20 PUSH1 0x4 DUP3 ADD MSTORE PUSH1 0x2D PUSH1 0x24 DUP3 ADD MSTORE PUSH32 0x41617665466C6173684C6F616E50726F76696465723A20496E73756666696369 PUSH1 0x44 DUP3 ADD MSTORE PUSH13 0x656E74206C6971756964697479 PUSH1 0x98 SHL PUSH1 0x64 DUP3 ADD MSTORE PUSH1 0x84 SWAP1 REVERT JUMPDEST PUSH1 0x40 MLOAD PUSH3 0x461BCD PUSH1 0xE5 SHL DUP2 MSTORE PUSH1 0x20 PUSH1 0x4 DUP3 ADD MSTORE PUSH1 0x27 PUSH1 0x24 DUP3 ADD MSTORE PUSH32 0x41617665466C6173684C6F616E50726F76696465723A20496E76616C69642072 PUSH1 0x44 DUP3 ADD MSTORE PUSH7 0x32B1B2B4BB32B9 PUSH1 0xC9 SHL PUSH1 0x64 DUP3 ADD MSTORE PUSH1 0x84 SWAP1 REVERT JUMPDEST PUSH1 0x40 MLOAD PUSH3 0x461BCD PUSH1 0xE5 SHL DUP2 MSTORE PUSH1 0x20 PUSH1 0x4 DUP3 ADD MSTORE PUSH1 0x25 PUSH1 0x24 DUP3 ADD MSTORE PUSH32 0x41617665466C6173684C6F616E50726F76696465723A20496E76616C69642061 PUSH1 0x44 DUP3 ADD MSTORE PUSH5 0x1B5BDD5B9D PUSH1 0xDA SHL PUSH1 0x64 DUP3 ADD MSTORE PUSH1 0x84 SWAP1 REVERT JUMPDEST PUSH1 0x40 MLOAD PUSH4 0x3EE5AEB5 PUSH1 0xE0 SHL DUP2 MSTORE PUSH1 0x4 SWAP1 REVERT JUMPDEST POP DUP1 REVERT JUMPDEST POP CALLVALUE PUSH2 0x150 JUMPI PUSH1 0x40 CALLDATASIZE PUSH1 0x3 NOT ADD SLT PUSH2 0x150 JUMPI PUSH2 0x8F2 PUSH2 0x1557 JUMP JUMPDEST SWAP1 PUSH1 0x24 CALLDATALOAD SWAP1 PUSH1 0x1 DUP1 PUSH1 0xA0 SHL SUB DUP1 SWAP4 AND DUP2 MSTORE PUSH1 0x4 PUSH1 0x20 DUP1 SWAP5 PUSH1 0x2 DUP3 MSTORE PUSH2 0x91D PUSH1 0xFF PUSH1 0x40 DUP7 KECCAK256 SLOAD AND PUSH2 0x169B JUMP JUMPDEST PUSH1 0x40 MLOAD PUSH4 0x74B2E43 PUSH1 0xE0 SHL DUP2 MSTORE SWAP3 DUP4 SWAP2 DUP3 SWAP1 PUSH32 0x0 AND GAS STATICCALL DUP1 ISZERO PUSH2 0x9D8 JUMPI DUP3 SWAP1 PUSH2 0x99D JUMPI JUMPDEST PUSH1 0x1 PUSH1 0x1 PUSH1 0x80 SHL SUB SWAP2 POP AND SWAP2 DUP3 DUP2 MUL SWAP3 DUP2 DUP5 DIV EQ SWAP1 ISZERO OR ISZERO PUSH2 0x989 JUMPI POP PUSH2 0x2710 PUSH1 0x40 MLOAD SWAP2 DIV DUP2 MSTORE RETURN JUMPDEST PUSH4 0x4E487B71 PUSH1 0xE0 SHL DUP2 MSTORE PUSH1 0x11 PUSH1 0x4 MSTORE PUSH1 0x24 SWAP1 REVERT JUMPDEST POP DUP4 DUP2 DUP2 RETURNDATASIZE DUP4 GT PUSH2 0x9D1 JUMPI JUMPDEST PUSH2 0x9B3 DUP2 DUP4 PUSH2 0x1765 JUMP JUMPDEST DUP2 ADD SUB SLT PUSH2 0x8D4 JUMPI PUSH2 0x9CC PUSH1 0x1 PUSH1 0x1 PUSH1 0x80 SHL SUB SWAP2 PUSH2 0x193F JUMP JUMPDEST PUSH2 0x960 JUMP JUMPDEST POP RETURNDATASIZE PUSH2 0x9A9 JUMP JUMPDEST PUSH1 0x40 MLOAD RETURNDATASIZE DUP5 DUP3 RETURNDATACOPY RETURNDATASIZE SWAP1 REVERT JUMPDEST POP CALLVALUE PUSH2 0x150 JUMPI DUP1 PUSH1 0x3 NOT CALLDATASIZE ADD SLT PUSH2 0x150 JUMPI PUSH1 0x40 MLOAD PUSH32 0x0 PUSH1 0x1 PUSH1 0x1 PUSH1 0xA0 SHL SUB AND DUP2 MSTORE PUSH1 0x20 SWAP1 RETURN JUMPDEST POP CALLVALUE PUSH2 0x150 JUMPI PUSH1 0x40 CALLDATASIZE PUSH1 0x3 NOT ADD SLT PUSH2 0x150 JUMPI PUSH2 0xA42 PUSH2 0x1557 JUMP JUMPDEST PUSH1 0x24 CALLDATALOAD PUSH2 0xA4D PUSH2 0x166F JUMP JUMPDEST PUSH1 0xFF PUSH1 0x6 SLOAD AND PUSH2 0xAAC JUMPI DUP3 SWAP2 PUSH1 0x1 PUSH1 0x1 PUSH1 0xA0 SHL SUB SWAP1 DUP2 AND DUP1 PUSH2 0xA99 JUMPI POP DUP3 DUP1 SWAP3 DUP2 SWAP3 PUSH1 0x1 SLOAD AND DUP3 DUP3 ISZERO PUSH2 0xA90 JUMPI JUMPDEST CALL ISZERO PUSH2 0xA84 JUMPI DUP1 RETURN JUMPDEST PUSH1 0x40 MLOAD SWAP1 RETURNDATASIZE SWAP1 DUP3 RETURNDATACOPY RETURNDATASIZE SWAP1 REVERT JUMPDEST POP PUSH2 0x8FC PUSH2 0xA7B JUMP JUMPDEST SWAP1 PUSH2 0xAA9 SWAP4 POP PUSH1 0x1 SLOAD AND SWAP1 PUSH2 0x1894 JUMP JUMPDEST DUP1 RETURN JUMPDEST PUSH1 0x40 MLOAD PUSH3 0x461BCD PUSH1 0xE5 SHL DUP2 MSTORE PUSH1 0x20 PUSH1 0x4 DUP3 ADD MSTORE PUSH1 0x2D PUSH1 0x24 DUP3 ADD MSTORE PUSH32 0x41617665466C6173684C6F616E50726F76696465723A20466C617368206C6F61 PUSH1 0x44 DUP3 ADD MSTORE PUSH13 0x6E20696E2070726F6772657373 PUSH1 0x98 SHL PUSH1 0x64 DUP3 ADD MSTORE PUSH1 0x84 SWAP1 REVERT JUMPDEST POP CALLVALUE PUSH2 0x150 JUMPI PUSH1 0xA0 CALLDATASIZE PUSH1 0x3 NOT ADD SLT PUSH2 0x150 JUMPI PUSH1 0x4 CALLDATALOAD PUSH1 0x1 PUSH1 0x1 PUSH1 0x40 SHL SUB DUP2 GT PUSH2 0x8D4 JUMPI PUSH2 0xB38 SWAP1 CALLDATASIZE SWAP1 PUSH1 0x4 ADD PUSH2 0x15D5 JUMP JUMPDEST SWAP2 SWAP1 PUSH1 0x24 CALLDATALOAD PUSH1 0x1 PUSH1 0x1 PUSH1 0x40 SHL SUB DUP2 GT PUSH2 0x11DD JUMPI PUSH2 0xB59 SWAP1 CALLDATASIZE SWAP1 PUSH1 0x4 ADD PUSH2 0x15D5 JUMP JUMPDEST SWAP1 SWAP3 PUSH1 0x44 CALLDATALOAD PUSH1 0x1 PUSH1 0x1 PUSH1 0x40 SHL SUB DUP2 GT PUSH2 0x8D4 JUMPI PUSH2 0xB7A SWAP1 CALLDATASIZE SWAP1 PUSH1 0x4 ADD PUSH2 0x15D5 JUMP JUMPDEST PUSH2 0xB85 SWAP4 SWAP2 SWAP4 PUSH2 0x1572 JUMP JUMPDEST SWAP1 PUSH1 0x84 CALLDATALOAD PUSH1 0x1 PUSH1 0x1 PUSH1 0x40 SHL SUB DUP2 GT PUSH2 0x10AB JUMPI PUSH2 0xBA5 SWAP1 CALLDATASIZE SWAP1 PUSH1 0x4 ADD PUSH2 0x1605 JUMP JUMPDEST SWAP4 SWAP1 SWAP3 PUSH32 0x0 PUSH1 0x1 PUSH1 0x1 PUSH1 0xA0 SHL SUB AND CALLER SUB PUSH2 0x118A JUMPI ADDRESS PUSH1 0x1 PUSH1 0x1 PUSH1 0xA0 SHL SUB SWAP1 SWAP2 AND SUB PUSH2 0x1134 JUMPI PUSH1 0xFF PUSH1 0x6 SLOAD AND ISZERO PUSH2 0x10DB JUMPI PUSH1 0x60 DUP4 DUP6 DUP2 ADD SUB SLT PUSH2 0x10AB JUMPI PUSH2 0xC09 DUP4 PUSH2 0x1880 JUMP JUMPDEST SWAP9 PUSH2 0xC16 PUSH1 0x20 DUP6 ADD PUSH2 0x1880 JUMP JUMPDEST SWAP4 PUSH1 0x40 DUP2 ADD CALLDATALOAD SWAP1 PUSH1 0x1 PUSH1 0x1 PUSH1 0x40 SHL SUB DUP3 GT PUSH2 0x10C3 JUMPI DUP7 DUP2 ADD PUSH1 0x1F DUP4 DUP4 ADD ADD SLT ISZERO PUSH2 0x10C3 JUMPI PUSH1 0x1 PUSH1 0x1 PUSH1 0x40 SHL SUB DUP3 DUP3 ADD CALLDATALOAD GT PUSH2 0x10C7 JUMPI PUSH1 0x40 MLOAD SWAP7 PUSH2 0xC66 DUP3 DUP5 ADD CALLDATALOAD PUSH1 0x1F ADD PUSH1 0x1F NOT AND PUSH1 0x20 ADD DUP10 PUSH2 0x1765 JUMP JUMPDEST DUP2 DUP4 ADD DUP1 CALLDATALOAD DUP1 DUP11 MSTORE SWAP2 DUP4 ADD SWAP2 ADD PUSH1 0x20 ADD GT PUSH2 0x10C3 JUMPI DUP8 SWAP2 PUSH1 0x20 SWAP2 DUP1 DUP3 ADD DUP1 CALLDATALOAD SWAP1 DUP5 ADD DUP11 DUP6 ADD CALLDATACOPY ADD CALLDATALOAD DUP8 ADD ADD MSTORE ISZERO PUSH2 0x10AF JUMPI DUP7 CALLDATALOAD PUSH1 0x1 PUSH1 0x1 PUSH1 0xA0 SHL SUB DUP2 AND SWAP1 SUB PUSH2 0x10AB JUMPI ISZERO PUSH2 0x1097 JUMPI ISZERO PUSH2 0x1083 JUMPI DUP3 SWAP2 PUSH1 0x20 SWAP2 PUSH2 0xD2F SWAP2 SWAP1 PUSH2 0xCD8 SWAP1 DUP10 CALLDATALOAD SWAP1 PUSH1 0x1 PUSH1 0x1 PUSH1 0xA0 SHL SUB SWAP1 DUP2 AND SWAP1 DUP11 CALLDATALOAD AND PUSH2 0x1894 JUMP JUMPDEST PUSH1 0x4 DUP1 SLOAD PUSH1 0x40 MLOAD PUSH4 0x1B11D0FF PUSH1 0xE0 SHL DUP2 MSTORE PUSH1 0x1 PUSH1 0x1 PUSH1 0xA0 SHL SUB DUP11 CALLDATALOAD DUP2 AND SWAP4 DUP3 ADD SWAP4 SWAP1 SWAP4 MSTORE DUP11 CALLDATALOAD PUSH1 0x24 DUP3 ADD MSTORE DUP9 CALLDATALOAD PUSH1 0x44 DUP3 ADD MSTORE DUP12 DUP4 AND PUSH1 0x64 DUP3 ADD MSTORE PUSH1 0xA0 PUSH1 0x84 DUP3 ADD MSTORE SWAP6 DUP7 SWAP5 SWAP3 SWAP1 SWAP2 AND SWAP3 DUP5 SWAP3 DUP4 SWAP2 PUSH1 0xA4 DUP4 ADD SWAP1 PUSH2 0x17EA JUMP JUMPDEST SUB SWAP3 GAS CALL SWAP1 DUP2 ISZERO PUSH2 0x9D8 JUMPI DUP3 SWAP2 PUSH2 0x1048 JUMPI JUMPDEST POP ISZERO PUSH2 0xFEA JUMPI DUP2 CALLDATALOAD DUP5 CALLDATALOAD ADD DUP5 CALLDATALOAD GT PUSH2 0x989 JUMPI PUSH1 0x40 MLOAD PUSH4 0x70A08231 PUSH1 0xE0 SHL DUP2 MSTORE ADDRESS PUSH1 0x4 DUP3 ADD MSTORE PUSH1 0x20 DUP2 PUSH1 0x24 DUP2 DUP8 CALLDATALOAD PUSH1 0x1 PUSH1 0x1 PUSH1 0xA0 SHL SUB AND GAS STATICCALL SWAP1 DUP2 ISZERO PUSH2 0x9D8 JUMPI DUP3 SWAP2 PUSH2 0xFB8 JUMPI JUMPDEST POP DUP3 CALLDATALOAD DUP6 CALLDATALOAD ADD GT PUSH2 0xF5D JUMPI PUSH1 0x40 MLOAD PUSH4 0x95EA7B3 PUSH1 0xE0 SHL PUSH1 0x20 DUP1 DUP4 ADD DUP3 DUP2 MSTORE PUSH1 0x1 PUSH1 0x1 PUSH1 0xA0 SHL SUB PUSH32 0x0 AND PUSH1 0x24 DUP6 ADD MSTORE DUP6 CALLDATALOAD DUP9 CALLDATALOAD ADD PUSH1 0x44 DUP1 DUP7 ADD SWAP2 SWAP1 SWAP2 MSTORE DUP5 MSTORE SWAP3 SWAP4 SWAP2 SWAP3 DUP3 SWAP1 PUSH2 0xDF5 PUSH1 0x64 DUP8 PUSH2 0x1765 JUMP JUMPDEST DUP6 MLOAD SWAP1 DUP3 DUP10 CALLDATALOAD PUSH1 0x1 PUSH1 0x1 PUSH1 0xA0 SHL SUB AND GAS CALL DUP2 MLOAD RETURNDATASIZE DUP3 PUSH2 0xF37 JUMPI JUMPDEST POP POP ISZERO PUSH2 0xE6F JUMPI JUMPDEST POP POP PUSH1 0x40 DUP1 MLOAD SWAP5 CALLDATALOAD DUP6 MSTORE SWAP2 CALLDATALOAD PUSH1 0x20 DUP6 ADD MSTORE POP PUSH1 0x1 SWAP1 DUP4 ADD MSTORE CALLDATALOAD PUSH1 0x1 PUSH1 0x1 PUSH1 0xA0 SHL SUB SWAP1 DUP2 AND SWAP3 AND SWAP1 PUSH32 0xF838D0BCA6C4B117E7435267E17CD9CBAFF8EDBA2492B6273496565F50DF570F SWAP1 PUSH1 0x60 SWAP1 LOG3 PUSH1 0x20 PUSH1 0x40 MLOAD PUSH1 0x1 DUP2 MSTORE RETURN JUMPDEST PUSH1 0x40 MLOAD PUSH1 0x20 DUP2 ADD SWAP3 SWAP1 SWAP3 MSTORE PUSH32 0x0 PUSH1 0x1 PUSH1 0x1 PUSH1 0xA0 SHL SUB AND PUSH1 0x24 DUP4 ADD MSTORE PUSH1 0x44 DUP1 DUP4 ADD DUP3 SWAP1 MSTORE DUP3 MSTORE PUSH1 0x80 DUP3 ADD SWAP1 PUSH1 0x1 PUSH1 0x1 PUSH1 0x40 SHL SUB DUP3 GT DUP4 DUP4 LT OR PUSH2 0xF23 JUMPI POP PUSH32 0xF838D0BCA6C4B117E7435267E17CD9CBAFF8EDBA2492B6273496565F50DF570F SWAP5 SWAP3 PUSH2 0xF0B PUSH1 0x60 SWAP6 SWAP4 PUSH2 0xF1B SWAP4 PUSH1 0x40 MSTORE PUSH1 0x1 DUP1 PUSH1 0xA0 SHL SUB DUP7 CALLDATALOAD AND PUSH2 0x18D7 JUMP JUMPDEST DUP4 CALLDATALOAD PUSH1 0x1 PUSH1 0x1 PUSH1 0xA0 SHL SUB AND PUSH2 0x18D7 JUMP JUMPDEST SWAP2 DUP2 SWAP4 PUSH2 0xE17 JUMP JUMPDEST PUSH4 0x4E487B71 PUSH1 0xE0 SHL DUP2 MSTORE PUSH1 0x41 PUSH1 0x4 MSTORE PUSH1 0x24 SWAP1 REVERT JUMPDEST SWAP1 SWAP2 POP PUSH2 0xF55 JUMPI POP DUP5 CALLDATALOAD PUSH1 0x1 PUSH1 0x1 PUSH1 0xA0 SHL SUB AND EXTCODESIZE ISZERO ISZERO JUMPDEST CODESIZE DUP1 PUSH2 0xE0F JUMP JUMPDEST PUSH1 0x1 EQ PUSH2 0xF4E JUMP JUMPDEST PUSH1 0x40 MLOAD PUSH3 0x461BCD PUSH1 0xE5 SHL DUP2 MSTORE PUSH1 0x20 PUSH1 0x4 DUP3 ADD MSTORE PUSH1 0x2D PUSH1 0x24 DUP3 ADD MSTORE PUSH32 0x41617665466C6173684C6F616E50726F76696465723A20496E73756666696369 PUSH1 0x44 DUP3 ADD MSTORE PUSH13 0x195B9D081C995C185E5B595B9D PUSH1 0x9A SHL PUSH1 0x64 DUP3 ADD MSTORE PUSH1 0x84 SWAP1 REVERT JUMPDEST SWAP1 POP PUSH1 0x20 DUP2 RETURNDATASIZE PUSH1 0x20 GT PUSH2 0xFE2 JUMPI JUMPDEST DUP2 PUSH2 0xFD3 PUSH1 0x20 SWAP4 DUP4 PUSH2 0x1765 JUMP JUMPDEST DUP2 ADD SUB SLT PUSH2 0x8D4 JUMPI MLOAD CODESIZE PUSH2 0xD87 JUMP JUMPDEST RETURNDATASIZE SWAP2 POP PUSH2 0xFC6 JUMP JUMPDEST PUSH1 0x40 MLOAD PUSH3 0x461BCD PUSH1 0xE5 SHL DUP2 MSTORE PUSH1 0x20 PUSH1 0x4 DUP3 ADD MSTORE PUSH1 0x30 PUSH1 0x24 DUP3 ADD MSTORE PUSH32 0x41617665466C6173684C6F616E50726F76696465723A20526563656976657220 PUSH1 0x44 DUP3 ADD MSTORE PUSH16 0x195E1958DD5D1A5BDB8819985A5B1959 PUSH1 0x82 SHL PUSH1 0x64 DUP3 ADD MSTORE PUSH1 0x84 SWAP1 REVERT JUMPDEST SWAP1 POP PUSH1 0x20 DUP2 RETURNDATASIZE PUSH1 0x20 GT PUSH2 0x107B JUMPI JUMPDEST DUP2 PUSH2 0x1063 PUSH1 0x20 SWAP4 DUP4 PUSH2 0x1765 JUMP JUMPDEST DUP2 ADD SUB SLT PUSH2 0x8D4 JUMPI MLOAD DUP1 ISZERO ISZERO DUP2 SUB PUSH2 0x8D4 JUMPI CODESIZE PUSH2 0xD41 JUMP JUMPDEST RETURNDATASIZE SWAP2 POP PUSH2 0x1056 JUMP JUMPDEST PUSH4 0x4E487B71 PUSH1 0xE0 SHL DUP4 MSTORE PUSH1 0x32 PUSH1 0x4 MSTORE PUSH1 0x24 DUP4 REVERT JUMPDEST PUSH4 0x4E487B71 PUSH1 0xE0 SHL DUP5 MSTORE PUSH1 0x32 PUSH1 0x4 MSTORE PUSH1 0x24 DUP5 REVERT JUMPDEST DUP5 DUP1 REVERT JUMPDEST PUSH4 0x4E487B71 PUSH1 0xE0 SHL DUP6 MSTORE PUSH1 0x32 PUSH1 0x4 MSTORE PUSH1 0x24 DUP6 REVERT JUMPDEST DUP8 DUP1 REVERT JUMPDEST PUSH4 0x4E487B71 PUSH1 0xE0 SHL DUP9 MSTORE PUSH1 0x41 PUSH1 0x4 MSTORE PUSH1 0x24 DUP9 REVERT JUMPDEST PUSH1 0x40 MLOAD PUSH3 0x461BCD PUSH1 0xE5 SHL DUP2 MSTORE PUSH1 0x20 PUSH1 0x4 DUP3 ADD MSTORE PUSH1 0x2B PUSH1 0x24 DUP3 ADD MSTORE PUSH32 0x41617665466C6173684C6F616E50726F76696465723A204E6F20616374697665 PUSH1 0x44 DUP3 ADD MSTORE PUSH11 0x10333630B9B4103637B0B7 PUSH1 0xA9 SHL PUSH1 0x64 DUP3 ADD MSTORE PUSH1 0x84 SWAP1 REVERT JUMPDEST PUSH1 0x40 MLOAD PUSH3 0x461BCD PUSH1 0xE5 SHL DUP2 MSTORE PUSH1 0x20 PUSH1 0x4 DUP3 ADD MSTORE PUSH1 0x28 PUSH1 0x24 DUP3 ADD MSTORE PUSH32 0x41617665466C6173684C6F616E50726F76696465723A20496E76616C69642069 PUSH1 0x44 DUP3 ADD MSTORE PUSH8 0x3734BA34B0BA37B9 PUSH1 0xC1 SHL PUSH1 0x64 DUP3 ADD MSTORE PUSH1 0x84 SWAP1 REVERT JUMPDEST PUSH1 0x40 MLOAD PUSH3 0x461BCD PUSH1 0xE5 SHL DUP2 MSTORE PUSH1 0x20 PUSH1 0x4 DUP3 ADD MSTORE PUSH1 0x25 PUSH1 0x24 DUP3 ADD MSTORE PUSH32 0x41617665466C6173684C6F616E50726F76696465723A20496E76616C69642063 PUSH1 0x44 DUP3 ADD MSTORE PUSH5 0x30B63632B9 PUSH1 0xD9 SHL PUSH1 0x64 DUP3 ADD MSTORE PUSH1 0x84 SWAP1 REVERT JUMPDEST DUP3 DUP1 REVERT JUMPDEST POP CALLVALUE PUSH2 0x150 JUMPI DUP1 PUSH1 0x3 NOT CALLDATASIZE ADD SLT PUSH2 0x150 JUMPI PUSH1 0x1 SLOAD PUSH1 0x40 MLOAD PUSH1 0x1 PUSH1 0x1 PUSH1 0xA0 SHL SUB SWAP1 SWAP2 AND DUP2 MSTORE PUSH1 0x20 SWAP1 RETURN JUMPDEST POP CALLVALUE PUSH2 0x150 JUMPI PUSH1 0x20 CALLDATASIZE PUSH1 0x3 NOT ADD SLT PUSH2 0x150 JUMPI PUSH1 0x4 CALLDATALOAD SWAP1 PUSH1 0x3 SLOAD DUP3 LT ISZERO PUSH2 0x150 JUMPI PUSH1 0x20 PUSH2 0x1235 DUP4 PUSH2 0x1588 JUMP JUMPDEST SWAP1 SLOAD PUSH1 0x40 MLOAD PUSH1 0x3 SWAP3 SWAP1 SWAP3 SHL SHR PUSH1 0x1 PUSH1 0x1 PUSH1 0xA0 SHL SUB AND DUP2 MSTORE RETURN JUMPDEST POP CALLVALUE PUSH2 0x150 JUMPI DUP1 PUSH1 0x3 NOT CALLDATASIZE ADD SLT PUSH2 0x150 JUMPI PUSH2 0x1267 PUSH2 0x166F JUMP JUMPDEST PUSH1 0x1 DUP1 SLOAD PUSH1 0x1 PUSH1 0x1 PUSH1 0xA0 SHL SUB NOT DUP2 AND SWAP1 SWAP2 SSTORE DUP2 SWAP1 PUSH1 0x1 PUSH1 0x1 PUSH1 0xA0 SHL SUB AND PUSH32 0x8BE0079C531659141344CD1FD0A4F28419497F9722A3DAAFE3B4186F6B6457E0 DUP3 DUP1 LOG3 DUP1 RETURN JUMPDEST POP CALLVALUE PUSH2 0x150 JUMPI PUSH1 0x20 CALLDATASIZE PUSH1 0x3 NOT ADD SLT PUSH2 0x150 JUMPI PUSH1 0x20 PUSH2 0x12CF PUSH2 0x12CA PUSH2 0x1557 JUMP JUMPDEST PUSH2 0x1967 JUMP JUMPDEST PUSH1 0x40 MLOAD SWAP1 DUP2 MSTORE RETURN JUMPDEST POP CALLVALUE PUSH2 0x150 JUMPI PUSH1 0x40 CALLDATASIZE PUSH1 0x3 NOT ADD SLT PUSH2 0x150 JUMPI PUSH2 0x12F1 PUSH2 0x1557 JUMP JUMPDEST PUSH1 0x24 SWAP1 DUP2 CALLDATALOAD SWAP2 DUP3 ISZERO SWAP2 DUP3 ISZERO SWAP3 DUP4 DUP6 SUB PUSH2 0x1553 JUMPI PUSH2 0x130C PUSH2 0x166F JUMP JUMPDEST PUSH1 0x1 PUSH1 0x1 PUSH1 0xA0 SHL SUB SWAP2 DUP3 AND SWAP5 DUP6 ISZERO PUSH2 0x1502 JUMPI DUP6 DUP8 MSTORE PUSH1 0x2 PUSH1 0x20 MSTORE PUSH1 0x40 DUP8 KECCAK256 SWAP1 DUP2 SLOAD SWAP2 PUSH1 0xFF DUP4 AND SWAP3 PUSH1 0xFF DUP9 AND SWAP1 PUSH1 0xFF NOT AND OR SWAP1 SSTORE DUP1 PUSH2 0x14FA JUMPI JUMPDEST ISZERO PUSH2 0x13C5 JUMPI POP POP POP PUSH1 0x3 SLOAD SWAP1 PUSH9 0x10000000000000000 DUP3 LT ISZERO PUSH2 0x13B3 JUMPI POP PUSH1 0x0 DUP1 MLOAD PUSH1 0x20 PUSH2 0x1B90 DUP4 CODECOPY DUP2 MLOAD SWAP2 MSTORE SWAP2 DUP4 PUSH2 0x13A6 PUSH2 0x1389 DUP5 PUSH1 0x1 PUSH1 0x20 SWAP7 ADD PUSH1 0x3 SSTORE PUSH2 0x1588 JUMP JUMPDEST DUP2 SWAP4 SWAP2 SLOAD SWAP1 PUSH1 0x3 SHL SWAP2 PUSH1 0x1 DUP1 PUSH1 0xA0 SHL SUB DUP1 SWAP2 AND DUP4 SHL SWAP3 SHL NOT AND OR SWAP1 JUMP JUMPDEST SWAP1 SSTORE JUMPDEST PUSH1 0x40 MLOAD SWAP1 DUP2 MSTORE LOG2 DUP1 RETURN JUMPDEST PUSH4 0x4E487B71 PUSH1 0xE0 SHL DUP6 MSTORE PUSH1 0x41 PUSH1 0x4 MSTORE DUP5 REVERT JUMPDEST DUP2 PUSH2 0x14F2 JUMPI JUMPDEST POP PUSH2 0x13EA JUMPI JUMPDEST POP POP PUSH1 0x20 PUSH1 0x0 DUP1 MLOAD PUSH1 0x20 PUSH2 0x1B90 DUP4 CODECOPY DUP2 MLOAD SWAP2 MSTORE SWAP2 PUSH2 0x13A9 JUMP JUMPDEST SWAP3 SWAP1 SWAP4 SWAP2 DUP3 JUMPDEST PUSH1 0x3 DUP1 SLOAD DUP1 DUP4 LT ISZERO PUSH2 0x14D3 JUMPI DUP5 DUP8 PUSH2 0x1407 DUP6 PUSH2 0x1588 JUMP JUMPDEST SWAP1 SLOAD SWAP1 DUP6 SHL SHR AND EQ PUSH2 0x1439 JUMPI POP POP PUSH1 0x0 NOT DUP2 EQ PUSH2 0x1426 JUMPI PUSH1 0x1 ADD PUSH2 0x13F0 JUMP JUMPDEST PUSH4 0x4E487B71 PUSH1 0xE0 SHL DUP5 MSTORE PUSH1 0x11 PUSH1 0x4 MSTORE DUP6 DUP5 REVERT JUMPDEST SWAP2 PUSH1 0x0 SWAP8 SWAP2 SWAP4 SWAP6 SWAP8 SWAP7 SWAP5 SWAP7 NOT SWAP3 DUP4 DUP2 ADD SWAP1 DUP2 GT PUSH2 0x14C0 JUMPI PUSH2 0x1389 DUP7 PUSH2 0x1460 PUSH2 0x146D SWAP4 PUSH2 0x1588 JUMP JUMPDEST SWAP1 SLOAD SWAP1 DUP9 SHL SHR AND SWAP3 PUSH2 0x1588 JUMP JUMPDEST SWAP1 SSTORE DUP3 SLOAD SWAP1 DUP2 ISZERO PUSH2 0x14AE JUMPI POP SWAP2 PUSH1 0x20 SWAP4 SWAP2 PUSH1 0x0 DUP1 MLOAD PUSH1 0x20 PUSH2 0x1B90 DUP4 CODECOPY DUP2 MLOAD SWAP2 MSTORE SWAP6 SWAP4 ADD SWAP2 PUSH2 0x149A DUP4 PUSH2 0x1588 JUMP JUMPDEST SWAP1 SWAP2 DUP3 SLOAD SWAP2 DUP5 SHL SHL NOT AND SWAP1 SSTORE SSTORE JUMPDEST SWAP2 PUSH2 0x13D1 JUMP JUMPDEST PUSH4 0x4E487B71 PUSH1 0xE0 SHL DUP9 MSTORE PUSH1 0x31 PUSH1 0x4 MSTORE DUP8 REVERT JUMPDEST PUSH4 0x4E487B71 PUSH1 0xE0 SHL DUP10 MSTORE PUSH1 0x11 PUSH1 0x4 MSTORE DUP3 DUP10 REVERT JUMPDEST POP POP POP PUSH1 0x0 DUP1 MLOAD PUSH1 0x20 PUSH2 0x1B90 DUP4 CODECOPY DUP2 MLOAD SWAP2 MSTORE SWAP3 SWAP5 POP PUSH1 0x20 SWAP2 SWAP4 POP PUSH2 0x14A8 JUMP JUMPDEST SWAP1 POP CODESIZE PUSH2 0x13CB JUMP JUMPDEST POP DUP1 ISZERO PUSH2 0x1345 JUMP JUMPDEST PUSH1 0x40 MLOAD PUSH3 0x461BCD PUSH1 0xE5 SHL DUP2 MSTORE PUSH1 0x20 PUSH1 0x4 DUP3 ADD MSTORE DUP1 DUP6 ADD DUP6 SWAP1 MSTORE PUSH32 0x41617665466C6173684C6F616E50726F76696465723A20496E76616C69642061 PUSH1 0x44 DUP3 ADD MSTORE PUSH4 0x1CDCD95D PUSH1 0xE2 SHL PUSH1 0x64 DUP3 ADD MSTORE PUSH1 0x84 SWAP1 REVERT JUMPDEST DUP6 DUP1 REVERT JUMPDEST PUSH1 0x4 CALLDATALOAD SWAP1 PUSH1 0x1 PUSH1 0x1 PUSH1 0xA0 SHL SUB DUP3 AND DUP3 SUB PUSH2 0x156D JUMPI JUMP JUMPDEST PUSH1 0x0 DUP1 REVERT JUMPDEST PUSH1 0x64 CALLDATALOAD SWAP1 PUSH1 0x1 PUSH1 0x1 PUSH1 0xA0 SHL SUB DUP3 AND DUP3 SUB PUSH2 0x156D JUMPI JUMP JUMPDEST PUSH1 0x3 SLOAD DUP2 LT ISZERO PUSH2 0x15BF JUMPI PUSH1 0x3 PUSH1 0x0 MSTORE PUSH32 0xC2575A0E9E593C00F959F8C92F12DB2869C3395A3B0502D05E2516446F71F85B ADD SWAP1 PUSH1 0x0 SWAP1 JUMP JUMPDEST PUSH4 0x4E487B71 PUSH1 0xE0 SHL PUSH1 0x0 MSTORE PUSH1 0x32 PUSH1 0x4 MSTORE PUSH1 0x24 PUSH1 0x0 REVERT JUMPDEST SWAP2 DUP2 PUSH1 0x1F DUP5 ADD SLT ISZERO PUSH2 0x156D JUMPI DUP3 CALLDATALOAD SWAP2 PUSH1 0x1 PUSH1 0x1 PUSH1 0x40 SHL SUB DUP4 GT PUSH2 0x156D JUMPI PUSH1 0x20 DUP1 DUP6 ADD SWAP5 DUP5 PUSH1 0x5 SHL ADD ADD GT PUSH2 0x156D JUMPI JUMP JUMPDEST SWAP2 DUP2 PUSH1 0x1F DUP5 ADD SLT ISZERO PUSH2 0x156D JUMPI DUP3 CALLDATALOAD SWAP2 PUSH1 0x1 PUSH1 0x1 PUSH1 0x40 SHL SUB DUP4 GT PUSH2 0x156D JUMPI PUSH1 0x20 DUP4 DUP2 DUP7 ADD SWAP6 ADD ADD GT PUSH2 0x156D JUMPI JUMP JUMPDEST SWAP1 DUP2 MLOAD DUP1 DUP3 MSTORE PUSH1 0x20 DUP1 DUP1 SWAP4 ADD SWAP4 ADD SWAP2 PUSH1 0x0 JUMPDEST DUP3 DUP2 LT PUSH2 0x1652 JUMPI POP POP POP POP SWAP1 JUMP JUMPDEST DUP4 MLOAD PUSH1 0x1 PUSH1 0x1 PUSH1 0xA0 SHL SUB AND DUP6 MSTORE SWAP4 DUP2 ADD SWAP4 SWAP3 DUP2 ADD SWAP3 PUSH1 0x1 ADD PUSH2 0x1644 JUMP JUMPDEST PUSH1 0x1 SLOAD PUSH1 0x1 PUSH1 0x1 PUSH1 0xA0 SHL SUB AND CALLER SUB PUSH2 0x1683 JUMPI JUMP JUMPDEST PUSH1 0x40 MLOAD PUSH4 0x118CDAA7 PUSH1 0xE0 SHL DUP2 MSTORE CALLER PUSH1 0x4 DUP3 ADD MSTORE PUSH1 0x24 SWAP1 REVERT JUMPDEST ISZERO PUSH2 0x16A2 JUMPI JUMP JUMPDEST PUSH1 0x40 MLOAD PUSH3 0x461BCD PUSH1 0xE5 SHL DUP2 MSTORE PUSH1 0x20 PUSH1 0x4 DUP3 ADD MSTORE PUSH1 0x2A PUSH1 0x24 DUP3 ADD MSTORE PUSH32 0x41617665466C6173684C6F616E50726F76696465723A204173736574206E6F74 PUSH1 0x44 DUP3 ADD MSTORE PUSH10 0x81CDD5C1C1BDC9D1959 PUSH1 0xB2 SHL PUSH1 0x64 DUP3 ADD MSTORE PUSH1 0x84 SWAP1 REVERT JUMPDEST SWAP1 PUSH1 0x1 DUP3 DUP2 SHR SWAP3 AND DUP1 ISZERO PUSH2 0x172A JUMPI JUMPDEST PUSH1 0x20 DUP4 LT EQ PUSH2 0x1714 JUMPI JUMP JUMPDEST PUSH4 0x4E487B71 PUSH1 0xE0 SHL PUSH1 0x0 MSTORE PUSH1 0x22 PUSH1 0x4 MSTORE PUSH1 0x24 PUSH1 0x0 REVERT JUMPDEST SWAP2 PUSH1 0x7F AND SWAP2 PUSH2 0x1709 JUMP JUMPDEST PUSH1 0x40 DUP2 ADD SWAP1 DUP2 LT PUSH1 0x1 PUSH1 0x1 PUSH1 0x40 SHL SUB DUP3 GT OR PUSH2 0x174F JUMPI PUSH1 0x40 MSTORE JUMP JUMPDEST PUSH4 0x4E487B71 PUSH1 0xE0 SHL PUSH1 0x0 MSTORE PUSH1 0x41 PUSH1 0x4 MSTORE PUSH1 0x24 PUSH1 0x0 REVERT JUMPDEST SWAP1 PUSH1 0x1F DUP1 NOT SWAP2 ADD AND DUP2 ADD SWAP1 DUP2 LT PUSH1 0x1 PUSH1 0x1 PUSH1 0x40 SHL SUB DUP3 GT OR PUSH2 0x174F JUMPI PUSH1 0x40 MSTORE JUMP JUMPDEST DUP1 MLOAD ISZERO PUSH2 0x15BF JUMPI PUSH1 0x20 ADD SWAP1 JUMP JUMPDEST SWAP1 DUP2 MLOAD DUP1 DUP3 MSTORE PUSH1 0x20 DUP1 DUP1 SWAP4 ADD SWAP4 ADD SWAP2 PUSH1 0x0 JUMPDEST DUP3 DUP2 LT PUSH2 0x17B3 JUMPI POP POP POP POP SWAP1 JUMP JUMPDEST DUP4 MLOAD DUP6 MSTORE SWAP4 DUP2 ADD SWAP4 SWAP3 DUP2 ADD SWAP3 PUSH1 0x1 ADD PUSH2 0x17A5 JUMP JUMPDEST PUSH1 0x0 JUMPDEST DUP4 DUP2 LT PUSH2 0x17DA JUMPI POP POP PUSH1 0x0 SWAP2 ADD MSTORE JUMP JUMPDEST DUP2 DUP2 ADD MLOAD DUP4 DUP3 ADD MSTORE PUSH1 0x20 ADD PUSH2 0x17CA JUMP JUMPDEST SWAP1 PUSH1 0x20 SWAP2 PUSH2 0x1803 DUP2 MLOAD DUP1 SWAP3 DUP2 DUP6 MSTORE DUP6 DUP1 DUP7 ADD SWAP2 ADD PUSH2 0x17C7 JUMP JUMPDEST PUSH1 0x1F ADD PUSH1 0x1F NOT AND ADD ADD SWAP1 JUMP JUMPDEST PUSH1 0x0 PUSH1 0x44 RETURNDATASIZE LT PUSH2 0x186C JUMPI PUSH1 0x40 MLOAD PUSH1 0x3 NOT SWAP2 RETURNDATASIZE DUP4 ADD PUSH1 0x4 DUP4 RETURNDATACOPY DUP2 MLOAD PUSH1 0x1 PUSH1 0x1 PUSH1 0x40 SHL SUB SWAP2 DUP3 DUP3 GT RETURNDATASIZE PUSH1 0x24 DUP5 ADD GT OR PUSH2 0x186F JUMPI DUP2 DUP5 ADD SWAP5 DUP6 MLOAD SWAP4 DUP5 GT PUSH2 0x1877 JUMPI RETURNDATASIZE DUP6 ADD ADD PUSH1 0x20 DUP5 DUP8 ADD ADD GT PUSH2 0x186F JUMPI POP PUSH2 0x186C SWAP3 SWAP2 ADD PUSH1 0x20 ADD SWAP1 PUSH2 0x1765 JUMP JUMPDEST SWAP1 JUMP JUMPDEST SWAP5 SWAP4 POP POP POP POP JUMP JUMPDEST POP SWAP5 SWAP4 POP POP POP POP JUMP JUMPDEST CALLDATALOAD SWAP1 PUSH1 0x1 PUSH1 0x1 PUSH1 0xA0 SHL SUB DUP3 AND DUP3 SUB PUSH2 0x156D JUMPI JUMP JUMPDEST PUSH1 0x40 MLOAD PUSH4 0xA9059CBB PUSH1 0xE0 SHL PUSH1 0x20 DUP3 ADD MSTORE PUSH1 0x1 PUSH1 0x1 PUSH1 0xA0 SHL SUB SWAP3 SWAP1 SWAP3 AND PUSH1 0x24 DUP4 ADD MSTORE PUSH1 0x44 DUP1 DUP4 ADD SWAP4 SWAP1 SWAP4 MSTORE SWAP2 DUP2 MSTORE PUSH2 0x18D5 SWAP2 PUSH2 0x18D0 PUSH1 0x64 DUP4 PUSH2 0x1765 JUMP JUMPDEST PUSH2 0x18D7 JUMP JUMPDEST JUMP JUMPDEST SWAP1 PUSH1 0x0 PUSH1 0x20 SWAP2 DUP3 DUP2 MLOAD SWAP2 ADD DUP3 DUP6 GAS CALL ISZERO PUSH2 0x1933 JUMPI PUSH1 0x0 MLOAD RETURNDATASIZE PUSH2 0x192A JUMPI POP PUSH1 0x1 PUSH1 0x1 PUSH1 0xA0 SHL SUB DUP2 AND EXTCODESIZE ISZERO JUMPDEST PUSH2 0x1908 JUMPI POP JUMP JUMPDEST PUSH1 0x40 MLOAD PUSH4 0x5274AFE7 PUSH1 0xE0 SHL DUP2 MSTORE PUSH1 0x1 PUSH1 0x1 PUSH1 0xA0 SHL SUB SWAP1 SWAP2 AND PUSH1 0x4 DUP3 ADD MSTORE PUSH1 0x24 SWAP1 REVERT JUMPDEST PUSH1 0x1 EQ ISZERO PUSH2 0x1901 JUMP JUMPDEST PUSH1 0x40 MLOAD RETURNDATASIZE PUSH1 0x0 DUP3 RETURNDATACOPY RETURNDATASIZE SWAP1 REVERT JUMPDEST MLOAD SWAP1 PUSH1 0x1 PUSH1 0x1 PUSH1 0x80 SHL SUB DUP3 AND DUP3 SUB PUSH2 0x156D JUMPI JUMP JUMPDEST MLOAD SWAP1 PUSH1 0x1 PUSH1 0x1 PUSH1 0xA0 SHL SUB DUP3 AND DUP3 SUB PUSH2 0x156D JUMPI JUMP JUMPDEST PUSH1 0x0 DUP1 SWAP2 PUSH1 0x1 DUP1 PUSH1 0xA0 SHL SUB DUP1 SWAP2 AND DUP1 DUP5 MSTORE PUSH1 0x20 SWAP2 PUSH1 0x2 DUP4 MSTORE PUSH1 0xFF PUSH1 0x40 DUP7 KECCAK256 SLOAD AND ISZERO PUSH2 0x1B68 JUMPI PUSH1 0x40 MLOAD PUSH4 0x35EA6A75 PUSH1 0xE0 SHL DUP2 MSTORE PUSH1 0x4 DUP2 ADD DUP4 SWAP1 MSTORE PUSH2 0x1E0 DUP1 DUP3 PUSH1 0x24 DUP2 PUSH32 0x0 DUP8 AND GAS STATICCALL SWAP2 DUP3 SWAP2 DUP9 SWAP4 PUSH2 0x1A73 JUMPI JUMPDEST POP POP PUSH2 0x19E5 JUMPI POP POP POP POP POP SWAP1 JUMP JUMPDEST SWAP6 SWAP5 SWAP2 SWAP3 SWAP4 SWAP6 AND DUP1 PUSH2 0x19F8 JUMPI JUMPDEST POP POP POP POP JUMP JUMPDEST DUP4 SWAP5 SWAP6 POP PUSH1 0x24 PUSH1 0x40 SWAP5 SWAP3 SWAP4 SWAP5 MLOAD DUP1 SWAP6 DUP2 SWAP4 PUSH4 0x70A08231 PUSH1 0xE0 SHL DUP4 MSTORE PUSH1 0x4 DUP4 ADD MSTORE GAS STATICCALL SWAP3 DUP4 ISZERO PUSH2 0x1A66 JUMPI DUP2 SWAP4 PUSH2 0x1A35 JUMPI JUMPDEST POP POP POP SWAP1 CODESIZE DUP1 DUP1 DUP1 PUSH2 0x19F2 JUMP JUMPDEST SWAP1 SWAP2 DUP1 SWAP4 POP DUP2 RETURNDATASIZE DUP4 GT PUSH2 0x1A5F JUMPI JUMPDEST PUSH2 0x1A4D DUP2 DUP4 PUSH2 0x1765 JUMP JUMPDEST DUP2 ADD SUB SLT PUSH2 0x150 JUMPI POP MLOAD CODESIZE DUP1 DUP1 PUSH2 0x1A28 JUMP JUMPDEST POP RETURNDATASIZE PUSH2 0x1A43 JUMP JUMPDEST POP PUSH1 0x40 MLOAD SWAP1 RETURNDATASIZE SWAP1 DUP3 RETURNDATACOPY RETURNDATASIZE SWAP1 REVERT JUMPDEST SWAP1 DUP1 SWAP3 SWAP4 POP DUP2 RETURNDATASIZE DUP4 GT PUSH2 0x1B61 JUMPI JUMPDEST PUSH2 0x1A8B DUP2 DUP4 PUSH2 0x1765 JUMP JUMPDEST DUP2 ADD SUB SLT PUSH2 0x1B5D JUMPI PUSH2 0x1A9E DUP6 DUP3 ADD PUSH2 0x193F JUMP JUMPDEST POP PUSH2 0x1AAB PUSH1 0x40 DUP3 ADD PUSH2 0x193F JUMP JUMPDEST POP PUSH2 0x1AB8 PUSH1 0x60 DUP3 ADD PUSH2 0x193F JUMP JUMPDEST POP PUSH2 0x1AC5 PUSH1 0x80 DUP3 ADD PUSH2 0x193F JUMP JUMPDEST POP PUSH2 0x1AD2 PUSH1 0xA0 DUP3 ADD PUSH2 0x193F JUMP JUMPDEST POP PUSH1 0xC0 DUP2 ADD MLOAD PUSH5 0xFFFFFFFFFF DUP2 AND SUB PUSH2 0x1B5D JUMPI PUSH1 0xE0 DUP2 ADD MLOAD PUSH2 0xFFFF DUP2 AND SUB PUSH2 0x1B5D JUMPI PUSH2 0x1B54 PUSH2 0x1C0 PUSH2 0x1B07 PUSH2 0x100 DUP5 ADD PUSH2 0x1953 JUMP JUMPDEST SWAP3 PUSH2 0x1B15 PUSH2 0x120 DUP3 ADD PUSH2 0x1953 JUMP JUMPDEST POP PUSH2 0x1B23 PUSH2 0x140 DUP3 ADD PUSH2 0x1953 JUMP JUMPDEST POP PUSH2 0x1B31 PUSH2 0x160 DUP3 ADD PUSH2 0x1953 JUMP JUMPDEST POP PUSH2 0x1B3F PUSH2 0x180 DUP3 ADD PUSH2 0x193F JUMP JUMPDEST POP PUSH2 0x1B4D PUSH2 0x1A0 DUP3 ADD PUSH2 0x193F JUMP JUMPDEST POP ADD PUSH2 0x193F JUMP JUMPDEST POP SWAP1 CODESIZE DUP1 PUSH2 0x19D7 JUMP JUMPDEST DUP7 DUP1 REVERT JUMPDEST POP RETURNDATASIZE PUSH2 0x1A81 JUMP JUMPDEST POP POP POP POP SWAP1 JUMP INVALID SUB PUSH12 0x6384B5ECA791C62761152D0C PUSH26 0xBB0604C104A5FB6F4EB0703F3154BB3DB090BC5441FDB22DD389 LOG0 0xBC SWAP11 0xC4 BALANCE 0xBC PREVRANDAO ORIGIN 0xD0 0xB7 GASLIMIT SWAP13 0x2C 0xD9 PUSH21 0x5AB302343BFE94F9A2646970667358221220253AAF SMOD PUSH27 0x4067F0F20A7128D07627B1EFB2A5E94F62E518AA0DC111345C7BCB PUSH5 0x736F6C6343 STOP ADDMOD EQ STOP CALLER "},"methodIdentifiers":{"aavePool()":"a03e4bc3","assetsList(uint256)":"71e85c41","emergencyWithdraw(address,uint256)":"95ccea67","executeOperation(address[],uint256[],uint256[],address,bytes)":"920f5c84","flashLoan(address,uint256,bytes,address)":"b0fa9252","getAvailableLiquidity(address)":"266e2bd8","getFlashLoanFee(address,uint256)":"b02c67fd","getSupportedAssets()":"e5406dbf","isAssetSupported(address)":"464b4158","owner()":"8da5cb5b","renounceOwnership()":"715018a6","supportedAssets(address)":"bd81579e","transferOwnership(address)":"f2fde38b","updateAssetSupport(address,bool)":"0ad12ee9"}}}}}