{"src/mocks/MockUniswapV2Factory.sol":{"MockUniswapV2Factory":{"abi":[{"anonymous":false,"inputs":[{"indexed":true,"internalType":"address","name":"token0","type":"address"},{"indexed":true,"internalType":"address","name":"token1","type":"address"},{"indexed":false,"internalType":"address","name":"pair","type":"address"},{"indexed":false,"internalType":"uint256","name":"","type":"uint256"}],"name":"PairCreated","type":"event"},{"inputs":[{"internalType":"uint256","name":"","type":"uint256"}],"name":"allPairs","outputs":[{"internalType":"address","name":"","type":"address"}],"stateMutability":"view","type":"function"},{"inputs":[],"name":"allPairsLength","outputs":[{"internalType":"uint256","name":"","type":"uint256"}],"stateMutability":"view","type":"function"},{"inputs":[{"internalType":"address","name":"tokenA","type":"address"},{"internalType":"address","name":"tokenB","type":"address"}],"name":"createPair","outputs":[{"internalType":"address","name":"pair","type":"address"}],"stateMutability":"nonpayable","type":"function"},{"inputs":[{"internalType":"address","name":"","type":"address"},{"internalType":"address","name":"","type":"address"}],"name":"getPair","outputs":[{"internalType":"address","name":"","type":"address"}],"stateMutability":"view","type":"function"}],"evm":{"bytecode":{"linkReferences":{},"object":"6080806040523461001657610416908161001c8239f35b600080fdfe6040608081526004908136101561001557600080fd5b600091823560e01c9081631e3dd18b1461031a578163574f2ba3146102fb578163c9c653961461009c575063e6a439051461004f57600080fd5b346100985780600319360112610098576020918161006b6103af565b916100746103ca565b6001600160a01b039384168252818652828220908416825285522054915191168152f35b5080fd5b8383346100985780600319360112610098576100b66103af565b926100bf6103ca565b6001600160a01b03949091908583168187168082146102b85710156102b25791945b80831691821561026f578286526020968688528587209483821695868952895283878920541661023357865190898201926bffffffffffffffffffffffff19809260601b16845260601b166034820152426048820152604881526080810181811067ffffffffffffffff82111761022057908492918852519020169583815280885285812085825288528581206bffffffffffffffffffffffff60a01b90888282541617905581895286822085835289528787832091825416179055600154916801000000000000000083101561020d5750508060016101c49201600155610362565b819291549060031b9187831b921b19161790557f0d3648bd0f6ba80134a33ba9275ac585d9d315f0ad8355cddefde31afa28d0e98360015481519087825288820152a351908152f35b634e487b7160e01b825260419052602490fd5b634e487b7160e01b895260418452602489fd5b865162461bcd60e51b81528084018a90526016602482015275556e697377617056323a20504149525f45584953545360501b6044820152606490fd5b606490602086519162461bcd60e51b8352820152601760248201527f556e697377617056323a205a45524f5f414444524553530000000000000000006044820152fd5b946100e1565b855162461bcd60e51b8152602081860152601e60248201527f556e697377617056323a204944454e544943414c5f41444452455353455300006044820152606490fd5b5050346100985781600319360112610098576020906001549051908152f35b90503461035e57602036600319011261035e57359160015483101561035b5750610345602092610362565b905491519160018060a01b039160031b1c168152f35b80fd5b8280fd5b6001548110156103995760016000527fb10e2d527612073b26eecdfd717e6a320cf44b4afac2b0732d9fcbe2b7fa0cf60190600090565b634e487b7160e01b600052603260045260246000fd5b600435906001600160a01b03821682036103c557565b600080fd5b602435906001600160a01b03821682036103c55756fea2646970667358221220b81d57f1f437410025849a9e93aa992e4e33c06589baa4760ffca12093c2c54264736f6c63430008140033","opcodes":"PUSH1 0x80 DUP1 PUSH1 0x40 MSTORE CALLVALUE PUSH2 0x16 JUMPI PUSH2 0x416 SWAP1 DUP2 PUSH2 0x1C DUP3 CODECOPY RETURN JUMPDEST PUSH1 0x0 DUP1 REVERT INVALID PUSH1 0x40 PUSH1 0x80 DUP2 MSTORE PUSH1 0x4 SWAP1 DUP2 CALLDATASIZE LT ISZERO PUSH2 0x15 JUMPI PUSH1 0x0 DUP1 REVERT JUMPDEST PUSH1 0x0 SWAP2 DUP3 CALLDATALOAD PUSH1 0xE0 SHR SWAP1 DUP2 PUSH4 0x1E3DD18B EQ PUSH2 0x31A JUMPI DUP2 PUSH4 0x574F2BA3 EQ PUSH2 0x2FB JUMPI DUP2 PUSH4 0xC9C65396 EQ PUSH2 0x9C JUMPI POP PUSH4 0xE6A43905 EQ PUSH2 0x4F JUMPI PUSH1 0x0 DUP1 REVERT JUMPDEST CALLVALUE PUSH2 0x98 JUMPI DUP1 PUSH1 0x3 NOT CALLDATASIZE ADD SLT PUSH2 0x98 JUMPI PUSH1 0x20 SWAP2 DUP2 PUSH2 0x6B PUSH2 0x3AF JUMP JUMPDEST SWAP2 PUSH2 0x74 PUSH2 0x3CA JUMP JUMPDEST PUSH1 0x1 PUSH1 0x1 PUSH1 0xA0 SHL SUB SWAP4 DUP5 AND DUP3 MSTORE DUP2 DUP7 MSTORE DUP3 DUP3 KECCAK256 SWAP1 DUP5 AND DUP3 MSTORE DUP6 MSTORE KECCAK256 SLOAD SWAP2 MLOAD SWAP2 AND DUP2 MSTORE RETURN JUMPDEST POP DUP1 REVERT JUMPDEST DUP4 DUP4 CALLVALUE PUSH2 0x98 JUMPI DUP1 PUSH1 0x3 NOT CALLDATASIZE ADD SLT PUSH2 0x98 JUMPI PUSH2 0xB6 PUSH2 0x3AF JUMP JUMPDEST SWAP3 PUSH2 0xBF PUSH2 0x3CA JUMP JUMPDEST PUSH1 0x1 PUSH1 0x1 PUSH1 0xA0 SHL SUB SWAP5 SWAP1 SWAP2 SWAP1 DUP6 DUP4 AND DUP2 DUP8 AND DUP1 DUP3 EQ PUSH2 0x2B8 JUMPI LT ISZERO PUSH2 0x2B2 JUMPI SWAP2 SWAP5 JUMPDEST DUP1 DUP4 AND SWAP2 DUP3 ISZERO PUSH2 0x26F JUMPI DUP3 DUP7 MSTORE PUSH1 0x20 SWAP7 DUP7 DUP9 MSTORE DUP6 DUP8 KECCAK256 SWAP5 DUP4 DUP3 AND SWAP6 DUP7 DUP10 MSTORE DUP10 MSTORE DUP4 DUP8 DUP10 KECCAK256 SLOAD AND PUSH2 0x233 JUMPI DUP7 MLOAD SWAP1 DUP10 DUP3 ADD SWAP3 PUSH12 0xFFFFFFFFFFFFFFFFFFFFFFFF NOT DUP1 SWAP3 PUSH1 0x60 SHL AND DUP5 MSTORE PUSH1 0x60 SHL AND PUSH1 0x34 DUP3 ADD MSTORE TIMESTAMP PUSH1 0x48 DUP3 ADD MSTORE PUSH1 0x48 DUP2 MSTORE PUSH1 0x80 DUP2 ADD DUP2 DUP2 LT PUSH8 0xFFFFFFFFFFFFFFFF DUP3 GT OR PUSH2 0x220 JUMPI SWAP1 DUP5 SWAP3 SWAP2 DUP9 MSTORE MLOAD SWAP1 KECCAK256 AND SWAP6 DUP4 DUP2 MSTORE DUP1 DUP9 MSTORE DUP6 DUP2 KECCAK256 DUP6 DUP3 MSTORE DUP9 MSTORE DUP6 DUP2 KECCAK256 PUSH12 0xFFFFFFFFFFFFFFFFFFFFFFFF PUSH1 0xA0 SHL SWAP1 DUP9 DUP3 DUP3 SLOAD AND OR SWAP1 SSTORE DUP2 DUP10 MSTORE DUP7 DUP3 KECCAK256 DUP6 DUP4 MSTORE DUP10 MSTORE DUP8 DUP8 DUP4 KECCAK256 SWAP2 DUP3 SLOAD AND OR SWAP1 SSTORE PUSH1 0x1 SLOAD SWAP2 PUSH9 0x10000000000000000 DUP4 LT ISZERO PUSH2 0x20D JUMPI POP POP DUP1 PUSH1 0x1 PUSH2 0x1C4 SWAP3 ADD PUSH1 0x1 SSTORE PUSH2 0x362 JUMP JUMPDEST DUP2 SWAP3 SWAP2 SLOAD SWAP1 PUSH1 0x3 SHL SWAP2 DUP8 DUP4 SHL SWAP3 SHL NOT AND OR SWAP1 SSTORE PUSH32 0xD3648BD0F6BA80134A33BA9275AC585D9D315F0AD8355CDDEFDE31AFA28D0E9 DUP4 PUSH1 0x1 SLOAD DUP2 MLOAD SWAP1 DUP8 DUP3 MSTORE DUP9 DUP3 ADD MSTORE LOG3 MLOAD SWAP1 DUP2 MSTORE RETURN JUMPDEST PUSH4 0x4E487B71 PUSH1 0xE0 SHL DUP3 MSTORE PUSH1 0x41 SWAP1 MSTORE PUSH1 0x24 SWAP1 REVERT JUMPDEST PUSH4 0x4E487B71 PUSH1 0xE0 SHL DUP10 MSTORE PUSH1 0x41 DUP5 MSTORE PUSH1 0x24 DUP10 REVERT JUMPDEST DUP7 MLOAD PUSH3 0x461BCD PUSH1 0xE5 SHL DUP2 MSTORE DUP1 DUP5 ADD DUP11 SWAP1 MSTORE PUSH1 0x16 PUSH1 0x24 DUP3 ADD MSTORE PUSH22 0x556E697377617056323A20504149525F455849535453 PUSH1 0x50 SHL PUSH1 0x44 DUP3 ADD MSTORE PUSH1 0x64 SWAP1 REVERT JUMPDEST PUSH1 0x64 SWAP1 PUSH1 0x20 DUP7 MLOAD SWAP2 PUSH3 0x461BCD PUSH1 0xE5 SHL DUP4 MSTORE DUP3 ADD MSTORE PUSH1 0x17 PUSH1 0x24 DUP3 ADD MSTORE PUSH32 0x556E697377617056323A205A45524F5F41444452455353000000000000000000 PUSH1 0x44 DUP3 ADD MSTORE REVERT JUMPDEST SWAP5 PUSH2 0xE1 JUMP JUMPDEST DUP6 MLOAD PUSH3 0x461BCD PUSH1 0xE5 SHL DUP2 MSTORE PUSH1 0x20 DUP2 DUP7 ADD MSTORE PUSH1 0x1E PUSH1 0x24 DUP3 ADD MSTORE PUSH32 0x556E697377617056323A204944454E544943414C5F4144445245535345530000 PUSH1 0x44 DUP3 ADD MSTORE PUSH1 0x64 SWAP1 REVERT JUMPDEST POP POP CALLVALUE PUSH2 0x98 JUMPI DUP2 PUSH1 0x3 NOT CALLDATASIZE ADD SLT PUSH2 0x98 JUMPI PUSH1 0x20 SWAP1 PUSH1 0x1 SLOAD SWAP1 MLOAD SWAP1 DUP2 MSTORE RETURN JUMPDEST SWAP1 POP CALLVALUE PUSH2 0x35E JUMPI PUSH1 0x20 CALLDATASIZE PUSH1 0x3 NOT ADD SLT PUSH2 0x35E JUMPI CALLDATALOAD SWAP2 PUSH1 0x1 SLOAD DUP4 LT ISZERO PUSH2 0x35B JUMPI POP PUSH2 0x345 PUSH1 0x20 SWAP3 PUSH2 0x362 JUMP JUMPDEST SWAP1 SLOAD SWAP2 MLOAD SWAP2 PUSH1 0x1 DUP1 PUSH1 0xA0 SHL SUB SWAP2 PUSH1 0x3 SHL SHR AND DUP2 MSTORE RETURN JUMPDEST DUP1 REVERT JUMPDEST DUP3 DUP1 REVERT JUMPDEST PUSH1 0x1 SLOAD DUP2 LT ISZERO PUSH2 0x399 JUMPI PUSH1 0x1 PUSH1 0x0 MSTORE PUSH32 0xB10E2D527612073B26EECDFD717E6A320CF44B4AFAC2B0732D9FCBE2B7FA0CF6 ADD SWAP1 PUSH1 0x0 SWAP1 JUMP JUMPDEST PUSH4 0x4E487B71 PUSH1 0xE0 SHL PUSH1 0x0 MSTORE PUSH1 0x32 PUSH1 0x4 MSTORE PUSH1 0x24 PUSH1 0x0 REVERT JUMPDEST PUSH1 0x4 CALLDATALOAD SWAP1 PUSH1 0x1 PUSH1 0x1 PUSH1 0xA0 SHL SUB DUP3 AND DUP3 SUB PUSH2 0x3C5 JUMPI JUMP JUMPDEST PUSH1 0x0 DUP1 REVERT JUMPDEST PUSH1 0x24 CALLDATALOAD SWAP1 PUSH1 0x1 PUSH1 0x1 PUSH1 0xA0 SHL SUB DUP3 AND DUP3 SUB PUSH2 0x3C5 JUMPI JUMP INVALID LOG2 PUSH5 0x6970667358 0x22 SLT KECCAK256 0xB8 SAR JUMPI CALL DELEGATECALL CALLDATACOPY COINBASE STOP 0x25 DUP5 SWAP11 SWAP15 SWAP4 0xAA SWAP10 0x2E 0x4E CALLER 0xC0 PUSH6 0x89BAA4760FFC LOG1 KECCAK256 SWAP4 0xC2 0xC5 TIMESTAMP PUSH5 0x736F6C6343 STOP ADDMOD EQ STOP CALLER "},"methodIdentifiers":{"allPairs(uint256)":"1e3dd18b","allPairsLength()":"574f2ba3","createPair(address,address)":"c9c65396","getPair(address,address)":"e6a43905"}}}}}