{"src/mocks/MockUniswapV2Router.sol":{"MockUniswapV2Router":{"abi":[{"inputs":[],"stateMutability":"nonpayable","type":"constructor"},{"inputs":[],"name":"factory","outputs":[{"internalType":"address","name":"","type":"address"}],"stateMutability":"view","type":"function"},{"inputs":[{"internalType":"uint256","name":"amountOut","type":"uint256"},{"internalType":"address[]","name":"path","type":"address[]"}],"name":"getAmountsIn","outputs":[{"internalType":"uint256[]","name":"amounts","type":"uint256[]"}],"stateMutability":"pure","type":"function"},{"inputs":[{"internalType":"uint256","name":"amountIn","type":"uint256"},{"internalType":"address[]","name":"path","type":"address[]"}],"name":"getAmountsOut","outputs":[{"internalType":"uint256[]","name":"amounts","type":"uint256[]"}],"stateMutability":"pure","type":"function"},{"inputs":[{"internalType":"uint256","name":"amountIn","type":"uint256"},{"internalType":"uint256","name":"amountOutMin","type":"uint256"},{"internalType":"address[]","name":"path","type":"address[]"},{"internalType":"address","name":"to","type":"address"},{"internalType":"uint256","name":"deadline","type":"uint256"}],"name":"swapExactTokensForTokens","outputs":[{"internalType":"uint256[]","name":"amounts","type":"uint256[]"}],"stateMutability":"nonpayable","type":"function"}],"evm":{"bytecode":{"linkReferences":{},"object":"6080806040523461002857600080546001600160a01b0319163317905561065e908161002e8239f35b600080fdfe6040608081526004908136101561001557600080fd5b600090813560e01c80631f00ca741461037057806338ed173914610120578063c45a0155146100f95763d06ca61f1461004d57600080fd5b346100f55761005b3661048f565b9193905061006c60028310156104fe565b6100758261059a565b9361007f856105cc565b5260015b82811061009b5783518061009787826104c3565b0390f35b60001981018181116100e2576100b190866105ef565b51605a908181029181830414901517156100e2579060646100dd92046100d782886105ef565b52610603565b610083565b634e487b7160e01b835260118752602483fd5b5080fd5b50346100f557816003193601126100f557905490516001600160a01b039091168152602090f35b5091346100f55760a03660031901126100f557803560443567ffffffffffffffff811161036c576101549036908401610459565b9093606492916001600160a01b0384358181160361030157426084351061032a5761018260028310156104fe565b61018b8261059a565b9684610196896105cc565b52821561031757359081168091036103015760208391868a51809481936323b872dd60e01b8352338c840152602499308b85015260448401525af1801561030d576102d2575b5060015b81811061027f575050845160001981019190821161026d5750610205823591866105ef565b51106102185784518061009786826104c3565b60849291602b6a1514155517d05353d5539560aa1b92602088519562461bcd60e51b87528601528401527f556e69737761705632526f757465723a20494e53554646494349454e545f4f556044840152820152fd5b634e487b7160e01b8152601185529050fd5b60001981018181116102bf5761029590886105ef565b51605a908181029181830414901517156102bf5790856102ba92046100d7828a6105ef565b6101e0565b5050634e487b7160e01b82525060118452fd5b6020813d8211610305575b816102ea6020938361054a565b810103126103015751801515036100f557386101dc565b8280fd5b3d91506102dd565b88513d85823e3d90fd5b634e487b7160e01b845260328752602484fd5b875162461bcd60e51b8152602081880152601860248201527f556e69737761705632526f757465723a2045585049524544000000000000000060448201528590fd5b8380fd5b509034610456576103803661048f565b905061039260028296939610156104fe565b61039b8161059a565b9081519560001996878101908111610443576103b790846105ef565b526001198101908111610410575b60018101808211610430576103da90836105ef565b5160649081810291818304149015171561043057605a90046103fc82846105ef565b5280156104235780156104105785016103c5565b634e487b7160e01b845260118352602484fd5b84518061009784826104c3565b634e487b7160e01b855260118452602485fd5b634e487b7160e01b865260118552602486fd5b80fd5b9181601f8401121561048a5782359167ffffffffffffffff831161048a576020808501948460051b01011161048a57565b600080fd5b90604060031983011261048a57600435916024359067ffffffffffffffff821161048a576104bf91600401610459565b9091565b6020908160408183019282815285518094520193019160005b8281106104ea575050505090565b8351855293810193928101926001016104dc565b1561050557565b60405162461bcd60e51b815260206004820152601d60248201527f556e69737761705632526f757465723a20494e56414c49445f504154480000006044820152606490fd5b90601f8019910116810190811067ffffffffffffffff82111761056c57604052565b634e487b7160e01b600052604160045260246000fd5b67ffffffffffffffff811161056c5760051b60200190565b906105a482610582565b6105b1604051918261054a565b82815280926105c2601f1991610582565b0190602036910137565b8051156105d95760200190565b634e487b7160e01b600052603260045260246000fd5b80518210156105d95760209160051b010190565b60001981146106125760010190565b634e487b7160e01b600052601160045260246000fdfea26469706673582212203c0691b35bf16c9ddd6a181226d195261c1fe596bdcc19c8ee56134dfe8c3b0764736f6c63430008140033","opcodes":"PUSH1 0x80 DUP1 PUSH1 0x40 MSTORE CALLVALUE PUSH2 0x28 JUMPI PUSH1 0x0 DUP1 SLOAD PUSH1 0x1 PUSH1 0x1 PUSH1 0xA0 SHL SUB NOT AND CALLER OR SWAP1 SSTORE PUSH2 0x65E SWAP1 DUP2 PUSH2 0x2E DUP3 CODECOPY RETURN JUMPDEST PUSH1 0x0 DUP1 REVERT INVALID PUSH1 0x40 PUSH1 0x80 DUP2 MSTORE PUSH1 0x4 SWAP1 DUP2 CALLDATASIZE LT ISZERO PUSH2 0x15 JUMPI PUSH1 0x0 DUP1 REVERT JUMPDEST PUSH1 0x0 SWAP1 DUP2 CALLDATALOAD PUSH1 0xE0 SHR DUP1 PUSH4 0x1F00CA74 EQ PUSH2 0x370 JUMPI DUP1 PUSH4 0x38ED1739 EQ PUSH2 0x120 JUMPI DUP1 PUSH4 0xC45A0155 EQ PUSH2 0xF9 JUMPI PUSH4 0xD06CA61F EQ PUSH2 0x4D JUMPI PUSH1 0x0 DUP1 REVERT JUMPDEST CALLVALUE PUSH2 0xF5 JUMPI PUSH2 0x5B CALLDATASIZE PUSH2 0x48F JUMP JUMPDEST SWAP2 SWAP4 SWAP1 POP PUSH2 0x6C PUSH1 0x2 DUP4 LT ISZERO PUSH2 0x4FE JUMP JUMPDEST PUSH2 0x75 DUP3 PUSH2 0x59A JUMP JUMPDEST SWAP4 PUSH2 0x7F DUP6 PUSH2 0x5CC JUMP JUMPDEST MSTORE PUSH1 0x1 JUMPDEST DUP3 DUP2 LT PUSH2 0x9B JUMPI DUP4 MLOAD DUP1 PUSH2 0x97 DUP8 DUP3 PUSH2 0x4C3 JUMP JUMPDEST SUB SWAP1 RETURN JUMPDEST PUSH1 0x0 NOT DUP2 ADD DUP2 DUP2 GT PUSH2 0xE2 JUMPI PUSH2 0xB1 SWAP1 DUP7 PUSH2 0x5EF JUMP JUMPDEST MLOAD PUSH1 0x5A SWAP1 DUP2 DUP2 MUL SWAP2 DUP2 DUP4 DIV EQ SWAP1 ISZERO OR ISZERO PUSH2 0xE2 JUMPI SWAP1 PUSH1 0x64 PUSH2 0xDD SWAP3 DIV PUSH2 0xD7 DUP3 DUP9 PUSH2 0x5EF JUMP JUMPDEST MSTORE PUSH2 0x603 JUMP JUMPDEST PUSH2 0x83 JUMP JUMPDEST PUSH4 0x4E487B71 PUSH1 0xE0 SHL DUP4 MSTORE PUSH1 0x11 DUP8 MSTORE PUSH1 0x24 DUP4 REVERT JUMPDEST POP DUP1 REVERT JUMPDEST POP CALLVALUE PUSH2 0xF5 JUMPI DUP2 PUSH1 0x3 NOT CALLDATASIZE ADD SLT PUSH2 0xF5 JUMPI SWAP1 SLOAD SWAP1 MLOAD PUSH1 0x1 PUSH1 0x1 PUSH1 0xA0 SHL SUB SWAP1 SWAP2 AND DUP2 MSTORE PUSH1 0x20 SWAP1 RETURN JUMPDEST POP SWAP2 CALLVALUE PUSH2 0xF5 JUMPI PUSH1 0xA0 CALLDATASIZE PUSH1 0x3 NOT ADD SLT PUSH2 0xF5 JUMPI DUP1 CALLDATALOAD PUSH1 0x44 CALLDATALOAD PUSH8 0xFFFFFFFFFFFFFFFF DUP2 GT PUSH2 0x36C JUMPI PUSH2 0x154 SWAP1 CALLDATASIZE SWAP1 DUP5 ADD PUSH2 0x459 JUMP JUMPDEST SWAP1 SWAP4 PUSH1 0x64 SWAP3 SWAP2 PUSH1 0x1 PUSH1 0x1 PUSH1 0xA0 SHL SUB DUP5 CALLDATALOAD DUP2 DUP2 AND SUB PUSH2 0x301 JUMPI TIMESTAMP PUSH1 0x84 CALLDATALOAD LT PUSH2 0x32A JUMPI PUSH2 0x182 PUSH1 0x2 DUP4 LT ISZERO PUSH2 0x4FE JUMP JUMPDEST PUSH2 0x18B DUP3 PUSH2 0x59A JUMP JUMPDEST SWAP7 DUP5 PUSH2 0x196 DUP10 PUSH2 0x5CC JUMP JUMPDEST MSTORE DUP3 ISZERO PUSH2 0x317 JUMPI CALLDATALOAD SWAP1 DUP2 AND DUP1 SWAP2 SUB PUSH2 0x301 JUMPI PUSH1 0x20 DUP4 SWAP2 DUP7 DUP11 MLOAD DUP1 SWAP5 DUP2 SWAP4 PUSH4 0x23B872DD PUSH1 0xE0 SHL DUP4 MSTORE CALLER DUP13 DUP5 ADD MSTORE PUSH1 0x24 SWAP10 ADDRESS DUP12 DUP6 ADD MSTORE PUSH1 0x44 DUP5 ADD MSTORE GAS CALL DUP1 ISZERO PUSH2 0x30D JUMPI PUSH2 0x2D2 JUMPI JUMPDEST POP PUSH1 0x1 JUMPDEST DUP2 DUP2 LT PUSH2 0x27F JUMPI POP POP DUP5 MLOAD PUSH1 0x0 NOT DUP2 ADD SWAP2 SWAP1 DUP3 GT PUSH2 0x26D JUMPI POP PUSH2 0x205 DUP3 CALLDATALOAD SWAP2 DUP7 PUSH2 0x5EF JUMP JUMPDEST MLOAD LT PUSH2 0x218 JUMPI DUP5 MLOAD DUP1 PUSH2 0x97 DUP7 DUP3 PUSH2 0x4C3 JUMP JUMPDEST PUSH1 0x84 SWAP3 SWAP2 PUSH1 0x2B PUSH11 0x1514155517D05353D55395 PUSH1 0xAA SHL SWAP3 PUSH1 0x20 DUP9 MLOAD SWAP6 PUSH3 0x461BCD PUSH1 0xE5 SHL DUP8 MSTORE DUP7 ADD MSTORE DUP5 ADD MSTORE PUSH32 0x556E69737761705632526F757465723A20494E53554646494349454E545F4F55 PUSH1 0x44 DUP5 ADD MSTORE DUP3 ADD MSTORE REVERT JUMPDEST PUSH4 0x4E487B71 PUSH1 0xE0 SHL DUP2 MSTORE PUSH1 0x11 DUP6 MSTORE SWAP1 POP REVERT JUMPDEST PUSH1 0x0 NOT DUP2 ADD DUP2 DUP2 GT PUSH2 0x2BF JUMPI PUSH2 0x295 SWAP1 DUP9 PUSH2 0x5EF JUMP JUMPDEST MLOAD PUSH1 0x5A SWAP1 DUP2 DUP2 MUL SWAP2 DUP2 DUP4 DIV EQ SWAP1 ISZERO OR ISZERO PUSH2 0x2BF JUMPI SWAP1 DUP6 PUSH2 0x2BA SWAP3 DIV PUSH2 0xD7 DUP3 DUP11 PUSH2 0x5EF JUMP JUMPDEST PUSH2 0x1E0 JUMP JUMPDEST POP POP PUSH4 0x4E487B71 PUSH1 0xE0 SHL DUP3 MSTORE POP PUSH1 0x11 DUP5 MSTORE REVERT JUMPDEST PUSH1 0x20 DUP2 RETURNDATASIZE DUP3 GT PUSH2 0x305 JUMPI JUMPDEST DUP2 PUSH2 0x2EA PUSH1 0x20 SWAP4 DUP4 PUSH2 0x54A JUMP JUMPDEST DUP2 ADD SUB SLT PUSH2 0x301 JUMPI MLOAD DUP1 ISZERO ISZERO SUB PUSH2 0xF5 JUMPI CODESIZE PUSH2 0x1DC JUMP JUMPDEST DUP3 DUP1 REVERT JUMPDEST RETURNDATASIZE SWAP2 POP PUSH2 0x2DD JUMP JUMPDEST DUP9 MLOAD RETURNDATASIZE DUP6 DUP3 RETURNDATACOPY RETURNDATASIZE SWAP1 REVERT JUMPDEST PUSH4 0x4E487B71 PUSH1 0xE0 SHL DUP5 MSTORE PUSH1 0x32 DUP8 MSTORE PUSH1 0x24 DUP5 REVERT JUMPDEST DUP8 MLOAD PUSH3 0x461BCD PUSH1 0xE5 SHL DUP2 MSTORE PUSH1 0x20 DUP2 DUP9 ADD MSTORE PUSH1 0x18 PUSH1 0x24 DUP3 ADD MSTORE PUSH32 0x556E69737761705632526F757465723A20455850495245440000000000000000 PUSH1 0x44 DUP3 ADD MSTORE DUP6 SWAP1 REVERT JUMPDEST DUP4 DUP1 REVERT JUMPDEST POP SWAP1 CALLVALUE PUSH2 0x456 JUMPI PUSH2 0x380 CALLDATASIZE PUSH2 0x48F JUMP JUMPDEST SWAP1 POP PUSH2 0x392 PUSH1 0x2 DUP3 SWAP7 SWAP4 SWAP7 LT ISZERO PUSH2 0x4FE JUMP JUMPDEST PUSH2 0x39B DUP2 PUSH2 0x59A JUMP JUMPDEST SWAP1 DUP2 MLOAD SWAP6 PUSH1 0x0 NOT SWAP7 DUP8 DUP2 ADD SWAP1 DUP2 GT PUSH2 0x443 JUMPI PUSH2 0x3B7 SWAP1 DUP5 PUSH2 0x5EF JUMP JUMPDEST MSTORE PUSH1 0x1 NOT DUP2 ADD SWAP1 DUP2 GT PUSH2 0x410 JUMPI JUMPDEST PUSH1 0x1 DUP2 ADD DUP1 DUP3 GT PUSH2 0x430 JUMPI PUSH2 0x3DA SWAP1 DUP4 PUSH2 0x5EF JUMP JUMPDEST MLOAD PUSH1 0x64 SWAP1 DUP2 DUP2 MUL SWAP2 DUP2 DUP4 DIV EQ SWAP1 ISZERO OR ISZERO PUSH2 0x430 JUMPI PUSH1 0x5A SWAP1 DIV PUSH2 0x3FC DUP3 DUP5 PUSH2 0x5EF JUMP JUMPDEST MSTORE DUP1 ISZERO PUSH2 0x423 JUMPI DUP1 ISZERO PUSH2 0x410 JUMPI DUP6 ADD PUSH2 0x3C5 JUMP JUMPDEST PUSH4 0x4E487B71 PUSH1 0xE0 SHL DUP5 MSTORE PUSH1 0x11 DUP4 MSTORE PUSH1 0x24 DUP5 REVERT JUMPDEST DUP5 MLOAD DUP1 PUSH2 0x97 DUP5 DUP3 PUSH2 0x4C3 JUMP JUMPDEST PUSH4 0x4E487B71 PUSH1 0xE0 SHL DUP6 MSTORE PUSH1 0x11 DUP5 MSTORE PUSH1 0x24 DUP6 REVERT JUMPDEST PUSH4 0x4E487B71 PUSH1 0xE0 SHL DUP7 MSTORE PUSH1 0x11 DUP6 MSTORE PUSH1 0x24 DUP7 REVERT JUMPDEST DUP1 REVERT JUMPDEST SWAP2 DUP2 PUSH1 0x1F DUP5 ADD SLT ISZERO PUSH2 0x48A JUMPI DUP3 CALLDATALOAD SWAP2 PUSH8 0xFFFFFFFFFFFFFFFF DUP4 GT PUSH2 0x48A JUMPI PUSH1 0x20 DUP1 DUP6 ADD SWAP5 DUP5 PUSH1 0x5 SHL ADD ADD GT PUSH2 0x48A JUMPI JUMP JUMPDEST PUSH1 0x0 DUP1 REVERT JUMPDEST SWAP1 PUSH1 0x40 PUSH1 0x3 NOT DUP4 ADD SLT PUSH2 0x48A JUMPI PUSH1 0x4 CALLDATALOAD SWAP2 PUSH1 0x24 CALLDATALOAD SWAP1 PUSH8 0xFFFFFFFFFFFFFFFF DUP3 GT PUSH2 0x48A JUMPI PUSH2 0x4BF SWAP2 PUSH1 0x4 ADD PUSH2 0x459 JUMP JUMPDEST SWAP1 SWAP2 JUMP JUMPDEST PUSH1 0x20 SWAP1 DUP2 PUSH1 0x40 DUP2 DUP4 ADD SWAP3 DUP3 DUP2 MSTORE DUP6 MLOAD DUP1 SWAP5 MSTORE ADD SWAP4 ADD SWAP2 PUSH1 0x0 JUMPDEST DUP3 DUP2 LT PUSH2 0x4EA JUMPI POP POP POP POP SWAP1 JUMP JUMPDEST DUP4 MLOAD DUP6 MSTORE SWAP4 DUP2 ADD SWAP4 SWAP3 DUP2 ADD SWAP3 PUSH1 0x1 ADD PUSH2 0x4DC JUMP JUMPDEST ISZERO PUSH2 0x505 JUMPI JUMP JUMPDEST PUSH1 0x40 MLOAD PUSH3 0x461BCD PUSH1 0xE5 SHL DUP2 MSTORE PUSH1 0x20 PUSH1 0x4 DUP3 ADD MSTORE PUSH1 0x1D PUSH1 0x24 DUP3 ADD MSTORE PUSH32 0x556E69737761705632526F757465723A20494E56414C49445F50415448000000 PUSH1 0x44 DUP3 ADD MSTORE PUSH1 0x64 SWAP1 REVERT JUMPDEST SWAP1 PUSH1 0x1F DUP1 NOT SWAP2 ADD AND DUP2 ADD SWAP1 DUP2 LT PUSH8 0xFFFFFFFFFFFFFFFF DUP3 GT OR PUSH2 0x56C JUMPI PUSH1 0x40 MSTORE JUMP JUMPDEST PUSH4 0x4E487B71 PUSH1 0xE0 SHL PUSH1 0x0 MSTORE PUSH1 0x41 PUSH1 0x4 MSTORE PUSH1 0x24 PUSH1 0x0 REVERT JUMPDEST PUSH8 0xFFFFFFFFFFFFFFFF DUP2 GT PUSH2 0x56C JUMPI PUSH1 0x5 SHL PUSH1 0x20 ADD SWAP1 JUMP JUMPDEST SWAP1 PUSH2 0x5A4 DUP3 PUSH2 0x582 JUMP JUMPDEST PUSH2 0x5B1 PUSH1 0x40 MLOAD SWAP2 DUP3 PUSH2 0x54A JUMP JUMPDEST DUP3 DUP2 MSTORE DUP1 SWAP3 PUSH2 0x5C2 PUSH1 0x1F NOT SWAP2 PUSH2 0x582 JUMP JUMPDEST ADD SWAP1 PUSH1 0x20 CALLDATASIZE SWAP2 ADD CALLDATACOPY JUMP JUMPDEST DUP1 MLOAD ISZERO PUSH2 0x5D9 JUMPI PUSH1 0x20 ADD SWAP1 JUMP JUMPDEST PUSH4 0x4E487B71 PUSH1 0xE0 SHL PUSH1 0x0 MSTORE PUSH1 0x32 PUSH1 0x4 MSTORE PUSH1 0x24 PUSH1 0x0 REVERT JUMPDEST DUP1 MLOAD DUP3 LT ISZERO PUSH2 0x5D9 JUMPI PUSH1 0x20 SWAP2 PUSH1 0x5 SHL ADD ADD SWAP1 JUMP JUMPDEST PUSH1 0x0 NOT DUP2 EQ PUSH2 0x612 JUMPI PUSH1 0x1 ADD SWAP1 JUMP JUMPDEST PUSH4 0x4E487B71 PUSH1 0xE0 SHL PUSH1 0x0 MSTORE PUSH1 0x11 PUSH1 0x4 MSTORE PUSH1 0x24 PUSH1 0x0 REVERT INVALID LOG2 PUSH5 0x6970667358 0x22 SLT KECCAK256 EXTCODECOPY MOD SWAP2 0xB3 JUMPDEST CALL PUSH13 0x9DDD6A181226D195261C1FE596 0xBD 0xCC NOT 0xC8 0xEE JUMP SGT 0x4D INVALID DUP13 EXTCODESIZE SMOD PUSH5 0x736F6C6343 STOP ADDMOD EQ STOP CALLER "},"methodIdentifiers":{"factory()":"c45a0155","getAmountsIn(uint256,address[])":"1f00ca74","getAmountsOut(uint256,address[])":"d06ca61f","swapExactTokensForTokens(uint256,uint256,address[],address,uint256)":"38ed1739"}}}}}