{
  "_format": "hh-sol-artifact-1",
  "contractName": "ArbitrageEngine",
  "sourceName": "src/ArbitrageEngine.sol",
  "abi": [
    {
      "inputs": [
        {
          "internalType": "address",
          "name": "_feeCollector",
          "type": "address"
        }
      ],
      "stateMutability": "nonpayable",
      "type": "constructor"
    },
    {
      "inputs": [],
      "name": "EnforcedPause",
      "type": "error"
    },
    {
      "inputs": [],
      "name": "ExpectedPause",
      "type": "error"
    },
    {
      "inputs": [
        {
          "internalType": "address",
          "name": "owner",
          "type": "address"
        }
      ],
      "name": "OwnableInvalidOwner",
      "type": "error"
    },
    {
      "inputs": [
        {
          "internalType": "address",
          "name": "account",
          "type": "address"
        }
      ],
      "name": "OwnableUnauthorizedAccount",
      "type": "error"
    },
    {
      "inputs": [],
      "name": "ReentrancyGuardReentrantCall",
      "type": "error"
    },
    {
      "inputs": [
        {
          "internalType": "address",
          "name": "token",
          "type": "address"
        }
      ],
      "name": "SafeERC20FailedOperation",
      "type": "error"
    },
    {
      "anonymous": false,
      "inputs": [
        {
          "indexed": true,
          "internalType": "address",
          "name": "executor",
          "type": "address"
        },
        {
          "indexed": true,
          "internalType": "address",
          "name": "tokenA",
          "type": "address"
        },
        {
          "indexed": true,
          "internalType": "address",
          "name": "tokenB",
          "type": "address"
        },
        {
          "indexed": false,
          "internalType": "uint256",
          "name": "amount",
          "type": "uint256"
        },
        {
          "indexed": false,
          "internalType": "uint256",
          "name": "profit",
          "type": "uint256"
        },
        {
          "indexed": false,
          "internalType": "string",
          "name": "strategyType",
          "type": "string"
        }
      ],
      "name": "ArbitrageExecuted",
      "type": "event"
    },
    {
      "anonymous": false,
      "inputs": [
        {
          "indexed": true,
          "internalType": "address",
          "name": "caller",
          "type": "address"
        },
        {
          "indexed": false,
          "internalType": "bool",
          "name": "authorized",
          "type": "bool"
        }
      ],
      "name": "AuthorizedCallerUpdated",
      "type": "event"
    },
    {
      "anonymous": false,
      "inputs": [
        {
          "indexed": true,
          "internalType": "address",
          "name": "oldCollector",
          "type": "address"
        },
        {
          "indexed": true,
          "internalType": "address",
          "name": "newCollector",
          "type": "address"
        }
      ],
      "name": "FeeCollectorUpdated",
      "type": "event"
    },
    {
      "anonymous": false,
      "inputs": [
        {
          "indexed": true,
          "internalType": "address",
          "name": "asset",
          "type": "address"
        },
        {
          "indexed": false,
          "internalType": "uint256",
          "name": "amount",
          "type": "uint256"
        },
        {
          "indexed": true,
          "internalType": "address",
          "name": "borrower",
          "type": "address"
        }
      ],
      "name": "FlashLoanInitiated",
      "type": "event"
    },
    {
      "anonymous": false,
      "inputs": [
        {
          "indexed": true,
          "internalType": "address",
          "name": "provider",
          "type": "address"
        }
      ],
      "name": "FlashLoanProviderAdded",
      "type": "event"
    },
    {
      "anonymous": false,
      "inputs": [
        {
          "indexed": true,
          "internalType": "address",
          "name": "provider",
          "type": "address"
        }
      ],
      "name": "FlashLoanProviderRemoved",
      "type": "event"
    },
    {
      "anonymous": false,
      "inputs": [
        {
          "indexed": true,
          "internalType": "address",
          "name": "previousOwner",
          "type": "address"
        },
        {
          "indexed": true,
          "internalType": "address",
          "name": "newOwner",
          "type": "address"
        }
      ],
      "name": "OwnershipTransferred",
      "type": "event"
    },
    {
      "anonymous": false,
      "inputs": [
        {
          "indexed": false,
          "internalType": "address",
          "name": "account",
          "type": "address"
        }
      ],
      "name": "Paused",
      "type": "event"
    },
    {
      "anonymous": false,
      "inputs": [
        {
          "indexed": true,
          "internalType": "address",
          "name": "executor",
          "type": "address"
        },
        {
          "indexed": false,
          "internalType": "uint256",
          "name": "amount",
          "type": "uint256"
        },
        {
          "indexed": false,
          "internalType": "uint256",
          "name": "fee",
          "type": "uint256"
        }
      ],
      "name": "ProfitDistributed",
      "type": "event"
    },
    {
      "anonymous": false,
      "inputs": [
        {
          "indexed": true,
          "internalType": "string",
          "name": "strategyType",
          "type": "string"
        },
        {
          "indexed": true,
          "internalType": "address",
          "name": "implementation",
          "type": "address"
        }
      ],
      "name": "StrategyRegistered",
      "type": "event"
    },
    {
      "anonymous": false,
      "inputs": [
        {
          "indexed": true,
          "internalType": "address",
          "name": "token",
          "type": "address"
        },
        {
          "indexed": false,
          "internalType": "bool",
          "name": "supported",
          "type": "bool"
        }
      ],
      "name": "TokenSupportUpdated",
      "type": "event"
    },
    {
      "anonymous": false,
      "inputs": [
        {
          "indexed": false,
          "internalType": "address",
          "name": "account",
          "type": "address"
        }
      ],
      "name": "Unpaused",
      "type": "event"
    },
    {
      "inputs": [],
      "name": "BASIS_POINTS",
      "outputs": [
        {
          "internalType": "uint256",
          "name": "",
          "type": "uint256"
        }
      ],
      "stateMutability": "view",
      "type": "function"
    },
    {
      "inputs": [],
      "name": "MAX_SLIPPAGE",
      "outputs": [
        {
          "internalType": "uint256",
          "name": "",
          "type": "uint256"
        }
      ],
      "stateMutability": "view",
      "type": "function"
    },
    {
      "inputs": [],
      "name": "MIN_PROFIT_THRESHOLD",
      "outputs": [
        {
          "internalType": "uint256",
          "name": "",
          "type": "uint256"
        }
      ],
      "stateMutability": "view",
      "type": "function"
    },
    {
      "inputs": [],
      "name": "PLATFORM_FEE",
      "outputs": [
        {
          "internalType": "uint256",
          "name": "",
          "type": "uint256"
        }
      ],
      "stateMutability": "view",
      "type": "function"
    },
    {
      "inputs": [
        {
          "internalType": "address",
          "name": "provider",
          "type": "address"
        }
      ],
      "name": "addFlashLoanProvider",
      "outputs": [],
      "stateMutability": "nonpayable",
      "type": "function"
    },
    {
      "inputs": [
        {
          "internalType": "address",
          "name": "",
          "type": "address"
        }
      ],
      "name": "authorizedCallers",
      "outputs": [
        {
          "internalType": "bool",
          "name": "",
          "type": "bool"
        }
      ],
      "stateMutability": "view",
      "type": "function"
    },
    {
      "inputs": [],
      "name": "emergencyPause",
      "outputs": [],
      "stateMutability": "nonpayable",
      "type": "function"
    },
    {
      "inputs": [
        {
          "components": [
            {
              "internalType": "address",
              "name": "tokenA",
              "type": "address"
            },
            {
              "internalType": "address",
              "name": "tokenB",
              "type": "address"
            },
            {
              "internalType": "uint256",
              "name": "amount",
              "type": "uint256"
            },
            {
              "internalType": "uint256",
              "name": "minProfit",
              "type": "uint256"
            },
            {
              "internalType": "uint256",
              "name": "maxSlippage",
              "type": "uint256"
            },
            {
              "internalType": "uint256",
              "name": "deadline",
              "type": "uint256"
            },
            {
              "internalType": "bytes",
              "name": "strategyData",
              "type": "bytes"
            }
          ],
          "internalType": "struct ArbitrageParams",
          "name": "params",
          "type": "tuple"
        }
      ],
      "name": "executeArbitrage",
      "outputs": [
        {
          "components": [
            {
              "internalType": "bool",
              "name": "success",
              "type": "bool"
            },
            {
              "internalType": "uint256",
              "name": "profit",
              "type": "uint256"
            },
            {
              "internalType": "uint256",
              "name": "gasUsed",
              "type": "uint256"
            },
            {
              "internalType": "uint256",
              "name": "executionTime",
              "type": "uint256"
            }
          ],
          "internalType": "struct ArbitrageResult",
          "name": "result",
          "type": "tuple"
        }
      ],
      "stateMutability": "nonpayable",
      "type": "function"
    },
    {
      "inputs": [
        {
          "internalType": "address",
          "name": "asset",
          "type": "address"
        },
        {
          "internalType": "uint256",
          "name": "amount",
          "type": "uint256"
        },
        {
          "internalType": "uint256",
          "name": "fee",
          "type": "uint256"
        },
        {
          "internalType": "address",
          "name": "initiator",
          "type": "address"
        },
        {
          "internalType": "bytes",
          "name": "params",
          "type": "bytes"
        }
      ],
      "name": "executeOperation",
      "outputs": [
        {
          "internalType": "bool",
          "name": "success",
          "type": "bool"
        }
      ],
      "stateMutability": "nonpayable",
      "type": "function"
    },
    {
      "inputs": [],
      "name": "feeCollector",
      "outputs": [
        {
          "internalType": "address",
          "name": "",
          "type": "address"
        }
      ],
      "stateMutability": "view",
      "type": "function"
    },
    {
      "inputs": [
        {
          "internalType": "uint256",
          "name": "",
          "type": "uint256"
        }
      ],
      "name": "flashLoanProviders",
      "outputs": [
        {
          "internalType": "address",
          "name": "",
          "type": "address"
        }
      ],
      "stateMutability": "view",
      "type": "function"
    },
    {
      "inputs": [
        {
          "internalType": "string",
          "name": "strategyType",
          "type": "string"
        }
      ],
      "name": "getStrategy",
      "outputs": [
        {
          "internalType": "address",
          "name": "implementation",
          "type": "address"
        }
      ],
      "stateMutability": "view",
      "type": "function"
    },
    {
      "inputs": [
        {
          "internalType": "address",
          "name": "token",
          "type": "address"
        }
      ],
      "name": "getTokenBalance",
      "outputs": [
        {
          "internalType": "uint256",
          "name": "balance",
          "type": "uint256"
        }
      ],
      "stateMutability": "view",
      "type": "function"
    },
    {
      "inputs": [
        {
          "internalType": "string",
          "name": "strategyType",
          "type": "string"
        }
      ],
      "name": "isStrategyAvailable",
      "outputs": [
        {
          "internalType": "bool",
          "name": "available",
          "type": "bool"
        }
      ],
      "stateMutability": "view",
      "type": "function"
    },
    {
      "inputs": [],
      "name": "owner",
      "outputs": [
        {
          "internalType": "address",
          "name": "",
          "type": "address"
        }
      ],
      "stateMutability": "view",
      "type": "function"
    },
    {
      "inputs": [],
      "name": "paused",
      "outputs": [
        {
          "internalType": "bool",
          "name": "",
          "type": "bool"
        }
      ],
      "stateMutability": "view",
      "type": "function"
    },
    {
      "inputs": [
        {
          "internalType": "string",
          "name": "strategyType",
          "type": "string"
        },
        {
          "internalType": "address",
          "name": "implementation",
          "type": "address"
        }
      ],
      "name": "registerStrategy",
      "outputs": [],
      "stateMutability": "nonpayable",
      "type": "function"
    },
    {
      "inputs": [
        {
          "internalType": "address",
          "name": "provider",
          "type": "address"
        }
      ],
      "name": "removeFlashLoanProvider",
      "outputs": [],
      "stateMutability": "nonpayable",
      "type": "function"
    },
    {
      "inputs": [],
      "name": "renounceOwnership",
      "outputs": [],
      "stateMutability": "nonpayable",
      "type": "function"
    },
    {
      "inputs": [
        {
          "components": [
            {
              "internalType": "address",
              "name": "tokenA",
              "type": "address"
            },
            {
              "internalType": "address",
              "name": "tokenB",
              "type": "address"
            },
            {
              "internalType": "uint256",
              "name": "amount",
              "type": "uint256"
            },
            {
              "internalType": "uint256",
              "name": "minProfit",
              "type": "uint256"
            },
            {
              "internalType": "uint256",
              "name": "maxSlippage",
              "type": "uint256"
            },
            {
              "internalType": "uint256",
              "name": "deadline",
              "type": "uint256"
            },
            {
              "internalType": "bytes",
              "name": "strategyData",
              "type": "bytes"
            }
          ],
          "internalType": "struct ArbitrageParams",
          "name": "params",
          "type": "tuple"
        }
      ],
      "name": "simulateArbitrage",
      "outputs": [
        {
          "internalType": "uint256",
          "name": "estimatedProfit",
          "type": "uint256"
        },
        {
          "internalType": "uint256",
          "name": "estimatedGas",
          "type": "uint256"
        }
      ],
      "stateMutability": "view",
      "type": "function"
    },
    {
      "inputs": [
        {
          "internalType": "string",
          "name": "",
          "type": "string"
        }
      ],
      "name": "strategies",
      "outputs": [
        {
          "internalType": "address",
          "name": "",
          "type": "address"
        }
      ],
      "stateMutability": "view",
      "type": "function"
    },
    {
      "inputs": [
        {
          "internalType": "address",
          "name": "",
          "type": "address"
        }
      ],
      "name": "supportedTokens",
      "outputs": [
        {
          "internalType": "bool",
          "name": "",
          "type": "bool"
        }
      ],
      "stateMutability": "view",
      "type": "function"
    },
    {
      "inputs": [],
      "name": "totalArbitragesExecuted",
      "outputs": [
        {
          "internalType": "uint256",
          "name": "",
          "type": "uint256"
        }
      ],
      "stateMutability": "view",
      "type": "function"
    },
    {
      "inputs": [],
      "name": "totalFeesCollected",
      "outputs": [
        {
          "internalType": "uint256",
          "name": "",
          "type": "uint256"
        }
      ],
      "stateMutability": "view",
      "type": "function"
    },
    {
      "inputs": [
        {
          "internalType": "address",
          "name": "newOwner",
          "type": "address"
        }
      ],
      "name": "transferOwnership",
      "outputs": [],
      "stateMutability": "nonpayable",
      "type": "function"
    },
    {
      "inputs": [],
      "name": "unpause",
      "outputs": [],
      "stateMutability": "nonpayable",
      "type": "function"
    },
    {
      "inputs": [
        {
          "internalType": "address",
          "name": "caller",
          "type": "address"
        },
        {
          "internalType": "bool",
          "name": "authorized",
          "type": "bool"
        }
      ],
      "name": "updateAuthorizedCaller",
      "outputs": [],
      "stateMutability": "nonpayable",
      "type": "function"
    },
    {
      "inputs": [
        {
          "internalType": "address",
          "name": "newCollector",
          "type": "address"
        }
      ],
      "name": "updateFeeCollector",
      "outputs": [],
      "stateMutability": "nonpayable",
      "type": "function"
    },
    {
      "inputs": [
        {
          "internalType": "address",
          "name": "token",
          "type": "address"
        },
        {
          "internalType": "bool",
          "name": "supported",
          "type": "bool"
        }
      ],
      "name": "updateTokenSupport",
      "outputs": [],
      "stateMutability": "nonpayable",
      "type": "function"
    },
    {
      "inputs": [
        {
          "internalType": "address",
          "name": "",
          "type": "address"
        }
      ],
      "name": "userProfits",
      "outputs": [
        {
          "internalType": "uint256",
          "name": "",
          "type": "uint256"
        }
      ],
      "stateMutability": "view",
      "type": "function"
    },
    {
      "inputs": [
        {
          "internalType": "address",
          "name": "token",
          "type": "address"
        },
        {
          "internalType": "uint256",
          "name": "amount",
          "type": "uint256"
        }
      ],
      "name": "withdrawProfits",
      "outputs": [],
      "stateMutability": "nonpayable",
      "type": "function"
    },
    {
      "stateMutability": "payable",
      "type": "receive"
    }
  ],
  "bytecode": "0x6080346200016657601f620027f738819003918201601f19168301916001600160401b038311848410176200016b578084926020946040528339810103126200016657516001600160a01b03908181169081900362000166576000906001825533156200014d5760018054610100600160a81b0319811633600881811b610100600160a81b0316929092179093556040519591901c167f8be0079c531659141344cd1fd0a4f28419497f9722a3daafe3b4186f6b6457e08480a38015620000fc57600780546001600160a01b0319169190911790558080526005602052604090819020805460ff1916600117905551612675915081620001828239f35b62461bcd60e51b835260206004840152602660248401527f417262697472616765456e67696e653a20496e76616c69642066656520636f6c6044840152653632b1ba37b960d11b6064840152608483fd5b604051631e4fbdf760e01b815260048101839052602490fd5b600080fd5b634e487b7160e01b600052604160045260246000fdfe6080604052600436101561001b575b361561001957600080fd5b005b60003560e01c80630d222c841461020b5780631328c07e146102065780631b11d0ff146102015780631e9ef4ce146101fc57806326f9dd1e146101f757806334fbc9a1146101f25780633aecd0e3146101ed5780633db08eb2146101e85780633f4ba83a146101e357806351858e27146101de578063536fff6c146101d95780635c975abb146101d457806360c6d8ae146101cf57806368c4ac26146101ca578063715018a6146101c55780637317b989146101c0578063780f1acd146101bb5780637b4c9274146101b65780638937ca15146101b15780638d34eff9146101ac5780638da5cb5b146101a75780638f83e539146101a2578063aafc96511461019d578063b35ddc8a14610198578063be35483614610193578063c415b95c1461018e578063d2c35ce814610189578063e1f1c4a714610184578063e73d668f1461017f578063f2fde38b1461017a5763f97595180361000e5761166c565b6115cf565b6115ad565b611590565b6114c2565b611499565b61145c565b611401565b6112f4565b61102a565b610ffd565b610f29565b610ec3565b610e56565b610dc9565b610b77565b610b12565b610ad0565b610ab2565b610a8f565b610a4d565b6109f4565b61098a565b61087d565b61084e565b610832565b6107f9565b6107be565b6103b4565b610358565b610246565b6003199060208183011261024157600435916001600160401b038311610241578260e0920301126102415760040190565b600080fd5b346102415761025436610210565b60ff60406060815161026581610ca1565b600091818380935282602082015282858201520152610282611f38565b61028a611f1a565b33815260036020522054168015610333575b156102ee576102ad6102ea91611c02565b6102b76001600055565b60405191829182919091606080608083019480511515845260208101516020850152604081015160408501520151910152565b0390f35b60405162461bcd60e51b815260206004820152601f60248201527f417262697472616765456e67696e653a204e6f7420617574686f72697a6564006044820152606490fd5b506001543360089190911c6001600160a01b03161461029c565b600091031261024157565b34610241576000366003190112610241576020600954604051908152f35b6001600160a01b0381160361024157565b9181601f84011215610241578235916001600160401b038311610241576020838186019501011161024157565b346102415760a03660031901126102415760048035906103d382610376565b602435906064356103e381610376565b6084356001600160401b038111610241576104019036908401610387565b919060ff60115460a01c161561073e579061045761044a6104456104406104399560009760018060a01b039788978830911614611f5b565b3691610d23565b612605565b610da3565b546001600160a01b031690565b1694610464861515611fb2565b16916040938451916370a0823160e01b9182845260209788858061049930878301919091602081019260018060a01b03169052565b03818a5afa9485156106f95786918a91839761071b575b50600a5461053891906001600160a01b0316600b546001600160a01b03168c87600d5491610504600f54946104f56104e6610cf5565b6001600160a01b039098168852565b6001600160a01b0316868a0152565b84015260608301526080820152610519612019565b60a08201528b5194858094819363340e539760e21b83528a83016120c3565b03925af190816106fe575b5061058c575050505050506102ea91506000905b6011805460ff60a01b1916905561056c612191565b601180546001600160a01b03191690555190151581529081906020820190565b6105b9929161059f899260443590612116565b885193845230918401918252929384918291602090910190565b0381885afa9182156106f9576102ea976105e695936106c4575b50506105e190821015612123565b611bca565b906106056105fe6105f68461217b565b612710900490565b8093611bca565b9182610617575b505050600190610557565b6011546001600160a01b031660009081526004602052604090207f6d3df9844b6224b91ec53a46da9db0ba7e5fa27ee2d61416dceaff91331bff2b9261068d91839190610665878254612116565b905561067b61067683600854612116565b600855565b6007546001600160a01b031690612229565b6011546106aa906001600160a01b03165b6001600160a01b031690565b8451938452602084019190915291604090a238808061060c565b6105e192935090816106ea92903d106106f2575b6106e28183610cd4565b81019061200a565b9190386105d3565b503d6106d8565b611ad2565b610714908a3d8c116106f2576106e28183610cd4565b5038610543565b61053891975061073790833d85116106f2576106e28183610cd4565b96906104b0565b60405162461bcd60e51b8152602081860152602560248201527f417262697472616765456e67696e653a204e6f2061637469766520666c617368604482015264103637b0b760d91b6064820152608490fd5b602060031982011261024157600435906001600160401b038211610241576107ba91600401610387565b9091565b346102415760206107ce36610790565b80604051928337600290820190815281900382019020546040516001600160a01b0390911615158152f35b3461024157602061080936610790565b80604051928337600290820190815281900382019020546040516001600160a01b039091168152f35b3461024157600036600319011261024157602060405160328152f35b3461024157602036600319011261024157602061087560043561087081610376565b612326565b604051908152f35b346102415760203660031901126102415760043561089a81610376565b6108a2611689565b6001600160a01b039081169060005b600680549081831015610019576000527ff652222313e28459528d920b65115c16c04f3efc82aaedc97be59f3f377c0d3f82015483166001600160a01b03168414610905575061090090611bd7565b6108b1565b61095b925061093661092161091c61093c93611bb6565b6113c5565b905460039190911b1c6001600160a01b031690565b916113c5565b90919082549060031b9160018060a01b03809116831b921b1916179055565b6109636123db565b7f16efea6e0195948001c10bd6643a290feed99dc10dc38c7b3b3d1195de7007cb600080a2005b34610241576000366003190112610241576109a3611689565b60015460ff8116156109e25760ff19166001557f5db9ee0a495bf2e6ff9c91a7834c1ba4fdd244a5e8aa4e537bd38aeae4b073aa6020604051338152a1005b604051638dfc202b60e01b8152600490fd5b3461024157600036600319011261024157610a0d611689565b610a15611f1a565b600160ff19815416176001557f62e78cea01bee320cd4e420270b5ea74000d11b0c9f74754ebdbfc544b05a2586020604051338152a1005b3461024157602036600319011261024157600435610a6a81610376565b60018060a01b03166000526003602052602060ff604060002054166040519015158152f35b3461024157600036600319011261024157602060ff600154166040519015158152f35b34610241576000366003190112610241576020600854604051908152f35b3461024157602036600319011261024157600435610aed81610376565b60018060a01b03166000526005602052602060ff604060002054166040519015158152f35b3461024157600080600319360112610b7457610b2c611689565b60018054610100600160a81b03198116909155819060081c6001600160a01b03167f8be0079c531659141344cd1fd0a4f28419497f9722a3daafe3b4186f6b6457e08280a380f35b80fd5b34610241576040366003190112610241576004356001600160401b03811161024157610ba7903690600401610387565b60243590610bb482610376565b610bbc611689565b6001600160a01b038216928315610c3657610c0a610c0f936040518484823760208186810160028152030190209060018060a01b03166bffffffffffffffffffffffff60a01b825416179055565b612311565b7f26b7ec31932b80f7f1658730c601cceecf15549501f585b6c39f8743aa2c08eb600080a3005b60405162461bcd60e51b815260206004820152602760248201527f417262697472616765456e67696e653a20496e76616c696420696d706c656d65604482015266373a30ba34b7b760c91b6064820152608490fd5b634e487b7160e01b600052604160045260246000fd5b608081019081106001600160401b03821117610cbc57604052565b610c8b565b6001600160401b038111610cbc57604052565b90601f801991011681019081106001600160401b03821117610cbc57604052565b6040519060c082018281106001600160401b03821117610cbc57604052565b60405190610d2182610ca1565b565b9291926001600160401b038211610cbc5760405191610d4c601f8201601f191660200184610cd4565b829481845281830111610241578281602093846000960137010152565b60005b838110610d7c5750506000910152565b8181015183820152602001610d6c565b90610d9f60209282815194859201610d69565b0190565b6020610dbc918160405193828580945193849201610d69565b8101600281520301902090565b34610241576020366003190112610241576004356001600160401b0381116102415736602382011215610241576020906001600160a01b0390610e1a90610445903690600481013590602401610d23565b5416604051908152f35b8015150361024157565b604090600319011261024157600435610e4681610376565b90602435610e5381610e24565b90565b346102415760207fbbe72b7d9dcb594ee398a4a617885aba53d833e2aad601c813ce9df99fdeb49b610e8736610e2e565b9290610e91611689565b6001600160a01b031660008181526005835260409020805460ff191660ff86151516179055925b6040519015158152a2005b346102415760207fad857fa38c9319cb80848f1ef2f924383b90297eb5d71755738ff037d100faa1610ef436610e2e565b9290610efe611689565b6001600160a01b031660008181526003835260409020805460ff191660ff8615151617905592610eb8565b3461024157602036600319011261024157600435610f4681610376565b610f4e611689565b6001600160a01b038116908115610fae576006549068010000000000000000821015610cbc5761093c826001610f8794016006556113c5565b7f3194b3206f246d437471a9c64a6f81c6242ee6916c91240bc107002639540e12600080a2005b60405162461bcd60e51b815260206004820152602160248201527f417262697472616765456e67696e653a20496e76616c69642070726f766964656044820152603960f91b6064820152608490fd5b346102415760003660031901126102415760015460405160089190911c6001600160a01b03168152602090f35b346102415761103836610210565b60c0810190600061044061106761044a6104456110558787611812565b6001600160a01b039591369190610d23565b1692611074841515611fb2565b6110f5611080846117b1565b9160209586860191611091836117b1565b96604080966110d78b838501359b6110cb6110ac8888611812565b9290936110ba6104e6610d14565b6001600160a01b0390911690860152565b8c858501523691610d23565b6060820152815180978192635ec5c0c160e11b8352600483016122d2565b0381865afa80156106f9576111639588916112c6575b50898961112661069e61069e83611121886117b1565b61245f565b61112f856117b1565b8a5163b02c67fd60e01b81526001600160a01b03909116600482015260248101929092529097889190829081906044820190565b03915afa9081156106f9578a9689926112a7575b50611182828b612116565b8111611269575b5050906111e360a08361121e98999a6111b76111b06111aa6111ff986117b1565b996117b1565b9583611812565b9490956111d46111c5610cf5565b6001600160a01b03909b168b52565b6001600160a01b0316898b0152565b8a88015260608101356060880152013560808601523691610d23565b60a08301528451808095819463057cabff60e31b8352600483016120c3565b03915afa9384156106f957600094611244575b5050519081526020810191909152604090f35b6102ea929450908161126192903d106106f2576106e28183610cd4565b929038611231565b61121e9798506111ff939261129c61128a6111e3946105e18e60a096611bca565b6112966105f68261217b565b90611bca565b999850929350611189565b6112bf919250873d89116106f2576106e28183610cd4565b9038611177565b6112e69150873d89116112ed575b6112de8183610cd4565b8101906122bc565b503861110b565b503d6112d4565b346102415760403660031901126102415760043561131181610376565b6024359061131d611f38565b81159161132a83156116b8565b600092839233845260046020526113478360408620541015612381565b336000908152600460205260409020611361848254611bca565b90556001600160a01b03168061139d575082809281928290611394575b3390f1156106f9575b6113916001600055565b80f35b506108fc61137e565b6113aa9350339150612229565b611387565b634e487b7160e01b600052603260045260246000fd5b6006548110156113fc5760066000527ff652222313e28459528d920b65115c16c04f3efc82aaedc97be59f3f377c0d3f0190600090565b6113af565b34610241576020366003190112610241576004356006548110156102415760066000527ff652222313e28459528d920b65115c16c04f3efc82aaedc97be59f3f377c0d3f01546040516001600160a01b039091168152602090f35b346102415760203660031901126102415760043561147981610376565b60018060a01b031660005260046020526020604060002054604051908152f35b34610241576000366003190112610241576007546040516001600160a01b039091168152602090f35b34610241576020366003190112610241576004356114df81610376565b6114e7611689565b6001600160a01b0381811691821561154057600780546001600160a01b031981166001600160a01b039384161790915516167f5d16ad41baeb009cd23eb8f6c7cde5c2e0cd5acf4a33926ab488875c37c37f38600080a3005b60405162461bcd60e51b815260206004820152602260248201527f417262697472616765456e67696e653a20496e76616c696420636f6c6c65637460448201526137b960f11b6064820152608490fd5b346102415760003660031901126102415760206040516127108152f35b3461024157600036600319011261024157602060405166038d7ea4c680008152f35b34610241576020366003190112610241576004356115ec81610376565b6115f4611689565b6001600160a01b038181169182156116535760018054610100600160a81b03198116600893841b610100600160a81b031617909155901c167f8be0079c531659141344cd1fd0a4f28419497f9722a3daafe3b4186f6b6457e0600080a3005b604051631e4fbdf760e01b815260006004820152602490fd5b346102415760003660031901126102415760206040516113888152f35b60015460081c6001600160a01b031633036116a057565b60405163118cdaa760e01b8152336004820152602490fd5b156116bf57565b60405162461bcd60e51b815260206004820152601f60248201527f417262697472616765456e67696e653a20496e76616c696420616d6f756e74006044820152606490fd5b1561170b57565b60405162461bcd60e51b815260206004820152602160248201527f417262697472616765456e67696e653a204578706972656420646561646c696e6044820152606560f81b6064820152608490fd5b1561176157565b60405162461bcd60e51b815260206004820152602260248201527f417262697472616765456e67696e653a20536c69707061676520746f6f2068696044820152610ced60f31b6064820152608490fd5b35610e5381610376565b156117c257565b60405162461bcd60e51b815260206004820152602260248201527f417262697472616765456e67696e653a20556e737570706f7274656420746f6b60448201526132b760f11b6064820152608490fd5b903590601e198136030182121561024157018035906001600160401b0382116102415760200191813603831361024157565b90600182811c92168015611874575b602083101461185e57565b634e487b7160e01b600052602260045260246000fd5b91607f1691611853565b601f811161188a575050565b60009060108252600080516020612620833981519152906020601f850160051c830194106118d3575b601f0160051c01915b8281106118c857505050565b8181556001016118bc565b90925082906118b3565b906119508235926118ed84610376565b600a80546001600160a01b03199081166001600160a01b03968716179091556020948286013561191c81610376565b1690600b541617600b556040810135600c556060810135600d556080810135600e5560a0810135600f5560c0810190611812565b906001600160401b038211610cbc576119738261196e601054611844565b61187e565b600093601f83116001146119b05750928192936000926119a5575b50508160011b916000199060031b1c191617601055565b01359050388061198e565b90601f198316946119d1601060005260008051602061262083398151915290565b9281905b878210611a0e5750508360019596106119f4575b505050811b01601055565b0135600019600384901b60f8161c191690553880806119e9565b806001849682949587013581550195019201906119d5565b15611a2d57565b60405162461bcd60e51b815260206004820152603160248201527f417262697472616765456e67696e653a204e6f20666c617368206c6f616e2070604482015270726f766964657220617661696c61626c6560781b6064820152608490fd5b938060609460a09394989798600180861b038096168852602088015260806040880152816080880152838701376000828287010152601f80199101168401019416910152565b6040513d6000823e3d90fd5b60009060033d11611aeb57565b905060046000803e60005160e01c90565b600060443d10610e5357604051600319913d83016004833e81516001600160401b03918282113d602484011117611b5957818401948551938411611b61573d85010160208487010111611b595750610e5392910160200190610cd4565b949350505050565b50949350505050565b90602091611b8381518092818552858086019101610d69565b601f01601f1916010190565b906020610e53928181520190611b6a565b634e487b7160e01b600052601160045260246000fd5b600019810191908211611bc557565b611ba0565b91908203918211611bc557565b6000198114611bc55760010190565b610e539392606092825260208201528160408201520190611b6a565b906040918281013590611c168215156116b8565b611c264260a08301351015611704565b611c386113886080830135111561175a565b611c68611c61611c47836117b1565b6001600160a01b0316600090815260056020526040902090565b5460ff1690565b80611efd575b611c77906117bb565b5a91611c82826118dd565b601180546001600160a01b031916331790556011805460ff60a01b1916600160a01b1790556001600160a01b039283611cbe83611121866117b1565b1693611ccb851515611a26565b611cd4846117b1565b60c0850195611ce38787611812565b929091803b1561024157611d1493600080948d519687958694859363587d492960e11b85528d309360048701611a8c565b03925af19081611ee4575b50611e2a5786611d2d611ade565b6308c379a014611d97575b6011805460ff60a01b191690555162461bcd60e51b815260206004820152602260248201527f417262697472616765456e67696e653a20466c617368206c6f616e206661696c604482015261195960f21b6064820152608490fd5b0390fd5b611d9f611afc565b80611daa5750611d38565b6011805460ff60a01b19169055611d9391611e0691611e149082517f417262697472616765456e67696e653a20466c617368206c6f616e206661696c602082015264032b21016960dd1b60408201529384916045830190610d8c565b03601f198101845283610cd4565b5162461bcd60e51b815291829160048301611b8f565b611e567f922d95291cf829964b61841560048f40a0b2ca9d8572e0ab690822346c797eae925a90611bca565b611edf611e634242611bca565b336000908152600460205260409020549290611e7d610d14565b6001815291602083019485528b830152606082015298611ea6611ea1600954611bd7565b600955565b83611ece610440610439611eb98b6117b1565b9b611ec660208d016117b1565b97519b611812565b915194859416981696339684611be6565b0390a4565b80611ef1611ef792610cc1565b8061034d565b38611d1f565b50611c77611f13611c61611c47602085016117b1565b9050611c6e565b60ff60015416611f2657565b60405163d93c066560e01b8152600490fd5b600260005414611f49576002600055565b604051633ee5aeb560e01b8152600490fd5b15611f6257565b60405162461bcd60e51b815260206004820152602260248201527f417262697472616765456e67696e653a20496e76616c696420696e697469617460448201526137b960f11b6064820152608490fd5b15611fb957565b60405162461bcd60e51b815260206004820152602360248201527f417262697472616765456e67696e653a205374726174656779206e6f7420666f6044820152621d5b9960ea1b6064820152608490fd5b90816020910312610241575190565b604051906000826010549161202d83611844565b808352926001908181169081156120a15750600114612054575b50610d2192500383610cd4565b6010600090815291506000805160206126208339815191525b8483106120865750610d21935050810160200138612047565b81935090816020925483858a0101520191019091859261206d565b905060209250610d2194915060ff191682840152151560051b82010138612047565b60e060a0610e539360208452600180831b038082511660208601526020820151166040850152604081015160608501526060810151608085015260808101518285015201519160c0808201520190611b6a565b91908201809211611bc557565b1561212a57565b60405162461bcd60e51b8152602060048201526024808201527f417262697472616765456e67696e653a20496e73756666696369656e742070726044820152631bd99a5d60e21b6064820152608490fd5b90603282029180830460321490151715611bc557565b600080600a5580600b5580600c5580600d5580600e5580600f556121b6601054611844565b806121bf575050565b601f81116001146121d05750601055565b601f600080516020612620833981519152910160051c81017f1b6847dc741a1b0cd08d278845f9d819d87b734759afb55fe2de5cb82a9ae6735b81811061221e575050601082528160105555565b83815560010161220a565b60405163a9059cbb60e01b60208083019182526001600160a01b039490941660248301526044808301959095529381529092600091612269606482610cd4565b519082855af115611ad2576000513d6122b357506001600160a01b0381163b155b6122915750565b604051635274afe760e01b81526001600160a01b039091166004820152602490fd5b6001141561228a565b9190826040910312610241576020825192015190565b60a06060610e539360208452600180841b0380825116602086015260208201511660408501526040810151828501520151916080808201520190611b6a565b81604051928392833781016000815203902090565b6001600160a01b03168061233957504790565b6020602491604051928380926370a0823160e01b82523060048301525afa9081156106f957600091612369575090565b610e53915060203d81116106f2576106e28183610cd4565b1561238857565b60405162461bcd60e51b815260206004820152602560248201527f417262697472616765456e67696e653a20496e73756666696369656e742070726044820152646f6669747360d81b6064820152608490fd5b600654801561243457600019810190808210156113fc577ff652222313e28459528d920b65115c16c04f3efc82aaedc97be59f3f377c0d3e906006600052016bffffffffffffffffffffffff60a01b8154169055600655565b634e487b7160e01b600052603160045260246000fd5b908160209103126102415751610e5381610e24565b600654600093928492600019845b84811061247c57505050505050565b612488610921826113c5565b604080516308c9682b60e31b81526001600160a01b038681166004808401919091526020939291851691908482602481865afa9384156106f9578a948a938e916125d8575b508061256f575b6124ee575b505050505050506124e990611bd7565b61246d565b5163b02c67fd60e01b81526001600160a01b03909216908201908152602081019390935291839183918290819060400103915afa9182156106f9578992612552575b5050838110612544575b85818681806124d9565b90985091506124e93861253a565b6125689250803d106106f2576106e28183610cd4565b3880612530565b5080516304cdc57b60e31b81526001600160a01b038b168184019081529095509092508590859081906020010381865afa9182156106f9578a8a9381968f916125bb575b5010156124d4565b6125d29150883d8a116106f2576106e28183610cd4565b386125b3565b6125f89150873d89116125fe575b6125f08183610cd4565b81019061244a565b386124cd565b503d6125e6565b606090602081511015612616575090565b6020915001519056fe1b6847dc741a1b0cd08d278845f9d819d87b734759afb55fe2de5cb82a9ae672a26469706673582212205149587b51b7da4a346bb4a09f8d030d5ee07a4d827eaca1ef8d208b868156f764736f6c63430008140033",
  "linkReferences": {},
  "deployedLinkReferences": {}
}